{
	"deps/proje/store.sol": {
		"Store": {
			"abi": [
				{
					"inputs": [
						{
							"internalType": "string",
							"name": "_zipCode",
							"type": "string"
						},
						{
							"internalType": "uint256[]",
							"name": "_products",
							"type": "uint256[]"
						}
					],
					"name": "createOrder",
					"outputs": [
						{
							"internalType": "uint256",
							"name": "",
							"type": "uint256"
						}
					],
					"stateMutability": "nonpayable",
					"type": "function"
				},
				{
					"inputs": [
						{
							"internalType": "uint256",
							"name": "",
							"type": "uint256"
						}
					],
					"name": "orders",
					"outputs": [
						{
							"internalType": "address",
							"name": "customer",
							"type": "address"
						},
						{
							"internalType": "string",
							"name": "zipCode",
							"type": "string"
						},
						{
							"internalType": "enum Store.Status",
							"name": "status",
							"type": "uint8"
						}
					],
					"stateMutability": "view",
					"type": "function"
				}
			],
			"devdoc": {
				"kind": "dev",
				"methods": {},
				"version": 1
			},
			"evm": {
				"assembly": "    /* \"deps/proje/store.sol\":60:1064  contract Store{\r... */\n  mstore(0x40, 0x80)\n  callvalue\n  dup1\n  iszero\n  tag_1\n  jumpi\n  0x00\n  dup1\n  revert\ntag_1:\n  pop\n  dataSize(sub_0)\n  dup1\n  dataOffset(sub_0)\n  0x00\n  codecopy\n  0x00\n  return\nstop\n\nsub_0: assembly {\n        /* \"deps/proje/store.sol\":60:1064  contract Store{\r... */\n      mstore(0x40, 0x80)\n      callvalue\n      dup1\n      iszero\n      tag_1\n      jumpi\n      0x00\n      dup1\n      revert\n    tag_1:\n      pop\n      jumpi(tag_2, lt(calldatasize, 0x04))\n      shr(0xe0, calldataload(0x00))\n      dup1\n      0x6d9a65d8\n      eq\n      tag_3\n      jumpi\n      dup1\n      0xa85c38ef\n      eq\n      tag_4\n      jumpi\n    tag_2:\n      0x00\n      dup1\n      revert\n        /* \"deps/proje/store.sol\":500:1060  function createOrder(string memory _zipCode, uint256[] memory _products ) public returns (uint256 ){\r... */\n    tag_3:\n      tag_5\n      0x04\n      dup1\n      calldatasize\n      sub\n      dup2\n      add\n      swap1\n      tag_6\n      swap2\n      swap1\n      tag_7\n      jump\t// in\n    tag_6:\n      tag_8\n      jump\t// in\n    tag_5:\n      mload(0x40)\n      tag_9\n      swap2\n      swap1\n      tag_10\n      jump\t// in\n    tag_9:\n      mload(0x40)\n      dup1\n      swap2\n      sub\n      swap1\n      return\n        /* \"deps/proje/store.sol\":431:452  Order[] public orders */\n    tag_4:\n      tag_11\n      0x04\n      dup1\n      calldatasize\n      sub\n      dup2\n      add\n      swap1\n      tag_12\n      swap2\n      swap1\n      tag_13\n      jump\t// in\n    tag_12:\n      tag_14\n      jump\t// in\n    tag_11:\n      mload(0x40)\n      tag_15\n      swap4\n      swap3\n      swap2\n      swap1\n      tag_16\n      jump\t// in\n    tag_15:\n      mload(0x40)\n      dup1\n      swap2\n      sub\n      swap1\n      return\n        /* \"deps/proje/store.sol\":500:1060  function createOrder(string memory _zipCode, uint256[] memory _products ) public returns (uint256 ){\r... */\n    tag_8:\n        /* \"deps/proje/store.sol\":590:597  uint256 */\n      0x00\n        /* \"deps/proje/store.sol\":637:638  0 */\n      dup1\n        /* \"deps/proje/store.sol\":618:627  _products */\n      dup3\n        /* \"deps/proje/store.sol\":618:634  _products.length */\n      mload\n        /* \"deps/proje/store.sol\":618:638  _products.length > 0 */\n      gt\n        /* \"deps/proje/store.sol\":610:656  require(_products.length > 0 ,\" not products\") */\n      tag_18\n      jumpi\n      mload(0x40)\n      0x08c379a000000000000000000000000000000000000000000000000000000000\n      dup2\n      mstore\n      0x04\n      add\n      tag_19\n      swap1\n      tag_20\n      jump\t// in\n    tag_19:\n      mload(0x40)\n      dup1\n      swap2\n      sub\n      swap1\n      revert\n    tag_18:\n        /* \"deps/proje/store.sol\":670:688  Order memory order */\n      tag_21\n      tag_22\n      jump\t// in\n    tag_21:\n        /* \"deps/proje/store.sol\":751:761  msg.sender */\n      caller\n        /* \"deps/proje/store.sol\":734:739  order */\n      dup2\n        /* \"deps/proje/store.sol\":734:748  order.customer */\n      0x00\n      add\n        /* \"deps/proje/store.sol\":734:761  order.customer = msg.sender */\n      swap1\n      0xffffffffffffffffffffffffffffffffffffffff\n      and\n      swap1\n      dup2\n      0xffffffffffffffffffffffffffffffffffffffff\n      and\n      dup2\n      mstore\n      pop\n      pop\n        /* \"deps/proje/store.sol\":817:825  _zipCode */\n      dup4\n        /* \"deps/proje/store.sol\":801:806  order */\n      dup2\n        /* \"deps/proje/store.sol\":801:814  order.zipCode */\n      0x20\n      add\n        /* \"deps/proje/store.sol\":801:825  order.zipCode = _zipCode */\n      dup2\n      swap1\n      mstore\n      pop\n        /* \"deps/proje/store.sol\":854:863  _products */\n      dup3\n        /* \"deps/proje/store.sol\":837:842  order */\n      dup2\n        /* \"deps/proje/store.sol\":837:851  order.products */\n      0x40\n      add\n        /* \"deps/proje/store.sol\":837:863  order.products = _products */\n      dup2\n      swap1\n      mstore\n      pop\n        /* \"deps/proje/store.sol\":891:903  Status.Taken */\n      0x00\n        /* \"deps/proje/store.sol\":876:881  order */\n      dup2\n        /* \"deps/proje/store.sol\":876:888  order.status */\n      0x60\n      add\n        /* \"deps/proje/store.sol\":876:903  order.status = Status.Taken */\n      swap1\n      0x03\n      dup2\n      gt\n      iszero\n      tag_23\n      jumpi\n      tag_24\n      tag_25\n      jump\t// in\n    tag_24:\n    tag_23:\n      swap1\n      dup2\n      0x03\n      dup2\n      gt\n      iszero\n      tag_26\n      jumpi\n      tag_27\n      tag_25\n      jump\t// in\n    tag_27:\n    tag_26:\n      dup2\n      mstore\n      pop\n      pop\n        /* \"deps/proje/store.sol\":995:1001  orders */\n      0x00\n        /* \"deps/proje/store.sol\":1007:1012  order */\n      dup2\n        /* \"deps/proje/store.sol\":995:1013  orders.push(order) */\n      swap1\n      dup1\n      0x01\n      dup2\n      sload\n      add\n      dup1\n      dup3\n      sstore\n      dup1\n      swap2\n      pop\n      pop\n      0x01\n      swap1\n      sub\n      swap1\n      0x00\n      mstore\n      keccak256(0x00, 0x20)\n      swap1\n      0x04\n      mul\n      add\n      0x00\n      swap1\n      swap2\n      swap1\n      swap2\n      swap1\n      swap2\n      pop\n      0x00\n      dup3\n      add\n      mload\n      dup2\n      0x00\n      add\n      exp(0x0100, 0x00)\n      dup2\n      sload\n      dup2\n      0xffffffffffffffffffffffffffffffffffffffff\n      mul\n      not\n      and\n      swap1\n      dup4\n      0xffffffffffffffffffffffffffffffffffffffff\n      and\n      mul\n      or\n      swap1\n      sstore\n      pop\n      0x20\n      dup3\n      add\n      mload\n      dup2\n      0x01\n      add\n      swap1\n      dup1\n      mload\n      swap1\n      0x20\n      add\n      swap1\n      tag_29\n      swap3\n      swap2\n      swap1\n      tag_30\n      jump\t// in\n    tag_29:\n      pop\n      0x40\n      dup3\n      add\n      mload\n      dup2\n      0x02\n      add\n      swap1\n      dup1\n      mload\n      swap1\n      0x20\n      add\n      swap1\n      tag_31\n      swap3\n      swap2\n      swap1\n      tag_32\n      jump\t// in\n    tag_31:\n      pop\n      0x60\n      dup3\n      add\n      mload\n      dup2\n      0x03\n      add\n      exp(0x0100, 0x00)\n      dup2\n      sload\n      dup2\n      0xff\n      mul\n      not\n      and\n      swap1\n      dup4\n      0x03\n      dup2\n      gt\n      iszero\n      tag_33\n      jumpi\n      tag_34\n      tag_25\n      jump\t// in\n    tag_34:\n    tag_33:\n      mul\n      or\n      swap1\n      sstore\n      pop\n      pop\n      pop\n        /* \"deps/proje/store.sol\":1049:1050  1 */\n      0x01\n        /* \"deps/proje/store.sol\":1033:1039  orders */\n      0x00\n        /* \"deps/proje/store.sol\":1033:1046  orders.length */\n      dup1\n      sload\n      swap1\n      pop\n        /* \"deps/proje/store.sol\":1033:1050  orders.length - 1 */\n      tag_35\n      swap2\n      swap1\n      tag_36\n      jump\t// in\n    tag_35:\n        /* \"deps/proje/store.sol\":1026:1050  return orders.length - 1 */\n      swap2\n      pop\n      pop\n        /* \"deps/proje/store.sol\":500:1060  function createOrder(string memory _zipCode, uint256[] memory _products ) public returns (uint256 ){\r... */\n      swap3\n      swap2\n      pop\n      pop\n      jump\t// out\n        /* \"deps/proje/store.sol\":431:452  Order[] public orders */\n    tag_14:\n      0x00\n      dup2\n      dup2\n      sload\n      dup2\n      lt\n      tag_37\n      jumpi\n      0x00\n      dup1\n      revert\n    tag_37:\n      swap1\n      0x00\n      mstore\n      keccak256(0x00, 0x20)\n      swap1\n      0x04\n      mul\n      add\n      0x00\n      swap2\n      pop\n      swap1\n      pop\n      dup1\n      0x00\n      add\n      0x00\n      swap1\n      sload\n      swap1\n      0x0100\n      exp\n      swap1\n      div\n      0xffffffffffffffffffffffffffffffffffffffff\n      and\n      swap1\n      dup1\n      0x01\n      add\n      dup1\n      sload\n      tag_39\n      swap1\n      tag_40\n      jump\t// in\n    tag_39:\n      dup1\n      0x1f\n      add\n      0x20\n      dup1\n      swap2\n      div\n      mul\n      0x20\n      add\n      mload(0x40)\n      swap1\n      dup2\n      add\n      0x40\n      mstore\n      dup1\n      swap3\n      swap2\n      swap1\n      dup2\n      dup2\n      mstore\n      0x20\n      add\n      dup3\n      dup1\n      sload\n      tag_41\n      swap1\n      tag_40\n      jump\t// in\n    tag_41:\n      dup1\n      iszero\n      tag_42\n      jumpi\n      dup1\n      0x1f\n      lt\n      tag_43\n      jumpi\n      0x0100\n      dup1\n      dup4\n      sload\n      div\n      mul\n      dup4\n      mstore\n      swap2\n      0x20\n      add\n      swap2\n      jump(tag_42)\n    tag_43:\n      dup3\n      add\n      swap2\n      swap1\n      0x00\n      mstore\n      keccak256(0x00, 0x20)\n      swap1\n    tag_44:\n      dup2\n      sload\n      dup2\n      mstore\n      swap1\n      0x01\n      add\n      swap1\n      0x20\n      add\n      dup1\n      dup4\n      gt\n      tag_44\n      jumpi\n      dup3\n      swap1\n      sub\n      0x1f\n      and\n      dup3\n      add\n      swap2\n    tag_42:\n      pop\n      pop\n      pop\n      pop\n      pop\n      swap1\n      dup1\n      0x03\n      add\n      0x00\n      swap1\n      sload\n      swap1\n      0x0100\n      exp\n      swap1\n      div\n      0xff\n      and\n      swap1\n      pop\n      dup4\n      jump\t// out\n    tag_22:\n      mload(0x40)\n      dup1\n      0x80\n      add\n      0x40\n      mstore\n      dup1\n      and(0xffffffffffffffffffffffffffffffffffffffff, 0x00)\n      dup2\n      mstore\n      0x20\n      add\n      0x60\n      dup2\n      mstore\n      0x20\n      add\n      0x60\n      dup2\n      mstore\n      0x20\n      add\n      0x00\n      0x03\n      dup2\n      gt\n      iszero\n      tag_45\n      jumpi\n      tag_46\n      tag_25\n      jump\t// in\n    tag_46:\n    tag_45:\n      dup2\n      mstore\n      pop\n      swap1\n      jump\t// out\n    tag_30:\n      dup3\n      dup1\n      sload\n      tag_47\n      swap1\n      tag_40\n      jump\t// in\n    tag_47:\n      swap1\n      0x00\n      mstore\n      keccak256(0x00, 0x20)\n      swap1\n      0x1f\n      add\n      0x20\n      swap1\n      div\n      dup2\n      add\n      swap3\n      dup3\n      tag_49\n      jumpi\n      0x00\n      dup6\n      sstore\n      jump(tag_48)\n    tag_49:\n      dup3\n      0x1f\n      lt\n      tag_50\n      jumpi\n      dup1\n      mload\n      not(0xff)\n      and\n      dup4\n      dup1\n      add\n      or\n      dup6\n      sstore\n      jump(tag_48)\n    tag_50:\n      dup3\n      dup1\n      add\n      0x01\n      add\n      dup6\n      sstore\n      dup3\n      iszero\n      tag_48\n      jumpi\n      swap2\n      dup3\n      add\n    tag_51:\n      dup3\n      dup2\n      gt\n      iszero\n      tag_52\n      jumpi\n      dup3\n      mload\n      dup3\n      sstore\n      swap2\n      0x20\n      add\n      swap2\n      swap1\n      0x01\n      add\n      swap1\n      jump(tag_51)\n    tag_52:\n    tag_48:\n      pop\n      swap1\n      pop\n      tag_53\n      swap2\n      swap1\n      tag_54\n      jump\t// in\n    tag_53:\n      pop\n      swap1\n      jump\t// out\n    tag_32:\n      dup3\n      dup1\n      sload\n      dup3\n      dup3\n      sstore\n      swap1\n      0x00\n      mstore\n      keccak256(0x00, 0x20)\n      swap1\n      dup2\n      add\n      swap3\n      dup3\n      iszero\n      tag_55\n      jumpi\n      swap2\n      0x20\n      mul\n      dup3\n      add\n    tag_56:\n      dup3\n      dup2\n      gt\n      iszero\n      tag_57\n      jumpi\n      dup3\n      mload\n      dup3\n      sstore\n      swap2\n      0x20\n      add\n      swap2\n      swap1\n      0x01\n      add\n      swap1\n      jump(tag_56)\n    tag_57:\n    tag_55:\n      pop\n      swap1\n      pop\n      tag_58\n      swap2\n      swap1\n      tag_54\n      jump\t// in\n    tag_58:\n      pop\n      swap1\n      jump\t// out\n    tag_54:\n    tag_59:\n      dup1\n      dup3\n      gt\n      iszero\n      tag_60\n      jumpi\n      0x00\n      dup2\n      0x00\n      swap1\n      sstore\n      pop\n      0x01\n      add\n      jump(tag_59)\n    tag_60:\n      pop\n      swap1\n      jump\t// out\n        /* \"#utility.yul\":24:746   */\n    tag_62:\n        /* \"#utility.yul\":120:125   */\n      0x00\n        /* \"#utility.yul\":145:226   */\n      tag_64\n        /* \"#utility.yul\":161:225   */\n      tag_65\n        /* \"#utility.yul\":218:224   */\n      dup5\n        /* \"#utility.yul\":161:225   */\n      tag_66\n      jump\t// in\n    tag_65:\n        /* \"#utility.yul\":145:226   */\n      tag_67\n      jump\t// in\n    tag_64:\n        /* \"#utility.yul\":136:226   */\n      swap1\n      pop\n        /* \"#utility.yul\":246:251   */\n      dup1\n        /* \"#utility.yul\":275:281   */\n      dup4\n        /* \"#utility.yul\":268:273   */\n      dup3\n        /* \"#utility.yul\":261:282   */\n      mstore\n        /* \"#utility.yul\":309:313   */\n      0x20\n        /* \"#utility.yul\":302:307   */\n      dup3\n        /* \"#utility.yul\":298:314   */\n      add\n        /* \"#utility.yul\":291:314   */\n      swap1\n      pop\n        /* \"#utility.yul\":335:341   */\n      dup3\n        /* \"#utility.yul\":385:388   */\n      dup6\n        /* \"#utility.yul\":377:381   */\n      0x20\n        /* \"#utility.yul\":369:375   */\n      dup7\n        /* \"#utility.yul\":365:382   */\n      mul\n        /* \"#utility.yul\":360:363   */\n      dup3\n        /* \"#utility.yul\":356:383   */\n      add\n        /* \"#utility.yul\":353:389   */\n      gt\n        /* \"#utility.yul\":350:493   */\n      iszero\n      tag_68\n      jumpi\n        /* \"#utility.yul\":404:483   */\n      tag_69\n      tag_70\n      jump\t// in\n    tag_69:\n        /* \"#utility.yul\":350:493   */\n    tag_68:\n        /* \"#utility.yul\":517:518   */\n      0x00\n        /* \"#utility.yul\":502:740   */\n    tag_71:\n        /* \"#utility.yul\":527:533   */\n      dup6\n        /* \"#utility.yul\":524:525   */\n      dup2\n        /* \"#utility.yul\":521:534   */\n      lt\n        /* \"#utility.yul\":502:740   */\n      iszero\n      tag_73\n      jumpi\n        /* \"#utility.yul\":595:598   */\n      dup2\n        /* \"#utility.yul\":624:661   */\n      tag_74\n        /* \"#utility.yul\":657:660   */\n      dup9\n        /* \"#utility.yul\":645:655   */\n      dup3\n        /* \"#utility.yul\":624:661   */\n      tag_75\n      jump\t// in\n    tag_74:\n        /* \"#utility.yul\":619:622   */\n      dup5\n        /* \"#utility.yul\":612:662   */\n      mstore\n        /* \"#utility.yul\":691:695   */\n      0x20\n        /* \"#utility.yul\":686:689   */\n      dup5\n        /* \"#utility.yul\":682:696   */\n      add\n        /* \"#utility.yul\":675:696   */\n      swap4\n      pop\n        /* \"#utility.yul\":725:729   */\n      0x20\n        /* \"#utility.yul\":720:723   */\n      dup4\n        /* \"#utility.yul\":716:730   */\n      add\n        /* \"#utility.yul\":709:730   */\n      swap3\n      pop\n        /* \"#utility.yul\":562:740   */\n      pop\n        /* \"#utility.yul\":549:550   */\n      0x01\n        /* \"#utility.yul\":546:547   */\n      dup2\n        /* \"#utility.yul\":542:551   */\n      add\n        /* \"#utility.yul\":537:551   */\n      swap1\n      pop\n        /* \"#utility.yul\":502:740   */\n      jump(tag_71)\n    tag_73:\n        /* \"#utility.yul\":506:520   */\n      pop\n        /* \"#utility.yul\":126:746   */\n      pop\n      pop\n        /* \"#utility.yul\":24:746   */\n      swap4\n      swap3\n      pop\n      pop\n      pop\n      jump\t// out\n        /* \"#utility.yul\":752:1164   */\n    tag_76:\n        /* \"#utility.yul\":830:835   */\n      0x00\n        /* \"#utility.yul\":855:921   */\n      tag_78\n        /* \"#utility.yul\":871:920   */\n      tag_79\n        /* \"#utility.yul\":913:919   */\n      dup5\n        /* \"#utility.yul\":871:920   */\n      tag_80\n      jump\t// in\n    tag_79:\n        /* \"#utility.yul\":855:921   */\n      tag_67\n      jump\t// in\n    tag_78:\n        /* \"#utility.yul\":846:921   */\n      swap1\n      pop\n        /* \"#utility.yul\":944:950   */\n      dup3\n        /* \"#utility.yul\":937:942   */\n      dup2\n        /* \"#utility.yul\":930:951   */\n      mstore\n        /* \"#utility.yul\":982:986   */\n      0x20\n        /* \"#utility.yul\":975:980   */\n      dup2\n        /* \"#utility.yul\":971:987   */\n      add\n        /* \"#utility.yul\":1020:1023   */\n      dup5\n        /* \"#utility.yul\":1011:1017   */\n      dup5\n        /* \"#utility.yul\":1006:1009   */\n      dup5\n        /* \"#utility.yul\":1002:1018   */\n      add\n        /* \"#utility.yul\":999:1024   */\n      gt\n        /* \"#utility.yul\":996:1108   */\n      iszero\n      tag_81\n      jumpi\n        /* \"#utility.yul\":1027:1106   */\n      tag_82\n      tag_83\n      jump\t// in\n    tag_82:\n        /* \"#utility.yul\":996:1108   */\n    tag_81:\n        /* \"#utility.yul\":1117:1158   */\n      tag_84\n        /* \"#utility.yul\":1151:1157   */\n      dup5\n        /* \"#utility.yul\":1146:1149   */\n      dup3\n        /* \"#utility.yul\":1141:1144   */\n      dup6\n        /* \"#utility.yul\":1117:1158   */\n      tag_85\n      jump\t// in\n    tag_84:\n        /* \"#utility.yul\":836:1164   */\n      pop\n        /* \"#utility.yul\":752:1164   */\n      swap4\n      swap3\n      pop\n      pop\n      pop\n      jump\t// out\n        /* \"#utility.yul\":1187:1557   */\n    tag_86:\n        /* \"#utility.yul\":1258:1263   */\n      0x00\n        /* \"#utility.yul\":1307:1310   */\n      dup3\n        /* \"#utility.yul\":1300:1304   */\n      0x1f\n        /* \"#utility.yul\":1292:1298   */\n      dup4\n        /* \"#utility.yul\":1288:1305   */\n      add\n        /* \"#utility.yul\":1284:1311   */\n      slt\n        /* \"#utility.yul\":1274:1396   */\n      tag_88\n      jumpi\n        /* \"#utility.yul\":1315:1394   */\n      tag_89\n      tag_90\n      jump\t// in\n    tag_89:\n        /* \"#utility.yul\":1274:1396   */\n    tag_88:\n        /* \"#utility.yul\":1432:1438   */\n      dup2\n        /* \"#utility.yul\":1419:1439   */\n      calldataload\n        /* \"#utility.yul\":1457:1551   */\n      tag_91\n        /* \"#utility.yul\":1547:1550   */\n      dup5\n        /* \"#utility.yul\":1539:1545   */\n      dup3\n        /* \"#utility.yul\":1532:1536   */\n      0x20\n        /* \"#utility.yul\":1524:1530   */\n      dup7\n        /* \"#utility.yul\":1520:1537   */\n      add\n        /* \"#utility.yul\":1457:1551   */\n      tag_62\n      jump\t// in\n    tag_91:\n        /* \"#utility.yul\":1448:1551   */\n      swap2\n      pop\n        /* \"#utility.yul\":1264:1557   */\n      pop\n        /* \"#utility.yul\":1187:1557   */\n      swap3\n      swap2\n      pop\n      pop\n      jump\t// out\n        /* \"#utility.yul\":1577:1917   */\n    tag_92:\n        /* \"#utility.yul\":1633:1638   */\n      0x00\n        /* \"#utility.yul\":1682:1685   */\n      dup3\n        /* \"#utility.yul\":1675:1679   */\n      0x1f\n        /* \"#utility.yul\":1667:1673   */\n      dup4\n        /* \"#utility.yul\":1663:1680   */\n      add\n        /* \"#utility.yul\":1659:1686   */\n      slt\n        /* \"#utility.yul\":1649:1771   */\n      tag_94\n      jumpi\n        /* \"#utility.yul\":1690:1769   */\n      tag_95\n      tag_90\n      jump\t// in\n    tag_95:\n        /* \"#utility.yul\":1649:1771   */\n    tag_94:\n        /* \"#utility.yul\":1807:1813   */\n      dup2\n        /* \"#utility.yul\":1794:1814   */\n      calldataload\n        /* \"#utility.yul\":1832:1911   */\n      tag_96\n        /* \"#utility.yul\":1907:1910   */\n      dup5\n        /* \"#utility.yul\":1899:1905   */\n      dup3\n        /* \"#utility.yul\":1892:1896   */\n      0x20\n        /* \"#utility.yul\":1884:1890   */\n      dup7\n        /* \"#utility.yul\":1880:1897   */\n      add\n        /* \"#utility.yul\":1832:1911   */\n      tag_76\n      jump\t// in\n    tag_96:\n        /* \"#utility.yul\":1823:1911   */\n      swap2\n      pop\n        /* \"#utility.yul\":1639:1917   */\n      pop\n        /* \"#utility.yul\":1577:1917   */\n      swap3\n      swap2\n      pop\n      pop\n      jump\t// out\n        /* \"#utility.yul\":1923:2062   */\n    tag_75:\n        /* \"#utility.yul\":1969:1974   */\n      0x00\n        /* \"#utility.yul\":2007:2013   */\n      dup2\n        /* \"#utility.yul\":1994:2014   */\n      calldataload\n        /* \"#utility.yul\":1985:2014   */\n      swap1\n      pop\n        /* \"#utility.yul\":2023:2056   */\n      tag_98\n        /* \"#utility.yul\":2050:2055   */\n      dup2\n        /* \"#utility.yul\":2023:2056   */\n      tag_99\n      jump\t// in\n    tag_98:\n        /* \"#utility.yul\":1923:2062   */\n      swap3\n      swap2\n      pop\n      pop\n      jump\t// out\n        /* \"#utility.yul\":2068:2932   */\n    tag_7:\n        /* \"#utility.yul\":2171:2177   */\n      0x00\n        /* \"#utility.yul\":2179:2185   */\n      dup1\n        /* \"#utility.yul\":2228:2230   */\n      0x40\n        /* \"#utility.yul\":2216:2225   */\n      dup4\n        /* \"#utility.yul\":2207:2214   */\n      dup6\n        /* \"#utility.yul\":2203:2226   */\n      sub\n        /* \"#utility.yul\":2199:2231   */\n      slt\n        /* \"#utility.yul\":2196:2315   */\n      iszero\n      tag_101\n      jumpi\n        /* \"#utility.yul\":2234:2313   */\n      tag_102\n      tag_103\n      jump\t// in\n    tag_102:\n        /* \"#utility.yul\":2196:2315   */\n    tag_101:\n        /* \"#utility.yul\":2382:2383   */\n      0x00\n        /* \"#utility.yul\":2371:2380   */\n      dup4\n        /* \"#utility.yul\":2367:2384   */\n      add\n        /* \"#utility.yul\":2354:2385   */\n      calldataload\n        /* \"#utility.yul\":2412:2430   */\n      0xffffffffffffffff\n        /* \"#utility.yul\":2404:2410   */\n      dup2\n        /* \"#utility.yul\":2401:2431   */\n      gt\n        /* \"#utility.yul\":2398:2515   */\n      iszero\n      tag_104\n      jumpi\n        /* \"#utility.yul\":2434:2513   */\n      tag_105\n      tag_106\n      jump\t// in\n    tag_105:\n        /* \"#utility.yul\":2398:2515   */\n    tag_104:\n        /* \"#utility.yul\":2539:2602   */\n      tag_107\n        /* \"#utility.yul\":2594:2601   */\n      dup6\n        /* \"#utility.yul\":2585:2591   */\n      dup3\n        /* \"#utility.yul\":2574:2583   */\n      dup7\n        /* \"#utility.yul\":2570:2592   */\n      add\n        /* \"#utility.yul\":2539:2602   */\n      tag_92\n      jump\t// in\n    tag_107:\n        /* \"#utility.yul\":2529:2602   */\n      swap3\n      pop\n        /* \"#utility.yul\":2325:2612   */\n      pop\n        /* \"#utility.yul\":2679:2681   */\n      0x20\n        /* \"#utility.yul\":2668:2677   */\n      dup4\n        /* \"#utility.yul\":2664:2682   */\n      add\n        /* \"#utility.yul\":2651:2683   */\n      calldataload\n        /* \"#utility.yul\":2710:2728   */\n      0xffffffffffffffff\n        /* \"#utility.yul\":2702:2708   */\n      dup2\n        /* \"#utility.yul\":2699:2729   */\n      gt\n        /* \"#utility.yul\":2696:2813   */\n      iszero\n      tag_108\n      jumpi\n        /* \"#utility.yul\":2732:2811   */\n      tag_109\n      tag_106\n      jump\t// in\n    tag_109:\n        /* \"#utility.yul\":2696:2813   */\n    tag_108:\n        /* \"#utility.yul\":2837:2915   */\n      tag_110\n        /* \"#utility.yul\":2907:2914   */\n      dup6\n        /* \"#utility.yul\":2898:2904   */\n      dup3\n        /* \"#utility.yul\":2887:2896   */\n      dup7\n        /* \"#utility.yul\":2883:2905   */\n      add\n        /* \"#utility.yul\":2837:2915   */\n      tag_86\n      jump\t// in\n    tag_110:\n        /* \"#utility.yul\":2827:2915   */\n      swap2\n      pop\n        /* \"#utility.yul\":2622:2925   */\n      pop\n        /* \"#utility.yul\":2068:2932   */\n      swap3\n      pop\n      swap3\n      swap1\n      pop\n      jump\t// out\n        /* \"#utility.yul\":2938:3267   */\n    tag_13:\n        /* \"#utility.yul\":2997:3003   */\n      0x00\n        /* \"#utility.yul\":3046:3048   */\n      0x20\n        /* \"#utility.yul\":3034:3043   */\n      dup3\n        /* \"#utility.yul\":3025:3032   */\n      dup5\n        /* \"#utility.yul\":3021:3044   */\n      sub\n        /* \"#utility.yul\":3017:3049   */\n      slt\n        /* \"#utility.yul\":3014:3133   */\n      iszero\n      tag_112\n      jumpi\n        /* \"#utility.yul\":3052:3131   */\n      tag_113\n      tag_103\n      jump\t// in\n    tag_113:\n        /* \"#utility.yul\":3014:3133   */\n    tag_112:\n        /* \"#utility.yul\":3172:3173   */\n      0x00\n        /* \"#utility.yul\":3197:3250   */\n      tag_114\n        /* \"#utility.yul\":3242:3249   */\n      dup5\n        /* \"#utility.yul\":3233:3239   */\n      dup3\n        /* \"#utility.yul\":3222:3231   */\n      dup6\n        /* \"#utility.yul\":3218:3240   */\n      add\n        /* \"#utility.yul\":3197:3250   */\n      tag_75\n      jump\t// in\n    tag_114:\n        /* \"#utility.yul\":3187:3250   */\n      swap2\n      pop\n        /* \"#utility.yul\":3143:3260   */\n      pop\n        /* \"#utility.yul\":2938:3267   */\n      swap3\n      swap2\n      pop\n      pop\n      jump\t// out\n        /* \"#utility.yul\":3273:3391   */\n    tag_115:\n        /* \"#utility.yul\":3360:3384   */\n      tag_117\n        /* \"#utility.yul\":3378:3383   */\n      dup2\n        /* \"#utility.yul\":3360:3384   */\n      tag_118\n      jump\t// in\n    tag_117:\n        /* \"#utility.yul\":3355:3358   */\n      dup3\n        /* \"#utility.yul\":3348:3385   */\n      mstore\n        /* \"#utility.yul\":3273:3391   */\n      pop\n      pop\n      jump\t// out\n        /* \"#utility.yul\":3397:3540   */\n    tag_119:\n        /* \"#utility.yul\":3490:3533   */\n      tag_121\n        /* \"#utility.yul\":3527:3532   */\n      dup2\n        /* \"#utility.yul\":3490:3533   */\n      tag_122\n      jump\t// in\n    tag_121:\n        /* \"#utility.yul\":3485:3488   */\n      dup3\n        /* \"#utility.yul\":3478:3534   */\n      mstore\n        /* \"#utility.yul\":3397:3540   */\n      pop\n      pop\n      jump\t// out\n        /* \"#utility.yul\":3546:3910   */\n    tag_123:\n        /* \"#utility.yul\":3634:3637   */\n      0x00\n        /* \"#utility.yul\":3662:3701   */\n      tag_125\n        /* \"#utility.yul\":3695:3700   */\n      dup3\n        /* \"#utility.yul\":3662:3701   */\n      tag_126\n      jump\t// in\n    tag_125:\n        /* \"#utility.yul\":3717:3788   */\n      tag_127\n        /* \"#utility.yul\":3781:3787   */\n      dup2\n        /* \"#utility.yul\":3776:3779   */\n      dup6\n        /* \"#utility.yul\":3717:3788   */\n      tag_128\n      jump\t// in\n    tag_127:\n        /* \"#utility.yul\":3710:3788   */\n      swap4\n      pop\n        /* \"#utility.yul\":3797:3849   */\n      tag_129\n        /* \"#utility.yul\":3842:3848   */\n      dup2\n        /* \"#utility.yul\":3837:3840   */\n      dup6\n        /* \"#utility.yul\":3830:3834   */\n      0x20\n        /* \"#utility.yul\":3823:3828   */\n      dup7\n        /* \"#utility.yul\":3819:3835   */\n      add\n        /* \"#utility.yul\":3797:3849   */\n      tag_130\n      jump\t// in\n    tag_129:\n        /* \"#utility.yul\":3874:3903   */\n      tag_131\n        /* \"#utility.yul\":3896:3902   */\n      dup2\n        /* \"#utility.yul\":3874:3903   */\n      tag_132\n      jump\t// in\n    tag_131:\n        /* \"#utility.yul\":3869:3872   */\n      dup5\n        /* \"#utility.yul\":3865:3904   */\n      add\n        /* \"#utility.yul\":3858:3904   */\n      swap2\n      pop\n        /* \"#utility.yul\":3638:3910   */\n      pop\n        /* \"#utility.yul\":3546:3910   */\n      swap3\n      swap2\n      pop\n      pop\n      jump\t// out\n        /* \"#utility.yul\":3916:4282   */\n    tag_133:\n        /* \"#utility.yul\":4058:4061   */\n      0x00\n        /* \"#utility.yul\":4079:4146   */\n      tag_135\n        /* \"#utility.yul\":4143:4145   */\n      0x0d\n        /* \"#utility.yul\":4138:4141   */\n      dup4\n        /* \"#utility.yul\":4079:4146   */\n      tag_128\n      jump\t// in\n    tag_135:\n        /* \"#utility.yul\":4072:4146   */\n      swap2\n      pop\n        /* \"#utility.yul\":4155:4248   */\n      tag_136\n        /* \"#utility.yul\":4244:4247   */\n      dup3\n        /* \"#utility.yul\":4155:4248   */\n      tag_137\n      jump\t// in\n    tag_136:\n        /* \"#utility.yul\":4273:4275   */\n      0x20\n        /* \"#utility.yul\":4268:4271   */\n      dup3\n        /* \"#utility.yul\":4264:4276   */\n      add\n        /* \"#utility.yul\":4257:4276   */\n      swap1\n      pop\n        /* \"#utility.yul\":3916:4282   */\n      swap2\n      swap1\n      pop\n      jump\t// out\n        /* \"#utility.yul\":4288:4406   */\n    tag_138:\n        /* \"#utility.yul\":4375:4399   */\n      tag_140\n        /* \"#utility.yul\":4393:4398   */\n      dup2\n        /* \"#utility.yul\":4375:4399   */\n      tag_141\n      jump\t// in\n    tag_140:\n        /* \"#utility.yul\":4370:4373   */\n      dup3\n        /* \"#utility.yul\":4363:4400   */\n      mstore\n        /* \"#utility.yul\":4288:4406   */\n      pop\n      pop\n      jump\t// out\n        /* \"#utility.yul\":4412:4957   */\n    tag_16:\n        /* \"#utility.yul\":4587:4591   */\n      0x00\n        /* \"#utility.yul\":4625:4627   */\n      0x60\n        /* \"#utility.yul\":4614:4623   */\n      dup3\n        /* \"#utility.yul\":4610:4628   */\n      add\n        /* \"#utility.yul\":4602:4628   */\n      swap1\n      pop\n        /* \"#utility.yul\":4638:4709   */\n      tag_143\n        /* \"#utility.yul\":4706:4707   */\n      0x00\n        /* \"#utility.yul\":4695:4704   */\n      dup4\n        /* \"#utility.yul\":4691:4708   */\n      add\n        /* \"#utility.yul\":4682:4688   */\n      dup7\n        /* \"#utility.yul\":4638:4709   */\n      tag_115\n      jump\t// in\n    tag_143:\n        /* \"#utility.yul\":4756:4765   */\n      dup2\n        /* \"#utility.yul\":4750:4754   */\n      dup2\n        /* \"#utility.yul\":4746:4766   */\n      sub\n        /* \"#utility.yul\":4741:4743   */\n      0x20\n        /* \"#utility.yul\":4730:4739   */\n      dup4\n        /* \"#utility.yul\":4726:4744   */\n      add\n        /* \"#utility.yul\":4719:4767   */\n      mstore\n        /* \"#utility.yul\":4784:4862   */\n      tag_144\n        /* \"#utility.yul\":4857:4861   */\n      dup2\n        /* \"#utility.yul\":4848:4854   */\n      dup6\n        /* \"#utility.yul\":4784:4862   */\n      tag_123\n      jump\t// in\n    tag_144:\n        /* \"#utility.yul\":4776:4862   */\n      swap1\n      pop\n        /* \"#utility.yul\":4872:4950   */\n      tag_145\n        /* \"#utility.yul\":4946:4948   */\n      0x40\n        /* \"#utility.yul\":4935:4944   */\n      dup4\n        /* \"#utility.yul\":4931:4949   */\n      add\n        /* \"#utility.yul\":4922:4928   */\n      dup5\n        /* \"#utility.yul\":4872:4950   */\n      tag_119\n      jump\t// in\n    tag_145:\n        /* \"#utility.yul\":4412:4957   */\n      swap5\n      swap4\n      pop\n      pop\n      pop\n      pop\n      jump\t// out\n        /* \"#utility.yul\":4963:5382   */\n    tag_20:\n        /* \"#utility.yul\":5129:5133   */\n      0x00\n        /* \"#utility.yul\":5167:5169   */\n      0x20\n        /* \"#utility.yul\":5156:5165   */\n      dup3\n        /* \"#utility.yul\":5152:5170   */\n      add\n        /* \"#utility.yul\":5144:5170   */\n      swap1\n      pop\n        /* \"#utility.yul\":5216:5225   */\n      dup2\n        /* \"#utility.yul\":5210:5214   */\n      dup2\n        /* \"#utility.yul\":5206:5226   */\n      sub\n        /* \"#utility.yul\":5202:5203   */\n      0x00\n        /* \"#utility.yul\":5191:5200   */\n      dup4\n        /* \"#utility.yul\":5187:5204   */\n      add\n        /* \"#utility.yul\":5180:5227   */\n      mstore\n        /* \"#utility.yul\":5244:5375   */\n      tag_147\n        /* \"#utility.yul\":5370:5374   */\n      dup2\n        /* \"#utility.yul\":5244:5375   */\n      tag_133\n      jump\t// in\n    tag_147:\n        /* \"#utility.yul\":5236:5375   */\n      swap1\n      pop\n        /* \"#utility.yul\":4963:5382   */\n      swap2\n      swap1\n      pop\n      jump\t// out\n        /* \"#utility.yul\":5388:5610   */\n    tag_10:\n        /* \"#utility.yul\":5481:5485   */\n      0x00\n        /* \"#utility.yul\":5519:5521   */\n      0x20\n        /* \"#utility.yul\":5508:5517   */\n      dup3\n        /* \"#utility.yul\":5504:5522   */\n      add\n        /* \"#utility.yul\":5496:5522   */\n      swap1\n      pop\n        /* \"#utility.yul\":5532:5603   */\n      tag_149\n        /* \"#utility.yul\":5600:5601   */\n      0x00\n        /* \"#utility.yul\":5589:5598   */\n      dup4\n        /* \"#utility.yul\":5585:5602   */\n      add\n        /* \"#utility.yul\":5576:5582   */\n      dup5\n        /* \"#utility.yul\":5532:5603   */\n      tag_138\n      jump\t// in\n    tag_149:\n        /* \"#utility.yul\":5388:5610   */\n      swap3\n      swap2\n      pop\n      pop\n      jump\t// out\n        /* \"#utility.yul\":5616:5745   */\n    tag_67:\n        /* \"#utility.yul\":5650:5656   */\n      0x00\n        /* \"#utility.yul\":5677:5697   */\n      tag_151\n      tag_152\n      jump\t// in\n    tag_151:\n        /* \"#utility.yul\":5667:5697   */\n      swap1\n      pop\n        /* \"#utility.yul\":5706:5739   */\n      tag_153\n        /* \"#utility.yul\":5734:5738   */\n      dup3\n        /* \"#utility.yul\":5726:5732   */\n      dup3\n        /* \"#utility.yul\":5706:5739   */\n      tag_154\n      jump\t// in\n    tag_153:\n        /* \"#utility.yul\":5616:5745   */\n      swap2\n      swap1\n      pop\n      jump\t// out\n        /* \"#utility.yul\":5751:5826   */\n    tag_152:\n        /* \"#utility.yul\":5784:5790   */\n      0x00\n        /* \"#utility.yul\":5817:5819   */\n      0x40\n        /* \"#utility.yul\":5811:5820   */\n      mload\n        /* \"#utility.yul\":5801:5820   */\n      swap1\n      pop\n        /* \"#utility.yul\":5751:5826   */\n      swap1\n      jump\t// out\n        /* \"#utility.yul\":5832:6143   */\n    tag_66:\n        /* \"#utility.yul\":5909:5913   */\n      0x00\n        /* \"#utility.yul\":5999:6017   */\n      0xffffffffffffffff\n        /* \"#utility.yul\":5991:5997   */\n      dup3\n        /* \"#utility.yul\":5988:6018   */\n      gt\n        /* \"#utility.yul\":5985:6041   */\n      iszero\n      tag_157\n      jumpi\n        /* \"#utility.yul\":6021:6039   */\n      tag_158\n      tag_159\n      jump\t// in\n    tag_158:\n        /* \"#utility.yul\":5985:6041   */\n    tag_157:\n        /* \"#utility.yul\":6071:6075   */\n      0x20\n        /* \"#utility.yul\":6063:6069   */\n      dup3\n        /* \"#utility.yul\":6059:6076   */\n      mul\n        /* \"#utility.yul\":6051:6076   */\n      swap1\n      pop\n        /* \"#utility.yul\":6131:6135   */\n      0x20\n        /* \"#utility.yul\":6125:6129   */\n      dup2\n        /* \"#utility.yul\":6121:6136   */\n      add\n        /* \"#utility.yul\":6113:6136   */\n      swap1\n      pop\n        /* \"#utility.yul\":5832:6143   */\n      swap2\n      swap1\n      pop\n      jump\t// out\n        /* \"#utility.yul\":6149:6457   */\n    tag_80:\n        /* \"#utility.yul\":6211:6215   */\n      0x00\n        /* \"#utility.yul\":6301:6319   */\n      0xffffffffffffffff\n        /* \"#utility.yul\":6293:6299   */\n      dup3\n        /* \"#utility.yul\":6290:6320   */\n      gt\n        /* \"#utility.yul\":6287:6343   */\n      iszero\n      tag_161\n      jumpi\n        /* \"#utility.yul\":6323:6341   */\n      tag_162\n      tag_159\n      jump\t// in\n    tag_162:\n        /* \"#utility.yul\":6287:6343   */\n    tag_161:\n        /* \"#utility.yul\":6361:6390   */\n      tag_163\n        /* \"#utility.yul\":6383:6389   */\n      dup3\n        /* \"#utility.yul\":6361:6390   */\n      tag_132\n      jump\t// in\n    tag_163:\n        /* \"#utility.yul\":6353:6390   */\n      swap1\n      pop\n        /* \"#utility.yul\":6445:6449   */\n      0x20\n        /* \"#utility.yul\":6439:6443   */\n      dup2\n        /* \"#utility.yul\":6435:6450   */\n      add\n        /* \"#utility.yul\":6427:6450   */\n      swap1\n      pop\n        /* \"#utility.yul\":6149:6457   */\n      swap2\n      swap1\n      pop\n      jump\t// out\n        /* \"#utility.yul\":6463:6562   */\n    tag_126:\n        /* \"#utility.yul\":6515:6521   */\n      0x00\n        /* \"#utility.yul\":6549:6554   */\n      dup2\n        /* \"#utility.yul\":6543:6555   */\n      mload\n        /* \"#utility.yul\":6533:6555   */\n      swap1\n      pop\n        /* \"#utility.yul\":6463:6562   */\n      swap2\n      swap1\n      pop\n      jump\t// out\n        /* \"#utility.yul\":6568:6737   */\n    tag_128:\n        /* \"#utility.yul\":6652:6663   */\n      0x00\n        /* \"#utility.yul\":6686:6692   */\n      dup3\n        /* \"#utility.yul\":6681:6684   */\n      dup3\n        /* \"#utility.yul\":6674:6693   */\n      mstore\n        /* \"#utility.yul\":6726:6730   */\n      0x20\n        /* \"#utility.yul\":6721:6724   */\n      dup3\n        /* \"#utility.yul\":6717:6731   */\n      add\n        /* \"#utility.yul\":6702:6731   */\n      swap1\n      pop\n        /* \"#utility.yul\":6568:6737   */\n      swap3\n      swap2\n      pop\n      pop\n      jump\t// out\n        /* \"#utility.yul\":6743:6934   */\n    tag_36:\n        /* \"#utility.yul\":6783:6787   */\n      0x00\n        /* \"#utility.yul\":6803:6823   */\n      tag_167\n        /* \"#utility.yul\":6821:6822   */\n      dup3\n        /* \"#utility.yul\":6803:6823   */\n      tag_141\n      jump\t// in\n    tag_167:\n        /* \"#utility.yul\":6798:6823   */\n      swap2\n      pop\n        /* \"#utility.yul\":6837:6857   */\n      tag_168\n        /* \"#utility.yul\":6855:6856   */\n      dup4\n        /* \"#utility.yul\":6837:6857   */\n      tag_141\n      jump\t// in\n    tag_168:\n        /* \"#utility.yul\":6832:6857   */\n      swap3\n      pop\n        /* \"#utility.yul\":6876:6877   */\n      dup3\n        /* \"#utility.yul\":6873:6874   */\n      dup3\n        /* \"#utility.yul\":6870:6878   */\n      lt\n        /* \"#utility.yul\":6867:6901   */\n      iszero\n      tag_169\n      jumpi\n        /* \"#utility.yul\":6881:6899   */\n      tag_170\n      tag_171\n      jump\t// in\n    tag_170:\n        /* \"#utility.yul\":6867:6901   */\n    tag_169:\n        /* \"#utility.yul\":6926:6927   */\n      dup3\n        /* \"#utility.yul\":6923:6924   */\n      dup3\n        /* \"#utility.yul\":6919:6928   */\n      sub\n        /* \"#utility.yul\":6911:6928   */\n      swap1\n      pop\n        /* \"#utility.yul\":6743:6934   */\n      swap3\n      swap2\n      pop\n      pop\n      jump\t// out\n        /* \"#utility.yul\":6940:7036   */\n    tag_118:\n        /* \"#utility.yul\":6977:6984   */\n      0x00\n        /* \"#utility.yul\":7006:7030   */\n      tag_173\n        /* \"#utility.yul\":7024:7029   */\n      dup3\n        /* \"#utility.yul\":7006:7030   */\n      tag_174\n      jump\t// in\n    tag_173:\n        /* \"#utility.yul\":6995:7030   */\n      swap1\n      pop\n        /* \"#utility.yul\":6940:7036   */\n      swap2\n      swap1\n      pop\n      jump\t// out\n        /* \"#utility.yul\":7042:7169   */\n    tag_175:\n        /* \"#utility.yul\":7087:7094   */\n      0x00\n        /* \"#utility.yul\":7116:7121   */\n      dup2\n        /* \"#utility.yul\":7105:7121   */\n      swap1\n      pop\n        /* \"#utility.yul\":7122:7163   */\n      tag_177\n        /* \"#utility.yul\":7157:7162   */\n      dup3\n        /* \"#utility.yul\":7122:7163   */\n      tag_178\n      jump\t// in\n    tag_177:\n        /* \"#utility.yul\":7042:7169   */\n      swap2\n      swap1\n      pop\n      jump\t// out\n        /* \"#utility.yul\":7175:7301   */\n    tag_174:\n        /* \"#utility.yul\":7212:7219   */\n      0x00\n        /* \"#utility.yul\":7252:7294   */\n      0xffffffffffffffffffffffffffffffffffffffff\n        /* \"#utility.yul\":7245:7250   */\n      dup3\n        /* \"#utility.yul\":7241:7295   */\n      and\n        /* \"#utility.yul\":7230:7295   */\n      swap1\n      pop\n        /* \"#utility.yul\":7175:7301   */\n      swap2\n      swap1\n      pop\n      jump\t// out\n        /* \"#utility.yul\":7307:7384   */\n    tag_141:\n        /* \"#utility.yul\":7344:7351   */\n      0x00\n        /* \"#utility.yul\":7373:7378   */\n      dup2\n        /* \"#utility.yul\":7362:7378   */\n      swap1\n      pop\n        /* \"#utility.yul\":7307:7384   */\n      swap2\n      swap1\n      pop\n      jump\t// out\n        /* \"#utility.yul\":7390:7517   */\n    tag_122:\n        /* \"#utility.yul\":7446:7455   */\n      0x00\n        /* \"#utility.yul\":7479:7511   */\n      tag_182\n        /* \"#utility.yul\":7505:7510   */\n      dup3\n        /* \"#utility.yul\":7479:7511   */\n      tag_175\n      jump\t// in\n    tag_182:\n        /* \"#utility.yul\":7466:7511   */\n      swap1\n      pop\n        /* \"#utility.yul\":7390:7517   */\n      swap2\n      swap1\n      pop\n      jump\t// out\n        /* \"#utility.yul\":7523:7677   */\n    tag_85:\n        /* \"#utility.yul\":7607:7613   */\n      dup3\n        /* \"#utility.yul\":7602:7605   */\n      dup2\n        /* \"#utility.yul\":7597:7600   */\n      dup4\n        /* \"#utility.yul\":7584:7614   */\n      calldatacopy\n        /* \"#utility.yul\":7669:7670   */\n      0x00\n        /* \"#utility.yul\":7660:7666   */\n      dup4\n        /* \"#utility.yul\":7655:7658   */\n      dup4\n        /* \"#utility.yul\":7651:7667   */\n      add\n        /* \"#utility.yul\":7644:7671   */\n      mstore\n        /* \"#utility.yul\":7523:7677   */\n      pop\n      pop\n      pop\n      jump\t// out\n        /* \"#utility.yul\":7683:7990   */\n    tag_130:\n        /* \"#utility.yul\":7751:7752   */\n      0x00\n        /* \"#utility.yul\":7761:7874   */\n    tag_185:\n        /* \"#utility.yul\":7775:7781   */\n      dup4\n        /* \"#utility.yul\":7772:7773   */\n      dup2\n        /* \"#utility.yul\":7769:7782   */\n      lt\n        /* \"#utility.yul\":7761:7874   */\n      iszero\n      tag_187\n      jumpi\n        /* \"#utility.yul\":7860:7861   */\n      dup1\n        /* \"#utility.yul\":7855:7858   */\n      dup3\n        /* \"#utility.yul\":7851:7862   */\n      add\n        /* \"#utility.yul\":7845:7863   */\n      mload\n        /* \"#utility.yul\":7841:7842   */\n      dup2\n        /* \"#utility.yul\":7836:7839   */\n      dup5\n        /* \"#utility.yul\":7832:7843   */\n      add\n        /* \"#utility.yul\":7825:7864   */\n      mstore\n        /* \"#utility.yul\":7797:7799   */\n      0x20\n        /* \"#utility.yul\":7794:7795   */\n      dup2\n        /* \"#utility.yul\":7790:7800   */\n      add\n        /* \"#utility.yul\":7785:7800   */\n      swap1\n      pop\n        /* \"#utility.yul\":7761:7874   */\n      jump(tag_185)\n    tag_187:\n        /* \"#utility.yul\":7892:7898   */\n      dup4\n        /* \"#utility.yul\":7889:7890   */\n      dup2\n        /* \"#utility.yul\":7886:7899   */\n      gt\n        /* \"#utility.yul\":7883:7984   */\n      iszero\n      tag_188\n      jumpi\n        /* \"#utility.yul\":7972:7973   */\n      0x00\n        /* \"#utility.yul\":7963:7969   */\n      dup5\n        /* \"#utility.yul\":7958:7961   */\n      dup5\n        /* \"#utility.yul\":7954:7970   */\n      add\n        /* \"#utility.yul\":7947:7974   */\n      mstore\n        /* \"#utility.yul\":7883:7984   */\n    tag_188:\n        /* \"#utility.yul\":7732:7990   */\n      pop\n        /* \"#utility.yul\":7683:7990   */\n      pop\n      pop\n      pop\n      jump\t// out\n        /* \"#utility.yul\":7996:8316   */\n    tag_40:\n        /* \"#utility.yul\":8040:8046   */\n      0x00\n        /* \"#utility.yul\":8077:8078   */\n      0x02\n        /* \"#utility.yul\":8071:8075   */\n      dup3\n        /* \"#utility.yul\":8067:8079   */\n      div\n        /* \"#utility.yul\":8057:8079   */\n      swap1\n      pop\n        /* \"#utility.yul\":8124:8125   */\n      0x01\n        /* \"#utility.yul\":8118:8122   */\n      dup3\n        /* \"#utility.yul\":8114:8126   */\n      and\n        /* \"#utility.yul\":8145:8163   */\n      dup1\n        /* \"#utility.yul\":8135:8216   */\n      tag_190\n      jumpi\n        /* \"#utility.yul\":8201:8205   */\n      0x7f\n        /* \"#utility.yul\":8193:8199   */\n      dup3\n        /* \"#utility.yul\":8189:8206   */\n      and\n        /* \"#utility.yul\":8179:8206   */\n      swap2\n      pop\n        /* \"#utility.yul\":8135:8216   */\n    tag_190:\n        /* \"#utility.yul\":8263:8265   */\n      0x20\n        /* \"#utility.yul\":8255:8261   */\n      dup3\n        /* \"#utility.yul\":8252:8266   */\n      lt\n        /* \"#utility.yul\":8232:8250   */\n      dup2\n        /* \"#utility.yul\":8229:8267   */\n      eq\n        /* \"#utility.yul\":8226:8310   */\n      iszero\n      tag_191\n      jumpi\n        /* \"#utility.yul\":8282:8300   */\n      tag_192\n      tag_193\n      jump\t// in\n    tag_192:\n        /* \"#utility.yul\":8226:8310   */\n    tag_191:\n        /* \"#utility.yul\":8047:8316   */\n      pop\n        /* \"#utility.yul\":7996:8316   */\n      swap2\n      swap1\n      pop\n      jump\t// out\n        /* \"#utility.yul\":8322:8603   */\n    tag_154:\n        /* \"#utility.yul\":8405:8432   */\n      tag_195\n        /* \"#utility.yul\":8427:8431   */\n      dup3\n        /* \"#utility.yul\":8405:8432   */\n      tag_132\n      jump\t// in\n    tag_195:\n        /* \"#utility.yul\":8397:8403   */\n      dup2\n        /* \"#utility.yul\":8393:8433   */\n      add\n        /* \"#utility.yul\":8535:8541   */\n      dup2\n        /* \"#utility.yul\":8523:8533   */\n      dup2\n        /* \"#utility.yul\":8520:8542   */\n      lt\n        /* \"#utility.yul\":8499:8517   */\n      0xffffffffffffffff\n        /* \"#utility.yul\":8487:8497   */\n      dup3\n        /* \"#utility.yul\":8484:8518   */\n      gt\n        /* \"#utility.yul\":8481:8543   */\n      or\n        /* \"#utility.yul\":8478:8566   */\n      iszero\n      tag_196\n      jumpi\n        /* \"#utility.yul\":8546:8564   */\n      tag_197\n      tag_159\n      jump\t// in\n    tag_197:\n        /* \"#utility.yul\":8478:8566   */\n    tag_196:\n        /* \"#utility.yul\":8586:8596   */\n      dup1\n        /* \"#utility.yul\":8582:8584   */\n      0x40\n        /* \"#utility.yul\":8575:8597   */\n      mstore\n        /* \"#utility.yul\":8365:8603   */\n      pop\n        /* \"#utility.yul\":8322:8603   */\n      pop\n      pop\n      jump\t// out\n        /* \"#utility.yul\":8609:8789   */\n    tag_171:\n        /* \"#utility.yul\":8657:8734   */\n      0x4e487b7100000000000000000000000000000000000000000000000000000000\n        /* \"#utility.yul\":8654:8655   */\n      0x00\n        /* \"#utility.yul\":8647:8735   */\n      mstore\n        /* \"#utility.yul\":8754:8758   */\n      0x11\n        /* \"#utility.yul\":8751:8752   */\n      0x04\n        /* \"#utility.yul\":8744:8759   */\n      mstore\n        /* \"#utility.yul\":8778:8782   */\n      0x24\n        /* \"#utility.yul\":8775:8776   */\n      0x00\n        /* \"#utility.yul\":8768:8783   */\n      revert\n        /* \"#utility.yul\":8795:8975   */\n    tag_25:\n        /* \"#utility.yul\":8843:8920   */\n      0x4e487b7100000000000000000000000000000000000000000000000000000000\n        /* \"#utility.yul\":8840:8841   */\n      0x00\n        /* \"#utility.yul\":8833:8921   */\n      mstore\n        /* \"#utility.yul\":8940:8944   */\n      0x21\n        /* \"#utility.yul\":8937:8938   */\n      0x04\n        /* \"#utility.yul\":8930:8945   */\n      mstore\n        /* \"#utility.yul\":8964:8968   */\n      0x24\n        /* \"#utility.yul\":8961:8962   */\n      0x00\n        /* \"#utility.yul\":8954:8969   */\n      revert\n        /* \"#utility.yul\":8981:9161   */\n    tag_193:\n        /* \"#utility.yul\":9029:9106   */\n      0x4e487b7100000000000000000000000000000000000000000000000000000000\n        /* \"#utility.yul\":9026:9027   */\n      0x00\n        /* \"#utility.yul\":9019:9107   */\n      mstore\n        /* \"#utility.yul\":9126:9130   */\n      0x22\n        /* \"#utility.yul\":9123:9124   */\n      0x04\n        /* \"#utility.yul\":9116:9131   */\n      mstore\n        /* \"#utility.yul\":9150:9154   */\n      0x24\n        /* \"#utility.yul\":9147:9148   */\n      0x00\n        /* \"#utility.yul\":9140:9155   */\n      revert\n        /* \"#utility.yul\":9167:9347   */\n    tag_159:\n        /* \"#utility.yul\":9215:9292   */\n      0x4e487b7100000000000000000000000000000000000000000000000000000000\n        /* \"#utility.yul\":9212:9213   */\n      0x00\n        /* \"#utility.yul\":9205:9293   */\n      mstore\n        /* \"#utility.yul\":9312:9316   */\n      0x41\n        /* \"#utility.yul\":9309:9310   */\n      0x04\n        /* \"#utility.yul\":9302:9317   */\n      mstore\n        /* \"#utility.yul\":9336:9340   */\n      0x24\n        /* \"#utility.yul\":9333:9334   */\n      0x00\n        /* \"#utility.yul\":9326:9341   */\n      revert\n        /* \"#utility.yul\":9353:9470   */\n    tag_90:\n        /* \"#utility.yul\":9462:9463   */\n      0x00\n        /* \"#utility.yul\":9459:9460   */\n      dup1\n        /* \"#utility.yul\":9452:9464   */\n      revert\n        /* \"#utility.yul\":9476:9593   */\n    tag_70:\n        /* \"#utility.yul\":9585:9586   */\n      0x00\n        /* \"#utility.yul\":9582:9583   */\n      dup1\n        /* \"#utility.yul\":9575:9587   */\n      revert\n        /* \"#utility.yul\":9599:9716   */\n    tag_83:\n        /* \"#utility.yul\":9708:9709   */\n      0x00\n        /* \"#utility.yul\":9705:9706   */\n      dup1\n        /* \"#utility.yul\":9698:9710   */\n      revert\n        /* \"#utility.yul\":9722:9839   */\n    tag_106:\n        /* \"#utility.yul\":9831:9832   */\n      0x00\n        /* \"#utility.yul\":9828:9829   */\n      dup1\n        /* \"#utility.yul\":9821:9833   */\n      revert\n        /* \"#utility.yul\":9845:9962   */\n    tag_103:\n        /* \"#utility.yul\":9954:9955   */\n      0x00\n        /* \"#utility.yul\":9951:9952   */\n      dup1\n        /* \"#utility.yul\":9944:9956   */\n      revert\n        /* \"#utility.yul\":9968:10070   */\n    tag_132:\n        /* \"#utility.yul\":10009:10015   */\n      0x00\n        /* \"#utility.yul\":10060:10062   */\n      0x1f\n        /* \"#utility.yul\":10056:10063   */\n      not\n        /* \"#utility.yul\":10051:10053   */\n      0x1f\n        /* \"#utility.yul\":10044:10049   */\n      dup4\n        /* \"#utility.yul\":10040:10054   */\n      add\n        /* \"#utility.yul\":10036:10064   */\n      and\n        /* \"#utility.yul\":10026:10064   */\n      swap1\n      pop\n        /* \"#utility.yul\":9968:10070   */\n      swap2\n      swap1\n      pop\n      jump\t// out\n        /* \"#utility.yul\":10076:10239   */\n    tag_137:\n        /* \"#utility.yul\":10216:10231   */\n      0x206e6f742070726f647563747300000000000000000000000000000000000000\n        /* \"#utility.yul\":10212:10213   */\n      0x00\n        /* \"#utility.yul\":10204:10210   */\n      dup3\n        /* \"#utility.yul\":10200:10214   */\n      add\n        /* \"#utility.yul\":10193:10232   */\n      mstore\n        /* \"#utility.yul\":10076:10239   */\n      pop\n      jump\t// out\n        /* \"#utility.yul\":10245:10358   */\n    tag_178:\n        /* \"#utility.yul\":10326:10327   */\n      0x04\n        /* \"#utility.yul\":10319:10324   */\n      dup2\n        /* \"#utility.yul\":10316:10328   */\n      lt\n        /* \"#utility.yul\":10306:10352   */\n      tag_210\n      jumpi\n        /* \"#utility.yul\":10332:10350   */\n      tag_211\n      tag_25\n      jump\t// in\n    tag_211:\n        /* \"#utility.yul\":10306:10352   */\n    tag_210:\n        /* \"#utility.yul\":10245:10358   */\n      pop\n      jump\t// out\n        /* \"#utility.yul\":10364:10486   */\n    tag_99:\n        /* \"#utility.yul\":10437:10461   */\n      tag_213\n        /* \"#utility.yul\":10455:10460   */\n      dup2\n        /* \"#utility.yul\":10437:10461   */\n      tag_141\n      jump\t// in\n    tag_213:\n        /* \"#utility.yul\":10430:10435   */\n      dup2\n        /* \"#utility.yul\":10427:10462   */\n      eq\n        /* \"#utility.yul\":10417:10480   */\n      tag_214\n      jumpi\n        /* \"#utility.yul\":10476:10477   */\n      0x00\n        /* \"#utility.yul\":10473:10474   */\n      dup1\n        /* \"#utility.yul\":10466:10478   */\n      revert\n        /* \"#utility.yul\":10417:10480   */\n    tag_214:\n        /* \"#utility.yul\":10364:10486   */\n      pop\n      jump\t// out\n\n    auxdata: 0xa2646970667358221220c892c29a5fc7e54196bf242493e14f5713d6a33ff8aa6a030b256289a719bbfc64736f6c63430008070033\n}\n",
				"bytecode": {
					"linkReferences": {},
					"object": "608060405234801561001057600080fd5b50610aa0806100206000396000f3fe608060405234801561001057600080fd5b50600436106100365760003560e01c80636d9a65d81461003b578063a85c38ef1461006b575b600080fd5b610055600480360381019061005091906105b1565b61009d565b604051610062919061073d565b60405180910390f35b61008560048036038101906100809190610629565b61025f565b604051610094939291906106df565b60405180910390f35b6000808251116100e2576040517f08c379a00000000000000000000000000000000000000000000000000000000081526004016100d99061071d565b60405180910390fd5b6100ea61034e565b33816000019073ffffffffffffffffffffffffffffffffffffffff16908173ffffffffffffffffffffffffffffffffffffffff168152505083816020018190525082816040018190525060008160600190600381111561014d5761014c61095f565b5b908160038111156101615761016061095f565b5b81525050600081908060018154018082558091505060019003906000526020600020906004020160009091909190915060008201518160000160006101000a81548173ffffffffffffffffffffffffffffffffffffffff021916908373ffffffffffffffffffffffffffffffffffffffff16021790555060208201518160010190805190602001906101f492919061039e565b506040820151816002019080519060200190610211929190610424565b5060608201518160030160006101000a81548160ff0219169083600381111561023d5761023c61095f565b5b02179055505050600160008054905061025691906107f6565b91505092915050565b6000818154811061026f57600080fd5b90600052602060002090600402016000915090508060000160009054906101000a900473ffffffffffffffffffffffffffffffffffffffff16908060010180546102b8906108cd565b80601f01602080910402602001604051908101604052809291908181526020018280546102e4906108cd565b80156103315780601f1061030657610100808354040283529160200191610331565b820191906000526020600020905b81548152906001019060200180831161031457829003601f168201915b5050505050908060030160009054906101000a900460ff16905083565b6040518060800160405280600073ffffffffffffffffffffffffffffffffffffffff1681526020016060815260200160608152602001600060038111156103985761039761095f565b5b81525090565b8280546103aa906108cd565b90600052602060002090601f0160209004810192826103cc5760008555610413565b82601f106103e557805160ff1916838001178555610413565b82800160010185558215610413579182015b828111156104125782518255916020019190600101906103f7565b5b5090506104209190610471565b5090565b828054828255906000526020600020908101928215610460579160200282015b8281111561045f578251825591602001919060010190610444565b5b50905061046d9190610471565b5090565b5b8082111561048a576000816000905550600101610472565b5090565b60006104a161049c8461077d565b610758565b905080838252602082019050828560208602820111156104c4576104c36109f1565b5b60005b858110156104f457816104da888261059c565b8452602084019350602083019250506001810190506104c7565b5050509392505050565b600061051161050c846107a9565b610758565b90508281526020810184848401111561052d5761052c6109f6565b5b61053884828561088b565b509392505050565b600082601f830112610555576105546109ec565b5b813561056584826020860161048e565b91505092915050565b600082601f830112610583576105826109ec565b5b81356105938482602086016104fe565b91505092915050565b6000813590506105ab81610a53565b92915050565b600080604083850312156105c8576105c7610a00565b5b600083013567ffffffffffffffff8111156105e6576105e56109fb565b5b6105f28582860161056e565b925050602083013567ffffffffffffffff811115610613576106126109fb565b5b61061f85828601610540565b9150509250929050565b60006020828403121561063f5761063e610a00565b5b600061064d8482850161059c565b91505092915050565b61065f8161082a565b82525050565b61066e81610879565b82525050565b600061067f826107da565b61068981856107e5565b935061069981856020860161089a565b6106a281610a05565b840191505092915050565b60006106ba600d836107e5565b91506106c582610a16565b602082019050919050565b6106d98161086f565b82525050565b60006060820190506106f46000830186610656565b81810360208301526107068185610674565b90506107156040830184610665565b949350505050565b60006020820190508181036000830152610736816106ad565b9050919050565b600060208201905061075260008301846106d0565b92915050565b6000610762610773565b905061076e82826108ff565b919050565b6000604051905090565b600067ffffffffffffffff821115610798576107976109bd565b5b602082029050602081019050919050565b600067ffffffffffffffff8211156107c4576107c36109bd565b5b6107cd82610a05565b9050602081019050919050565b600081519050919050565b600082825260208201905092915050565b60006108018261086f565b915061080c8361086f565b92508282101561081f5761081e610930565b5b828203905092915050565b60006108358261084f565b9050919050565b600081905061084a82610a3f565b919050565b600073ffffffffffffffffffffffffffffffffffffffff82169050919050565b6000819050919050565b60006108848261083c565b9050919050565b82818337600083830152505050565b60005b838110156108b857808201518184015260208101905061089d565b838111156108c7576000848401525b50505050565b600060028204905060018216806108e557607f821691505b602082108114156108f9576108f861098e565b5b50919050565b61090882610a05565b810181811067ffffffffffffffff82111715610927576109266109bd565b5b80604052505050565b7f4e487b7100000000000000000000000000000000000000000000000000000000600052601160045260246000fd5b7f4e487b7100000000000000000000000000000000000000000000000000000000600052602160045260246000fd5b7f4e487b7100000000000000000000000000000000000000000000000000000000600052602260045260246000fd5b7f4e487b7100000000000000000000000000000000000000000000000000000000600052604160045260246000fd5b600080fd5b600080fd5b600080fd5b600080fd5b600080fd5b6000601f19601f8301169050919050565b7f206e6f742070726f647563747300000000000000000000000000000000000000600082015250565b60048110610a5057610a4f61095f565b5b50565b610a5c8161086f565b8114610a6757600080fd5b5056fea2646970667358221220c892c29a5fc7e54196bf242493e14f5713d6a33ff8aa6a030b256289a719bbfc64736f6c63430008070033",
					"opcodes": "PUSH1 0x80 PUSH1 0x40 MSTORE CALLVALUE DUP1 ISZERO PUSH2 0x10 JUMPI PUSH1 0x0 DUP1 REVERT JUMPDEST POP PUSH2 0xAA0 DUP1 PUSH2 0x20 PUSH1 0x0 CODECOPY PUSH1 0x0 RETURN INVALID PUSH1 0x80 PUSH1 0x40 MSTORE CALLVALUE DUP1 ISZERO PUSH2 0x10 JUMPI PUSH1 0x0 DUP1 REVERT JUMPDEST POP PUSH1 0x4 CALLDATASIZE LT PUSH2 0x36 JUMPI PUSH1 0x0 CALLDATALOAD PUSH1 0xE0 SHR DUP1 PUSH4 0x6D9A65D8 EQ PUSH2 0x3B JUMPI DUP1 PUSH4 0xA85C38EF EQ PUSH2 0x6B JUMPI JUMPDEST PUSH1 0x0 DUP1 REVERT JUMPDEST PUSH2 0x55 PUSH1 0x4 DUP1 CALLDATASIZE SUB DUP2 ADD SWAP1 PUSH2 0x50 SWAP2 SWAP1 PUSH2 0x5B1 JUMP JUMPDEST PUSH2 0x9D JUMP JUMPDEST PUSH1 0x40 MLOAD PUSH2 0x62 SWAP2 SWAP1 PUSH2 0x73D JUMP JUMPDEST PUSH1 0x40 MLOAD DUP1 SWAP2 SUB SWAP1 RETURN JUMPDEST PUSH2 0x85 PUSH1 0x4 DUP1 CALLDATASIZE SUB DUP2 ADD SWAP1 PUSH2 0x80 SWAP2 SWAP1 PUSH2 0x629 JUMP JUMPDEST PUSH2 0x25F JUMP JUMPDEST PUSH1 0x40 MLOAD PUSH2 0x94 SWAP4 SWAP3 SWAP2 SWAP1 PUSH2 0x6DF JUMP JUMPDEST PUSH1 0x40 MLOAD DUP1 SWAP2 SUB SWAP1 RETURN JUMPDEST PUSH1 0x0 DUP1 DUP3 MLOAD GT PUSH2 0xE2 JUMPI PUSH1 0x40 MLOAD PUSH32 0x8C379A000000000000000000000000000000000000000000000000000000000 DUP2 MSTORE PUSH1 0x4 ADD PUSH2 0xD9 SWAP1 PUSH2 0x71D JUMP JUMPDEST PUSH1 0x40 MLOAD DUP1 SWAP2 SUB SWAP1 REVERT JUMPDEST PUSH2 0xEA PUSH2 0x34E JUMP JUMPDEST CALLER DUP2 PUSH1 0x0 ADD SWAP1 PUSH20 0xFFFFFFFFFFFFFFFFFFFFFFFFFFFFFFFFFFFFFFFF AND SWAP1 DUP2 PUSH20 0xFFFFFFFFFFFFFFFFFFFFFFFFFFFFFFFFFFFFFFFF AND DUP2 MSTORE POP POP DUP4 DUP2 PUSH1 0x20 ADD DUP2 SWAP1 MSTORE POP DUP3 DUP2 PUSH1 0x40 ADD DUP2 SWAP1 MSTORE POP PUSH1 0x0 DUP2 PUSH1 0x60 ADD SWAP1 PUSH1 0x3 DUP2 GT ISZERO PUSH2 0x14D JUMPI PUSH2 0x14C PUSH2 0x95F JUMP JUMPDEST JUMPDEST SWAP1 DUP2 PUSH1 0x3 DUP2 GT ISZERO PUSH2 0x161 JUMPI PUSH2 0x160 PUSH2 0x95F JUMP JUMPDEST JUMPDEST DUP2 MSTORE POP POP PUSH1 0x0 DUP2 SWAP1 DUP1 PUSH1 0x1 DUP2 SLOAD ADD DUP1 DUP3 SSTORE DUP1 SWAP2 POP POP PUSH1 0x1 SWAP1 SUB SWAP1 PUSH1 0x0 MSTORE PUSH1 0x20 PUSH1 0x0 KECCAK256 SWAP1 PUSH1 0x4 MUL ADD PUSH1 0x0 SWAP1 SWAP2 SWAP1 SWAP2 SWAP1 SWAP2 POP PUSH1 0x0 DUP3 ADD MLOAD DUP2 PUSH1 0x0 ADD PUSH1 0x0 PUSH2 0x100 EXP DUP2 SLOAD DUP2 PUSH20 0xFFFFFFFFFFFFFFFFFFFFFFFFFFFFFFFFFFFFFFFF MUL NOT AND SWAP1 DUP4 PUSH20 0xFFFFFFFFFFFFFFFFFFFFFFFFFFFFFFFFFFFFFFFF AND MUL OR SWAP1 SSTORE POP PUSH1 0x20 DUP3 ADD MLOAD DUP2 PUSH1 0x1 ADD SWAP1 DUP1 MLOAD SWAP1 PUSH1 0x20 ADD SWAP1 PUSH2 0x1F4 SWAP3 SWAP2 SWAP1 PUSH2 0x39E JUMP JUMPDEST POP PUSH1 0x40 DUP3 ADD MLOAD DUP2 PUSH1 0x2 ADD SWAP1 DUP1 MLOAD SWAP1 PUSH1 0x20 ADD SWAP1 PUSH2 0x211 SWAP3 SWAP2 SWAP1 PUSH2 0x424 JUMP JUMPDEST POP PUSH1 0x60 DUP3 ADD MLOAD DUP2 PUSH1 0x3 ADD PUSH1 0x0 PUSH2 0x100 EXP DUP2 SLOAD DUP2 PUSH1 0xFF MUL NOT AND SWAP1 DUP4 PUSH1 0x3 DUP2 GT ISZERO PUSH2 0x23D JUMPI PUSH2 0x23C PUSH2 0x95F JUMP JUMPDEST JUMPDEST MUL OR SWAP1 SSTORE POP POP POP PUSH1 0x1 PUSH1 0x0 DUP1 SLOAD SWAP1 POP PUSH2 0x256 SWAP2 SWAP1 PUSH2 0x7F6 JUMP JUMPDEST SWAP2 POP POP SWAP3 SWAP2 POP POP JUMP JUMPDEST PUSH1 0x0 DUP2 DUP2 SLOAD DUP2 LT PUSH2 0x26F JUMPI PUSH1 0x0 DUP1 REVERT JUMPDEST SWAP1 PUSH1 0x0 MSTORE PUSH1 0x20 PUSH1 0x0 KECCAK256 SWAP1 PUSH1 0x4 MUL ADD PUSH1 0x0 SWAP2 POP SWAP1 POP DUP1 PUSH1 0x0 ADD PUSH1 0x0 SWAP1 SLOAD SWAP1 PUSH2 0x100 EXP SWAP1 DIV PUSH20 0xFFFFFFFFFFFFFFFFFFFFFFFFFFFFFFFFFFFFFFFF AND SWAP1 DUP1 PUSH1 0x1 ADD DUP1 SLOAD PUSH2 0x2B8 SWAP1 PUSH2 0x8CD JUMP JUMPDEST DUP1 PUSH1 0x1F ADD PUSH1 0x20 DUP1 SWAP2 DIV MUL PUSH1 0x20 ADD PUSH1 0x40 MLOAD SWAP1 DUP2 ADD PUSH1 0x40 MSTORE DUP1 SWAP3 SWAP2 SWAP1 DUP2 DUP2 MSTORE PUSH1 0x20 ADD DUP3 DUP1 SLOAD PUSH2 0x2E4 SWAP1 PUSH2 0x8CD JUMP JUMPDEST DUP1 ISZERO PUSH2 0x331 JUMPI DUP1 PUSH1 0x1F LT PUSH2 0x306 JUMPI PUSH2 0x100 DUP1 DUP4 SLOAD DIV MUL DUP4 MSTORE SWAP2 PUSH1 0x20 ADD SWAP2 PUSH2 0x331 JUMP JUMPDEST DUP3 ADD SWAP2 SWAP1 PUSH1 0x0 MSTORE PUSH1 0x20 PUSH1 0x0 KECCAK256 SWAP1 JUMPDEST DUP2 SLOAD DUP2 MSTORE SWAP1 PUSH1 0x1 ADD SWAP1 PUSH1 0x20 ADD DUP1 DUP4 GT PUSH2 0x314 JUMPI DUP3 SWAP1 SUB PUSH1 0x1F AND DUP3 ADD SWAP2 JUMPDEST POP POP POP POP POP SWAP1 DUP1 PUSH1 0x3 ADD PUSH1 0x0 SWAP1 SLOAD SWAP1 PUSH2 0x100 EXP SWAP1 DIV PUSH1 0xFF AND SWAP1 POP DUP4 JUMP JUMPDEST PUSH1 0x40 MLOAD DUP1 PUSH1 0x80 ADD PUSH1 0x40 MSTORE DUP1 PUSH1 0x0 PUSH20 0xFFFFFFFFFFFFFFFFFFFFFFFFFFFFFFFFFFFFFFFF AND DUP2 MSTORE PUSH1 0x20 ADD PUSH1 0x60 DUP2 MSTORE PUSH1 0x20 ADD PUSH1 0x60 DUP2 MSTORE PUSH1 0x20 ADD PUSH1 0x0 PUSH1 0x3 DUP2 GT ISZERO PUSH2 0x398 JUMPI PUSH2 0x397 PUSH2 0x95F JUMP JUMPDEST JUMPDEST DUP2 MSTORE POP SWAP1 JUMP JUMPDEST DUP3 DUP1 SLOAD PUSH2 0x3AA SWAP1 PUSH2 0x8CD JUMP JUMPDEST SWAP1 PUSH1 0x0 MSTORE PUSH1 0x20 PUSH1 0x0 KECCAK256 SWAP1 PUSH1 0x1F ADD PUSH1 0x20 SWAP1 DIV DUP2 ADD SWAP3 DUP3 PUSH2 0x3CC JUMPI PUSH1 0x0 DUP6 SSTORE PUSH2 0x413 JUMP JUMPDEST DUP3 PUSH1 0x1F LT PUSH2 0x3E5 JUMPI DUP1 MLOAD PUSH1 0xFF NOT AND DUP4 DUP1 ADD OR DUP6 SSTORE PUSH2 0x413 JUMP JUMPDEST DUP3 DUP1 ADD PUSH1 0x1 ADD DUP6 SSTORE DUP3 ISZERO PUSH2 0x413 JUMPI SWAP2 DUP3 ADD JUMPDEST DUP3 DUP2 GT ISZERO PUSH2 0x412 JUMPI DUP3 MLOAD DUP3 SSTORE SWAP2 PUSH1 0x20 ADD SWAP2 SWAP1 PUSH1 0x1 ADD SWAP1 PUSH2 0x3F7 JUMP JUMPDEST JUMPDEST POP SWAP1 POP PUSH2 0x420 SWAP2 SWAP1 PUSH2 0x471 JUMP JUMPDEST POP SWAP1 JUMP JUMPDEST DUP3 DUP1 SLOAD DUP3 DUP3 SSTORE SWAP1 PUSH1 0x0 MSTORE PUSH1 0x20 PUSH1 0x0 KECCAK256 SWAP1 DUP2 ADD SWAP3 DUP3 ISZERO PUSH2 0x460 JUMPI SWAP2 PUSH1 0x20 MUL DUP3 ADD JUMPDEST DUP3 DUP2 GT ISZERO PUSH2 0x45F JUMPI DUP3 MLOAD DUP3 SSTORE SWAP2 PUSH1 0x20 ADD SWAP2 SWAP1 PUSH1 0x1 ADD SWAP1 PUSH2 0x444 JUMP JUMPDEST JUMPDEST POP SWAP1 POP PUSH2 0x46D SWAP2 SWAP1 PUSH2 0x471 JUMP JUMPDEST POP SWAP1 JUMP JUMPDEST JUMPDEST DUP1 DUP3 GT ISZERO PUSH2 0x48A JUMPI PUSH1 0x0 DUP2 PUSH1 0x0 SWAP1 SSTORE POP PUSH1 0x1 ADD PUSH2 0x472 JUMP JUMPDEST POP SWAP1 JUMP JUMPDEST PUSH1 0x0 PUSH2 0x4A1 PUSH2 0x49C DUP5 PUSH2 0x77D JUMP JUMPDEST PUSH2 0x758 JUMP JUMPDEST SWAP1 POP DUP1 DUP4 DUP3 MSTORE PUSH1 0x20 DUP3 ADD SWAP1 POP DUP3 DUP6 PUSH1 0x20 DUP7 MUL DUP3 ADD GT ISZERO PUSH2 0x4C4 JUMPI PUSH2 0x4C3 PUSH2 0x9F1 JUMP JUMPDEST JUMPDEST PUSH1 0x0 JUMPDEST DUP6 DUP2 LT ISZERO PUSH2 0x4F4 JUMPI DUP2 PUSH2 0x4DA DUP9 DUP3 PUSH2 0x59C JUMP JUMPDEST DUP5 MSTORE PUSH1 0x20 DUP5 ADD SWAP4 POP PUSH1 0x20 DUP4 ADD SWAP3 POP POP PUSH1 0x1 DUP2 ADD SWAP1 POP PUSH2 0x4C7 JUMP JUMPDEST POP POP POP SWAP4 SWAP3 POP POP POP JUMP JUMPDEST PUSH1 0x0 PUSH2 0x511 PUSH2 0x50C DUP5 PUSH2 0x7A9 JUMP JUMPDEST PUSH2 0x758 JUMP JUMPDEST SWAP1 POP DUP3 DUP2 MSTORE PUSH1 0x20 DUP2 ADD DUP5 DUP5 DUP5 ADD GT ISZERO PUSH2 0x52D JUMPI PUSH2 0x52C PUSH2 0x9F6 JUMP JUMPDEST JUMPDEST PUSH2 0x538 DUP5 DUP3 DUP6 PUSH2 0x88B JUMP JUMPDEST POP SWAP4 SWAP3 POP POP POP JUMP JUMPDEST PUSH1 0x0 DUP3 PUSH1 0x1F DUP4 ADD SLT PUSH2 0x555 JUMPI PUSH2 0x554 PUSH2 0x9EC JUMP JUMPDEST JUMPDEST DUP2 CALLDATALOAD PUSH2 0x565 DUP5 DUP3 PUSH1 0x20 DUP7 ADD PUSH2 0x48E JUMP JUMPDEST SWAP2 POP POP SWAP3 SWAP2 POP POP JUMP JUMPDEST PUSH1 0x0 DUP3 PUSH1 0x1F DUP4 ADD SLT PUSH2 0x583 JUMPI PUSH2 0x582 PUSH2 0x9EC JUMP JUMPDEST JUMPDEST DUP2 CALLDATALOAD PUSH2 0x593 DUP5 DUP3 PUSH1 0x20 DUP7 ADD PUSH2 0x4FE JUMP JUMPDEST SWAP2 POP POP SWAP3 SWAP2 POP POP JUMP JUMPDEST PUSH1 0x0 DUP2 CALLDATALOAD SWAP1 POP PUSH2 0x5AB DUP2 PUSH2 0xA53 JUMP JUMPDEST SWAP3 SWAP2 POP POP JUMP JUMPDEST PUSH1 0x0 DUP1 PUSH1 0x40 DUP4 DUP6 SUB SLT ISZERO PUSH2 0x5C8 JUMPI PUSH2 0x5C7 PUSH2 0xA00 JUMP JUMPDEST JUMPDEST PUSH1 0x0 DUP4 ADD CALLDATALOAD PUSH8 0xFFFFFFFFFFFFFFFF DUP2 GT ISZERO PUSH2 0x5E6 JUMPI PUSH2 0x5E5 PUSH2 0x9FB JUMP JUMPDEST JUMPDEST PUSH2 0x5F2 DUP6 DUP3 DUP7 ADD PUSH2 0x56E JUMP JUMPDEST SWAP3 POP POP PUSH1 0x20 DUP4 ADD CALLDATALOAD PUSH8 0xFFFFFFFFFFFFFFFF DUP2 GT ISZERO PUSH2 0x613 JUMPI PUSH2 0x612 PUSH2 0x9FB JUMP JUMPDEST JUMPDEST PUSH2 0x61F DUP6 DUP3 DUP7 ADD PUSH2 0x540 JUMP JUMPDEST SWAP2 POP POP SWAP3 POP SWAP3 SWAP1 POP JUMP JUMPDEST PUSH1 0x0 PUSH1 0x20 DUP3 DUP5 SUB SLT ISZERO PUSH2 0x63F JUMPI PUSH2 0x63E PUSH2 0xA00 JUMP JUMPDEST JUMPDEST PUSH1 0x0 PUSH2 0x64D DUP5 DUP3 DUP6 ADD PUSH2 0x59C JUMP JUMPDEST SWAP2 POP POP SWAP3 SWAP2 POP POP JUMP JUMPDEST PUSH2 0x65F DUP2 PUSH2 0x82A JUMP JUMPDEST DUP3 MSTORE POP POP JUMP JUMPDEST PUSH2 0x66E DUP2 PUSH2 0x879 JUMP JUMPDEST DUP3 MSTORE POP POP JUMP JUMPDEST PUSH1 0x0 PUSH2 0x67F DUP3 PUSH2 0x7DA JUMP JUMPDEST PUSH2 0x689 DUP2 DUP6 PUSH2 0x7E5 JUMP JUMPDEST SWAP4 POP PUSH2 0x699 DUP2 DUP6 PUSH1 0x20 DUP7 ADD PUSH2 0x89A JUMP JUMPDEST PUSH2 0x6A2 DUP2 PUSH2 0xA05 JUMP JUMPDEST DUP5 ADD SWAP2 POP POP SWAP3 SWAP2 POP POP JUMP JUMPDEST PUSH1 0x0 PUSH2 0x6BA PUSH1 0xD DUP4 PUSH2 0x7E5 JUMP JUMPDEST SWAP2 POP PUSH2 0x6C5 DUP3 PUSH2 0xA16 JUMP JUMPDEST PUSH1 0x20 DUP3 ADD SWAP1 POP SWAP2 SWAP1 POP JUMP JUMPDEST PUSH2 0x6D9 DUP2 PUSH2 0x86F JUMP JUMPDEST DUP3 MSTORE POP POP JUMP JUMPDEST PUSH1 0x0 PUSH1 0x60 DUP3 ADD SWAP1 POP PUSH2 0x6F4 PUSH1 0x0 DUP4 ADD DUP7 PUSH2 0x656 JUMP JUMPDEST DUP2 DUP2 SUB PUSH1 0x20 DUP4 ADD MSTORE PUSH2 0x706 DUP2 DUP6 PUSH2 0x674 JUMP JUMPDEST SWAP1 POP PUSH2 0x715 PUSH1 0x40 DUP4 ADD DUP5 PUSH2 0x665 JUMP JUMPDEST SWAP5 SWAP4 POP POP POP POP JUMP JUMPDEST PUSH1 0x0 PUSH1 0x20 DUP3 ADD SWAP1 POP DUP2 DUP2 SUB PUSH1 0x0 DUP4 ADD MSTORE PUSH2 0x736 DUP2 PUSH2 0x6AD JUMP JUMPDEST SWAP1 POP SWAP2 SWAP1 POP JUMP JUMPDEST PUSH1 0x0 PUSH1 0x20 DUP3 ADD SWAP1 POP PUSH2 0x752 PUSH1 0x0 DUP4 ADD DUP5 PUSH2 0x6D0 JUMP JUMPDEST SWAP3 SWAP2 POP POP JUMP JUMPDEST PUSH1 0x0 PUSH2 0x762 PUSH2 0x773 JUMP JUMPDEST SWAP1 POP PUSH2 0x76E DUP3 DUP3 PUSH2 0x8FF JUMP JUMPDEST SWAP2 SWAP1 POP JUMP JUMPDEST PUSH1 0x0 PUSH1 0x40 MLOAD SWAP1 POP SWAP1 JUMP JUMPDEST PUSH1 0x0 PUSH8 0xFFFFFFFFFFFFFFFF DUP3 GT ISZERO PUSH2 0x798 JUMPI PUSH2 0x797 PUSH2 0x9BD JUMP JUMPDEST JUMPDEST PUSH1 0x20 DUP3 MUL SWAP1 POP PUSH1 0x20 DUP2 ADD SWAP1 POP SWAP2 SWAP1 POP JUMP JUMPDEST PUSH1 0x0 PUSH8 0xFFFFFFFFFFFFFFFF DUP3 GT ISZERO PUSH2 0x7C4 JUMPI PUSH2 0x7C3 PUSH2 0x9BD JUMP JUMPDEST JUMPDEST PUSH2 0x7CD DUP3 PUSH2 0xA05 JUMP JUMPDEST SWAP1 POP PUSH1 0x20 DUP2 ADD SWAP1 POP SWAP2 SWAP1 POP JUMP JUMPDEST PUSH1 0x0 DUP2 MLOAD SWAP1 POP SWAP2 SWAP1 POP JUMP JUMPDEST PUSH1 0x0 DUP3 DUP3 MSTORE PUSH1 0x20 DUP3 ADD SWAP1 POP SWAP3 SWAP2 POP POP JUMP JUMPDEST PUSH1 0x0 PUSH2 0x801 DUP3 PUSH2 0x86F JUMP JUMPDEST SWAP2 POP PUSH2 0x80C DUP4 PUSH2 0x86F JUMP JUMPDEST SWAP3 POP DUP3 DUP3 LT ISZERO PUSH2 0x81F JUMPI PUSH2 0x81E PUSH2 0x930 JUMP JUMPDEST JUMPDEST DUP3 DUP3 SUB SWAP1 POP SWAP3 SWAP2 POP POP JUMP JUMPDEST PUSH1 0x0 PUSH2 0x835 DUP3 PUSH2 0x84F JUMP JUMPDEST SWAP1 POP SWAP2 SWAP1 POP JUMP JUMPDEST PUSH1 0x0 DUP2 SWAP1 POP PUSH2 0x84A DUP3 PUSH2 0xA3F JUMP JUMPDEST SWAP2 SWAP1 POP JUMP JUMPDEST PUSH1 0x0 PUSH20 0xFFFFFFFFFFFFFFFFFFFFFFFFFFFFFFFFFFFFFFFF DUP3 AND SWAP1 POP SWAP2 SWAP1 POP JUMP JUMPDEST PUSH1 0x0 DUP2 SWAP1 POP SWAP2 SWAP1 POP JUMP JUMPDEST PUSH1 0x0 PUSH2 0x884 DUP3 PUSH2 0x83C JUMP JUMPDEST SWAP1 POP SWAP2 SWAP1 POP JUMP JUMPDEST DUP3 DUP2 DUP4 CALLDATACOPY PUSH1 0x0 DUP4 DUP4 ADD MSTORE POP POP POP JUMP JUMPDEST PUSH1 0x0 JUMPDEST DUP4 DUP2 LT ISZERO PUSH2 0x8B8 JUMPI DUP1 DUP3 ADD MLOAD DUP2 DUP5 ADD MSTORE PUSH1 0x20 DUP2 ADD SWAP1 POP PUSH2 0x89D JUMP JUMPDEST DUP4 DUP2 GT ISZERO PUSH2 0x8C7 JUMPI PUSH1 0x0 DUP5 DUP5 ADD MSTORE JUMPDEST POP POP POP POP JUMP JUMPDEST PUSH1 0x0 PUSH1 0x2 DUP3 DIV SWAP1 POP PUSH1 0x1 DUP3 AND DUP1 PUSH2 0x8E5 JUMPI PUSH1 0x7F DUP3 AND SWAP2 POP JUMPDEST PUSH1 0x20 DUP3 LT DUP2 EQ ISZERO PUSH2 0x8F9 JUMPI PUSH2 0x8F8 PUSH2 0x98E JUMP JUMPDEST JUMPDEST POP SWAP2 SWAP1 POP JUMP JUMPDEST PUSH2 0x908 DUP3 PUSH2 0xA05 JUMP JUMPDEST DUP2 ADD DUP2 DUP2 LT PUSH8 0xFFFFFFFFFFFFFFFF DUP3 GT OR ISZERO PUSH2 0x927 JUMPI PUSH2 0x926 PUSH2 0x9BD JUMP JUMPDEST JUMPDEST DUP1 PUSH1 0x40 MSTORE POP POP POP JUMP JUMPDEST PUSH32 0x4E487B7100000000000000000000000000000000000000000000000000000000 PUSH1 0x0 MSTORE PUSH1 0x11 PUSH1 0x4 MSTORE PUSH1 0x24 PUSH1 0x0 REVERT JUMPDEST PUSH32 0x4E487B7100000000000000000000000000000000000000000000000000000000 PUSH1 0x0 MSTORE PUSH1 0x21 PUSH1 0x4 MSTORE PUSH1 0x24 PUSH1 0x0 REVERT JUMPDEST PUSH32 0x4E487B7100000000000000000000000000000000000000000000000000000000 PUSH1 0x0 MSTORE PUSH1 0x22 PUSH1 0x4 MSTORE PUSH1 0x24 PUSH1 0x0 REVERT JUMPDEST PUSH32 0x4E487B7100000000000000000000000000000000000000000000000000000000 PUSH1 0x0 MSTORE PUSH1 0x41 PUSH1 0x4 MSTORE PUSH1 0x24 PUSH1 0x0 REVERT JUMPDEST PUSH1 0x0 DUP1 REVERT JUMPDEST PUSH1 0x0 DUP1 REVERT JUMPDEST PUSH1 0x0 DUP1 REVERT JUMPDEST PUSH1 0x0 DUP1 REVERT JUMPDEST PUSH1 0x0 DUP1 REVERT JUMPDEST PUSH1 0x0 PUSH1 0x1F NOT PUSH1 0x1F DUP4 ADD AND SWAP1 POP SWAP2 SWAP1 POP JUMP JUMPDEST PUSH32 0x206E6F742070726F647563747300000000000000000000000000000000000000 PUSH1 0x0 DUP3 ADD MSTORE POP JUMP JUMPDEST PUSH1 0x4 DUP2 LT PUSH2 0xA50 JUMPI PUSH2 0xA4F PUSH2 0x95F JUMP JUMPDEST JUMPDEST POP JUMP JUMPDEST PUSH2 0xA5C DUP2 PUSH2 0x86F JUMP JUMPDEST DUP2 EQ PUSH2 0xA67 JUMPI PUSH1 0x0 DUP1 REVERT JUMPDEST POP JUMP INVALID LOG2 PUSH5 0x6970667358 0x22 SLT KECCAK256 0xC8 SWAP3 0xC2 SWAP11 0x5F 0xC7 0xE5 COINBASE SWAP7 0xBF 0x24 0x24 SWAP4 0xE1 0x4F JUMPI SGT 0xD6 LOG3 EXTCODEHASH 0xF8 0xAA PUSH11 0x30B256289A719BBFC6473 PUSH16 0x6C634300080700330000000000000000 "
				},
				"gasEstimates": {
					"creation": {
						"codeDepositCost": "544000",
						"executionCost": "575",
						"totalCost": "544575"
					},
					"external": {
						"createOrder(string,uint256[])": "infinite",
						"orders(uint256)": "infinite"
					}
				},
				"methodIdentifiers": {
					"createOrder(string,uint256[])": "6d9a65d8",
					"orders(uint256)": "a85c38ef"
				}
			},
			"storageLayout": {
				"storage": [
					{
						"astId": 21,
						"contract": "deps/proje/store.sol:Store",
						"label": "orders",
						"offset": 0,
						"slot": "0",
						"type": "t_array(t_struct(Order)17_storage)dyn_storage"
					}
				],
				"types": {
					"t_address": {
						"encoding": "inplace",
						"label": "address",
						"numberOfBytes": "20"
					},
					"t_array(t_struct(Order)17_storage)dyn_storage": {
						"base": "t_struct(Order)17_storage",
						"encoding": "dynamic_array",
						"label": "struct Store.Order[]",
						"numberOfBytes": "32"
					},
					"t_array(t_uint256)dyn_storage": {
						"base": "t_uint256",
						"encoding": "dynamic_array",
						"label": "uint256[]",
						"numberOfBytes": "32"
					},
					"t_enum(Status)6": {
						"encoding": "inplace",
						"label": "enum Store.Status",
						"numberOfBytes": "1"
					},
					"t_string_storage": {
						"encoding": "bytes",
						"label": "string",
						"numberOfBytes": "32"
					},
					"t_struct(Order)17_storage": {
						"encoding": "inplace",
						"label": "struct Store.Order",
						"members": [
							{
								"astId": 8,
								"contract": "deps/proje/store.sol:Store",
								"label": "customer",
								"offset": 0,
								"slot": "0",
								"type": "t_address"
							},
							{
								"astId": 10,
								"contract": "deps/proje/store.sol:Store",
								"label": "zipCode",
								"offset": 0,
								"slot": "1",
								"type": "t_string_storage"
							},
							{
								"astId": 13,
								"contract": "deps/proje/store.sol:Store",
								"label": "products",
								"offset": 0,
								"slot": "2",
								"type": "t_array(t_uint256)dyn_storage"
							},
							{
								"astId": 16,
								"contract": "deps/proje/store.sol:Store",
								"label": "status",
								"offset": 0,
								"slot": "3",
								"type": "t_enum(Status)6"
							}
						],
						"numberOfBytes": "128"
					},
					"t_uint256": {
						"encoding": "inplace",
						"label": "uint256",
						"numberOfBytes": "32"
					}
				}
			},
			"userdoc": {
				"kind": "user",
				"methods": {},
				"version": 1
			}
		}
	}
}