{
	"deps/proje/CryptoKids.sol": {
		"CryptoKids": {
			"abi": [
				{
					"inputs": [],
					"stateMutability": "nonpayable",
					"type": "constructor"
				},
				{
					"anonymous": false,
					"inputs": [
						{
							"indexed": false,
							"internalType": "address",
							"name": "addr",
							"type": "address"
						},
						{
							"indexed": false,
							"internalType": "uint256",
							"name": "amount",
							"type": "uint256"
						},
						{
							"indexed": false,
							"internalType": "uint256",
							"name": "contractBalance",
							"type": "uint256"
						}
					],
					"name": "LogKidFunding",
					"type": "event"
				},
				{
					"inputs": [],
					"name": "BalanceOf",
					"outputs": [
						{
							"internalType": "uint256",
							"name": "",
							"type": "uint256"
						}
					],
					"stateMutability": "view",
					"type": "function"
				},
				{
					"inputs": [
						{
							"internalType": "address payable",
							"name": "walletAddress",
							"type": "address"
						},
						{
							"internalType": "string",
							"name": "firstName",
							"type": "string"
						},
						{
							"internalType": "string",
							"name": "LastName",
							"type": "string"
						},
						{
							"internalType": "uint256",
							"name": "ReleaseTime",
							"type": "uint256"
						},
						{
							"internalType": "uint256",
							"name": "amount",
							"type": "uint256"
						},
						{
							"internalType": "bool",
							"name": "canWithDraw",
							"type": "bool"
						}
					],
					"name": "addKids",
					"outputs": [],
					"stateMutability": "nonpayable",
					"type": "function"
				},
				{
					"inputs": [
						{
							"internalType": "address",
							"name": "walletAddress",
							"type": "address"
						}
					],
					"name": "availableToWithDraw",
					"outputs": [
						{
							"internalType": "bool",
							"name": "",
							"type": "bool"
						}
					],
					"stateMutability": "nonpayable",
					"type": "function"
				},
				{
					"inputs": [
						{
							"internalType": "address",
							"name": "walletAddress",
							"type": "address"
						}
					],
					"name": "deposite",
					"outputs": [],
					"stateMutability": "payable",
					"type": "function"
				},
				{
					"inputs": [
						{
							"internalType": "uint256",
							"name": "",
							"type": "uint256"
						}
					],
					"name": "kids",
					"outputs": [
						{
							"internalType": "address payable",
							"name": "walletAddress",
							"type": "address"
						},
						{
							"internalType": "string",
							"name": "firstName",
							"type": "string"
						},
						{
							"internalType": "string",
							"name": "LastName",
							"type": "string"
						},
						{
							"internalType": "uint256",
							"name": "ReleaseTime",
							"type": "uint256"
						},
						{
							"internalType": "uint256",
							"name": "amount",
							"type": "uint256"
						},
						{
							"internalType": "bool",
							"name": "canWithDraw",
							"type": "bool"
						}
					],
					"stateMutability": "view",
					"type": "function"
				},
				{
					"inputs": [
						{
							"internalType": "address payable",
							"name": "walletAddress",
							"type": "address"
						}
					],
					"name": "withDraw",
					"outputs": [],
					"stateMutability": "payable",
					"type": "function"
				}
			],
			"devdoc": {
				"kind": "dev",
				"methods": {},
				"version": 1
			},
			"evm": {
				"assembly": "    /* \"deps/proje/CryptoKids.sol\":60:3400  contract CryptoKids{\r... */\n  mstore(0x40, 0x80)\n    /* \"deps/proje/CryptoKids.sol\":272:327  constructor(){\r... */\n  callvalue\n  dup1\n  iszero\n  tag_1\n  jumpi\n  0x00\n  dup1\n  revert\ntag_1:\n  pop\n    /* \"deps/proje/CryptoKids.sol\":304:314  msg.sender */\n  caller\n    /* \"deps/proje/CryptoKids.sol\":296:301  owner */\n  0x00\n  dup1\n    /* \"deps/proje/CryptoKids.sol\":296:314  owner = msg.sender */\n  0x0100\n  exp\n  dup2\n  sload\n  dup2\n  0xffffffffffffffffffffffffffffffffffffffff\n  mul\n  not\n  and\n  swap1\n  dup4\n  0xffffffffffffffffffffffffffffffffffffffff\n  and\n  mul\n  or\n  swap1\n  sstore\n  pop\n    /* \"deps/proje/CryptoKids.sol\":60:3400  contract CryptoKids{\r... */\n  dataSize(sub_0)\n  dup1\n  dataOffset(sub_0)\n  0x00\n  codecopy\n  0x00\n  return\nstop\n\nsub_0: assembly {\n        /* \"deps/proje/CryptoKids.sol\":60:3400  contract CryptoKids{\r... */\n      mstore(0x40, 0x80)\n      jumpi(tag_1, lt(calldatasize, 0x04))\n      shr(0xe0, calldataload(0x00))\n      dup1\n      0x0a67d2c7\n      eq\n      tag_2\n      jumpi\n      dup1\n      0x403a37dc\n      eq\n      tag_3\n      jumpi\n      dup1\n      0x63c6afe4\n      eq\n      tag_4\n      jumpi\n      dup1\n      0x7285fd3a\n      eq\n      tag_5\n      jumpi\n      dup1\n      0x82c7f627\n      eq\n      tag_6\n      jumpi\n      dup1\n      0x9a3174a0\n      eq\n      tag_7\n      jumpi\n    tag_1:\n      0x00\n      dup1\n      revert\n        /* \"deps/proje/CryptoKids.sol\":2980:3393  function withDraw(address payable walletAddress) public payable OnlyOwner {\r... */\n    tag_2:\n      tag_8\n      0x04\n      dup1\n      calldatasize\n      sub\n      dup2\n      add\n      swap1\n      tag_9\n      swap2\n      swap1\n      tag_10\n      jump\t// in\n    tag_9:\n      tag_11\n      jump\t// in\n    tag_8:\n      stop\n        /* \"deps/proje/CryptoKids.sol\":842:1299  function addKids(address payable walletAddress,\r... */\n    tag_3:\n      callvalue\n      dup1\n      iszero\n      tag_12\n      jumpi\n      0x00\n      dup1\n      revert\n    tag_12:\n      pop\n      tag_13\n      0x04\n      dup1\n      calldatasize\n      sub\n      dup2\n      add\n      swap1\n      tag_14\n      swap2\n      swap1\n      tag_15\n      jump\t// in\n    tag_14:\n      tag_16\n      jump\t// in\n    tag_13:\n      stop\n        /* \"deps/proje/CryptoKids.sol\":2485:2972  function availableToWithDraw(address walletAddress) public OnlyOwner returns(bool){\r... */\n    tag_4:\n      callvalue\n      dup1\n      iszero\n      tag_17\n      jumpi\n      0x00\n      dup1\n      revert\n    tag_17:\n      pop\n      tag_18\n      0x04\n      dup1\n      calldatasize\n      sub\n      dup2\n      add\n      swap1\n      tag_19\n      swap2\n      swap1\n      tag_20\n      jump\t// in\n    tag_19:\n      tag_21\n      jump\t// in\n    tag_18:\n      mload(0x40)\n      tag_22\n      swap2\n      swap1\n      tag_23\n      jump\t// in\n    tag_22:\n      mload(0x40)\n      dup1\n      swap2\n      sub\n      swap1\n      return\n        /* \"deps/proje/CryptoKids.sol\":572:589  Kid[] public kids */\n    tag_5:\n      callvalue\n      dup1\n      iszero\n      tag_24\n      jumpi\n      0x00\n      dup1\n      revert\n    tag_24:\n      pop\n      tag_25\n      0x04\n      dup1\n      calldatasize\n      sub\n      dup2\n      add\n      swap1\n      tag_26\n      swap2\n      swap1\n      tag_27\n      jump\t// in\n    tag_26:\n      tag_28\n      jump\t// in\n    tag_25:\n      mload(0x40)\n      tag_29\n      swap7\n      swap6\n      swap5\n      swap4\n      swap3\n      swap2\n      swap1\n      tag_30\n      jump\t// in\n    tag_29:\n      mload(0x40)\n      dup1\n      swap2\n      sub\n      swap1\n      return\n        /* \"deps/proje/CryptoKids.sol\":1468:1585  function deposite(address walletAddress)  public payable OnlyOwner {\r... */\n    tag_6:\n      tag_31\n      0x04\n      dup1\n      calldatasize\n      sub\n      dup2\n      add\n      swap1\n      tag_32\n      swap2\n      swap1\n      tag_20\n      jump\t// in\n    tag_32:\n      tag_33\n      jump\t// in\n    tag_31:\n      stop\n        /* \"deps/proje/CryptoKids.sol\":1311:1460  function BalanceOf() public view OnlyOwner returns(uint){\r... */\n    tag_7:\n      callvalue\n      dup1\n      iszero\n      tag_34\n      jumpi\n      0x00\n      dup1\n      revert\n    tag_34:\n      pop\n      tag_35\n      tag_36\n      jump\t// in\n    tag_35:\n      mload(0x40)\n      tag_37\n      swap2\n      swap1\n      tag_38\n      jump\t// in\n    tag_37:\n      mload(0x40)\n      dup1\n      swap2\n      sub\n      swap1\n      return\n        /* \"deps/proje/CryptoKids.sol\":2980:3393  function withDraw(address payable walletAddress) public payable OnlyOwner {\r... */\n    tag_11:\n        /* \"deps/proje/CryptoKids.sol\":773:778  owner */\n      0x00\n      dup1\n      sload\n      swap1\n      0x0100\n      exp\n      swap1\n      div\n      0xffffffffffffffffffffffffffffffffffffffff\n      and\n        /* \"deps/proje/CryptoKids.sol\":759:778  msg.sender == owner */\n      0xffffffffffffffffffffffffffffffffffffffff\n      and\n        /* \"deps/proje/CryptoKids.sol\":759:769  msg.sender */\n      caller\n        /* \"deps/proje/CryptoKids.sol\":759:778  msg.sender == owner */\n      0xffffffffffffffffffffffffffffffffffffffff\n      and\n      eq\n        /* \"deps/proje/CryptoKids.sol\":751:813  require(msg.sender == owner , \"only the owner can  add kids \") */\n      tag_40\n      jumpi\n      mload(0x40)\n      0x08c379a000000000000000000000000000000000000000000000000000000000\n      dup2\n      mstore\n      0x04\n      add\n      tag_41\n      swap1\n      tag_42\n      jump\t// in\n    tag_41:\n      mload(0x40)\n      dup1\n      swap2\n      sub\n      swap1\n      revert\n    tag_40:\n        /* \"deps/proje/CryptoKids.sol\":3065:3071  uint i */\n      0x00\n        /* \"deps/proje/CryptoKids.sol\":3074:3097  getIndex(walletAddress) */\n      tag_44\n        /* \"deps/proje/CryptoKids.sol\":3083:3096  walletAddress */\n      dup3\n        /* \"deps/proje/CryptoKids.sol\":3074:3082  getIndex */\n      tag_45\n        /* \"deps/proje/CryptoKids.sol\":3074:3097  getIndex(walletAddress) */\n      jump\t// in\n    tag_44:\n        /* \"deps/proje/CryptoKids.sol\":3065:3097  uint i = getIndex(walletAddress) */\n      swap1\n      pop\n        /* \"deps/proje/CryptoKids.sol\":3130:3134  kids */\n      0x01\n        /* \"deps/proje/CryptoKids.sol\":3135:3136  i */\n      dup2\n        /* \"deps/proje/CryptoKids.sol\":3130:3137  kids[i] */\n      dup2\n      sload\n      dup2\n      lt\n      tag_46\n      jumpi\n      tag_47\n      tag_48\n      jump\t// in\n    tag_47:\n    tag_46:\n      swap1\n      0x00\n      mstore\n      keccak256(0x00, 0x20)\n      swap1\n      0x06\n      mul\n      add\n        /* \"deps/proje/CryptoKids.sol\":3130:3151  kids[i].walletAddress */\n      0x00\n      add\n      0x00\n      swap1\n      sload\n      swap1\n      0x0100\n      exp\n      swap1\n      div\n      0xffffffffffffffffffffffffffffffffffffffff\n      and\n        /* \"deps/proje/CryptoKids.sol\":3116:3151  msg.sender == kids[i].walletAddress */\n      0xffffffffffffffffffffffffffffffffffffffff\n      and\n        /* \"deps/proje/CryptoKids.sol\":3116:3126  msg.sender */\n      caller\n        /* \"deps/proje/CryptoKids.sol\":3116:3151  msg.sender == kids[i].walletAddress */\n      0xffffffffffffffffffffffffffffffffffffffff\n      and\n      eq\n        /* \"deps/proje/CryptoKids.sol\":3108:3188  require(msg.sender == kids[i].walletAddress ,\"you must be the kid to withdraw\" ) */\n      tag_50\n      jumpi\n      mload(0x40)\n      0x08c379a000000000000000000000000000000000000000000000000000000000\n      dup2\n      mstore\n      0x04\n      add\n      tag_51\n      swap1\n      tag_52\n      jump\t// in\n    tag_51:\n      mload(0x40)\n      dup1\n      swap2\n      sub\n      swap1\n      revert\n    tag_50:\n        /* \"deps/proje/CryptoKids.sol\":3339:3343  kids */\n      0x01\n        /* \"deps/proje/CryptoKids.sol\":3344:3345  i */\n      dup2\n        /* \"deps/proje/CryptoKids.sol\":3339:3346  kids[i] */\n      dup2\n      sload\n      dup2\n      lt\n      tag_53\n      jumpi\n      tag_54\n      tag_48\n      jump\t// in\n    tag_54:\n    tag_53:\n      swap1\n      0x00\n      mstore\n      keccak256(0x00, 0x20)\n      swap1\n      0x06\n      mul\n      add\n        /* \"deps/proje/CryptoKids.sol\":3339:3360  kids[i].walletAddress */\n      0x00\n      add\n      0x00\n      swap1\n      sload\n      swap1\n      0x0100\n      exp\n      swap1\n      div\n      0xffffffffffffffffffffffffffffffffffffffff\n      and\n        /* \"deps/proje/CryptoKids.sol\":3339:3369  kids[i].walletAddress.transfer */\n      0xffffffffffffffffffffffffffffffffffffffff\n      and\n        /* \"deps/proje/CryptoKids.sol\":3339:3385  kids[i].walletAddress.transfer(kids[i].amount) */\n      0x08fc\n        /* \"deps/proje/CryptoKids.sol\":3370:3374  kids */\n      0x01\n        /* \"deps/proje/CryptoKids.sol\":3375:3376  i */\n      dup4\n        /* \"deps/proje/CryptoKids.sol\":3370:3377  kids[i] */\n      dup2\n      sload\n      dup2\n      lt\n      tag_56\n      jumpi\n      tag_57\n      tag_48\n      jump\t// in\n    tag_57:\n    tag_56:\n      swap1\n      0x00\n      mstore\n      keccak256(0x00, 0x20)\n      swap1\n      0x06\n      mul\n      add\n        /* \"deps/proje/CryptoKids.sol\":3370:3384  kids[i].amount */\n      0x04\n      add\n      sload\n        /* \"deps/proje/CryptoKids.sol\":3339:3385  kids[i].walletAddress.transfer(kids[i].amount) */\n      swap1\n      dup2\n      iszero\n      mul\n      swap1\n      mload(0x40)\n      0x00\n      mload(0x40)\n      dup1\n      dup4\n      sub\n      dup2\n      dup6\n      dup9\n      dup9\n      call\n      swap4\n      pop\n      pop\n      pop\n      pop\n      iszero\n      dup1\n      iszero\n      tag_60\n      jumpi\n      returndatasize\n      0x00\n      dup1\n      returndatacopy\n      revert(0x00, returndatasize)\n    tag_60:\n      pop\n        /* \"deps/proje/CryptoKids.sol\":3054:3393  {\r... */\n      pop\n        /* \"deps/proje/CryptoKids.sol\":2980:3393  function withDraw(address payable walletAddress) public payable OnlyOwner {\r... */\n      pop\n      jump\t// out\n        /* \"deps/proje/CryptoKids.sol\":842:1299  function addKids(address payable walletAddress,\r... */\n    tag_16:\n        /* \"deps/proje/CryptoKids.sol\":773:778  owner */\n      0x00\n      dup1\n      sload\n      swap1\n      0x0100\n      exp\n      swap1\n      div\n      0xffffffffffffffffffffffffffffffffffffffff\n      and\n        /* \"deps/proje/CryptoKids.sol\":759:778  msg.sender == owner */\n      0xffffffffffffffffffffffffffffffffffffffff\n      and\n        /* \"deps/proje/CryptoKids.sol\":759:769  msg.sender */\n      caller\n        /* \"deps/proje/CryptoKids.sol\":759:778  msg.sender == owner */\n      0xffffffffffffffffffffffffffffffffffffffff\n      and\n      eq\n        /* \"deps/proje/CryptoKids.sol\":751:813  require(msg.sender == owner , \"only the owner can  add kids \") */\n      tag_62\n      jumpi\n      mload(0x40)\n      0x08c379a000000000000000000000000000000000000000000000000000000000\n      dup2\n      mstore\n      0x04\n      add\n      tag_63\n      swap1\n      tag_42\n      jump\t// in\n    tag_63:\n      mload(0x40)\n      dup1\n      swap2\n      sub\n      swap1\n      revert\n    tag_62:\n        /* \"deps/proje/CryptoKids.sol\":1089:1093  kids */\n      0x01\n        /* \"deps/proje/CryptoKids.sol\":1099:1290  Kid(\r... */\n      mload(0x40)\n      dup1\n      0xc0\n      add\n      0x40\n      mstore\n      dup1\n        /* \"deps/proje/CryptoKids.sol\":1121:1134  walletAddress */\n      dup9\n        /* \"deps/proje/CryptoKids.sol\":1099:1290  Kid(\r... */\n      0xffffffffffffffffffffffffffffffffffffffff\n      and\n      dup2\n      mstore\n      0x20\n      add\n        /* \"deps/proje/CryptoKids.sol\":1154:1163  firstName */\n      dup8\n        /* \"deps/proje/CryptoKids.sol\":1099:1290  Kid(\r... */\n      dup2\n      mstore\n      0x20\n      add\n        /* \"deps/proje/CryptoKids.sol\":1182:1190  LastName */\n      dup7\n        /* \"deps/proje/CryptoKids.sol\":1099:1290  Kid(\r... */\n      dup2\n      mstore\n      0x20\n      add\n        /* \"deps/proje/CryptoKids.sol\":1209:1220  ReleaseTime */\n      dup6\n        /* \"deps/proje/CryptoKids.sol\":1099:1290  Kid(\r... */\n      dup2\n      mstore\n      0x20\n      add\n        /* \"deps/proje/CryptoKids.sol\":1239:1245  amount */\n      dup5\n        /* \"deps/proje/CryptoKids.sol\":1099:1290  Kid(\r... */\n      dup2\n      mstore\n      0x20\n      add\n        /* \"deps/proje/CryptoKids.sol\":1264:1275  canWithDraw */\n      dup4\n        /* \"deps/proje/CryptoKids.sol\":1099:1290  Kid(\r... */\n      iszero\n      iszero\n      dup2\n      mstore\n      pop\n        /* \"deps/proje/CryptoKids.sol\":1089:1291  kids.push(Kid(\r... */\n      swap1\n      dup1\n      0x01\n      dup2\n      sload\n      add\n      dup1\n      dup3\n      sstore\n      dup1\n      swap2\n      pop\n      pop\n      0x01\n      swap1\n      sub\n      swap1\n      0x00\n      mstore\n      keccak256(0x00, 0x20)\n      swap1\n      0x06\n      mul\n      add\n      0x00\n      swap1\n      swap2\n      swap1\n      swap2\n      swap1\n      swap2\n      pop\n      0x00\n      dup3\n      add\n      mload\n      dup2\n      0x00\n      add\n      exp(0x0100, 0x00)\n      dup2\n      sload\n      dup2\n      0xffffffffffffffffffffffffffffffffffffffff\n      mul\n      not\n      and\n      swap1\n      dup4\n      0xffffffffffffffffffffffffffffffffffffffff\n      and\n      mul\n      or\n      swap1\n      sstore\n      pop\n      0x20\n      dup3\n      add\n      mload\n      dup2\n      0x01\n      add\n      swap1\n      dup1\n      mload\n      swap1\n      0x20\n      add\n      swap1\n      tag_66\n      swap3\n      swap2\n      swap1\n      tag_67\n      jump\t// in\n    tag_66:\n      pop\n      0x40\n      dup3\n      add\n      mload\n      dup2\n      0x02\n      add\n      swap1\n      dup1\n      mload\n      swap1\n      0x20\n      add\n      swap1\n      tag_68\n      swap3\n      swap2\n      swap1\n      tag_67\n      jump\t// in\n    tag_68:\n      pop\n      0x60\n      dup3\n      add\n      mload\n      dup2\n      0x03\n      add\n      sstore\n      0x80\n      dup3\n      add\n      mload\n      dup2\n      0x04\n      add\n      sstore\n      0xa0\n      dup3\n      add\n      mload\n      dup2\n      0x05\n      add\n      exp(0x0100, 0x00)\n      dup2\n      sload\n      dup2\n      0xff\n      mul\n      not\n      and\n      swap1\n      dup4\n      iszero\n      iszero\n      mul\n      or\n      swap1\n      sstore\n      pop\n      pop\n      pop\n        /* \"deps/proje/CryptoKids.sol\":842:1299  function addKids(address payable walletAddress,\r... */\n      pop\n      pop\n      pop\n      pop\n      pop\n      pop\n      jump\t// out\n        /* \"deps/proje/CryptoKids.sol\":2485:2972  function availableToWithDraw(address walletAddress) public OnlyOwner returns(bool){\r... */\n    tag_21:\n        /* \"deps/proje/CryptoKids.sol\":2562:2566  bool */\n      0x00\n        /* \"deps/proje/CryptoKids.sol\":773:778  owner */\n      dup1\n      0x00\n      swap1\n      sload\n      swap1\n      0x0100\n      exp\n      swap1\n      div\n      0xffffffffffffffffffffffffffffffffffffffff\n      and\n        /* \"deps/proje/CryptoKids.sol\":759:778  msg.sender == owner */\n      0xffffffffffffffffffffffffffffffffffffffff\n      and\n        /* \"deps/proje/CryptoKids.sol\":759:769  msg.sender */\n      caller\n        /* \"deps/proje/CryptoKids.sol\":759:778  msg.sender == owner */\n      0xffffffffffffffffffffffffffffffffffffffff\n      and\n      eq\n        /* \"deps/proje/CryptoKids.sol\":751:813  require(msg.sender == owner , \"only the owner can  add kids \") */\n      tag_70\n      jumpi\n      mload(0x40)\n      0x08c379a000000000000000000000000000000000000000000000000000000000\n      dup2\n      mstore\n      0x04\n      add\n      tag_71\n      swap1\n      tag_42\n      jump\t// in\n    tag_71:\n      mload(0x40)\n      dup1\n      swap2\n      sub\n      swap1\n      revert\n    tag_70:\n        /* \"deps/proje/CryptoKids.sol\":2578:2584  uint i */\n      0x00\n        /* \"deps/proje/CryptoKids.sol\":2587:2610  getIndex(walletAddress) */\n      tag_73\n        /* \"deps/proje/CryptoKids.sol\":2596:2609  walletAddress */\n      dup4\n        /* \"deps/proje/CryptoKids.sol\":2587:2595  getIndex */\n      tag_45\n        /* \"deps/proje/CryptoKids.sol\":2587:2610  getIndex(walletAddress) */\n      jump\t// in\n    tag_73:\n        /* \"deps/proje/CryptoKids.sol\":2578:2610  uint i = getIndex(walletAddress) */\n      swap1\n      pop\n        /* \"deps/proje/CryptoKids.sol\":2647:2651  kids */\n      0x01\n        /* \"deps/proje/CryptoKids.sol\":2652:2653  i */\n      dup2\n        /* \"deps/proje/CryptoKids.sol\":2647:2654  kids[i] */\n      dup2\n      sload\n      dup2\n      lt\n      tag_74\n      jumpi\n      tag_75\n      tag_48\n      jump\t// in\n    tag_75:\n    tag_74:\n      swap1\n      0x00\n      mstore\n      keccak256(0x00, 0x20)\n      swap1\n      0x06\n      mul\n      add\n        /* \"deps/proje/CryptoKids.sol\":2647:2666  kids[i].ReleaseTime */\n      0x03\n      add\n      sload\n        /* \"deps/proje/CryptoKids.sol\":2629:2644  block.timestamp */\n      timestamp\n        /* \"deps/proje/CryptoKids.sol\":2629:2666  block.timestamp > kids[i].ReleaseTime */\n      gt\n        /* \"deps/proje/CryptoKids.sol\":2621:2695  require(block.timestamp > kids[i].ReleaseTime, \"you cannot withdraw yet \") */\n      tag_77\n      jumpi\n      mload(0x40)\n      0x08c379a000000000000000000000000000000000000000000000000000000000\n      dup2\n      mstore\n      0x04\n      add\n      tag_78\n      swap1\n      tag_79\n      jump\t// in\n    tag_78:\n      mload(0x40)\n      dup1\n      swap2\n      sub\n      swap1\n      revert\n    tag_77:\n        /* \"deps/proje/CryptoKids.sol\":2727:2731  kids */\n      0x01\n        /* \"deps/proje/CryptoKids.sol\":2732:2733  i */\n      dup2\n        /* \"deps/proje/CryptoKids.sol\":2727:2734  kids[i] */\n      dup2\n      sload\n      dup2\n      lt\n      tag_80\n      jumpi\n      tag_81\n      tag_48\n      jump\t// in\n    tag_81:\n    tag_80:\n      swap1\n      0x00\n      mstore\n      keccak256(0x00, 0x20)\n      swap1\n      0x06\n      mul\n      add\n        /* \"deps/proje/CryptoKids.sol\":2727:2746  kids[i].ReleaseTime */\n      0x03\n      add\n      sload\n        /* \"deps/proje/CryptoKids.sol\":2709:2724  block.timestamp */\n      timestamp\n        /* \"deps/proje/CryptoKids.sol\":2709:2746  block.timestamp > kids[i].ReleaseTime */\n      gt\n        /* \"deps/proje/CryptoKids.sol\":2706:2965  if(block.timestamp > kids[i].ReleaseTime){ // belirlenen yaşa gelmişse para çekmesine izin ver \r... */\n      iszero\n      tag_83\n      jumpi\n        /* \"deps/proje/CryptoKids.sol\":2840:2844  true */\n      0x01\n        /* \"deps/proje/CryptoKids.sol\":2818:2822  kids */\n      dup1\n        /* \"deps/proje/CryptoKids.sol\":2823:2824  i */\n      dup3\n        /* \"deps/proje/CryptoKids.sol\":2818:2825  kids[i] */\n      dup2\n      sload\n      dup2\n      lt\n      tag_84\n      jumpi\n      tag_85\n      tag_48\n      jump\t// in\n    tag_85:\n    tag_84:\n      swap1\n      0x00\n      mstore\n      keccak256(0x00, 0x20)\n      swap1\n      0x06\n      mul\n      add\n        /* \"deps/proje/CryptoKids.sol\":2818:2837  kids[i].canWithDraw */\n      0x05\n      add\n      0x00\n        /* \"deps/proje/CryptoKids.sol\":2818:2844  kids[i].canWithDraw = true */\n      0x0100\n      exp\n      dup2\n      sload\n      dup2\n      0xff\n      mul\n      not\n      and\n      swap1\n      dup4\n      iszero\n      iszero\n      mul\n      or\n      swap1\n      sstore\n      pop\n        /* \"deps/proje/CryptoKids.sol\":2902:2906  true */\n      0x01\n        /* \"deps/proje/CryptoKids.sol\":2895:2906  return true */\n      swap2\n      pop\n      pop\n      jump(tag_72)\n        /* \"deps/proje/CryptoKids.sol\":2706:2965  if(block.timestamp > kids[i].ReleaseTime){ // belirlenen yaşa gelmişse para çekmesine izin ver \r... */\n    tag_83:\n        /* \"deps/proje/CryptoKids.sol\":2947:2952  false */\n      0x00\n        /* \"deps/proje/CryptoKids.sol\":2940:2952  return false */\n      swap2\n      pop\n      pop\n        /* \"deps/proje/CryptoKids.sol\":825:826  _ */\n    tag_72:\n        /* \"deps/proje/CryptoKids.sol\":2485:2972  function availableToWithDraw(address walletAddress) public OnlyOwner returns(bool){\r... */\n      swap2\n      swap1\n      pop\n      jump\t// out\n        /* \"deps/proje/CryptoKids.sol\":572:589  Kid[] public kids */\n    tag_28:\n      0x01\n      dup2\n      dup2\n      sload\n      dup2\n      lt\n      tag_88\n      jumpi\n      0x00\n      dup1\n      revert\n    tag_88:\n      swap1\n      0x00\n      mstore\n      keccak256(0x00, 0x20)\n      swap1\n      0x06\n      mul\n      add\n      0x00\n      swap2\n      pop\n      swap1\n      pop\n      dup1\n      0x00\n      add\n      0x00\n      swap1\n      sload\n      swap1\n      0x0100\n      exp\n      swap1\n      div\n      0xffffffffffffffffffffffffffffffffffffffff\n      and\n      swap1\n      dup1\n      0x01\n      add\n      dup1\n      sload\n      tag_90\n      swap1\n      tag_91\n      jump\t// in\n    tag_90:\n      dup1\n      0x1f\n      add\n      0x20\n      dup1\n      swap2\n      div\n      mul\n      0x20\n      add\n      mload(0x40)\n      swap1\n      dup2\n      add\n      0x40\n      mstore\n      dup1\n      swap3\n      swap2\n      swap1\n      dup2\n      dup2\n      mstore\n      0x20\n      add\n      dup3\n      dup1\n      sload\n      tag_92\n      swap1\n      tag_91\n      jump\t// in\n    tag_92:\n      dup1\n      iszero\n      tag_93\n      jumpi\n      dup1\n      0x1f\n      lt\n      tag_94\n      jumpi\n      0x0100\n      dup1\n      dup4\n      sload\n      div\n      mul\n      dup4\n      mstore\n      swap2\n      0x20\n      add\n      swap2\n      jump(tag_93)\n    tag_94:\n      dup3\n      add\n      swap2\n      swap1\n      0x00\n      mstore\n      keccak256(0x00, 0x20)\n      swap1\n    tag_95:\n      dup2\n      sload\n      dup2\n      mstore\n      swap1\n      0x01\n      add\n      swap1\n      0x20\n      add\n      dup1\n      dup4\n      gt\n      tag_95\n      jumpi\n      dup3\n      swap1\n      sub\n      0x1f\n      and\n      dup3\n      add\n      swap2\n    tag_93:\n      pop\n      pop\n      pop\n      pop\n      pop\n      swap1\n      dup1\n      0x02\n      add\n      dup1\n      sload\n      tag_96\n      swap1\n      tag_91\n      jump\t// in\n    tag_96:\n      dup1\n      0x1f\n      add\n      0x20\n      dup1\n      swap2\n      div\n      mul\n      0x20\n      add\n      mload(0x40)\n      swap1\n      dup2\n      add\n      0x40\n      mstore\n      dup1\n      swap3\n      swap2\n      swap1\n      dup2\n      dup2\n      mstore\n      0x20\n      add\n      dup3\n      dup1\n      sload\n      tag_97\n      swap1\n      tag_91\n      jump\t// in\n    tag_97:\n      dup1\n      iszero\n      tag_98\n      jumpi\n      dup1\n      0x1f\n      lt\n      tag_99\n      jumpi\n      0x0100\n      dup1\n      dup4\n      sload\n      div\n      mul\n      dup4\n      mstore\n      swap2\n      0x20\n      add\n      swap2\n      jump(tag_98)\n    tag_99:\n      dup3\n      add\n      swap2\n      swap1\n      0x00\n      mstore\n      keccak256(0x00, 0x20)\n      swap1\n    tag_100:\n      dup2\n      sload\n      dup2\n      mstore\n      swap1\n      0x01\n      add\n      swap1\n      0x20\n      add\n      dup1\n      dup4\n      gt\n      tag_100\n      jumpi\n      dup3\n      swap1\n      sub\n      0x1f\n      and\n      dup3\n      add\n      swap2\n    tag_98:\n      pop\n      pop\n      pop\n      pop\n      pop\n      swap1\n      dup1\n      0x03\n      add\n      sload\n      swap1\n      dup1\n      0x04\n      add\n      sload\n      swap1\n      dup1\n      0x05\n      add\n      0x00\n      swap1\n      sload\n      swap1\n      0x0100\n      exp\n      swap1\n      div\n      0xff\n      and\n      swap1\n      pop\n      dup7\n      jump\t// out\n        /* \"deps/proje/CryptoKids.sol\":1468:1585  function deposite(address walletAddress)  public payable OnlyOwner {\r... */\n    tag_33:\n        /* \"deps/proje/CryptoKids.sol\":773:778  owner */\n      0x00\n      dup1\n      sload\n      swap1\n      0x0100\n      exp\n      swap1\n      div\n      0xffffffffffffffffffffffffffffffffffffffff\n      and\n        /* \"deps/proje/CryptoKids.sol\":759:778  msg.sender == owner */\n      0xffffffffffffffffffffffffffffffffffffffff\n      and\n        /* \"deps/proje/CryptoKids.sol\":759:769  msg.sender */\n      caller\n        /* \"deps/proje/CryptoKids.sol\":759:778  msg.sender == owner */\n      0xffffffffffffffffffffffffffffffffffffffff\n      and\n      eq\n        /* \"deps/proje/CryptoKids.sol\":751:813  require(msg.sender == owner , \"only the owner can  add kids \") */\n      tag_102\n      jumpi\n      mload(0x40)\n      0x08c379a000000000000000000000000000000000000000000000000000000000\n      dup2\n      mstore\n      0x04\n      add\n      tag_103\n      swap1\n      tag_42\n      jump\t// in\n    tag_103:\n      mload(0x40)\n      dup1\n      swap2\n      sub\n      swap1\n      revert\n    tag_102:\n        /* \"deps/proje/CryptoKids.sol\":1546:1576  addToKidBalance(walletAddress) */\n      tag_105\n        /* \"deps/proje/CryptoKids.sol\":1562:1575  walletAddress */\n      dup2\n        /* \"deps/proje/CryptoKids.sol\":1546:1561  addToKidBalance */\n      tag_106\n        /* \"deps/proje/CryptoKids.sol\":1546:1576  addToKidBalance(walletAddress) */\n      jump\t// in\n    tag_105:\n        /* \"deps/proje/CryptoKids.sol\":1468:1585  function deposite(address walletAddress)  public payable OnlyOwner {\r... */\n      pop\n      jump\t// out\n        /* \"deps/proje/CryptoKids.sol\":1311:1460  function BalanceOf() public view OnlyOwner returns(uint){\r... */\n    tag_36:\n        /* \"deps/proje/CryptoKids.sol\":1362:1366  uint */\n      0x00\n        /* \"deps/proje/CryptoKids.sol\":773:778  owner */\n      dup1\n      0x00\n      swap1\n      sload\n      swap1\n      0x0100\n      exp\n      swap1\n      div\n      0xffffffffffffffffffffffffffffffffffffffff\n      and\n        /* \"deps/proje/CryptoKids.sol\":759:778  msg.sender == owner */\n      0xffffffffffffffffffffffffffffffffffffffff\n      and\n        /* \"deps/proje/CryptoKids.sol\":759:769  msg.sender */\n      caller\n        /* \"deps/proje/CryptoKids.sol\":759:778  msg.sender == owner */\n      0xffffffffffffffffffffffffffffffffffffffff\n      and\n      eq\n        /* \"deps/proje/CryptoKids.sol\":751:813  require(msg.sender == owner , \"only the owner can  add kids \") */\n      tag_108\n      jumpi\n      mload(0x40)\n      0x08c379a000000000000000000000000000000000000000000000000000000000\n      dup2\n      mstore\n      0x04\n      add\n      tag_109\n      swap1\n      tag_42\n      jump\t// in\n    tag_109:\n      mload(0x40)\n      dup1\n      swap2\n      sub\n      swap1\n      revert\n    tag_108:\n        /* \"deps/proje/CryptoKids.sol\":1385:1406  address(this).balance */\n      selfbalance\n        /* \"deps/proje/CryptoKids.sol\":1378:1406  return address(this).balance */\n      swap1\n      pop\n        /* \"deps/proje/CryptoKids.sol\":1311:1460  function BalanceOf() public view OnlyOwner returns(uint){\r... */\n      swap1\n      jump\t// out\n        /* \"deps/proje/CryptoKids.sol\":2096:2476  function getIndex(address walletAddress) private view OnlyOwner returns(uint){\r... */\n    tag_45:\n        /* \"deps/proje/CryptoKids.sol\":2168:2172  uint */\n      0x00\n        /* \"deps/proje/CryptoKids.sol\":773:778  owner */\n      dup1\n      0x00\n      swap1\n      sload\n      swap1\n      0x0100\n      exp\n      swap1\n      div\n      0xffffffffffffffffffffffffffffffffffffffff\n      and\n        /* \"deps/proje/CryptoKids.sol\":759:778  msg.sender == owner */\n      0xffffffffffffffffffffffffffffffffffffffff\n      and\n        /* \"deps/proje/CryptoKids.sol\":759:769  msg.sender */\n      caller\n        /* \"deps/proje/CryptoKids.sol\":759:778  msg.sender == owner */\n      0xffffffffffffffffffffffffffffffffffffffff\n      and\n      eq\n        /* \"deps/proje/CryptoKids.sol\":751:813  require(msg.sender == owner , \"only the owner can  add kids \") */\n      tag_112\n      jumpi\n      mload(0x40)\n      0x08c379a000000000000000000000000000000000000000000000000000000000\n      dup2\n      mstore\n      0x04\n      add\n      tag_113\n      swap1\n      tag_42\n      jump\t// in\n    tag_113:\n      mload(0x40)\n      dup1\n      swap2\n      sub\n      swap1\n      revert\n    tag_112:\n        /* \"deps/proje/CryptoKids.sol\":2188:2194  uint i */\n      0x00\n        /* \"deps/proje/CryptoKids.sol\":2184:2448  for(uint i= 0 ; i< kids.length ; i++){ // kid sayısı kadar dolaş \r... */\n    tag_115:\n        /* \"deps/proje/CryptoKids.sol\":2203:2207  kids */\n      0x01\n        /* \"deps/proje/CryptoKids.sol\":2203:2214  kids.length */\n      dup1\n      sload\n      swap1\n      pop\n        /* \"deps/proje/CryptoKids.sol\":2200:2201  i */\n      dup2\n        /* \"deps/proje/CryptoKids.sol\":2200:2214  i< kids.length */\n      lt\n        /* \"deps/proje/CryptoKids.sol\":2184:2448  for(uint i= 0 ; i< kids.length ; i++){ // kid sayısı kadar dolaş \r... */\n      iszero\n      tag_116\n      jumpi\n        /* \"deps/proje/CryptoKids.sol\":2294:2307  walletAddress */\n      dup3\n        /* \"deps/proje/CryptoKids.sol\":2269:2307  kids[i].walletAddress == walletAddress */\n      0xffffffffffffffffffffffffffffffffffffffff\n      and\n        /* \"deps/proje/CryptoKids.sol\":2269:2273  kids */\n      0x01\n        /* \"deps/proje/CryptoKids.sol\":2274:2275  i */\n      dup3\n        /* \"deps/proje/CryptoKids.sol\":2269:2276  kids[i] */\n      dup2\n      sload\n      dup2\n      lt\n      tag_118\n      jumpi\n      tag_119\n      tag_48\n      jump\t// in\n    tag_119:\n    tag_118:\n      swap1\n      0x00\n      mstore\n      keccak256(0x00, 0x20)\n      swap1\n      0x06\n      mul\n      add\n        /* \"deps/proje/CryptoKids.sol\":2269:2290  kids[i].walletAddress */\n      0x00\n      add\n      0x00\n      swap1\n      sload\n      swap1\n      0x0100\n      exp\n      swap1\n      div\n      0xffffffffffffffffffffffffffffffffffffffff\n      and\n        /* \"deps/proje/CryptoKids.sol\":2269:2307  kids[i].walletAddress == walletAddress */\n      0xffffffffffffffffffffffffffffffffffffffff\n      and\n      eq\n        /* \"deps/proje/CryptoKids.sol\":2266:2437  if(kids[i].walletAddress == walletAddress ){ //işlem yapılan adres ile kid adresi tutuyorsa gönderilen parayı adrese yatır \r... */\n      iszero\n      tag_121\n      jumpi\n        /* \"deps/proje/CryptoKids.sol\":2418:2419  i */\n      dup1\n        /* \"deps/proje/CryptoKids.sol\":2411:2419  return i */\n      swap2\n      pop\n      pop\n      jump(tag_114)\n        /* \"deps/proje/CryptoKids.sol\":2266:2437  if(kids[i].walletAddress == walletAddress ){ //işlem yapılan adres ile kid adresi tutuyorsa gönderilen parayı adrese yatır \r... */\n    tag_121:\n        /* \"deps/proje/CryptoKids.sol\":2217:2220  i++ */\n      dup1\n      dup1\n      tag_122\n      swap1\n      tag_123\n      jump\t// in\n    tag_122:\n      swap2\n      pop\n      pop\n        /* \"deps/proje/CryptoKids.sol\":2184:2448  for(uint i= 0 ; i< kids.length ; i++){ // kid sayısı kadar dolaş \r... */\n      jump(tag_115)\n    tag_116:\n      pop\n        /* \"deps/proje/CryptoKids.sol\":2465:2468  999 */\n      0x03e7\n        /* \"deps/proje/CryptoKids.sol\":2458:2468  return 999 */\n      swap1\n      pop\n        /* \"deps/proje/CryptoKids.sol\":825:826  _ */\n    tag_114:\n        /* \"deps/proje/CryptoKids.sol\":2096:2476  function getIndex(address walletAddress) private view OnlyOwner returns(uint){\r... */\n      swap2\n      swap1\n      pop\n      jump\t// out\n        /* \"deps/proje/CryptoKids.sol\":1593:2088  function addToKidBalance( address walletAddress ) private OnlyOwner{\r... */\n    tag_106:\n        /* \"deps/proje/CryptoKids.sol\":773:778  owner */\n      0x00\n      dup1\n      sload\n      swap1\n      0x0100\n      exp\n      swap1\n      div\n      0xffffffffffffffffffffffffffffffffffffffff\n      and\n        /* \"deps/proje/CryptoKids.sol\":759:778  msg.sender == owner */\n      0xffffffffffffffffffffffffffffffffffffffff\n      and\n        /* \"deps/proje/CryptoKids.sol\":759:769  msg.sender */\n      caller\n        /* \"deps/proje/CryptoKids.sol\":759:778  msg.sender == owner */\n      0xffffffffffffffffffffffffffffffffffffffff\n      and\n      eq\n        /* \"deps/proje/CryptoKids.sol\":751:813  require(msg.sender == owner , \"only the owner can  add kids \") */\n      tag_125\n      jumpi\n      mload(0x40)\n      0x08c379a000000000000000000000000000000000000000000000000000000000\n      dup2\n      mstore\n      0x04\n      add\n      tag_126\n      swap1\n      tag_42\n      jump\t// in\n    tag_126:\n      mload(0x40)\n      dup1\n      swap2\n      sub\n      swap1\n      revert\n    tag_125:\n        /* \"deps/proje/CryptoKids.sol\":1675:1681  uint i */\n      0x00\n        /* \"deps/proje/CryptoKids.sol\":1671:2071  for(uint i= 0 ; i< kids.length ; i++){ // kid sayısı kadar dolaş \r... */\n    tag_128:\n        /* \"deps/proje/CryptoKids.sol\":1690:1694  kids */\n      0x01\n        /* \"deps/proje/CryptoKids.sol\":1690:1701  kids.length */\n      dup1\n      sload\n      swap1\n      pop\n        /* \"deps/proje/CryptoKids.sol\":1687:1688  i */\n      dup2\n        /* \"deps/proje/CryptoKids.sol\":1687:1701  i< kids.length */\n      lt\n        /* \"deps/proje/CryptoKids.sol\":1671:2071  for(uint i= 0 ; i< kids.length ; i++){ // kid sayısı kadar dolaş \r... */\n      iszero\n      tag_129\n      jumpi\n        /* \"deps/proje/CryptoKids.sol\":1781:1794  walletAddress */\n      dup2\n        /* \"deps/proje/CryptoKids.sol\":1756:1794  kids[i].walletAddress == walletAddress */\n      0xffffffffffffffffffffffffffffffffffffffff\n      and\n        /* \"deps/proje/CryptoKids.sol\":1756:1760  kids */\n      0x01\n        /* \"deps/proje/CryptoKids.sol\":1761:1762  i */\n      dup3\n        /* \"deps/proje/CryptoKids.sol\":1756:1763  kids[i] */\n      dup2\n      sload\n      dup2\n      lt\n      tag_131\n      jumpi\n      tag_132\n      tag_48\n      jump\t// in\n    tag_132:\n    tag_131:\n      swap1\n      0x00\n      mstore\n      keccak256(0x00, 0x20)\n      swap1\n      0x06\n      mul\n      add\n        /* \"deps/proje/CryptoKids.sol\":1756:1777  kids[i].walletAddress */\n      0x00\n      add\n      0x00\n      swap1\n      sload\n      swap1\n      0x0100\n      exp\n      swap1\n      div\n      0xffffffffffffffffffffffffffffffffffffffff\n      and\n        /* \"deps/proje/CryptoKids.sol\":1756:1794  kids[i].walletAddress == walletAddress */\n      0xffffffffffffffffffffffffffffffffffffffff\n      and\n      eq\n        /* \"deps/proje/CryptoKids.sol\":1753:2060  if(kids[i].walletAddress == walletAddress ){ //işlem yapılan adres ile kid adresi tutuyorsa gönderilen parayı adrese yatır \r... */\n      iszero\n      tag_134\n      jumpi\n        /* \"deps/proje/CryptoKids.sol\":1917:1926  msg.value */\n      callvalue\n        /* \"deps/proje/CryptoKids.sol\":1899:1903  kids */\n      0x01\n        /* \"deps/proje/CryptoKids.sol\":1904:1905  i */\n      dup3\n        /* \"deps/proje/CryptoKids.sol\":1899:1906  kids[i] */\n      dup2\n      sload\n      dup2\n      lt\n      tag_135\n      jumpi\n      tag_136\n      tag_48\n      jump\t// in\n    tag_136:\n    tag_135:\n      swap1\n      0x00\n      mstore\n      keccak256(0x00, 0x20)\n      swap1\n      0x06\n      mul\n      add\n        /* \"deps/proje/CryptoKids.sol\":1899:1913  kids[i].amount */\n      0x04\n      add\n      0x00\n        /* \"deps/proje/CryptoKids.sol\":1899:1926  kids[i].amount += msg.value */\n      dup3\n      dup3\n      sload\n      tag_138\n      swap2\n      swap1\n      tag_139\n      jump\t// in\n    tag_138:\n      swap3\n      pop\n      pop\n      dup2\n      swap1\n      sstore\n      pop\n        /* \"deps/proje/CryptoKids.sol\":1950:2004  LogKidFunding(walletAddress , msg.value , BalanceOf()) */\n      0x93bb732fd2d523b5a5825d5fddaf2a4a42b00c83b5800aec306627e0dc3b5b51\n        /* \"deps/proje/CryptoKids.sol\":1964:1977  walletAddress */\n      dup3\n        /* \"deps/proje/CryptoKids.sol\":1980:1989  msg.value */\n      callvalue\n        /* \"deps/proje/CryptoKids.sol\":1992:2003  BalanceOf() */\n      tag_140\n        /* \"deps/proje/CryptoKids.sol\":1992:2001  BalanceOf */\n      tag_36\n        /* \"deps/proje/CryptoKids.sol\":1992:2003  BalanceOf() */\n      jump\t// in\n    tag_140:\n        /* \"deps/proje/CryptoKids.sol\":1950:2004  LogKidFunding(walletAddress , msg.value , BalanceOf()) */\n      mload(0x40)\n      tag_141\n      swap4\n      swap3\n      swap2\n      swap1\n      tag_142\n      jump\t// in\n    tag_141:\n      mload(0x40)\n      dup1\n      swap2\n      sub\n      swap1\n      log1\n        /* \"deps/proje/CryptoKids.sol\":1753:2060  if(kids[i].walletAddress == walletAddress ){ //işlem yapılan adres ile kid adresi tutuyorsa gönderilen parayı adrese yatır \r... */\n    tag_134:\n        /* \"deps/proje/CryptoKids.sol\":1704:1707  i++ */\n      dup1\n      dup1\n      tag_143\n      swap1\n      tag_123\n      jump\t// in\n    tag_143:\n      swap2\n      pop\n      pop\n        /* \"deps/proje/CryptoKids.sol\":1671:2071  for(uint i= 0 ; i< kids.length ; i++){ // kid sayısı kadar dolaş \r... */\n      jump(tag_128)\n    tag_129:\n      pop\n        /* \"deps/proje/CryptoKids.sol\":1593:2088  function addToKidBalance( address walletAddress ) private OnlyOwner{\r... */\n      pop\n      jump\t// out\n    tag_67:\n      dup3\n      dup1\n      sload\n      tag_144\n      swap1\n      tag_91\n      jump\t// in\n    tag_144:\n      swap1\n      0x00\n      mstore\n      keccak256(0x00, 0x20)\n      swap1\n      0x1f\n      add\n      0x20\n      swap1\n      div\n      dup2\n      add\n      swap3\n      dup3\n      tag_146\n      jumpi\n      0x00\n      dup6\n      sstore\n      jump(tag_145)\n    tag_146:\n      dup3\n      0x1f\n      lt\n      tag_147\n      jumpi\n      dup1\n      mload\n      not(0xff)\n      and\n      dup4\n      dup1\n      add\n      or\n      dup6\n      sstore\n      jump(tag_145)\n    tag_147:\n      dup3\n      dup1\n      add\n      0x01\n      add\n      dup6\n      sstore\n      dup3\n      iszero\n      tag_145\n      jumpi\n      swap2\n      dup3\n      add\n    tag_148:\n      dup3\n      dup2\n      gt\n      iszero\n      tag_149\n      jumpi\n      dup3\n      mload\n      dup3\n      sstore\n      swap2\n      0x20\n      add\n      swap2\n      swap1\n      0x01\n      add\n      swap1\n      jump(tag_148)\n    tag_149:\n    tag_145:\n      pop\n      swap1\n      pop\n      tag_150\n      swap2\n      swap1\n      tag_151\n      jump\t// in\n    tag_150:\n      pop\n      swap1\n      jump\t// out\n    tag_151:\n    tag_152:\n      dup1\n      dup3\n      gt\n      iszero\n      tag_153\n      jumpi\n      0x00\n      dup2\n      0x00\n      swap1\n      sstore\n      pop\n      0x01\n      add\n      jump(tag_152)\n    tag_153:\n      pop\n      swap1\n      jump\t// out\n        /* \"#utility.yul\":7:419   */\n    tag_155:\n        /* \"#utility.yul\":85:90   */\n      0x00\n        /* \"#utility.yul\":110:176   */\n      tag_157\n        /* \"#utility.yul\":126:175   */\n      tag_158\n        /* \"#utility.yul\":168:174   */\n      dup5\n        /* \"#utility.yul\":126:175   */\n      tag_159\n      jump\t// in\n    tag_158:\n        /* \"#utility.yul\":110:176   */\n      tag_160\n      jump\t// in\n    tag_157:\n        /* \"#utility.yul\":101:176   */\n      swap1\n      pop\n        /* \"#utility.yul\":199:205   */\n      dup3\n        /* \"#utility.yul\":192:197   */\n      dup2\n        /* \"#utility.yul\":185:206   */\n      mstore\n        /* \"#utility.yul\":237:241   */\n      0x20\n        /* \"#utility.yul\":230:235   */\n      dup2\n        /* \"#utility.yul\":226:242   */\n      add\n        /* \"#utility.yul\":275:278   */\n      dup5\n        /* \"#utility.yul\":266:272   */\n      dup5\n        /* \"#utility.yul\":261:264   */\n      dup5\n        /* \"#utility.yul\":257:273   */\n      add\n        /* \"#utility.yul\":254:279   */\n      gt\n        /* \"#utility.yul\":251:363   */\n      iszero\n      tag_161\n      jumpi\n        /* \"#utility.yul\":282:361   */\n      tag_162\n      tag_163\n      jump\t// in\n    tag_162:\n        /* \"#utility.yul\":251:363   */\n    tag_161:\n        /* \"#utility.yul\":372:413   */\n      tag_164\n        /* \"#utility.yul\":406:412   */\n      dup5\n        /* \"#utility.yul\":401:404   */\n      dup3\n        /* \"#utility.yul\":396:399   */\n      dup6\n        /* \"#utility.yul\":372:413   */\n      tag_165\n      jump\t// in\n    tag_164:\n        /* \"#utility.yul\":91:419   */\n      pop\n        /* \"#utility.yul\":7:419   */\n      swap4\n      swap3\n      pop\n      pop\n      pop\n      jump\t// out\n        /* \"#utility.yul\":425:564   */\n    tag_166:\n        /* \"#utility.yul\":471:476   */\n      0x00\n        /* \"#utility.yul\":509:515   */\n      dup2\n        /* \"#utility.yul\":496:516   */\n      calldataload\n        /* \"#utility.yul\":487:516   */\n      swap1\n      pop\n        /* \"#utility.yul\":525:558   */\n      tag_168\n        /* \"#utility.yul\":552:557   */\n      dup2\n        /* \"#utility.yul\":525:558   */\n      tag_169\n      jump\t// in\n    tag_168:\n        /* \"#utility.yul\":425:564   */\n      swap3\n      swap2\n      pop\n      pop\n      jump\t// out\n        /* \"#utility.yul\":570:725   */\n    tag_170:\n        /* \"#utility.yul\":624:629   */\n      0x00\n        /* \"#utility.yul\":662:668   */\n      dup2\n        /* \"#utility.yul\":649:669   */\n      calldataload\n        /* \"#utility.yul\":640:669   */\n      swap1\n      pop\n        /* \"#utility.yul\":678:719   */\n      tag_172\n        /* \"#utility.yul\":713:718   */\n      dup2\n        /* \"#utility.yul\":678:719   */\n      tag_173\n      jump\t// in\n    tag_172:\n        /* \"#utility.yul\":570:725   */\n      swap3\n      swap2\n      pop\n      pop\n      jump\t// out\n        /* \"#utility.yul\":731:864   */\n    tag_174:\n        /* \"#utility.yul\":774:779   */\n      0x00\n        /* \"#utility.yul\":812:818   */\n      dup2\n        /* \"#utility.yul\":799:819   */\n      calldataload\n        /* \"#utility.yul\":790:819   */\n      swap1\n      pop\n        /* \"#utility.yul\":828:858   */\n      tag_176\n        /* \"#utility.yul\":852:857   */\n      dup2\n        /* \"#utility.yul\":828:858   */\n      tag_177\n      jump\t// in\n    tag_176:\n        /* \"#utility.yul\":731:864   */\n      swap3\n      swap2\n      pop\n      pop\n      jump\t// out\n        /* \"#utility.yul\":884:1224   */\n    tag_178:\n        /* \"#utility.yul\":940:945   */\n      0x00\n        /* \"#utility.yul\":989:992   */\n      dup3\n        /* \"#utility.yul\":982:986   */\n      0x1f\n        /* \"#utility.yul\":974:980   */\n      dup4\n        /* \"#utility.yul\":970:987   */\n      add\n        /* \"#utility.yul\":966:993   */\n      slt\n        /* \"#utility.yul\":956:1078   */\n      tag_180\n      jumpi\n        /* \"#utility.yul\":997:1076   */\n      tag_181\n      tag_182\n      jump\t// in\n    tag_181:\n        /* \"#utility.yul\":956:1078   */\n    tag_180:\n        /* \"#utility.yul\":1114:1120   */\n      dup2\n        /* \"#utility.yul\":1101:1121   */\n      calldataload\n        /* \"#utility.yul\":1139:1218   */\n      tag_183\n        /* \"#utility.yul\":1214:1217   */\n      dup5\n        /* \"#utility.yul\":1206:1212   */\n      dup3\n        /* \"#utility.yul\":1199:1203   */\n      0x20\n        /* \"#utility.yul\":1191:1197   */\n      dup7\n        /* \"#utility.yul\":1187:1204   */\n      add\n        /* \"#utility.yul\":1139:1218   */\n      tag_155\n      jump\t// in\n    tag_183:\n        /* \"#utility.yul\":1130:1218   */\n      swap2\n      pop\n        /* \"#utility.yul\":946:1224   */\n      pop\n        /* \"#utility.yul\":884:1224   */\n      swap3\n      swap2\n      pop\n      pop\n      jump\t// out\n        /* \"#utility.yul\":1230:1369   */\n    tag_184:\n        /* \"#utility.yul\":1276:1281   */\n      0x00\n        /* \"#utility.yul\":1314:1320   */\n      dup2\n        /* \"#utility.yul\":1301:1321   */\n      calldataload\n        /* \"#utility.yul\":1292:1321   */\n      swap1\n      pop\n        /* \"#utility.yul\":1330:1363   */\n      tag_186\n        /* \"#utility.yul\":1357:1362   */\n      dup2\n        /* \"#utility.yul\":1330:1363   */\n      tag_187\n      jump\t// in\n    tag_186:\n        /* \"#utility.yul\":1230:1369   */\n      swap3\n      swap2\n      pop\n      pop\n      jump\t// out\n        /* \"#utility.yul\":1375:1704   */\n    tag_20:\n        /* \"#utility.yul\":1434:1440   */\n      0x00\n        /* \"#utility.yul\":1483:1485   */\n      0x20\n        /* \"#utility.yul\":1471:1480   */\n      dup3\n        /* \"#utility.yul\":1462:1469   */\n      dup5\n        /* \"#utility.yul\":1458:1481   */\n      sub\n        /* \"#utility.yul\":1454:1486   */\n      slt\n        /* \"#utility.yul\":1451:1570   */\n      iszero\n      tag_189\n      jumpi\n        /* \"#utility.yul\":1489:1568   */\n      tag_190\n      tag_191\n      jump\t// in\n    tag_190:\n        /* \"#utility.yul\":1451:1570   */\n    tag_189:\n        /* \"#utility.yul\":1609:1610   */\n      0x00\n        /* \"#utility.yul\":1634:1687   */\n      tag_192\n        /* \"#utility.yul\":1679:1686   */\n      dup5\n        /* \"#utility.yul\":1670:1676   */\n      dup3\n        /* \"#utility.yul\":1659:1668   */\n      dup6\n        /* \"#utility.yul\":1655:1677   */\n      add\n        /* \"#utility.yul\":1634:1687   */\n      tag_166\n      jump\t// in\n    tag_192:\n        /* \"#utility.yul\":1624:1687   */\n      swap2\n      pop\n        /* \"#utility.yul\":1580:1697   */\n      pop\n        /* \"#utility.yul\":1375:1704   */\n      swap3\n      swap2\n      pop\n      pop\n      jump\t// out\n        /* \"#utility.yul\":1710:2055   */\n    tag_10:\n        /* \"#utility.yul\":1777:1783   */\n      0x00\n        /* \"#utility.yul\":1826:1828   */\n      0x20\n        /* \"#utility.yul\":1814:1823   */\n      dup3\n        /* \"#utility.yul\":1805:1812   */\n      dup5\n        /* \"#utility.yul\":1801:1824   */\n      sub\n        /* \"#utility.yul\":1797:1829   */\n      slt\n        /* \"#utility.yul\":1794:1913   */\n      iszero\n      tag_194\n      jumpi\n        /* \"#utility.yul\":1832:1911   */\n      tag_195\n      tag_191\n      jump\t// in\n    tag_195:\n        /* \"#utility.yul\":1794:1913   */\n    tag_194:\n        /* \"#utility.yul\":1952:1953   */\n      0x00\n        /* \"#utility.yul\":1977:2038   */\n      tag_196\n        /* \"#utility.yul\":2030:2037   */\n      dup5\n        /* \"#utility.yul\":2021:2027   */\n      dup3\n        /* \"#utility.yul\":2010:2019   */\n      dup6\n        /* \"#utility.yul\":2006:2028   */\n      add\n        /* \"#utility.yul\":1977:2038   */\n      tag_170\n      jump\t// in\n    tag_196:\n        /* \"#utility.yul\":1967:2038   */\n      swap2\n      pop\n        /* \"#utility.yul\":1923:2048   */\n      pop\n        /* \"#utility.yul\":1710:2055   */\n      swap3\n      swap2\n      pop\n      pop\n      jump\t// out\n        /* \"#utility.yul\":2061:3488   */\n    tag_15:\n        /* \"#utility.yul\":2190:2196   */\n      0x00\n        /* \"#utility.yul\":2198:2204   */\n      dup1\n        /* \"#utility.yul\":2206:2212   */\n      0x00\n        /* \"#utility.yul\":2214:2220   */\n      dup1\n        /* \"#utility.yul\":2222:2228   */\n      0x00\n        /* \"#utility.yul\":2230:2236   */\n      dup1\n        /* \"#utility.yul\":2279:2282   */\n      0xc0\n        /* \"#utility.yul\":2267:2276   */\n      dup8\n        /* \"#utility.yul\":2258:2265   */\n      dup10\n        /* \"#utility.yul\":2254:2277   */\n      sub\n        /* \"#utility.yul\":2250:2283   */\n      slt\n        /* \"#utility.yul\":2247:2367   */\n      iszero\n      tag_198\n      jumpi\n        /* \"#utility.yul\":2286:2365   */\n      tag_199\n      tag_191\n      jump\t// in\n    tag_199:\n        /* \"#utility.yul\":2247:2367   */\n    tag_198:\n        /* \"#utility.yul\":2406:2407   */\n      0x00\n        /* \"#utility.yul\":2431:2492   */\n      tag_200\n        /* \"#utility.yul\":2484:2491   */\n      dup10\n        /* \"#utility.yul\":2475:2481   */\n      dup3\n        /* \"#utility.yul\":2464:2473   */\n      dup11\n        /* \"#utility.yul\":2460:2482   */\n      add\n        /* \"#utility.yul\":2431:2492   */\n      tag_170\n      jump\t// in\n    tag_200:\n        /* \"#utility.yul\":2421:2492   */\n      swap7\n      pop\n        /* \"#utility.yul\":2377:2502   */\n      pop\n        /* \"#utility.yul\":2569:2571   */\n      0x20\n        /* \"#utility.yul\":2558:2567   */\n      dup8\n        /* \"#utility.yul\":2554:2572   */\n      add\n        /* \"#utility.yul\":2541:2573   */\n      calldataload\n        /* \"#utility.yul\":2600:2618   */\n      0xffffffffffffffff\n        /* \"#utility.yul\":2592:2598   */\n      dup2\n        /* \"#utility.yul\":2589:2619   */\n      gt\n        /* \"#utility.yul\":2586:2703   */\n      iszero\n      tag_201\n      jumpi\n        /* \"#utility.yul\":2622:2701   */\n      tag_202\n      tag_203\n      jump\t// in\n    tag_202:\n        /* \"#utility.yul\":2586:2703   */\n    tag_201:\n        /* \"#utility.yul\":2727:2790   */\n      tag_204\n        /* \"#utility.yul\":2782:2789   */\n      dup10\n        /* \"#utility.yul\":2773:2779   */\n      dup3\n        /* \"#utility.yul\":2762:2771   */\n      dup11\n        /* \"#utility.yul\":2758:2780   */\n      add\n        /* \"#utility.yul\":2727:2790   */\n      tag_178\n      jump\t// in\n    tag_204:\n        /* \"#utility.yul\":2717:2790   */\n      swap6\n      pop\n        /* \"#utility.yul\":2512:2800   */\n      pop\n        /* \"#utility.yul\":2867:2869   */\n      0x40\n        /* \"#utility.yul\":2856:2865   */\n      dup8\n        /* \"#utility.yul\":2852:2870   */\n      add\n        /* \"#utility.yul\":2839:2871   */\n      calldataload\n        /* \"#utility.yul\":2898:2916   */\n      0xffffffffffffffff\n        /* \"#utility.yul\":2890:2896   */\n      dup2\n        /* \"#utility.yul\":2887:2917   */\n      gt\n        /* \"#utility.yul\":2884:3001   */\n      iszero\n      tag_205\n      jumpi\n        /* \"#utility.yul\":2920:2999   */\n      tag_206\n      tag_203\n      jump\t// in\n    tag_206:\n        /* \"#utility.yul\":2884:3001   */\n    tag_205:\n        /* \"#utility.yul\":3025:3088   */\n      tag_207\n        /* \"#utility.yul\":3080:3087   */\n      dup10\n        /* \"#utility.yul\":3071:3077   */\n      dup3\n        /* \"#utility.yul\":3060:3069   */\n      dup11\n        /* \"#utility.yul\":3056:3078   */\n      add\n        /* \"#utility.yul\":3025:3088   */\n      tag_178\n      jump\t// in\n    tag_207:\n        /* \"#utility.yul\":3015:3088   */\n      swap5\n      pop\n        /* \"#utility.yul\":2810:3098   */\n      pop\n        /* \"#utility.yul\":3137:3139   */\n      0x60\n        /* \"#utility.yul\":3163:3216   */\n      tag_208\n        /* \"#utility.yul\":3208:3215   */\n      dup10\n        /* \"#utility.yul\":3199:3205   */\n      dup3\n        /* \"#utility.yul\":3188:3197   */\n      dup11\n        /* \"#utility.yul\":3184:3206   */\n      add\n        /* \"#utility.yul\":3163:3216   */\n      tag_184\n      jump\t// in\n    tag_208:\n        /* \"#utility.yul\":3153:3216   */\n      swap4\n      pop\n        /* \"#utility.yul\":3108:3226   */\n      pop\n        /* \"#utility.yul\":3265:3268   */\n      0x80\n        /* \"#utility.yul\":3292:3345   */\n      tag_209\n        /* \"#utility.yul\":3337:3344   */\n      dup10\n        /* \"#utility.yul\":3328:3334   */\n      dup3\n        /* \"#utility.yul\":3317:3326   */\n      dup11\n        /* \"#utility.yul\":3313:3335   */\n      add\n        /* \"#utility.yul\":3292:3345   */\n      tag_184\n      jump\t// in\n    tag_209:\n        /* \"#utility.yul\":3282:3345   */\n      swap3\n      pop\n        /* \"#utility.yul\":3236:3355   */\n      pop\n        /* \"#utility.yul\":3394:3397   */\n      0xa0\n        /* \"#utility.yul\":3421:3471   */\n      tag_210\n        /* \"#utility.yul\":3463:3470   */\n      dup10\n        /* \"#utility.yul\":3454:3460   */\n      dup3\n        /* \"#utility.yul\":3443:3452   */\n      dup11\n        /* \"#utility.yul\":3439:3461   */\n      add\n        /* \"#utility.yul\":3421:3471   */\n      tag_174\n      jump\t// in\n    tag_210:\n        /* \"#utility.yul\":3411:3471   */\n      swap2\n      pop\n        /* \"#utility.yul\":3365:3481   */\n      pop\n        /* \"#utility.yul\":2061:3488   */\n      swap3\n      swap6\n      pop\n      swap3\n      swap6\n      pop\n      swap3\n      swap6\n      jump\t// out\n        /* \"#utility.yul\":3494:3823   */\n    tag_27:\n        /* \"#utility.yul\":3553:3559   */\n      0x00\n        /* \"#utility.yul\":3602:3604   */\n      0x20\n        /* \"#utility.yul\":3590:3599   */\n      dup3\n        /* \"#utility.yul\":3581:3588   */\n      dup5\n        /* \"#utility.yul\":3577:3600   */\n      sub\n        /* \"#utility.yul\":3573:3605   */\n      slt\n        /* \"#utility.yul\":3570:3689   */\n      iszero\n      tag_212\n      jumpi\n        /* \"#utility.yul\":3608:3687   */\n      tag_213\n      tag_191\n      jump\t// in\n    tag_213:\n        /* \"#utility.yul\":3570:3689   */\n    tag_212:\n        /* \"#utility.yul\":3728:3729   */\n      0x00\n        /* \"#utility.yul\":3753:3806   */\n      tag_214\n        /* \"#utility.yul\":3798:3805   */\n      dup5\n        /* \"#utility.yul\":3789:3795   */\n      dup3\n        /* \"#utility.yul\":3778:3787   */\n      dup6\n        /* \"#utility.yul\":3774:3796   */\n      add\n        /* \"#utility.yul\":3753:3806   */\n      tag_184\n      jump\t// in\n    tag_214:\n        /* \"#utility.yul\":3743:3806   */\n      swap2\n      pop\n        /* \"#utility.yul\":3699:3816   */\n      pop\n        /* \"#utility.yul\":3494:3823   */\n      swap3\n      swap2\n      pop\n      pop\n      jump\t// out\n        /* \"#utility.yul\":3829:3971   */\n    tag_215:\n        /* \"#utility.yul\":3932:3964   */\n      tag_217\n        /* \"#utility.yul\":3958:3963   */\n      dup2\n        /* \"#utility.yul\":3932:3964   */\n      tag_218\n      jump\t// in\n    tag_217:\n        /* \"#utility.yul\":3927:3930   */\n      dup3\n        /* \"#utility.yul\":3920:3965   */\n      mstore\n        /* \"#utility.yul\":3829:3971   */\n      pop\n      pop\n      jump\t// out\n        /* \"#utility.yul\":3977:4095   */\n    tag_219:\n        /* \"#utility.yul\":4064:4088   */\n      tag_221\n        /* \"#utility.yul\":4082:4087   */\n      dup2\n        /* \"#utility.yul\":4064:4088   */\n      tag_222\n      jump\t// in\n    tag_221:\n        /* \"#utility.yul\":4059:4062   */\n      dup3\n        /* \"#utility.yul\":4052:4089   */\n      mstore\n        /* \"#utility.yul\":3977:4095   */\n      pop\n      pop\n      jump\t// out\n        /* \"#utility.yul\":4101:4210   */\n    tag_223:\n        /* \"#utility.yul\":4182:4203   */\n      tag_225\n        /* \"#utility.yul\":4197:4202   */\n      dup2\n        /* \"#utility.yul\":4182:4203   */\n      tag_226\n      jump\t// in\n    tag_225:\n        /* \"#utility.yul\":4177:4180   */\n      dup3\n        /* \"#utility.yul\":4170:4204   */\n      mstore\n        /* \"#utility.yul\":4101:4210   */\n      pop\n      pop\n      jump\t// out\n        /* \"#utility.yul\":4216:4580   */\n    tag_227:\n        /* \"#utility.yul\":4304:4307   */\n      0x00\n        /* \"#utility.yul\":4332:4371   */\n      tag_229\n        /* \"#utility.yul\":4365:4370   */\n      dup3\n        /* \"#utility.yul\":4332:4371   */\n      tag_230\n      jump\t// in\n    tag_229:\n        /* \"#utility.yul\":4387:4458   */\n      tag_231\n        /* \"#utility.yul\":4451:4457   */\n      dup2\n        /* \"#utility.yul\":4446:4449   */\n      dup6\n        /* \"#utility.yul\":4387:4458   */\n      tag_232\n      jump\t// in\n    tag_231:\n        /* \"#utility.yul\":4380:4458   */\n      swap4\n      pop\n        /* \"#utility.yul\":4467:4519   */\n      tag_233\n        /* \"#utility.yul\":4512:4518   */\n      dup2\n        /* \"#utility.yul\":4507:4510   */\n      dup6\n        /* \"#utility.yul\":4500:4504   */\n      0x20\n        /* \"#utility.yul\":4493:4498   */\n      dup7\n        /* \"#utility.yul\":4489:4505   */\n      add\n        /* \"#utility.yul\":4467:4519   */\n      tag_234\n      jump\t// in\n    tag_233:\n        /* \"#utility.yul\":4544:4573   */\n      tag_235\n        /* \"#utility.yul\":4566:4572   */\n      dup2\n        /* \"#utility.yul\":4544:4573   */\n      tag_236\n      jump\t// in\n    tag_235:\n        /* \"#utility.yul\":4539:4542   */\n      dup5\n        /* \"#utility.yul\":4535:4574   */\n      add\n        /* \"#utility.yul\":4528:4574   */\n      swap2\n      pop\n        /* \"#utility.yul\":4308:4580   */\n      pop\n        /* \"#utility.yul\":4216:4580   */\n      swap3\n      swap2\n      pop\n      pop\n      jump\t// out\n        /* \"#utility.yul\":4586:4952   */\n    tag_237:\n        /* \"#utility.yul\":4728:4731   */\n      0x00\n        /* \"#utility.yul\":4749:4816   */\n      tag_239\n        /* \"#utility.yul\":4813:4815   */\n      0x1f\n        /* \"#utility.yul\":4808:4811   */\n      dup4\n        /* \"#utility.yul\":4749:4816   */\n      tag_232\n      jump\t// in\n    tag_239:\n        /* \"#utility.yul\":4742:4816   */\n      swap2\n      pop\n        /* \"#utility.yul\":4825:4918   */\n      tag_240\n        /* \"#utility.yul\":4914:4917   */\n      dup3\n        /* \"#utility.yul\":4825:4918   */\n      tag_241\n      jump\t// in\n    tag_240:\n        /* \"#utility.yul\":4943:4945   */\n      0x20\n        /* \"#utility.yul\":4938:4941   */\n      dup3\n        /* \"#utility.yul\":4934:4946   */\n      add\n        /* \"#utility.yul\":4927:4946   */\n      swap1\n      pop\n        /* \"#utility.yul\":4586:4952   */\n      swap2\n      swap1\n      pop\n      jump\t// out\n        /* \"#utility.yul\":4958:5324   */\n    tag_242:\n        /* \"#utility.yul\":5100:5103   */\n      0x00\n        /* \"#utility.yul\":5121:5188   */\n      tag_244\n        /* \"#utility.yul\":5185:5187   */\n      0x18\n        /* \"#utility.yul\":5180:5183   */\n      dup4\n        /* \"#utility.yul\":5121:5188   */\n      tag_232\n      jump\t// in\n    tag_244:\n        /* \"#utility.yul\":5114:5188   */\n      swap2\n      pop\n        /* \"#utility.yul\":5197:5290   */\n      tag_245\n        /* \"#utility.yul\":5286:5289   */\n      dup3\n        /* \"#utility.yul\":5197:5290   */\n      tag_246\n      jump\t// in\n    tag_245:\n        /* \"#utility.yul\":5315:5317   */\n      0x20\n        /* \"#utility.yul\":5310:5313   */\n      dup3\n        /* \"#utility.yul\":5306:5318   */\n      add\n        /* \"#utility.yul\":5299:5318   */\n      swap1\n      pop\n        /* \"#utility.yul\":4958:5324   */\n      swap2\n      swap1\n      pop\n      jump\t// out\n        /* \"#utility.yul\":5330:5696   */\n    tag_247:\n        /* \"#utility.yul\":5472:5475   */\n      0x00\n        /* \"#utility.yul\":5493:5560   */\n      tag_249\n        /* \"#utility.yul\":5557:5559   */\n      0x1d\n        /* \"#utility.yul\":5552:5555   */\n      dup4\n        /* \"#utility.yul\":5493:5560   */\n      tag_232\n      jump\t// in\n    tag_249:\n        /* \"#utility.yul\":5486:5560   */\n      swap2\n      pop\n        /* \"#utility.yul\":5569:5662   */\n      tag_250\n        /* \"#utility.yul\":5658:5661   */\n      dup3\n        /* \"#utility.yul\":5569:5662   */\n      tag_251\n      jump\t// in\n    tag_250:\n        /* \"#utility.yul\":5687:5689   */\n      0x20\n        /* \"#utility.yul\":5682:5685   */\n      dup3\n        /* \"#utility.yul\":5678:5690   */\n      add\n        /* \"#utility.yul\":5671:5690   */\n      swap1\n      pop\n        /* \"#utility.yul\":5330:5696   */\n      swap2\n      swap1\n      pop\n      jump\t// out\n        /* \"#utility.yul\":5702:5820   */\n    tag_252:\n        /* \"#utility.yul\":5789:5813   */\n      tag_254\n        /* \"#utility.yul\":5807:5812   */\n      dup2\n        /* \"#utility.yul\":5789:5813   */\n      tag_255\n      jump\t// in\n    tag_254:\n        /* \"#utility.yul\":5784:5787   */\n      dup3\n        /* \"#utility.yul\":5777:5814   */\n      mstore\n        /* \"#utility.yul\":5702:5820   */\n      pop\n      pop\n      jump\t// out\n        /* \"#utility.yul\":5826:6803   */\n    tag_30:\n        /* \"#utility.yul\":6109:6113   */\n      0x00\n        /* \"#utility.yul\":6147:6150   */\n      0xc0\n        /* \"#utility.yul\":6136:6145   */\n      dup3\n        /* \"#utility.yul\":6132:6151   */\n      add\n        /* \"#utility.yul\":6124:6151   */\n      swap1\n      pop\n        /* \"#utility.yul\":6161:6248   */\n      tag_257\n        /* \"#utility.yul\":6245:6246   */\n      0x00\n        /* \"#utility.yul\":6234:6243   */\n      dup4\n        /* \"#utility.yul\":6230:6247   */\n      add\n        /* \"#utility.yul\":6221:6227   */\n      dup10\n        /* \"#utility.yul\":6161:6248   */\n      tag_215\n      jump\t// in\n    tag_257:\n        /* \"#utility.yul\":6295:6304   */\n      dup2\n        /* \"#utility.yul\":6289:6293   */\n      dup2\n        /* \"#utility.yul\":6285:6305   */\n      sub\n        /* \"#utility.yul\":6280:6282   */\n      0x20\n        /* \"#utility.yul\":6269:6278   */\n      dup4\n        /* \"#utility.yul\":6265:6283   */\n      add\n        /* \"#utility.yul\":6258:6306   */\n      mstore\n        /* \"#utility.yul\":6323:6401   */\n      tag_258\n        /* \"#utility.yul\":6396:6400   */\n      dup2\n        /* \"#utility.yul\":6387:6393   */\n      dup9\n        /* \"#utility.yul\":6323:6401   */\n      tag_227\n      jump\t// in\n    tag_258:\n        /* \"#utility.yul\":6315:6401   */\n      swap1\n      pop\n        /* \"#utility.yul\":6448:6457   */\n      dup2\n        /* \"#utility.yul\":6442:6446   */\n      dup2\n        /* \"#utility.yul\":6438:6458   */\n      sub\n        /* \"#utility.yul\":6433:6435   */\n      0x40\n        /* \"#utility.yul\":6422:6431   */\n      dup4\n        /* \"#utility.yul\":6418:6436   */\n      add\n        /* \"#utility.yul\":6411:6459   */\n      mstore\n        /* \"#utility.yul\":6476:6554   */\n      tag_259\n        /* \"#utility.yul\":6549:6553   */\n      dup2\n        /* \"#utility.yul\":6540:6546   */\n      dup8\n        /* \"#utility.yul\":6476:6554   */\n      tag_227\n      jump\t// in\n    tag_259:\n        /* \"#utility.yul\":6468:6554   */\n      swap1\n      pop\n        /* \"#utility.yul\":6564:6636   */\n      tag_260\n        /* \"#utility.yul\":6632:6634   */\n      0x60\n        /* \"#utility.yul\":6621:6630   */\n      dup4\n        /* \"#utility.yul\":6617:6635   */\n      add\n        /* \"#utility.yul\":6608:6614   */\n      dup7\n        /* \"#utility.yul\":6564:6636   */\n      tag_252\n      jump\t// in\n    tag_260:\n        /* \"#utility.yul\":6646:6719   */\n      tag_261\n        /* \"#utility.yul\":6714:6717   */\n      0x80\n        /* \"#utility.yul\":6703:6712   */\n      dup4\n        /* \"#utility.yul\":6699:6718   */\n      add\n        /* \"#utility.yul\":6690:6696   */\n      dup6\n        /* \"#utility.yul\":6646:6719   */\n      tag_252\n      jump\t// in\n    tag_261:\n        /* \"#utility.yul\":6729:6796   */\n      tag_262\n        /* \"#utility.yul\":6791:6794   */\n      0xa0\n        /* \"#utility.yul\":6780:6789   */\n      dup4\n        /* \"#utility.yul\":6776:6795   */\n      add\n        /* \"#utility.yul\":6767:6773   */\n      dup5\n        /* \"#utility.yul\":6729:6796   */\n      tag_223\n      jump\t// in\n    tag_262:\n        /* \"#utility.yul\":5826:6803   */\n      swap8\n      swap7\n      pop\n      pop\n      pop\n      pop\n      pop\n      pop\n      pop\n      jump\t// out\n        /* \"#utility.yul\":6809:7251   */\n    tag_142:\n        /* \"#utility.yul\":6958:6962   */\n      0x00\n        /* \"#utility.yul\":6996:6998   */\n      0x60\n        /* \"#utility.yul\":6985:6994   */\n      dup3\n        /* \"#utility.yul\":6981:6999   */\n      add\n        /* \"#utility.yul\":6973:6999   */\n      swap1\n      pop\n        /* \"#utility.yul\":7009:7080   */\n      tag_264\n        /* \"#utility.yul\":7077:7078   */\n      0x00\n        /* \"#utility.yul\":7066:7075   */\n      dup4\n        /* \"#utility.yul\":7062:7079   */\n      add\n        /* \"#utility.yul\":7053:7059   */\n      dup7\n        /* \"#utility.yul\":7009:7080   */\n      tag_219\n      jump\t// in\n    tag_264:\n        /* \"#utility.yul\":7090:7162   */\n      tag_265\n        /* \"#utility.yul\":7158:7160   */\n      0x20\n        /* \"#utility.yul\":7147:7156   */\n      dup4\n        /* \"#utility.yul\":7143:7161   */\n      add\n        /* \"#utility.yul\":7134:7140   */\n      dup6\n        /* \"#utility.yul\":7090:7162   */\n      tag_252\n      jump\t// in\n    tag_265:\n        /* \"#utility.yul\":7172:7244   */\n      tag_266\n        /* \"#utility.yul\":7240:7242   */\n      0x40\n        /* \"#utility.yul\":7229:7238   */\n      dup4\n        /* \"#utility.yul\":7225:7243   */\n      add\n        /* \"#utility.yul\":7216:7222   */\n      dup5\n        /* \"#utility.yul\":7172:7244   */\n      tag_252\n      jump\t// in\n    tag_266:\n        /* \"#utility.yul\":6809:7251   */\n      swap5\n      swap4\n      pop\n      pop\n      pop\n      pop\n      jump\t// out\n        /* \"#utility.yul\":7257:7467   */\n    tag_23:\n        /* \"#utility.yul\":7344:7348   */\n      0x00\n        /* \"#utility.yul\":7382:7384   */\n      0x20\n        /* \"#utility.yul\":7371:7380   */\n      dup3\n        /* \"#utility.yul\":7367:7385   */\n      add\n        /* \"#utility.yul\":7359:7385   */\n      swap1\n      pop\n        /* \"#utility.yul\":7395:7460   */\n      tag_268\n        /* \"#utility.yul\":7457:7458   */\n      0x00\n        /* \"#utility.yul\":7446:7455   */\n      dup4\n        /* \"#utility.yul\":7442:7459   */\n      add\n        /* \"#utility.yul\":7433:7439   */\n      dup5\n        /* \"#utility.yul\":7395:7460   */\n      tag_223\n      jump\t// in\n    tag_268:\n        /* \"#utility.yul\":7257:7467   */\n      swap3\n      swap2\n      pop\n      pop\n      jump\t// out\n        /* \"#utility.yul\":7473:7892   */\n    tag_52:\n        /* \"#utility.yul\":7639:7643   */\n      0x00\n        /* \"#utility.yul\":7677:7679   */\n      0x20\n        /* \"#utility.yul\":7666:7675   */\n      dup3\n        /* \"#utility.yul\":7662:7680   */\n      add\n        /* \"#utility.yul\":7654:7680   */\n      swap1\n      pop\n        /* \"#utility.yul\":7726:7735   */\n      dup2\n        /* \"#utility.yul\":7720:7724   */\n      dup2\n        /* \"#utility.yul\":7716:7736   */\n      sub\n        /* \"#utility.yul\":7712:7713   */\n      0x00\n        /* \"#utility.yul\":7701:7710   */\n      dup4\n        /* \"#utility.yul\":7697:7714   */\n      add\n        /* \"#utility.yul\":7690:7737   */\n      mstore\n        /* \"#utility.yul\":7754:7885   */\n      tag_270\n        /* \"#utility.yul\":7880:7884   */\n      dup2\n        /* \"#utility.yul\":7754:7885   */\n      tag_237\n      jump\t// in\n    tag_270:\n        /* \"#utility.yul\":7746:7885   */\n      swap1\n      pop\n        /* \"#utility.yul\":7473:7892   */\n      swap2\n      swap1\n      pop\n      jump\t// out\n        /* \"#utility.yul\":7898:8317   */\n    tag_79:\n        /* \"#utility.yul\":8064:8068   */\n      0x00\n        /* \"#utility.yul\":8102:8104   */\n      0x20\n        /* \"#utility.yul\":8091:8100   */\n      dup3\n        /* \"#utility.yul\":8087:8105   */\n      add\n        /* \"#utility.yul\":8079:8105   */\n      swap1\n      pop\n        /* \"#utility.yul\":8151:8160   */\n      dup2\n        /* \"#utility.yul\":8145:8149   */\n      dup2\n        /* \"#utility.yul\":8141:8161   */\n      sub\n        /* \"#utility.yul\":8137:8138   */\n      0x00\n        /* \"#utility.yul\":8126:8135   */\n      dup4\n        /* \"#utility.yul\":8122:8139   */\n      add\n        /* \"#utility.yul\":8115:8162   */\n      mstore\n        /* \"#utility.yul\":8179:8310   */\n      tag_272\n        /* \"#utility.yul\":8305:8309   */\n      dup2\n        /* \"#utility.yul\":8179:8310   */\n      tag_242\n      jump\t// in\n    tag_272:\n        /* \"#utility.yul\":8171:8310   */\n      swap1\n      pop\n        /* \"#utility.yul\":7898:8317   */\n      swap2\n      swap1\n      pop\n      jump\t// out\n        /* \"#utility.yul\":8323:8742   */\n    tag_42:\n        /* \"#utility.yul\":8489:8493   */\n      0x00\n        /* \"#utility.yul\":8527:8529   */\n      0x20\n        /* \"#utility.yul\":8516:8525   */\n      dup3\n        /* \"#utility.yul\":8512:8530   */\n      add\n        /* \"#utility.yul\":8504:8530   */\n      swap1\n      pop\n        /* \"#utility.yul\":8576:8585   */\n      dup2\n        /* \"#utility.yul\":8570:8574   */\n      dup2\n        /* \"#utility.yul\":8566:8586   */\n      sub\n        /* \"#utility.yul\":8562:8563   */\n      0x00\n        /* \"#utility.yul\":8551:8560   */\n      dup4\n        /* \"#utility.yul\":8547:8564   */\n      add\n        /* \"#utility.yul\":8540:8587   */\n      mstore\n        /* \"#utility.yul\":8604:8735   */\n      tag_274\n        /* \"#utility.yul\":8730:8734   */\n      dup2\n        /* \"#utility.yul\":8604:8735   */\n      tag_247\n      jump\t// in\n    tag_274:\n        /* \"#utility.yul\":8596:8735   */\n      swap1\n      pop\n        /* \"#utility.yul\":8323:8742   */\n      swap2\n      swap1\n      pop\n      jump\t// out\n        /* \"#utility.yul\":8748:8970   */\n    tag_38:\n        /* \"#utility.yul\":8841:8845   */\n      0x00\n        /* \"#utility.yul\":8879:8881   */\n      0x20\n        /* \"#utility.yul\":8868:8877   */\n      dup3\n        /* \"#utility.yul\":8864:8882   */\n      add\n        /* \"#utility.yul\":8856:8882   */\n      swap1\n      pop\n        /* \"#utility.yul\":8892:8963   */\n      tag_276\n        /* \"#utility.yul\":8960:8961   */\n      0x00\n        /* \"#utility.yul\":8949:8958   */\n      dup4\n        /* \"#utility.yul\":8945:8962   */\n      add\n        /* \"#utility.yul\":8936:8942   */\n      dup5\n        /* \"#utility.yul\":8892:8963   */\n      tag_252\n      jump\t// in\n    tag_276:\n        /* \"#utility.yul\":8748:8970   */\n      swap3\n      swap2\n      pop\n      pop\n      jump\t// out\n        /* \"#utility.yul\":8976:9105   */\n    tag_160:\n        /* \"#utility.yul\":9010:9016   */\n      0x00\n        /* \"#utility.yul\":9037:9057   */\n      tag_278\n      tag_279\n      jump\t// in\n    tag_278:\n        /* \"#utility.yul\":9027:9057   */\n      swap1\n      pop\n        /* \"#utility.yul\":9066:9099   */\n      tag_280\n        /* \"#utility.yul\":9094:9098   */\n      dup3\n        /* \"#utility.yul\":9086:9092   */\n      dup3\n        /* \"#utility.yul\":9066:9099   */\n      tag_281\n      jump\t// in\n    tag_280:\n        /* \"#utility.yul\":8976:9105   */\n      swap2\n      swap1\n      pop\n      jump\t// out\n        /* \"#utility.yul\":9111:9186   */\n    tag_279:\n        /* \"#utility.yul\":9144:9150   */\n      0x00\n        /* \"#utility.yul\":9177:9179   */\n      0x40\n        /* \"#utility.yul\":9171:9180   */\n      mload\n        /* \"#utility.yul\":9161:9180   */\n      swap1\n      pop\n        /* \"#utility.yul\":9111:9186   */\n      swap1\n      jump\t// out\n        /* \"#utility.yul\":9192:9500   */\n    tag_159:\n        /* \"#utility.yul\":9254:9258   */\n      0x00\n        /* \"#utility.yul\":9344:9362   */\n      0xffffffffffffffff\n        /* \"#utility.yul\":9336:9342   */\n      dup3\n        /* \"#utility.yul\":9333:9363   */\n      gt\n        /* \"#utility.yul\":9330:9386   */\n      iszero\n      tag_284\n      jumpi\n        /* \"#utility.yul\":9366:9384   */\n      tag_285\n      tag_286\n      jump\t// in\n    tag_285:\n        /* \"#utility.yul\":9330:9386   */\n    tag_284:\n        /* \"#utility.yul\":9404:9433   */\n      tag_287\n        /* \"#utility.yul\":9426:9432   */\n      dup3\n        /* \"#utility.yul\":9404:9433   */\n      tag_236\n      jump\t// in\n    tag_287:\n        /* \"#utility.yul\":9396:9433   */\n      swap1\n      pop\n        /* \"#utility.yul\":9488:9492   */\n      0x20\n        /* \"#utility.yul\":9482:9486   */\n      dup2\n        /* \"#utility.yul\":9478:9493   */\n      add\n        /* \"#utility.yul\":9470:9493   */\n      swap1\n      pop\n        /* \"#utility.yul\":9192:9500   */\n      swap2\n      swap1\n      pop\n      jump\t// out\n        /* \"#utility.yul\":9506:9605   */\n    tag_230:\n        /* \"#utility.yul\":9558:9564   */\n      0x00\n        /* \"#utility.yul\":9592:9597   */\n      dup2\n        /* \"#utility.yul\":9586:9598   */\n      mload\n        /* \"#utility.yul\":9576:9598   */\n      swap1\n      pop\n        /* \"#utility.yul\":9506:9605   */\n      swap2\n      swap1\n      pop\n      jump\t// out\n        /* \"#utility.yul\":9611:9780   */\n    tag_232:\n        /* \"#utility.yul\":9695:9706   */\n      0x00\n        /* \"#utility.yul\":9729:9735   */\n      dup3\n        /* \"#utility.yul\":9724:9727   */\n      dup3\n        /* \"#utility.yul\":9717:9736   */\n      mstore\n        /* \"#utility.yul\":9769:9773   */\n      0x20\n        /* \"#utility.yul\":9764:9767   */\n      dup3\n        /* \"#utility.yul\":9760:9774   */\n      add\n        /* \"#utility.yul\":9745:9774   */\n      swap1\n      pop\n        /* \"#utility.yul\":9611:9780   */\n      swap3\n      swap2\n      pop\n      pop\n      jump\t// out\n        /* \"#utility.yul\":9786:10091   */\n    tag_139:\n        /* \"#utility.yul\":9826:9829   */\n      0x00\n        /* \"#utility.yul\":9845:9865   */\n      tag_291\n        /* \"#utility.yul\":9863:9864   */\n      dup3\n        /* \"#utility.yul\":9845:9865   */\n      tag_255\n      jump\t// in\n    tag_291:\n        /* \"#utility.yul\":9840:9865   */\n      swap2\n      pop\n        /* \"#utility.yul\":9879:9899   */\n      tag_292\n        /* \"#utility.yul\":9897:9898   */\n      dup4\n        /* \"#utility.yul\":9879:9899   */\n      tag_255\n      jump\t// in\n    tag_292:\n        /* \"#utility.yul\":9874:9899   */\n      swap3\n      pop\n        /* \"#utility.yul\":10033:10034   */\n      dup3\n        /* \"#utility.yul\":9965:10031   */\n      0xffffffffffffffffffffffffffffffffffffffffffffffffffffffffffffffff\n        /* \"#utility.yul\":9961:10035   */\n      sub\n        /* \"#utility.yul\":9958:9959   */\n      dup3\n        /* \"#utility.yul\":9955:10036   */\n      gt\n        /* \"#utility.yul\":9952:10059   */\n      iszero\n      tag_293\n      jumpi\n        /* \"#utility.yul\":10039:10057   */\n      tag_294\n      tag_295\n      jump\t// in\n    tag_294:\n        /* \"#utility.yul\":9952:10059   */\n    tag_293:\n        /* \"#utility.yul\":10083:10084   */\n      dup3\n        /* \"#utility.yul\":10080:10081   */\n      dup3\n        /* \"#utility.yul\":10076:10085   */\n      add\n        /* \"#utility.yul\":10069:10085   */\n      swap1\n      pop\n        /* \"#utility.yul\":9786:10091   */\n      swap3\n      swap2\n      pop\n      pop\n      jump\t// out\n        /* \"#utility.yul\":10097:10193   */\n    tag_222:\n        /* \"#utility.yul\":10134:10141   */\n      0x00\n        /* \"#utility.yul\":10163:10187   */\n      tag_297\n        /* \"#utility.yul\":10181:10186   */\n      dup3\n        /* \"#utility.yul\":10163:10187   */\n      tag_298\n      jump\t// in\n    tag_297:\n        /* \"#utility.yul\":10152:10187   */\n      swap1\n      pop\n        /* \"#utility.yul\":10097:10193   */\n      swap2\n      swap1\n      pop\n      jump\t// out\n        /* \"#utility.yul\":10199:10303   */\n    tag_218:\n        /* \"#utility.yul\":10244:10251   */\n      0x00\n        /* \"#utility.yul\":10273:10297   */\n      tag_300\n        /* \"#utility.yul\":10291:10296   */\n      dup3\n        /* \"#utility.yul\":10273:10297   */\n      tag_298\n      jump\t// in\n    tag_300:\n        /* \"#utility.yul\":10262:10297   */\n      swap1\n      pop\n        /* \"#utility.yul\":10199:10303   */\n      swap2\n      swap1\n      pop\n      jump\t// out\n        /* \"#utility.yul\":10309:10399   */\n    tag_226:\n        /* \"#utility.yul\":10343:10350   */\n      0x00\n        /* \"#utility.yul\":10386:10391   */\n      dup2\n        /* \"#utility.yul\":10379:10392   */\n      iszero\n        /* \"#utility.yul\":10372:10393   */\n      iszero\n        /* \"#utility.yul\":10361:10393   */\n      swap1\n      pop\n        /* \"#utility.yul\":10309:10399   */\n      swap2\n      swap1\n      pop\n      jump\t// out\n        /* \"#utility.yul\":10405:10531   */\n    tag_298:\n        /* \"#utility.yul\":10442:10449   */\n      0x00\n        /* \"#utility.yul\":10482:10524   */\n      0xffffffffffffffffffffffffffffffffffffffff\n        /* \"#utility.yul\":10475:10480   */\n      dup3\n        /* \"#utility.yul\":10471:10525   */\n      and\n        /* \"#utility.yul\":10460:10525   */\n      swap1\n      pop\n        /* \"#utility.yul\":10405:10531   */\n      swap2\n      swap1\n      pop\n      jump\t// out\n        /* \"#utility.yul\":10537:10614   */\n    tag_255:\n        /* \"#utility.yul\":10574:10581   */\n      0x00\n        /* \"#utility.yul\":10603:10608   */\n      dup2\n        /* \"#utility.yul\":10592:10608   */\n      swap1\n      pop\n        /* \"#utility.yul\":10537:10614   */\n      swap2\n      swap1\n      pop\n      jump\t// out\n        /* \"#utility.yul\":10620:10774   */\n    tag_165:\n        /* \"#utility.yul\":10704:10710   */\n      dup3\n        /* \"#utility.yul\":10699:10702   */\n      dup2\n        /* \"#utility.yul\":10694:10697   */\n      dup4\n        /* \"#utility.yul\":10681:10711   */\n      calldatacopy\n        /* \"#utility.yul\":10766:10767   */\n      0x00\n        /* \"#utility.yul\":10757:10763   */\n      dup4\n        /* \"#utility.yul\":10752:10755   */\n      dup4\n        /* \"#utility.yul\":10748:10764   */\n      add\n        /* \"#utility.yul\":10741:10768   */\n      mstore\n        /* \"#utility.yul\":10620:10774   */\n      pop\n      pop\n      pop\n      jump\t// out\n        /* \"#utility.yul\":10780:11087   */\n    tag_234:\n        /* \"#utility.yul\":10848:10849   */\n      0x00\n        /* \"#utility.yul\":10858:10971   */\n    tag_306:\n        /* \"#utility.yul\":10872:10878   */\n      dup4\n        /* \"#utility.yul\":10869:10870   */\n      dup2\n        /* \"#utility.yul\":10866:10879   */\n      lt\n        /* \"#utility.yul\":10858:10971   */\n      iszero\n      tag_308\n      jumpi\n        /* \"#utility.yul\":10957:10958   */\n      dup1\n        /* \"#utility.yul\":10952:10955   */\n      dup3\n        /* \"#utility.yul\":10948:10959   */\n      add\n        /* \"#utility.yul\":10942:10960   */\n      mload\n        /* \"#utility.yul\":10938:10939   */\n      dup2\n        /* \"#utility.yul\":10933:10936   */\n      dup5\n        /* \"#utility.yul\":10929:10940   */\n      add\n        /* \"#utility.yul\":10922:10961   */\n      mstore\n        /* \"#utility.yul\":10894:10896   */\n      0x20\n        /* \"#utility.yul\":10891:10892   */\n      dup2\n        /* \"#utility.yul\":10887:10897   */\n      add\n        /* \"#utility.yul\":10882:10897   */\n      swap1\n      pop\n        /* \"#utility.yul\":10858:10971   */\n      jump(tag_306)\n    tag_308:\n        /* \"#utility.yul\":10989:10995   */\n      dup4\n        /* \"#utility.yul\":10986:10987   */\n      dup2\n        /* \"#utility.yul\":10983:10996   */\n      gt\n        /* \"#utility.yul\":10980:11081   */\n      iszero\n      tag_309\n      jumpi\n        /* \"#utility.yul\":11069:11070   */\n      0x00\n        /* \"#utility.yul\":11060:11066   */\n      dup5\n        /* \"#utility.yul\":11055:11058   */\n      dup5\n        /* \"#utility.yul\":11051:11067   */\n      add\n        /* \"#utility.yul\":11044:11071   */\n      mstore\n        /* \"#utility.yul\":10980:11081   */\n    tag_309:\n        /* \"#utility.yul\":10829:11087   */\n      pop\n        /* \"#utility.yul\":10780:11087   */\n      pop\n      pop\n      pop\n      jump\t// out\n        /* \"#utility.yul\":11093:11413   */\n    tag_91:\n        /* \"#utility.yul\":11137:11143   */\n      0x00\n        /* \"#utility.yul\":11174:11175   */\n      0x02\n        /* \"#utility.yul\":11168:11172   */\n      dup3\n        /* \"#utility.yul\":11164:11176   */\n      div\n        /* \"#utility.yul\":11154:11176   */\n      swap1\n      pop\n        /* \"#utility.yul\":11221:11222   */\n      0x01\n        /* \"#utility.yul\":11215:11219   */\n      dup3\n        /* \"#utility.yul\":11211:11223   */\n      and\n        /* \"#utility.yul\":11242:11260   */\n      dup1\n        /* \"#utility.yul\":11232:11313   */\n      tag_311\n      jumpi\n        /* \"#utility.yul\":11298:11302   */\n      0x7f\n        /* \"#utility.yul\":11290:11296   */\n      dup3\n        /* \"#utility.yul\":11286:11303   */\n      and\n        /* \"#utility.yul\":11276:11303   */\n      swap2\n      pop\n        /* \"#utility.yul\":11232:11313   */\n    tag_311:\n        /* \"#utility.yul\":11360:11362   */\n      0x20\n        /* \"#utility.yul\":11352:11358   */\n      dup3\n        /* \"#utility.yul\":11349:11363   */\n      lt\n        /* \"#utility.yul\":11329:11347   */\n      dup2\n        /* \"#utility.yul\":11326:11364   */\n      eq\n        /* \"#utility.yul\":11323:11407   */\n      iszero\n      tag_312\n      jumpi\n        /* \"#utility.yul\":11379:11397   */\n      tag_313\n      tag_314\n      jump\t// in\n    tag_313:\n        /* \"#utility.yul\":11323:11407   */\n    tag_312:\n        /* \"#utility.yul\":11144:11413   */\n      pop\n        /* \"#utility.yul\":11093:11413   */\n      swap2\n      swap1\n      pop\n      jump\t// out\n        /* \"#utility.yul\":11419:11700   */\n    tag_281:\n        /* \"#utility.yul\":11502:11529   */\n      tag_316\n        /* \"#utility.yul\":11524:11528   */\n      dup3\n        /* \"#utility.yul\":11502:11529   */\n      tag_236\n      jump\t// in\n    tag_316:\n        /* \"#utility.yul\":11494:11500   */\n      dup2\n        /* \"#utility.yul\":11490:11530   */\n      add\n        /* \"#utility.yul\":11632:11638   */\n      dup2\n        /* \"#utility.yul\":11620:11630   */\n      dup2\n        /* \"#utility.yul\":11617:11639   */\n      lt\n        /* \"#utility.yul\":11596:11614   */\n      0xffffffffffffffff\n        /* \"#utility.yul\":11584:11594   */\n      dup3\n        /* \"#utility.yul\":11581:11615   */\n      gt\n        /* \"#utility.yul\":11578:11640   */\n      or\n        /* \"#utility.yul\":11575:11663   */\n      iszero\n      tag_317\n      jumpi\n        /* \"#utility.yul\":11643:11661   */\n      tag_318\n      tag_286\n      jump\t// in\n    tag_318:\n        /* \"#utility.yul\":11575:11663   */\n    tag_317:\n        /* \"#utility.yul\":11683:11693   */\n      dup1\n        /* \"#utility.yul\":11679:11681   */\n      0x40\n        /* \"#utility.yul\":11672:11694   */\n      mstore\n        /* \"#utility.yul\":11462:11700   */\n      pop\n        /* \"#utility.yul\":11419:11700   */\n      pop\n      pop\n      jump\t// out\n        /* \"#utility.yul\":11706:11939   */\n    tag_123:\n        /* \"#utility.yul\":11745:11748   */\n      0x00\n        /* \"#utility.yul\":11768:11792   */\n      tag_320\n        /* \"#utility.yul\":11786:11791   */\n      dup3\n        /* \"#utility.yul\":11768:11792   */\n      tag_255\n      jump\t// in\n    tag_320:\n        /* \"#utility.yul\":11759:11792   */\n      swap2\n      pop\n        /* \"#utility.yul\":11814:11880   */\n      0xffffffffffffffffffffffffffffffffffffffffffffffffffffffffffffffff\n        /* \"#utility.yul\":11807:11812   */\n      dup3\n        /* \"#utility.yul\":11804:11881   */\n      eq\n        /* \"#utility.yul\":11801:11904   */\n      iszero\n      tag_321\n      jumpi\n        /* \"#utility.yul\":11884:11902   */\n      tag_322\n      tag_295\n      jump\t// in\n    tag_322:\n        /* \"#utility.yul\":11801:11904   */\n    tag_321:\n        /* \"#utility.yul\":11931:11932   */\n      0x01\n        /* \"#utility.yul\":11924:11929   */\n      dup3\n        /* \"#utility.yul\":11920:11933   */\n      add\n        /* \"#utility.yul\":11913:11933   */\n      swap1\n      pop\n        /* \"#utility.yul\":11706:11939   */\n      swap2\n      swap1\n      pop\n      jump\t// out\n        /* \"#utility.yul\":11945:12125   */\n    tag_295:\n        /* \"#utility.yul\":11993:12070   */\n      0x4e487b7100000000000000000000000000000000000000000000000000000000\n        /* \"#utility.yul\":11990:11991   */\n      0x00\n        /* \"#utility.yul\":11983:12071   */\n      mstore\n        /* \"#utility.yul\":12090:12094   */\n      0x11\n        /* \"#utility.yul\":12087:12088   */\n      0x04\n        /* \"#utility.yul\":12080:12095   */\n      mstore\n        /* \"#utility.yul\":12114:12118   */\n      0x24\n        /* \"#utility.yul\":12111:12112   */\n      0x00\n        /* \"#utility.yul\":12104:12119   */\n      revert\n        /* \"#utility.yul\":12131:12311   */\n    tag_314:\n        /* \"#utility.yul\":12179:12256   */\n      0x4e487b7100000000000000000000000000000000000000000000000000000000\n        /* \"#utility.yul\":12176:12177   */\n      0x00\n        /* \"#utility.yul\":12169:12257   */\n      mstore\n        /* \"#utility.yul\":12276:12280   */\n      0x22\n        /* \"#utility.yul\":12273:12274   */\n      0x04\n        /* \"#utility.yul\":12266:12281   */\n      mstore\n        /* \"#utility.yul\":12300:12304   */\n      0x24\n        /* \"#utility.yul\":12297:12298   */\n      0x00\n        /* \"#utility.yul\":12290:12305   */\n      revert\n        /* \"#utility.yul\":12317:12497   */\n    tag_48:\n        /* \"#utility.yul\":12365:12442   */\n      0x4e487b7100000000000000000000000000000000000000000000000000000000\n        /* \"#utility.yul\":12362:12363   */\n      0x00\n        /* \"#utility.yul\":12355:12443   */\n      mstore\n        /* \"#utility.yul\":12462:12466   */\n      0x32\n        /* \"#utility.yul\":12459:12460   */\n      0x04\n        /* \"#utility.yul\":12452:12467   */\n      mstore\n        /* \"#utility.yul\":12486:12490   */\n      0x24\n        /* \"#utility.yul\":12483:12484   */\n      0x00\n        /* \"#utility.yul\":12476:12491   */\n      revert\n        /* \"#utility.yul\":12503:12683   */\n    tag_286:\n        /* \"#utility.yul\":12551:12628   */\n      0x4e487b7100000000000000000000000000000000000000000000000000000000\n        /* \"#utility.yul\":12548:12549   */\n      0x00\n        /* \"#utility.yul\":12541:12629   */\n      mstore\n        /* \"#utility.yul\":12648:12652   */\n      0x41\n        /* \"#utility.yul\":12645:12646   */\n      0x04\n        /* \"#utility.yul\":12638:12653   */\n      mstore\n        /* \"#utility.yul\":12672:12676   */\n      0x24\n        /* \"#utility.yul\":12669:12670   */\n      0x00\n        /* \"#utility.yul\":12662:12677   */\n      revert\n        /* \"#utility.yul\":12689:12806   */\n    tag_182:\n        /* \"#utility.yul\":12798:12799   */\n      0x00\n        /* \"#utility.yul\":12795:12796   */\n      dup1\n        /* \"#utility.yul\":12788:12800   */\n      revert\n        /* \"#utility.yul\":12812:12929   */\n    tag_163:\n        /* \"#utility.yul\":12921:12922   */\n      0x00\n        /* \"#utility.yul\":12918:12919   */\n      dup1\n        /* \"#utility.yul\":12911:12923   */\n      revert\n        /* \"#utility.yul\":12935:13052   */\n    tag_203:\n        /* \"#utility.yul\":13044:13045   */\n      0x00\n        /* \"#utility.yul\":13041:13042   */\n      dup1\n        /* \"#utility.yul\":13034:13046   */\n      revert\n        /* \"#utility.yul\":13058:13175   */\n    tag_191:\n        /* \"#utility.yul\":13167:13168   */\n      0x00\n        /* \"#utility.yul\":13164:13165   */\n      dup1\n        /* \"#utility.yul\":13157:13169   */\n      revert\n        /* \"#utility.yul\":13181:13283   */\n    tag_236:\n        /* \"#utility.yul\":13222:13228   */\n      0x00\n        /* \"#utility.yul\":13273:13275   */\n      0x1f\n        /* \"#utility.yul\":13269:13276   */\n      not\n        /* \"#utility.yul\":13264:13266   */\n      0x1f\n        /* \"#utility.yul\":13257:13262   */\n      dup4\n        /* \"#utility.yul\":13253:13267   */\n      add\n        /* \"#utility.yul\":13249:13277   */\n      and\n        /* \"#utility.yul\":13239:13277   */\n      swap1\n      pop\n        /* \"#utility.yul\":13181:13283   */\n      swap2\n      swap1\n      pop\n      jump\t// out\n        /* \"#utility.yul\":13289:13470   */\n    tag_241:\n        /* \"#utility.yul\":13429:13462   */\n      0x796f75206d75737420626520746865206b696420746f20776974686472617700\n        /* \"#utility.yul\":13425:13426   */\n      0x00\n        /* \"#utility.yul\":13417:13423   */\n      dup3\n        /* \"#utility.yul\":13413:13427   */\n      add\n        /* \"#utility.yul\":13406:13463   */\n      mstore\n        /* \"#utility.yul\":13289:13470   */\n      pop\n      jump\t// out\n        /* \"#utility.yul\":13476:13650   */\n    tag_246:\n        /* \"#utility.yul\":13616:13642   */\n      0x796f752063616e6e6f7420776974686472617720796574200000000000000000\n        /* \"#utility.yul\":13612:13613   */\n      0x00\n        /* \"#utility.yul\":13604:13610   */\n      dup3\n        /* \"#utility.yul\":13600:13614   */\n      add\n        /* \"#utility.yul\":13593:13643   */\n      mstore\n        /* \"#utility.yul\":13476:13650   */\n      pop\n      jump\t// out\n        /* \"#utility.yul\":13656:13835   */\n    tag_251:\n        /* \"#utility.yul\":13796:13827   */\n      0x6f6e6c7920746865206f776e65722063616e2020616464206b69647320000000\n        /* \"#utility.yul\":13792:13793   */\n      0x00\n        /* \"#utility.yul\":13784:13790   */\n      dup3\n        /* \"#utility.yul\":13780:13794   */\n      add\n        /* \"#utility.yul\":13773:13828   */\n      mstore\n        /* \"#utility.yul\":13656:13835   */\n      pop\n      jump\t// out\n        /* \"#utility.yul\":13841:13963   */\n    tag_169:\n        /* \"#utility.yul\":13914:13938   */\n      tag_336\n        /* \"#utility.yul\":13932:13937   */\n      dup2\n        /* \"#utility.yul\":13914:13938   */\n      tag_222\n      jump\t// in\n    tag_336:\n        /* \"#utility.yul\":13907:13912   */\n      dup2\n        /* \"#utility.yul\":13904:13939   */\n      eq\n        /* \"#utility.yul\":13894:13957   */\n      tag_337\n      jumpi\n        /* \"#utility.yul\":13953:13954   */\n      0x00\n        /* \"#utility.yul\":13950:13951   */\n      dup1\n        /* \"#utility.yul\":13943:13955   */\n      revert\n        /* \"#utility.yul\":13894:13957   */\n    tag_337:\n        /* \"#utility.yul\":13841:13963   */\n      pop\n      jump\t// out\n        /* \"#utility.yul\":13969:14107   */\n    tag_173:\n        /* \"#utility.yul\":14050:14082   */\n      tag_339\n        /* \"#utility.yul\":14076:14081   */\n      dup2\n        /* \"#utility.yul\":14050:14082   */\n      tag_218\n      jump\t// in\n    tag_339:\n        /* \"#utility.yul\":14043:14048   */\n      dup2\n        /* \"#utility.yul\":14040:14083   */\n      eq\n        /* \"#utility.yul\":14030:14101   */\n      tag_340\n      jumpi\n        /* \"#utility.yul\":14097:14098   */\n      0x00\n        /* \"#utility.yul\":14094:14095   */\n      dup1\n        /* \"#utility.yul\":14087:14099   */\n      revert\n        /* \"#utility.yul\":14030:14101   */\n    tag_340:\n        /* \"#utility.yul\":13969:14107   */\n      pop\n      jump\t// out\n        /* \"#utility.yul\":14113:14229   */\n    tag_177:\n        /* \"#utility.yul\":14183:14204   */\n      tag_342\n        /* \"#utility.yul\":14198:14203   */\n      dup2\n        /* \"#utility.yul\":14183:14204   */\n      tag_226\n      jump\t// in\n    tag_342:\n        /* \"#utility.yul\":14176:14181   */\n      dup2\n        /* \"#utility.yul\":14173:14205   */\n      eq\n        /* \"#utility.yul\":14163:14223   */\n      tag_343\n      jumpi\n        /* \"#utility.yul\":14219:14220   */\n      0x00\n        /* \"#utility.yul\":14216:14217   */\n      dup1\n        /* \"#utility.yul\":14209:14221   */\n      revert\n        /* \"#utility.yul\":14163:14223   */\n    tag_343:\n        /* \"#utility.yul\":14113:14229   */\n      pop\n      jump\t// out\n        /* \"#utility.yul\":14235:14357   */\n    tag_187:\n        /* \"#utility.yul\":14308:14332   */\n      tag_345\n        /* \"#utility.yul\":14326:14331   */\n      dup2\n        /* \"#utility.yul\":14308:14332   */\n      tag_255\n      jump\t// in\n    tag_345:\n        /* \"#utility.yul\":14301:14306   */\n      dup2\n        /* \"#utility.yul\":14298:14333   */\n      eq\n        /* \"#utility.yul\":14288:14351   */\n      tag_346\n      jumpi\n        /* \"#utility.yul\":14347:14348   */\n      0x00\n        /* \"#utility.yul\":14344:14345   */\n      dup1\n        /* \"#utility.yul\":14337:14349   */\n      revert\n        /* \"#utility.yul\":14288:14351   */\n    tag_346:\n        /* \"#utility.yul\":14235:14357   */\n      pop\n      jump\t// out\n\n    auxdata: 0xa26469706673582212209c563c392aff2ecdb15415050598537bb6dcbb687f8aa90011b582143eae46f964736f6c63430008070033\n}\n",
				"bytecode": {
					"linkReferences": {},
					"object": "608060405234801561001057600080fd5b50336000806101000a81548173ffffffffffffffffffffffffffffffffffffffff021916908373ffffffffffffffffffffffffffffffffffffffff16021790555061151d806100606000396000f3fe6080604052600436106100555760003560e01c80630a67d2c71461005a578063403a37dc1461007657806363c6afe41461009f5780637285fd3a146100dc57806382c7f6271461011e5780639a3174a01461013a575b600080fd5b610074600480360381019061006f9190610de6565b610165565b005b34801561008257600080fd5b5061009d60048036038101906100989190610e13565b610368565b005b3480156100ab57600080fd5b506100c660048036038101906100c19190610db9565b610525565b6040516100d39190611089565b60405180910390f35b3480156100e857600080fd5b5061010360048036038101906100fe9190610ed8565b6106a9565b60405161011596959493929190610fe3565b60405180910390f35b61013860048036038101906101339190610db9565b610832565b005b34801561014657600080fd5b5061014f6108cc565b60405161015c9190611104565b60405180910390f35b60008054906101000a900473ffffffffffffffffffffffffffffffffffffffff1673ffffffffffffffffffffffffffffffffffffffff163373ffffffffffffffffffffffffffffffffffffffff16146101f3576040517f08c379a00000000000000000000000000000000000000000000000000000000081526004016101ea906110e4565b60405180910390fd5b60006101fe82610963565b9050600181815481106102145761021361138d565b5b906000526020600020906006020160000160009054906101000a900473ffffffffffffffffffffffffffffffffffffffff1673ffffffffffffffffffffffffffffffffffffffff163373ffffffffffffffffffffffffffffffffffffffff16146102b3576040517f08c379a00000000000000000000000000000000000000000000000000000000081526004016102aa906110a4565b60405180910390fd5b600181815481106102c7576102c661138d565b5b906000526020600020906006020160000160009054906101000a900473ffffffffffffffffffffffffffffffffffffffff1673ffffffffffffffffffffffffffffffffffffffff166108fc600183815481106103265761032561138d565b5b9060005260206000209060060201600401549081150290604051600060405180830381858888f19350505050158015610363573d6000803e3d6000fd5b505050565b60008054906101000a900473ffffffffffffffffffffffffffffffffffffffff1673ffffffffffffffffffffffffffffffffffffffff163373ffffffffffffffffffffffffffffffffffffffff16146103f6576040517f08c379a00000000000000000000000000000000000000000000000000000000081526004016103ed906110e4565b60405180910390fd5b60016040518060c001604052808873ffffffffffffffffffffffffffffffffffffffff168152602001878152602001868152602001858152602001848152602001831515815250908060018154018082558091505060019003906000526020600020906006020160009091909190915060008201518160000160006101000a81548173ffffffffffffffffffffffffffffffffffffffff021916908373ffffffffffffffffffffffffffffffffffffffff16021790555060208201518160010190805190602001906104c9929190610c52565b5060408201518160020190805190602001906104e6929190610c52565b50606082015181600301556080820151816004015560a08201518160050160006101000a81548160ff0219169083151502179055505050505050505050565b60008060009054906101000a900473ffffffffffffffffffffffffffffffffffffffff1673ffffffffffffffffffffffffffffffffffffffff163373ffffffffffffffffffffffffffffffffffffffff16146105b6576040517f08c379a00000000000000000000000000000000000000000000000000000000081526004016105ad906110e4565b60405180910390fd5b60006105c183610963565b9050600181815481106105d7576105d661138d565b5b906000526020600020906006020160030154421161062a576040517f08c379a0000000000000000000000000000000000000000000000000000000008152600401610621906110c4565b60405180910390fd5b6001818154811061063e5761063d61138d565b5b90600052602060002090600602016003015442111561069e57600180828154811061066c5761066b61138d565b5b906000526020600020906006020160050160006101000a81548160ff02191690831515021790555060019150506106a4565b60009150505b919050565b600181815481106106b957600080fd5b90600052602060002090600602016000915090508060000160009054906101000a900473ffffffffffffffffffffffffffffffffffffffff169080600101805461070290611283565b80601f016020809104026020016040519081016040528092919081815260200182805461072e90611283565b801561077b5780601f106107505761010080835404028352916020019161077b565b820191906000526020600020905b81548152906001019060200180831161075e57829003601f168201915b50505050509080600201805461079090611283565b80601f01602080910402602001604051908101604052809291908181526020018280546107bc90611283565b80156108095780601f106107de57610100808354040283529160200191610809565b820191906000526020600020905b8154815290600101906020018083116107ec57829003601f168201915b5050505050908060030154908060040154908060050160009054906101000a900460ff16905086565b60008054906101000a900473ffffffffffffffffffffffffffffffffffffffff1673ffffffffffffffffffffffffffffffffffffffff163373ffffffffffffffffffffffffffffffffffffffff16146108c0576040517f08c379a00000000000000000000000000000000000000000000000000000000081526004016108b7906110e4565b60405180910390fd5b6108c981610aa5565b50565b60008060009054906101000a900473ffffffffffffffffffffffffffffffffffffffff1673ffffffffffffffffffffffffffffffffffffffff163373ffffffffffffffffffffffffffffffffffffffff161461095d576040517f08c379a0000000000000000000000000000000000000000000000000000000008152600401610954906110e4565b60405180910390fd5b47905090565b60008060009054906101000a900473ffffffffffffffffffffffffffffffffffffffff1673ffffffffffffffffffffffffffffffffffffffff163373ffffffffffffffffffffffffffffffffffffffff16146109f4576040517f08c379a00000000000000000000000000000000000000000000000000000000081526004016109eb906110e4565b60405180910390fd5b60005b600180549050811015610a99578273ffffffffffffffffffffffffffffffffffffffff1660018281548110610a2f57610a2e61138d565b5b906000526020600020906006020160000160009054906101000a900473ffffffffffffffffffffffffffffffffffffffff1673ffffffffffffffffffffffffffffffffffffffff161415610a865780915050610aa0565b8080610a91906112e6565b9150506109f7565b506103e790505b919050565b60008054906101000a900473ffffffffffffffffffffffffffffffffffffffff1673ffffffffffffffffffffffffffffffffffffffff163373ffffffffffffffffffffffffffffffffffffffff1614610b33576040517f08c379a0000000000000000000000000000000000000000000000000000000008152600401610b2a906110e4565b60405180910390fd5b60005b600180549050811015610c4e578173ffffffffffffffffffffffffffffffffffffffff1660018281548110610b6e57610b6d61138d565b5b906000526020600020906006020160000160009054906101000a900473ffffffffffffffffffffffffffffffffffffffff1673ffffffffffffffffffffffffffffffffffffffff161415610c3b573460018281548110610bd157610bd061138d565b5b90600052602060002090600602016004016000828254610bf19190611191565b925050819055507f93bb732fd2d523b5a5825d5fddaf2a4a42b00c83b5800aec306627e0dc3b5b518234610c236108cc565b604051610c3293929190611052565b60405180910390a15b8080610c46906112e6565b915050610b36565b5050565b828054610c5e90611283565b90600052602060002090601f016020900481019282610c805760008555610cc7565b82601f10610c9957805160ff1916838001178555610cc7565b82800160010185558215610cc7579182015b82811115610cc6578251825591602001919060010190610cab565b5b509050610cd49190610cd8565b5090565b5b80821115610cf1576000816000905550600101610cd9565b5090565b6000610d08610d0384611144565b61111f565b905082815260208101848484011115610d2457610d236113f0565b5b610d2f848285611241565b509392505050565b600081359050610d468161148b565b92915050565b600081359050610d5b816114a2565b92915050565b600081359050610d70816114b9565b92915050565b600082601f830112610d8b57610d8a6113eb565b5b8135610d9b848260208601610cf5565b91505092915050565b600081359050610db3816114d0565b92915050565b600060208284031215610dcf57610dce6113fa565b5b6000610ddd84828501610d37565b91505092915050565b600060208284031215610dfc57610dfb6113fa565b5b6000610e0a84828501610d4c565b91505092915050565b60008060008060008060c08789031215610e3057610e2f6113fa565b5b6000610e3e89828a01610d4c565b965050602087013567ffffffffffffffff811115610e5f57610e5e6113f5565b5b610e6b89828a01610d76565b955050604087013567ffffffffffffffff811115610e8c57610e8b6113f5565b5b610e9889828a01610d76565b9450506060610ea989828a01610da4565b9350506080610eba89828a01610da4565b92505060a0610ecb89828a01610d61565b9150509295509295509295565b600060208284031215610eee57610eed6113fa565b5b6000610efc84828501610da4565b91505092915050565b610f0e816111f9565b82525050565b610f1d816111e7565b82525050565b610f2c8161120b565b82525050565b6000610f3d82611175565b610f478185611180565b9350610f57818560208601611250565b610f60816113ff565b840191505092915050565b6000610f78601f83611180565b9150610f8382611410565b602082019050919050565b6000610f9b601883611180565b9150610fa682611439565b602082019050919050565b6000610fbe601d83611180565b9150610fc982611462565b602082019050919050565b610fdd81611237565b82525050565b600060c082019050610ff86000830189610f05565b818103602083015261100a8188610f32565b9050818103604083015261101e8187610f32565b905061102d6060830186610fd4565b61103a6080830185610fd4565b61104760a0830184610f23565b979650505050505050565b60006060820190506110676000830186610f14565b6110746020830185610fd4565b6110816040830184610fd4565b949350505050565b600060208201905061109e6000830184610f23565b92915050565b600060208201905081810360008301526110bd81610f6b565b9050919050565b600060208201905081810360008301526110dd81610f8e565b9050919050565b600060208201905081810360008301526110fd81610fb1565b9050919050565b60006020820190506111196000830184610fd4565b92915050565b600061112961113a565b905061113582826112b5565b919050565b6000604051905090565b600067ffffffffffffffff82111561115f5761115e6113bc565b5b611168826113ff565b9050602081019050919050565b600081519050919050565b600082825260208201905092915050565b600061119c82611237565b91506111a783611237565b9250827fffffffffffffffffffffffffffffffffffffffffffffffffffffffffffffffff038211156111dc576111db61132f565b5b828201905092915050565b60006111f282611217565b9050919050565b600061120482611217565b9050919050565b60008115159050919050565b600073ffffffffffffffffffffffffffffffffffffffff82169050919050565b6000819050919050565b82818337600083830152505050565b60005b8381101561126e578082015181840152602081019050611253565b8381111561127d576000848401525b50505050565b6000600282049050600182168061129b57607f821691505b602082108114156112af576112ae61135e565b5b50919050565b6112be826113ff565b810181811067ffffffffffffffff821117156112dd576112dc6113bc565b5b80604052505050565b60006112f182611237565b91507fffffffffffffffffffffffffffffffffffffffffffffffffffffffffffffffff8214156113245761132361132f565b5b600182019050919050565b7f4e487b7100000000000000000000000000000000000000000000000000000000600052601160045260246000fd5b7f4e487b7100000000000000000000000000000000000000000000000000000000600052602260045260246000fd5b7f4e487b7100000000000000000000000000000000000000000000000000000000600052603260045260246000fd5b7f4e487b7100000000000000000000000000000000000000000000000000000000600052604160045260246000fd5b600080fd5b600080fd5b600080fd5b600080fd5b6000601f19601f8301169050919050565b7f796f75206d75737420626520746865206b696420746f20776974686472617700600082015250565b7f796f752063616e6e6f7420776974686472617720796574200000000000000000600082015250565b7f6f6e6c7920746865206f776e65722063616e2020616464206b69647320000000600082015250565b611494816111e7565b811461149f57600080fd5b50565b6114ab816111f9565b81146114b657600080fd5b50565b6114c28161120b565b81146114cd57600080fd5b50565b6114d981611237565b81146114e457600080fd5b5056fea26469706673582212209c563c392aff2ecdb15415050598537bb6dcbb687f8aa90011b582143eae46f964736f6c63430008070033",
					"opcodes": "PUSH1 0x80 PUSH1 0x40 MSTORE CALLVALUE DUP1 ISZERO PUSH2 0x10 JUMPI PUSH1 0x0 DUP1 REVERT JUMPDEST POP CALLER PUSH1 0x0 DUP1 PUSH2 0x100 EXP DUP2 SLOAD DUP2 PUSH20 0xFFFFFFFFFFFFFFFFFFFFFFFFFFFFFFFFFFFFFFFF MUL NOT AND SWAP1 DUP4 PUSH20 0xFFFFFFFFFFFFFFFFFFFFFFFFFFFFFFFFFFFFFFFF AND MUL OR SWAP1 SSTORE POP PUSH2 0x151D DUP1 PUSH2 0x60 PUSH1 0x0 CODECOPY PUSH1 0x0 RETURN INVALID PUSH1 0x80 PUSH1 0x40 MSTORE PUSH1 0x4 CALLDATASIZE LT PUSH2 0x55 JUMPI PUSH1 0x0 CALLDATALOAD PUSH1 0xE0 SHR DUP1 PUSH4 0xA67D2C7 EQ PUSH2 0x5A JUMPI DUP1 PUSH4 0x403A37DC EQ PUSH2 0x76 JUMPI DUP1 PUSH4 0x63C6AFE4 EQ PUSH2 0x9F JUMPI DUP1 PUSH4 0x7285FD3A EQ PUSH2 0xDC JUMPI DUP1 PUSH4 0x82C7F627 EQ PUSH2 0x11E JUMPI DUP1 PUSH4 0x9A3174A0 EQ PUSH2 0x13A JUMPI JUMPDEST PUSH1 0x0 DUP1 REVERT JUMPDEST PUSH2 0x74 PUSH1 0x4 DUP1 CALLDATASIZE SUB DUP2 ADD SWAP1 PUSH2 0x6F SWAP2 SWAP1 PUSH2 0xDE6 JUMP JUMPDEST PUSH2 0x165 JUMP JUMPDEST STOP JUMPDEST CALLVALUE DUP1 ISZERO PUSH2 0x82 JUMPI PUSH1 0x0 DUP1 REVERT JUMPDEST POP PUSH2 0x9D PUSH1 0x4 DUP1 CALLDATASIZE SUB DUP2 ADD SWAP1 PUSH2 0x98 SWAP2 SWAP1 PUSH2 0xE13 JUMP JUMPDEST PUSH2 0x368 JUMP JUMPDEST STOP JUMPDEST CALLVALUE DUP1 ISZERO PUSH2 0xAB JUMPI PUSH1 0x0 DUP1 REVERT JUMPDEST POP PUSH2 0xC6 PUSH1 0x4 DUP1 CALLDATASIZE SUB DUP2 ADD SWAP1 PUSH2 0xC1 SWAP2 SWAP1 PUSH2 0xDB9 JUMP JUMPDEST PUSH2 0x525 JUMP JUMPDEST PUSH1 0x40 MLOAD PUSH2 0xD3 SWAP2 SWAP1 PUSH2 0x1089 JUMP JUMPDEST PUSH1 0x40 MLOAD DUP1 SWAP2 SUB SWAP1 RETURN JUMPDEST CALLVALUE DUP1 ISZERO PUSH2 0xE8 JUMPI PUSH1 0x0 DUP1 REVERT JUMPDEST POP PUSH2 0x103 PUSH1 0x4 DUP1 CALLDATASIZE SUB DUP2 ADD SWAP1 PUSH2 0xFE SWAP2 SWAP1 PUSH2 0xED8 JUMP JUMPDEST PUSH2 0x6A9 JUMP JUMPDEST PUSH1 0x40 MLOAD PUSH2 0x115 SWAP7 SWAP6 SWAP5 SWAP4 SWAP3 SWAP2 SWAP1 PUSH2 0xFE3 JUMP JUMPDEST PUSH1 0x40 MLOAD DUP1 SWAP2 SUB SWAP1 RETURN JUMPDEST PUSH2 0x138 PUSH1 0x4 DUP1 CALLDATASIZE SUB DUP2 ADD SWAP1 PUSH2 0x133 SWAP2 SWAP1 PUSH2 0xDB9 JUMP JUMPDEST PUSH2 0x832 JUMP JUMPDEST STOP JUMPDEST CALLVALUE DUP1 ISZERO PUSH2 0x146 JUMPI PUSH1 0x0 DUP1 REVERT JUMPDEST POP PUSH2 0x14F PUSH2 0x8CC JUMP JUMPDEST PUSH1 0x40 MLOAD PUSH2 0x15C SWAP2 SWAP1 PUSH2 0x1104 JUMP JUMPDEST PUSH1 0x40 MLOAD DUP1 SWAP2 SUB SWAP1 RETURN JUMPDEST PUSH1 0x0 DUP1 SLOAD SWAP1 PUSH2 0x100 EXP SWAP1 DIV PUSH20 0xFFFFFFFFFFFFFFFFFFFFFFFFFFFFFFFFFFFFFFFF AND PUSH20 0xFFFFFFFFFFFFFFFFFFFFFFFFFFFFFFFFFFFFFFFF AND CALLER PUSH20 0xFFFFFFFFFFFFFFFFFFFFFFFFFFFFFFFFFFFFFFFF AND EQ PUSH2 0x1F3 JUMPI PUSH1 0x40 MLOAD PUSH32 0x8C379A000000000000000000000000000000000000000000000000000000000 DUP2 MSTORE PUSH1 0x4 ADD PUSH2 0x1EA SWAP1 PUSH2 0x10E4 JUMP JUMPDEST PUSH1 0x40 MLOAD DUP1 SWAP2 SUB SWAP1 REVERT JUMPDEST PUSH1 0x0 PUSH2 0x1FE DUP3 PUSH2 0x963 JUMP JUMPDEST SWAP1 POP PUSH1 0x1 DUP2 DUP2 SLOAD DUP2 LT PUSH2 0x214 JUMPI PUSH2 0x213 PUSH2 0x138D JUMP JUMPDEST JUMPDEST SWAP1 PUSH1 0x0 MSTORE PUSH1 0x20 PUSH1 0x0 KECCAK256 SWAP1 PUSH1 0x6 MUL ADD PUSH1 0x0 ADD PUSH1 0x0 SWAP1 SLOAD SWAP1 PUSH2 0x100 EXP SWAP1 DIV PUSH20 0xFFFFFFFFFFFFFFFFFFFFFFFFFFFFFFFFFFFFFFFF AND PUSH20 0xFFFFFFFFFFFFFFFFFFFFFFFFFFFFFFFFFFFFFFFF AND CALLER PUSH20 0xFFFFFFFFFFFFFFFFFFFFFFFFFFFFFFFFFFFFFFFF AND EQ PUSH2 0x2B3 JUMPI PUSH1 0x40 MLOAD PUSH32 0x8C379A000000000000000000000000000000000000000000000000000000000 DUP2 MSTORE PUSH1 0x4 ADD PUSH2 0x2AA SWAP1 PUSH2 0x10A4 JUMP JUMPDEST PUSH1 0x40 MLOAD DUP1 SWAP2 SUB SWAP1 REVERT JUMPDEST PUSH1 0x1 DUP2 DUP2 SLOAD DUP2 LT PUSH2 0x2C7 JUMPI PUSH2 0x2C6 PUSH2 0x138D JUMP JUMPDEST JUMPDEST SWAP1 PUSH1 0x0 MSTORE PUSH1 0x20 PUSH1 0x0 KECCAK256 SWAP1 PUSH1 0x6 MUL ADD PUSH1 0x0 ADD PUSH1 0x0 SWAP1 SLOAD SWAP1 PUSH2 0x100 EXP SWAP1 DIV PUSH20 0xFFFFFFFFFFFFFFFFFFFFFFFFFFFFFFFFFFFFFFFF AND PUSH20 0xFFFFFFFFFFFFFFFFFFFFFFFFFFFFFFFFFFFFFFFF AND PUSH2 0x8FC PUSH1 0x1 DUP4 DUP2 SLOAD DUP2 LT PUSH2 0x326 JUMPI PUSH2 0x325 PUSH2 0x138D JUMP JUMPDEST JUMPDEST SWAP1 PUSH1 0x0 MSTORE PUSH1 0x20 PUSH1 0x0 KECCAK256 SWAP1 PUSH1 0x6 MUL ADD PUSH1 0x4 ADD SLOAD SWAP1 DUP2 ISZERO MUL SWAP1 PUSH1 0x40 MLOAD PUSH1 0x0 PUSH1 0x40 MLOAD DUP1 DUP4 SUB DUP2 DUP6 DUP9 DUP9 CALL SWAP4 POP POP POP POP ISZERO DUP1 ISZERO PUSH2 0x363 JUMPI RETURNDATASIZE PUSH1 0x0 DUP1 RETURNDATACOPY RETURNDATASIZE PUSH1 0x0 REVERT JUMPDEST POP POP POP JUMP JUMPDEST PUSH1 0x0 DUP1 SLOAD SWAP1 PUSH2 0x100 EXP SWAP1 DIV PUSH20 0xFFFFFFFFFFFFFFFFFFFFFFFFFFFFFFFFFFFFFFFF AND PUSH20 0xFFFFFFFFFFFFFFFFFFFFFFFFFFFFFFFFFFFFFFFF AND CALLER PUSH20 0xFFFFFFFFFFFFFFFFFFFFFFFFFFFFFFFFFFFFFFFF AND EQ PUSH2 0x3F6 JUMPI PUSH1 0x40 MLOAD PUSH32 0x8C379A000000000000000000000000000000000000000000000000000000000 DUP2 MSTORE PUSH1 0x4 ADD PUSH2 0x3ED SWAP1 PUSH2 0x10E4 JUMP JUMPDEST PUSH1 0x40 MLOAD DUP1 SWAP2 SUB SWAP1 REVERT JUMPDEST PUSH1 0x1 PUSH1 0x40 MLOAD DUP1 PUSH1 0xC0 ADD PUSH1 0x40 MSTORE DUP1 DUP9 PUSH20 0xFFFFFFFFFFFFFFFFFFFFFFFFFFFFFFFFFFFFFFFF AND DUP2 MSTORE PUSH1 0x20 ADD DUP8 DUP2 MSTORE PUSH1 0x20 ADD DUP7 DUP2 MSTORE PUSH1 0x20 ADD DUP6 DUP2 MSTORE PUSH1 0x20 ADD DUP5 DUP2 MSTORE PUSH1 0x20 ADD DUP4 ISZERO ISZERO DUP2 MSTORE POP SWAP1 DUP1 PUSH1 0x1 DUP2 SLOAD ADD DUP1 DUP3 SSTORE DUP1 SWAP2 POP POP PUSH1 0x1 SWAP1 SUB SWAP1 PUSH1 0x0 MSTORE PUSH1 0x20 PUSH1 0x0 KECCAK256 SWAP1 PUSH1 0x6 MUL ADD PUSH1 0x0 SWAP1 SWAP2 SWAP1 SWAP2 SWAP1 SWAP2 POP PUSH1 0x0 DUP3 ADD MLOAD DUP2 PUSH1 0x0 ADD PUSH1 0x0 PUSH2 0x100 EXP DUP2 SLOAD DUP2 PUSH20 0xFFFFFFFFFFFFFFFFFFFFFFFFFFFFFFFFFFFFFFFF MUL NOT AND SWAP1 DUP4 PUSH20 0xFFFFFFFFFFFFFFFFFFFFFFFFFFFFFFFFFFFFFFFF AND MUL OR SWAP1 SSTORE POP PUSH1 0x20 DUP3 ADD MLOAD DUP2 PUSH1 0x1 ADD SWAP1 DUP1 MLOAD SWAP1 PUSH1 0x20 ADD SWAP1 PUSH2 0x4C9 SWAP3 SWAP2 SWAP1 PUSH2 0xC52 JUMP JUMPDEST POP PUSH1 0x40 DUP3 ADD MLOAD DUP2 PUSH1 0x2 ADD SWAP1 DUP1 MLOAD SWAP1 PUSH1 0x20 ADD SWAP1 PUSH2 0x4E6 SWAP3 SWAP2 SWAP1 PUSH2 0xC52 JUMP JUMPDEST POP PUSH1 0x60 DUP3 ADD MLOAD DUP2 PUSH1 0x3 ADD SSTORE PUSH1 0x80 DUP3 ADD MLOAD DUP2 PUSH1 0x4 ADD SSTORE PUSH1 0xA0 DUP3 ADD MLOAD DUP2 PUSH1 0x5 ADD PUSH1 0x0 PUSH2 0x100 EXP DUP2 SLOAD DUP2 PUSH1 0xFF MUL NOT AND SWAP1 DUP4 ISZERO ISZERO MUL OR SWAP1 SSTORE POP POP POP POP POP POP POP POP POP JUMP JUMPDEST PUSH1 0x0 DUP1 PUSH1 0x0 SWAP1 SLOAD SWAP1 PUSH2 0x100 EXP SWAP1 DIV PUSH20 0xFFFFFFFFFFFFFFFFFFFFFFFFFFFFFFFFFFFFFFFF AND PUSH20 0xFFFFFFFFFFFFFFFFFFFFFFFFFFFFFFFFFFFFFFFF AND CALLER PUSH20 0xFFFFFFFFFFFFFFFFFFFFFFFFFFFFFFFFFFFFFFFF AND EQ PUSH2 0x5B6 JUMPI PUSH1 0x40 MLOAD PUSH32 0x8C379A000000000000000000000000000000000000000000000000000000000 DUP2 MSTORE PUSH1 0x4 ADD PUSH2 0x5AD SWAP1 PUSH2 0x10E4 JUMP JUMPDEST PUSH1 0x40 MLOAD DUP1 SWAP2 SUB SWAP1 REVERT JUMPDEST PUSH1 0x0 PUSH2 0x5C1 DUP4 PUSH2 0x963 JUMP JUMPDEST SWAP1 POP PUSH1 0x1 DUP2 DUP2 SLOAD DUP2 LT PUSH2 0x5D7 JUMPI PUSH2 0x5D6 PUSH2 0x138D JUMP JUMPDEST JUMPDEST SWAP1 PUSH1 0x0 MSTORE PUSH1 0x20 PUSH1 0x0 KECCAK256 SWAP1 PUSH1 0x6 MUL ADD PUSH1 0x3 ADD SLOAD TIMESTAMP GT PUSH2 0x62A JUMPI PUSH1 0x40 MLOAD PUSH32 0x8C379A000000000000000000000000000000000000000000000000000000000 DUP2 MSTORE PUSH1 0x4 ADD PUSH2 0x621 SWAP1 PUSH2 0x10C4 JUMP JUMPDEST PUSH1 0x40 MLOAD DUP1 SWAP2 SUB SWAP1 REVERT JUMPDEST PUSH1 0x1 DUP2 DUP2 SLOAD DUP2 LT PUSH2 0x63E JUMPI PUSH2 0x63D PUSH2 0x138D JUMP JUMPDEST JUMPDEST SWAP1 PUSH1 0x0 MSTORE PUSH1 0x20 PUSH1 0x0 KECCAK256 SWAP1 PUSH1 0x6 MUL ADD PUSH1 0x3 ADD SLOAD TIMESTAMP GT ISZERO PUSH2 0x69E JUMPI PUSH1 0x1 DUP1 DUP3 DUP2 SLOAD DUP2 LT PUSH2 0x66C JUMPI PUSH2 0x66B PUSH2 0x138D JUMP JUMPDEST JUMPDEST SWAP1 PUSH1 0x0 MSTORE PUSH1 0x20 PUSH1 0x0 KECCAK256 SWAP1 PUSH1 0x6 MUL ADD PUSH1 0x5 ADD PUSH1 0x0 PUSH2 0x100 EXP DUP2 SLOAD DUP2 PUSH1 0xFF MUL NOT AND SWAP1 DUP4 ISZERO ISZERO MUL OR SWAP1 SSTORE POP PUSH1 0x1 SWAP2 POP POP PUSH2 0x6A4 JUMP JUMPDEST PUSH1 0x0 SWAP2 POP POP JUMPDEST SWAP2 SWAP1 POP JUMP JUMPDEST PUSH1 0x1 DUP2 DUP2 SLOAD DUP2 LT PUSH2 0x6B9 JUMPI PUSH1 0x0 DUP1 REVERT JUMPDEST SWAP1 PUSH1 0x0 MSTORE PUSH1 0x20 PUSH1 0x0 KECCAK256 SWAP1 PUSH1 0x6 MUL ADD PUSH1 0x0 SWAP2 POP SWAP1 POP DUP1 PUSH1 0x0 ADD PUSH1 0x0 SWAP1 SLOAD SWAP1 PUSH2 0x100 EXP SWAP1 DIV PUSH20 0xFFFFFFFFFFFFFFFFFFFFFFFFFFFFFFFFFFFFFFFF AND SWAP1 DUP1 PUSH1 0x1 ADD DUP1 SLOAD PUSH2 0x702 SWAP1 PUSH2 0x1283 JUMP JUMPDEST DUP1 PUSH1 0x1F ADD PUSH1 0x20 DUP1 SWAP2 DIV MUL PUSH1 0x20 ADD PUSH1 0x40 MLOAD SWAP1 DUP2 ADD PUSH1 0x40 MSTORE DUP1 SWAP3 SWAP2 SWAP1 DUP2 DUP2 MSTORE PUSH1 0x20 ADD DUP3 DUP1 SLOAD PUSH2 0x72E SWAP1 PUSH2 0x1283 JUMP JUMPDEST DUP1 ISZERO PUSH2 0x77B JUMPI DUP1 PUSH1 0x1F LT PUSH2 0x750 JUMPI PUSH2 0x100 DUP1 DUP4 SLOAD DIV MUL DUP4 MSTORE SWAP2 PUSH1 0x20 ADD SWAP2 PUSH2 0x77B JUMP JUMPDEST DUP3 ADD SWAP2 SWAP1 PUSH1 0x0 MSTORE PUSH1 0x20 PUSH1 0x0 KECCAK256 SWAP1 JUMPDEST DUP2 SLOAD DUP2 MSTORE SWAP1 PUSH1 0x1 ADD SWAP1 PUSH1 0x20 ADD DUP1 DUP4 GT PUSH2 0x75E JUMPI DUP3 SWAP1 SUB PUSH1 0x1F AND DUP3 ADD SWAP2 JUMPDEST POP POP POP POP POP SWAP1 DUP1 PUSH1 0x2 ADD DUP1 SLOAD PUSH2 0x790 SWAP1 PUSH2 0x1283 JUMP JUMPDEST DUP1 PUSH1 0x1F ADD PUSH1 0x20 DUP1 SWAP2 DIV MUL PUSH1 0x20 ADD PUSH1 0x40 MLOAD SWAP1 DUP2 ADD PUSH1 0x40 MSTORE DUP1 SWAP3 SWAP2 SWAP1 DUP2 DUP2 MSTORE PUSH1 0x20 ADD DUP3 DUP1 SLOAD PUSH2 0x7BC SWAP1 PUSH2 0x1283 JUMP JUMPDEST DUP1 ISZERO PUSH2 0x809 JUMPI DUP1 PUSH1 0x1F LT PUSH2 0x7DE JUMPI PUSH2 0x100 DUP1 DUP4 SLOAD DIV MUL DUP4 MSTORE SWAP2 PUSH1 0x20 ADD SWAP2 PUSH2 0x809 JUMP JUMPDEST DUP3 ADD SWAP2 SWAP1 PUSH1 0x0 MSTORE PUSH1 0x20 PUSH1 0x0 KECCAK256 SWAP1 JUMPDEST DUP2 SLOAD DUP2 MSTORE SWAP1 PUSH1 0x1 ADD SWAP1 PUSH1 0x20 ADD DUP1 DUP4 GT PUSH2 0x7EC JUMPI DUP3 SWAP1 SUB PUSH1 0x1F AND DUP3 ADD SWAP2 JUMPDEST POP POP POP POP POP SWAP1 DUP1 PUSH1 0x3 ADD SLOAD SWAP1 DUP1 PUSH1 0x4 ADD SLOAD SWAP1 DUP1 PUSH1 0x5 ADD PUSH1 0x0 SWAP1 SLOAD SWAP1 PUSH2 0x100 EXP SWAP1 DIV PUSH1 0xFF AND SWAP1 POP DUP7 JUMP JUMPDEST PUSH1 0x0 DUP1 SLOAD SWAP1 PUSH2 0x100 EXP SWAP1 DIV PUSH20 0xFFFFFFFFFFFFFFFFFFFFFFFFFFFFFFFFFFFFFFFF AND PUSH20 0xFFFFFFFFFFFFFFFFFFFFFFFFFFFFFFFFFFFFFFFF AND CALLER PUSH20 0xFFFFFFFFFFFFFFFFFFFFFFFFFFFFFFFFFFFFFFFF AND EQ PUSH2 0x8C0 JUMPI PUSH1 0x40 MLOAD PUSH32 0x8C379A000000000000000000000000000000000000000000000000000000000 DUP2 MSTORE PUSH1 0x4 ADD PUSH2 0x8B7 SWAP1 PUSH2 0x10E4 JUMP JUMPDEST PUSH1 0x40 MLOAD DUP1 SWAP2 SUB SWAP1 REVERT JUMPDEST PUSH2 0x8C9 DUP2 PUSH2 0xAA5 JUMP JUMPDEST POP JUMP JUMPDEST PUSH1 0x0 DUP1 PUSH1 0x0 SWAP1 SLOAD SWAP1 PUSH2 0x100 EXP SWAP1 DIV PUSH20 0xFFFFFFFFFFFFFFFFFFFFFFFFFFFFFFFFFFFFFFFF AND PUSH20 0xFFFFFFFFFFFFFFFFFFFFFFFFFFFFFFFFFFFFFFFF AND CALLER PUSH20 0xFFFFFFFFFFFFFFFFFFFFFFFFFFFFFFFFFFFFFFFF AND EQ PUSH2 0x95D JUMPI PUSH1 0x40 MLOAD PUSH32 0x8C379A000000000000000000000000000000000000000000000000000000000 DUP2 MSTORE PUSH1 0x4 ADD PUSH2 0x954 SWAP1 PUSH2 0x10E4 JUMP JUMPDEST PUSH1 0x40 MLOAD DUP1 SWAP2 SUB SWAP1 REVERT JUMPDEST SELFBALANCE SWAP1 POP SWAP1 JUMP JUMPDEST PUSH1 0x0 DUP1 PUSH1 0x0 SWAP1 SLOAD SWAP1 PUSH2 0x100 EXP SWAP1 DIV PUSH20 0xFFFFFFFFFFFFFFFFFFFFFFFFFFFFFFFFFFFFFFFF AND PUSH20 0xFFFFFFFFFFFFFFFFFFFFFFFFFFFFFFFFFFFFFFFF AND CALLER PUSH20 0xFFFFFFFFFFFFFFFFFFFFFFFFFFFFFFFFFFFFFFFF AND EQ PUSH2 0x9F4 JUMPI PUSH1 0x40 MLOAD PUSH32 0x8C379A000000000000000000000000000000000000000000000000000000000 DUP2 MSTORE PUSH1 0x4 ADD PUSH2 0x9EB SWAP1 PUSH2 0x10E4 JUMP JUMPDEST PUSH1 0x40 MLOAD DUP1 SWAP2 SUB SWAP1 REVERT JUMPDEST PUSH1 0x0 JUMPDEST PUSH1 0x1 DUP1 SLOAD SWAP1 POP DUP2 LT ISZERO PUSH2 0xA99 JUMPI DUP3 PUSH20 0xFFFFFFFFFFFFFFFFFFFFFFFFFFFFFFFFFFFFFFFF AND PUSH1 0x1 DUP3 DUP2 SLOAD DUP2 LT PUSH2 0xA2F JUMPI PUSH2 0xA2E PUSH2 0x138D JUMP JUMPDEST JUMPDEST SWAP1 PUSH1 0x0 MSTORE PUSH1 0x20 PUSH1 0x0 KECCAK256 SWAP1 PUSH1 0x6 MUL ADD PUSH1 0x0 ADD PUSH1 0x0 SWAP1 SLOAD SWAP1 PUSH2 0x100 EXP SWAP1 DIV PUSH20 0xFFFFFFFFFFFFFFFFFFFFFFFFFFFFFFFFFFFFFFFF AND PUSH20 0xFFFFFFFFFFFFFFFFFFFFFFFFFFFFFFFFFFFFFFFF AND EQ ISZERO PUSH2 0xA86 JUMPI DUP1 SWAP2 POP POP PUSH2 0xAA0 JUMP JUMPDEST DUP1 DUP1 PUSH2 0xA91 SWAP1 PUSH2 0x12E6 JUMP JUMPDEST SWAP2 POP POP PUSH2 0x9F7 JUMP JUMPDEST POP PUSH2 0x3E7 SWAP1 POP JUMPDEST SWAP2 SWAP1 POP JUMP JUMPDEST PUSH1 0x0 DUP1 SLOAD SWAP1 PUSH2 0x100 EXP SWAP1 DIV PUSH20 0xFFFFFFFFFFFFFFFFFFFFFFFFFFFFFFFFFFFFFFFF AND PUSH20 0xFFFFFFFFFFFFFFFFFFFFFFFFFFFFFFFFFFFFFFFF AND CALLER PUSH20 0xFFFFFFFFFFFFFFFFFFFFFFFFFFFFFFFFFFFFFFFF AND EQ PUSH2 0xB33 JUMPI PUSH1 0x40 MLOAD PUSH32 0x8C379A000000000000000000000000000000000000000000000000000000000 DUP2 MSTORE PUSH1 0x4 ADD PUSH2 0xB2A SWAP1 PUSH2 0x10E4 JUMP JUMPDEST PUSH1 0x40 MLOAD DUP1 SWAP2 SUB SWAP1 REVERT JUMPDEST PUSH1 0x0 JUMPDEST PUSH1 0x1 DUP1 SLOAD SWAP1 POP DUP2 LT ISZERO PUSH2 0xC4E JUMPI DUP2 PUSH20 0xFFFFFFFFFFFFFFFFFFFFFFFFFFFFFFFFFFFFFFFF AND PUSH1 0x1 DUP3 DUP2 SLOAD DUP2 LT PUSH2 0xB6E JUMPI PUSH2 0xB6D PUSH2 0x138D JUMP JUMPDEST JUMPDEST SWAP1 PUSH1 0x0 MSTORE PUSH1 0x20 PUSH1 0x0 KECCAK256 SWAP1 PUSH1 0x6 MUL ADD PUSH1 0x0 ADD PUSH1 0x0 SWAP1 SLOAD SWAP1 PUSH2 0x100 EXP SWAP1 DIV PUSH20 0xFFFFFFFFFFFFFFFFFFFFFFFFFFFFFFFFFFFFFFFF AND PUSH20 0xFFFFFFFFFFFFFFFFFFFFFFFFFFFFFFFFFFFFFFFF AND EQ ISZERO PUSH2 0xC3B JUMPI CALLVALUE PUSH1 0x1 DUP3 DUP2 SLOAD DUP2 LT PUSH2 0xBD1 JUMPI PUSH2 0xBD0 PUSH2 0x138D JUMP JUMPDEST JUMPDEST SWAP1 PUSH1 0x0 MSTORE PUSH1 0x20 PUSH1 0x0 KECCAK256 SWAP1 PUSH1 0x6 MUL ADD PUSH1 0x4 ADD PUSH1 0x0 DUP3 DUP3 SLOAD PUSH2 0xBF1 SWAP2 SWAP1 PUSH2 0x1191 JUMP JUMPDEST SWAP3 POP POP DUP2 SWAP1 SSTORE POP PUSH32 0x93BB732FD2D523B5A5825D5FDDAF2A4A42B00C83B5800AEC306627E0DC3B5B51 DUP3 CALLVALUE PUSH2 0xC23 PUSH2 0x8CC JUMP JUMPDEST PUSH1 0x40 MLOAD PUSH2 0xC32 SWAP4 SWAP3 SWAP2 SWAP1 PUSH2 0x1052 JUMP JUMPDEST PUSH1 0x40 MLOAD DUP1 SWAP2 SUB SWAP1 LOG1 JUMPDEST DUP1 DUP1 PUSH2 0xC46 SWAP1 PUSH2 0x12E6 JUMP JUMPDEST SWAP2 POP POP PUSH2 0xB36 JUMP JUMPDEST POP POP JUMP JUMPDEST DUP3 DUP1 SLOAD PUSH2 0xC5E SWAP1 PUSH2 0x1283 JUMP JUMPDEST SWAP1 PUSH1 0x0 MSTORE PUSH1 0x20 PUSH1 0x0 KECCAK256 SWAP1 PUSH1 0x1F ADD PUSH1 0x20 SWAP1 DIV DUP2 ADD SWAP3 DUP3 PUSH2 0xC80 JUMPI PUSH1 0x0 DUP6 SSTORE PUSH2 0xCC7 JUMP JUMPDEST DUP3 PUSH1 0x1F LT PUSH2 0xC99 JUMPI DUP1 MLOAD PUSH1 0xFF NOT AND DUP4 DUP1 ADD OR DUP6 SSTORE PUSH2 0xCC7 JUMP JUMPDEST DUP3 DUP1 ADD PUSH1 0x1 ADD DUP6 SSTORE DUP3 ISZERO PUSH2 0xCC7 JUMPI SWAP2 DUP3 ADD JUMPDEST DUP3 DUP2 GT ISZERO PUSH2 0xCC6 JUMPI DUP3 MLOAD DUP3 SSTORE SWAP2 PUSH1 0x20 ADD SWAP2 SWAP1 PUSH1 0x1 ADD SWAP1 PUSH2 0xCAB JUMP JUMPDEST JUMPDEST POP SWAP1 POP PUSH2 0xCD4 SWAP2 SWAP1 PUSH2 0xCD8 JUMP JUMPDEST POP SWAP1 JUMP JUMPDEST JUMPDEST DUP1 DUP3 GT ISZERO PUSH2 0xCF1 JUMPI PUSH1 0x0 DUP2 PUSH1 0x0 SWAP1 SSTORE POP PUSH1 0x1 ADD PUSH2 0xCD9 JUMP JUMPDEST POP SWAP1 JUMP JUMPDEST PUSH1 0x0 PUSH2 0xD08 PUSH2 0xD03 DUP5 PUSH2 0x1144 JUMP JUMPDEST PUSH2 0x111F JUMP JUMPDEST SWAP1 POP DUP3 DUP2 MSTORE PUSH1 0x20 DUP2 ADD DUP5 DUP5 DUP5 ADD GT ISZERO PUSH2 0xD24 JUMPI PUSH2 0xD23 PUSH2 0x13F0 JUMP JUMPDEST JUMPDEST PUSH2 0xD2F DUP5 DUP3 DUP6 PUSH2 0x1241 JUMP JUMPDEST POP SWAP4 SWAP3 POP POP POP JUMP JUMPDEST PUSH1 0x0 DUP2 CALLDATALOAD SWAP1 POP PUSH2 0xD46 DUP2 PUSH2 0x148B JUMP JUMPDEST SWAP3 SWAP2 POP POP JUMP JUMPDEST PUSH1 0x0 DUP2 CALLDATALOAD SWAP1 POP PUSH2 0xD5B DUP2 PUSH2 0x14A2 JUMP JUMPDEST SWAP3 SWAP2 POP POP JUMP JUMPDEST PUSH1 0x0 DUP2 CALLDATALOAD SWAP1 POP PUSH2 0xD70 DUP2 PUSH2 0x14B9 JUMP JUMPDEST SWAP3 SWAP2 POP POP JUMP JUMPDEST PUSH1 0x0 DUP3 PUSH1 0x1F DUP4 ADD SLT PUSH2 0xD8B JUMPI PUSH2 0xD8A PUSH2 0x13EB JUMP JUMPDEST JUMPDEST DUP2 CALLDATALOAD PUSH2 0xD9B DUP5 DUP3 PUSH1 0x20 DUP7 ADD PUSH2 0xCF5 JUMP JUMPDEST SWAP2 POP POP SWAP3 SWAP2 POP POP JUMP JUMPDEST PUSH1 0x0 DUP2 CALLDATALOAD SWAP1 POP PUSH2 0xDB3 DUP2 PUSH2 0x14D0 JUMP JUMPDEST SWAP3 SWAP2 POP POP JUMP JUMPDEST PUSH1 0x0 PUSH1 0x20 DUP3 DUP5 SUB SLT ISZERO PUSH2 0xDCF JUMPI PUSH2 0xDCE PUSH2 0x13FA JUMP JUMPDEST JUMPDEST PUSH1 0x0 PUSH2 0xDDD DUP5 DUP3 DUP6 ADD PUSH2 0xD37 JUMP JUMPDEST SWAP2 POP POP SWAP3 SWAP2 POP POP JUMP JUMPDEST PUSH1 0x0 PUSH1 0x20 DUP3 DUP5 SUB SLT ISZERO PUSH2 0xDFC JUMPI PUSH2 0xDFB PUSH2 0x13FA JUMP JUMPDEST JUMPDEST PUSH1 0x0 PUSH2 0xE0A DUP5 DUP3 DUP6 ADD PUSH2 0xD4C JUMP JUMPDEST SWAP2 POP POP SWAP3 SWAP2 POP POP JUMP JUMPDEST PUSH1 0x0 DUP1 PUSH1 0x0 DUP1 PUSH1 0x0 DUP1 PUSH1 0xC0 DUP8 DUP10 SUB SLT ISZERO PUSH2 0xE30 JUMPI PUSH2 0xE2F PUSH2 0x13FA JUMP JUMPDEST JUMPDEST PUSH1 0x0 PUSH2 0xE3E DUP10 DUP3 DUP11 ADD PUSH2 0xD4C JUMP JUMPDEST SWAP7 POP POP PUSH1 0x20 DUP8 ADD CALLDATALOAD PUSH8 0xFFFFFFFFFFFFFFFF DUP2 GT ISZERO PUSH2 0xE5F JUMPI PUSH2 0xE5E PUSH2 0x13F5 JUMP JUMPDEST JUMPDEST PUSH2 0xE6B DUP10 DUP3 DUP11 ADD PUSH2 0xD76 JUMP JUMPDEST SWAP6 POP POP PUSH1 0x40 DUP8 ADD CALLDATALOAD PUSH8 0xFFFFFFFFFFFFFFFF DUP2 GT ISZERO PUSH2 0xE8C JUMPI PUSH2 0xE8B PUSH2 0x13F5 JUMP JUMPDEST JUMPDEST PUSH2 0xE98 DUP10 DUP3 DUP11 ADD PUSH2 0xD76 JUMP JUMPDEST SWAP5 POP POP PUSH1 0x60 PUSH2 0xEA9 DUP10 DUP3 DUP11 ADD PUSH2 0xDA4 JUMP JUMPDEST SWAP4 POP POP PUSH1 0x80 PUSH2 0xEBA DUP10 DUP3 DUP11 ADD PUSH2 0xDA4 JUMP JUMPDEST SWAP3 POP POP PUSH1 0xA0 PUSH2 0xECB DUP10 DUP3 DUP11 ADD PUSH2 0xD61 JUMP JUMPDEST SWAP2 POP POP SWAP3 SWAP6 POP SWAP3 SWAP6 POP SWAP3 SWAP6 JUMP JUMPDEST PUSH1 0x0 PUSH1 0x20 DUP3 DUP5 SUB SLT ISZERO PUSH2 0xEEE JUMPI PUSH2 0xEED PUSH2 0x13FA JUMP JUMPDEST JUMPDEST PUSH1 0x0 PUSH2 0xEFC DUP5 DUP3 DUP6 ADD PUSH2 0xDA4 JUMP JUMPDEST SWAP2 POP POP SWAP3 SWAP2 POP POP JUMP JUMPDEST PUSH2 0xF0E DUP2 PUSH2 0x11F9 JUMP JUMPDEST DUP3 MSTORE POP POP JUMP JUMPDEST PUSH2 0xF1D DUP2 PUSH2 0x11E7 JUMP JUMPDEST DUP3 MSTORE POP POP JUMP JUMPDEST PUSH2 0xF2C DUP2 PUSH2 0x120B JUMP JUMPDEST DUP3 MSTORE POP POP JUMP JUMPDEST PUSH1 0x0 PUSH2 0xF3D DUP3 PUSH2 0x1175 JUMP JUMPDEST PUSH2 0xF47 DUP2 DUP6 PUSH2 0x1180 JUMP JUMPDEST SWAP4 POP PUSH2 0xF57 DUP2 DUP6 PUSH1 0x20 DUP7 ADD PUSH2 0x1250 JUMP JUMPDEST PUSH2 0xF60 DUP2 PUSH2 0x13FF JUMP JUMPDEST DUP5 ADD SWAP2 POP POP SWAP3 SWAP2 POP POP JUMP JUMPDEST PUSH1 0x0 PUSH2 0xF78 PUSH1 0x1F DUP4 PUSH2 0x1180 JUMP JUMPDEST SWAP2 POP PUSH2 0xF83 DUP3 PUSH2 0x1410 JUMP JUMPDEST PUSH1 0x20 DUP3 ADD SWAP1 POP SWAP2 SWAP1 POP JUMP JUMPDEST PUSH1 0x0 PUSH2 0xF9B PUSH1 0x18 DUP4 PUSH2 0x1180 JUMP JUMPDEST SWAP2 POP PUSH2 0xFA6 DUP3 PUSH2 0x1439 JUMP JUMPDEST PUSH1 0x20 DUP3 ADD SWAP1 POP SWAP2 SWAP1 POP JUMP JUMPDEST PUSH1 0x0 PUSH2 0xFBE PUSH1 0x1D DUP4 PUSH2 0x1180 JUMP JUMPDEST SWAP2 POP PUSH2 0xFC9 DUP3 PUSH2 0x1462 JUMP JUMPDEST PUSH1 0x20 DUP3 ADD SWAP1 POP SWAP2 SWAP1 POP JUMP JUMPDEST PUSH2 0xFDD DUP2 PUSH2 0x1237 JUMP JUMPDEST DUP3 MSTORE POP POP JUMP JUMPDEST PUSH1 0x0 PUSH1 0xC0 DUP3 ADD SWAP1 POP PUSH2 0xFF8 PUSH1 0x0 DUP4 ADD DUP10 PUSH2 0xF05 JUMP JUMPDEST DUP2 DUP2 SUB PUSH1 0x20 DUP4 ADD MSTORE PUSH2 0x100A DUP2 DUP9 PUSH2 0xF32 JUMP JUMPDEST SWAP1 POP DUP2 DUP2 SUB PUSH1 0x40 DUP4 ADD MSTORE PUSH2 0x101E DUP2 DUP8 PUSH2 0xF32 JUMP JUMPDEST SWAP1 POP PUSH2 0x102D PUSH1 0x60 DUP4 ADD DUP7 PUSH2 0xFD4 JUMP JUMPDEST PUSH2 0x103A PUSH1 0x80 DUP4 ADD DUP6 PUSH2 0xFD4 JUMP JUMPDEST PUSH2 0x1047 PUSH1 0xA0 DUP4 ADD DUP5 PUSH2 0xF23 JUMP JUMPDEST SWAP8 SWAP7 POP POP POP POP POP POP POP JUMP JUMPDEST PUSH1 0x0 PUSH1 0x60 DUP3 ADD SWAP1 POP PUSH2 0x1067 PUSH1 0x0 DUP4 ADD DUP7 PUSH2 0xF14 JUMP JUMPDEST PUSH2 0x1074 PUSH1 0x20 DUP4 ADD DUP6 PUSH2 0xFD4 JUMP JUMPDEST PUSH2 0x1081 PUSH1 0x40 DUP4 ADD DUP5 PUSH2 0xFD4 JUMP JUMPDEST SWAP5 SWAP4 POP POP POP POP JUMP JUMPDEST PUSH1 0x0 PUSH1 0x20 DUP3 ADD SWAP1 POP PUSH2 0x109E PUSH1 0x0 DUP4 ADD DUP5 PUSH2 0xF23 JUMP JUMPDEST SWAP3 SWAP2 POP POP JUMP JUMPDEST PUSH1 0x0 PUSH1 0x20 DUP3 ADD SWAP1 POP DUP2 DUP2 SUB PUSH1 0x0 DUP4 ADD MSTORE PUSH2 0x10BD DUP2 PUSH2 0xF6B JUMP JUMPDEST SWAP1 POP SWAP2 SWAP1 POP JUMP JUMPDEST PUSH1 0x0 PUSH1 0x20 DUP3 ADD SWAP1 POP DUP2 DUP2 SUB PUSH1 0x0 DUP4 ADD MSTORE PUSH2 0x10DD DUP2 PUSH2 0xF8E JUMP JUMPDEST SWAP1 POP SWAP2 SWAP1 POP JUMP JUMPDEST PUSH1 0x0 PUSH1 0x20 DUP3 ADD SWAP1 POP DUP2 DUP2 SUB PUSH1 0x0 DUP4 ADD MSTORE PUSH2 0x10FD DUP2 PUSH2 0xFB1 JUMP JUMPDEST SWAP1 POP SWAP2 SWAP1 POP JUMP JUMPDEST PUSH1 0x0 PUSH1 0x20 DUP3 ADD SWAP1 POP PUSH2 0x1119 PUSH1 0x0 DUP4 ADD DUP5 PUSH2 0xFD4 JUMP JUMPDEST SWAP3 SWAP2 POP POP JUMP JUMPDEST PUSH1 0x0 PUSH2 0x1129 PUSH2 0x113A JUMP JUMPDEST SWAP1 POP PUSH2 0x1135 DUP3 DUP3 PUSH2 0x12B5 JUMP JUMPDEST SWAP2 SWAP1 POP JUMP JUMPDEST PUSH1 0x0 PUSH1 0x40 MLOAD SWAP1 POP SWAP1 JUMP JUMPDEST PUSH1 0x0 PUSH8 0xFFFFFFFFFFFFFFFF DUP3 GT ISZERO PUSH2 0x115F JUMPI PUSH2 0x115E PUSH2 0x13BC JUMP JUMPDEST JUMPDEST PUSH2 0x1168 DUP3 PUSH2 0x13FF JUMP JUMPDEST SWAP1 POP PUSH1 0x20 DUP2 ADD SWAP1 POP SWAP2 SWAP1 POP JUMP JUMPDEST PUSH1 0x0 DUP2 MLOAD SWAP1 POP SWAP2 SWAP1 POP JUMP JUMPDEST PUSH1 0x0 DUP3 DUP3 MSTORE PUSH1 0x20 DUP3 ADD SWAP1 POP SWAP3 SWAP2 POP POP JUMP JUMPDEST PUSH1 0x0 PUSH2 0x119C DUP3 PUSH2 0x1237 JUMP JUMPDEST SWAP2 POP PUSH2 0x11A7 DUP4 PUSH2 0x1237 JUMP JUMPDEST SWAP3 POP DUP3 PUSH32 0xFFFFFFFFFFFFFFFFFFFFFFFFFFFFFFFFFFFFFFFFFFFFFFFFFFFFFFFFFFFFFFFF SUB DUP3 GT ISZERO PUSH2 0x11DC JUMPI PUSH2 0x11DB PUSH2 0x132F JUMP JUMPDEST JUMPDEST DUP3 DUP3 ADD SWAP1 POP SWAP3 SWAP2 POP POP JUMP JUMPDEST PUSH1 0x0 PUSH2 0x11F2 DUP3 PUSH2 0x1217 JUMP JUMPDEST SWAP1 POP SWAP2 SWAP1 POP JUMP JUMPDEST PUSH1 0x0 PUSH2 0x1204 DUP3 PUSH2 0x1217 JUMP JUMPDEST SWAP1 POP SWAP2 SWAP1 POP JUMP JUMPDEST PUSH1 0x0 DUP2 ISZERO ISZERO SWAP1 POP SWAP2 SWAP1 POP JUMP JUMPDEST PUSH1 0x0 PUSH20 0xFFFFFFFFFFFFFFFFFFFFFFFFFFFFFFFFFFFFFFFF DUP3 AND SWAP1 POP SWAP2 SWAP1 POP JUMP JUMPDEST PUSH1 0x0 DUP2 SWAP1 POP SWAP2 SWAP1 POP JUMP JUMPDEST DUP3 DUP2 DUP4 CALLDATACOPY PUSH1 0x0 DUP4 DUP4 ADD MSTORE POP POP POP JUMP JUMPDEST PUSH1 0x0 JUMPDEST DUP4 DUP2 LT ISZERO PUSH2 0x126E JUMPI DUP1 DUP3 ADD MLOAD DUP2 DUP5 ADD MSTORE PUSH1 0x20 DUP2 ADD SWAP1 POP PUSH2 0x1253 JUMP JUMPDEST DUP4 DUP2 GT ISZERO PUSH2 0x127D JUMPI PUSH1 0x0 DUP5 DUP5 ADD MSTORE JUMPDEST POP POP POP POP JUMP JUMPDEST PUSH1 0x0 PUSH1 0x2 DUP3 DIV SWAP1 POP PUSH1 0x1 DUP3 AND DUP1 PUSH2 0x129B JUMPI PUSH1 0x7F DUP3 AND SWAP2 POP JUMPDEST PUSH1 0x20 DUP3 LT DUP2 EQ ISZERO PUSH2 0x12AF JUMPI PUSH2 0x12AE PUSH2 0x135E JUMP JUMPDEST JUMPDEST POP SWAP2 SWAP1 POP JUMP JUMPDEST PUSH2 0x12BE DUP3 PUSH2 0x13FF JUMP JUMPDEST DUP2 ADD DUP2 DUP2 LT PUSH8 0xFFFFFFFFFFFFFFFF DUP3 GT OR ISZERO PUSH2 0x12DD JUMPI PUSH2 0x12DC PUSH2 0x13BC JUMP JUMPDEST JUMPDEST DUP1 PUSH1 0x40 MSTORE POP POP POP JUMP JUMPDEST PUSH1 0x0 PUSH2 0x12F1 DUP3 PUSH2 0x1237 JUMP JUMPDEST SWAP2 POP PUSH32 0xFFFFFFFFFFFFFFFFFFFFFFFFFFFFFFFFFFFFFFFFFFFFFFFFFFFFFFFFFFFFFFFF DUP3 EQ ISZERO PUSH2 0x1324 JUMPI PUSH2 0x1323 PUSH2 0x132F JUMP JUMPDEST JUMPDEST PUSH1 0x1 DUP3 ADD SWAP1 POP SWAP2 SWAP1 POP JUMP JUMPDEST PUSH32 0x4E487B7100000000000000000000000000000000000000000000000000000000 PUSH1 0x0 MSTORE PUSH1 0x11 PUSH1 0x4 MSTORE PUSH1 0x24 PUSH1 0x0 REVERT JUMPDEST PUSH32 0x4E487B7100000000000000000000000000000000000000000000000000000000 PUSH1 0x0 MSTORE PUSH1 0x22 PUSH1 0x4 MSTORE PUSH1 0x24 PUSH1 0x0 REVERT JUMPDEST PUSH32 0x4E487B7100000000000000000000000000000000000000000000000000000000 PUSH1 0x0 MSTORE PUSH1 0x32 PUSH1 0x4 MSTORE PUSH1 0x24 PUSH1 0x0 REVERT JUMPDEST PUSH32 0x4E487B7100000000000000000000000000000000000000000000000000000000 PUSH1 0x0 MSTORE PUSH1 0x41 PUSH1 0x4 MSTORE PUSH1 0x24 PUSH1 0x0 REVERT JUMPDEST PUSH1 0x0 DUP1 REVERT JUMPDEST PUSH1 0x0 DUP1 REVERT JUMPDEST PUSH1 0x0 DUP1 REVERT JUMPDEST PUSH1 0x0 DUP1 REVERT JUMPDEST PUSH1 0x0 PUSH1 0x1F NOT PUSH1 0x1F DUP4 ADD AND SWAP1 POP SWAP2 SWAP1 POP JUMP JUMPDEST PUSH32 0x796F75206D75737420626520746865206B696420746F20776974686472617700 PUSH1 0x0 DUP3 ADD MSTORE POP JUMP JUMPDEST PUSH32 0x796F752063616E6E6F7420776974686472617720796574200000000000000000 PUSH1 0x0 DUP3 ADD MSTORE POP JUMP JUMPDEST PUSH32 0x6F6E6C7920746865206F776E65722063616E2020616464206B69647320000000 PUSH1 0x0 DUP3 ADD MSTORE POP JUMP JUMPDEST PUSH2 0x1494 DUP2 PUSH2 0x11E7 JUMP JUMPDEST DUP2 EQ PUSH2 0x149F JUMPI PUSH1 0x0 DUP1 REVERT JUMPDEST POP JUMP JUMPDEST PUSH2 0x14AB DUP2 PUSH2 0x11F9 JUMP JUMPDEST DUP2 EQ PUSH2 0x14B6 JUMPI PUSH1 0x0 DUP1 REVERT JUMPDEST POP JUMP JUMPDEST PUSH2 0x14C2 DUP2 PUSH2 0x120B JUMP JUMPDEST DUP2 EQ PUSH2 0x14CD JUMPI PUSH1 0x0 DUP1 REVERT JUMPDEST POP JUMP JUMPDEST PUSH2 0x14D9 DUP2 PUSH2 0x1237 JUMP JUMPDEST DUP2 EQ PUSH2 0x14E4 JUMPI PUSH1 0x0 DUP1 REVERT JUMPDEST POP JUMP INVALID LOG2 PUSH5 0x6970667358 0x22 SLT KECCAK256 SWAP13 JUMP EXTCODECOPY CODECOPY 0x2A SELFDESTRUCT 0x2E 0xCD 0xB1 SLOAD ISZERO SDIV SDIV SWAP9 MSTORE8 PUSH28 0xB6DCBB687F8AA90011B582143EAE46F964736F6C6343000807003300 "
				},
				"gasEstimates": {
					"creation": {
						"codeDepositCost": "1081000",
						"executionCost": "25386",
						"totalCost": "1106386"
					},
					"external": {
						"BalanceOf()": "2694",
						"addKids(address,string,string,uint256,uint256,bool)": "infinite",
						"availableToWithDraw(address)": "infinite",
						"deposite(address)": "infinite",
						"kids(uint256)": "infinite",
						"withDraw(address)": "infinite"
					},
					"internal": {
						"addToKidBalance(address)": "infinite",
						"getIndex(address)": "infinite"
					}
				},
				"methodIdentifiers": {
					"BalanceOf()": "9a3174a0",
					"addKids(address,string,string,uint256,uint256,bool)": "403a37dc",
					"availableToWithDraw(address)": "63c6afe4",
					"deposite(address)": "82c7f627",
					"kids(uint256)": "7285fd3a",
					"withDraw(address)": "0a67d2c7"
				}
			},
			"storageLayout": {
				"storage": [
					{
						"astId": 3,
						"contract": "deps/proje/CryptoKids.sol:CryptoKids",
						"label": "owner",
						"offset": 0,
						"slot": "0",
						"type": "t_address"
					},
					{
						"astId": 37,
						"contract": "deps/proje/CryptoKids.sol:CryptoKids",
						"label": "kids",
						"offset": 0,
						"slot": "1",
						"type": "t_array(t_struct(Kid)33_storage)dyn_storage"
					}
				],
				"types": {
					"t_address": {
						"encoding": "inplace",
						"label": "address",
						"numberOfBytes": "20"
					},
					"t_address_payable": {
						"encoding": "inplace",
						"label": "address payable",
						"numberOfBytes": "20"
					},
					"t_array(t_struct(Kid)33_storage)dyn_storage": {
						"base": "t_struct(Kid)33_storage",
						"encoding": "dynamic_array",
						"label": "struct CryptoKids.Kid[]",
						"numberOfBytes": "32"
					},
					"t_bool": {
						"encoding": "inplace",
						"label": "bool",
						"numberOfBytes": "1"
					},
					"t_string_storage": {
						"encoding": "bytes",
						"label": "string",
						"numberOfBytes": "32"
					},
					"t_struct(Kid)33_storage": {
						"encoding": "inplace",
						"label": "struct CryptoKids.Kid",
						"members": [
							{
								"astId": 22,
								"contract": "deps/proje/CryptoKids.sol:CryptoKids",
								"label": "walletAddress",
								"offset": 0,
								"slot": "0",
								"type": "t_address_payable"
							},
							{
								"astId": 24,
								"contract": "deps/proje/CryptoKids.sol:CryptoKids",
								"label": "firstName",
								"offset": 0,
								"slot": "1",
								"type": "t_string_storage"
							},
							{
								"astId": 26,
								"contract": "deps/proje/CryptoKids.sol:CryptoKids",
								"label": "LastName",
								"offset": 0,
								"slot": "2",
								"type": "t_string_storage"
							},
							{
								"astId": 28,
								"contract": "deps/proje/CryptoKids.sol:CryptoKids",
								"label": "ReleaseTime",
								"offset": 0,
								"slot": "3",
								"type": "t_uint256"
							},
							{
								"astId": 30,
								"contract": "deps/proje/CryptoKids.sol:CryptoKids",
								"label": "amount",
								"offset": 0,
								"slot": "4",
								"type": "t_uint256"
							},
							{
								"astId": 32,
								"contract": "deps/proje/CryptoKids.sol:CryptoKids",
								"label": "canWithDraw",
								"offset": 0,
								"slot": "5",
								"type": "t_bool"
							}
						],
						"numberOfBytes": "192"
					},
					"t_uint256": {
						"encoding": "inplace",
						"label": "uint256",
						"numberOfBytes": "32"
					}
				}
			},
			"userdoc": {
				"kind": "user",
				"methods": {},
				"version": 1
			}
		}
	}
}