{
	"deps/proje/store.sol": {
		"Store": {
			"abi": [
				{
					"inputs": [],
					"stateMutability": "nonpayable",
					"type": "constructor"
				},
				{
					"inputs": [
						{
							"internalType": "uint256",
							"name": "order_id",
							"type": "uint256"
						}
					],
					"name": "advanceOrder",
					"outputs": [],
					"stateMutability": "nonpayable",
					"type": "function"
				},
				{
					"inputs": [
						{
							"internalType": "string",
							"name": "_zipCode",
							"type": "string"
						},
						{
							"internalType": "uint256[]",
							"name": "_products",
							"type": "uint256[]"
						}
					],
					"name": "createOrder",
					"outputs": [
						{
							"internalType": "uint256",
							"name": "",
							"type": "uint256"
						}
					],
					"stateMutability": "nonpayable",
					"type": "function"
				},
				{
					"inputs": [
						{
							"internalType": "uint256",
							"name": "order_id",
							"type": "uint256"
						}
					],
					"name": "getOrder",
					"outputs": [
						{
							"components": [
								{
									"internalType": "address",
									"name": "customer",
									"type": "address"
								},
								{
									"internalType": "string",
									"name": "zipCode",
									"type": "string"
								},
								{
									"internalType": "uint256[]",
									"name": "products",
									"type": "uint256[]"
								},
								{
									"internalType": "enum Store.Status",
									"name": "status",
									"type": "uint8"
								}
							],
							"internalType": "struct Store.Order",
							"name": "",
							"type": "tuple"
						}
					],
					"stateMutability": "view",
					"type": "function"
				},
				{
					"inputs": [
						{
							"internalType": "uint256",
							"name": "",
							"type": "uint256"
						}
					],
					"name": "orders",
					"outputs": [
						{
							"internalType": "address",
							"name": "customer",
							"type": "address"
						},
						{
							"internalType": "string",
							"name": "zipCode",
							"type": "string"
						},
						{
							"internalType": "enum Store.Status",
							"name": "status",
							"type": "uint8"
						}
					],
					"stateMutability": "view",
					"type": "function"
				},
				{
					"inputs": [],
					"name": "owner",
					"outputs": [
						{
							"internalType": "address",
							"name": "",
							"type": "address"
						}
					],
					"stateMutability": "view",
					"type": "function"
				},
				{
					"inputs": [
						{
							"internalType": "uint256",
							"name": "order_id",
							"type": "uint256"
						},
						{
							"internalType": "string",
							"name": "_zip",
							"type": "string"
						}
					],
					"name": "uploadzip",
					"outputs": [],
					"stateMutability": "nonpayable",
					"type": "function"
				}
			],
			"devdoc": {
				"kind": "dev",
				"methods": {},
				"version": 1
			},
			"evm": {
				"assembly": "    /* \"deps/proje/store.sol\":60:2481  contract Store{\r... */\n  mstore(0x40, 0x80)\n    /* \"deps/proje/store.sol\":532:644  constructor(){\r... */\n  callvalue\n  dup1\n  iszero\n  tag_1\n  jumpi\n  0x00\n  dup1\n  revert\ntag_1:\n  pop\n    /* \"deps/proje/store.sol\":564:574  msg.sender */\n  caller\n    /* \"deps/proje/store.sol\":556:561  owner */\n  0x01\n  0x00\n    /* \"deps/proje/store.sol\":556:574  owner = msg.sender */\n  0x0100\n  exp\n  dup2\n  sload\n  dup2\n  0xffffffffffffffffffffffffffffffffffffffff\n  mul\n  not\n  and\n  swap1\n  dup4\n  0xffffffffffffffffffffffffffffffffffffffff\n  and\n  mul\n  or\n  swap1\n  sstore\n  pop\n    /* \"deps/proje/store.sol\":60:2481  contract Store{\r... */\n  dataSize(sub_0)\n  dup1\n  dataOffset(sub_0)\n  0x00\n  codecopy\n  0x00\n  return\nstop\n\nsub_0: assembly {\n        /* \"deps/proje/store.sol\":60:2481  contract Store{\r... */\n      mstore(0x40, 0x80)\n      callvalue\n      dup1\n      iszero\n      tag_1\n      jumpi\n      0x00\n      dup1\n      revert\n    tag_1:\n      pop\n      jumpi(tag_2, lt(calldatasize, 0x04))\n      shr(0xe0, calldataload(0x00))\n      dup1\n      0x6d9a65d8\n      eq\n      tag_3\n      jumpi\n      dup1\n      0x8da5cb5b\n      eq\n      tag_4\n      jumpi\n      dup1\n      0xa85c38ef\n      eq\n      tag_5\n      jumpi\n      dup1\n      0xafe13a62\n      eq\n      tag_6\n      jumpi\n      dup1\n      0xb28445c7\n      eq\n      tag_7\n      jumpi\n      dup1\n      0xd09ef241\n      eq\n      tag_8\n      jumpi\n    tag_2:\n      0x00\n      dup1\n      revert\n        /* \"deps/proje/store.sol\":652:1212  function createOrder(string memory _zipCode, uint256[] memory _products ) public returns (uint256 ){\r... */\n    tag_3:\n      tag_9\n      0x04\n      dup1\n      calldatasize\n      sub\n      dup2\n      add\n      swap1\n      tag_10\n      swap2\n      swap1\n      tag_11\n      jump\t// in\n    tag_10:\n      tag_12\n      jump\t// in\n    tag_9:\n      mload(0x40)\n      tag_13\n      swap2\n      swap1\n      tag_14\n      jump\t// in\n    tag_13:\n      mload(0x40)\n      dup1\n      swap2\n      sub\n      swap1\n      return\n        /* \"deps/proje/store.sol\":498:518  address public owner */\n    tag_4:\n      tag_15\n      tag_16\n      jump\t// in\n    tag_15:\n      mload(0x40)\n      tag_17\n      swap2\n      swap1\n      tag_18\n      jump\t// in\n    tag_17:\n      mload(0x40)\n      dup1\n      swap2\n      sub\n      swap1\n      return\n        /* \"deps/proje/store.sol\":431:452  Order[] public orders */\n    tag_5:\n      tag_19\n      0x04\n      dup1\n      calldatasize\n      sub\n      dup2\n      add\n      swap1\n      tag_20\n      swap2\n      swap1\n      tag_21\n      jump\t// in\n    tag_20:\n      tag_22\n      jump\t// in\n    tag_19:\n      mload(0x40)\n      tag_23\n      swap4\n      swap3\n      swap2\n      swap1\n      tag_24\n      jump\t// in\n    tag_23:\n      mload(0x40)\n      dup1\n      swap2\n      sub\n      swap1\n      return\n        /* \"deps/proje/store.sol\":1271:1964  function advanceOrder(uint256 order_id ) public {\r... */\n    tag_6:\n      tag_25\n      0x04\n      dup1\n      calldatasize\n      sub\n      dup2\n      add\n      swap1\n      tag_26\n      swap2\n      swap1\n      tag_21\n      jump\t// in\n    tag_26:\n      tag_27\n      jump\t// in\n    tag_25:\n      stop\n        /* \"deps/proje/store.sol\":2177:2477  function uploadzip(uint256 order_id , string memory _zip) public {\r... */\n    tag_7:\n      tag_28\n      0x04\n      dup1\n      calldatasize\n      sub\n      dup2\n      add\n      swap1\n      tag_29\n      swap2\n      swap1\n      tag_30\n      jump\t// in\n    tag_29:\n      tag_31\n      jump\t// in\n    tag_28:\n      stop\n        /* \"deps/proje/store.sol\":1972:2169  function getOrder(uint256 order_id) public view returns(Order memory){\r... */\n    tag_8:\n      tag_32\n      0x04\n      dup1\n      calldatasize\n      sub\n      dup2\n      add\n      swap1\n      tag_33\n      swap2\n      swap1\n      tag_21\n      jump\t// in\n    tag_33:\n      tag_34\n      jump\t// in\n    tag_32:\n      mload(0x40)\n      tag_35\n      swap2\n      swap1\n      tag_36\n      jump\t// in\n    tag_35:\n      mload(0x40)\n      dup1\n      swap2\n      sub\n      swap1\n      return\n        /* \"deps/proje/store.sol\":652:1212  function createOrder(string memory _zipCode, uint256[] memory _products ) public returns (uint256 ){\r... */\n    tag_12:\n        /* \"deps/proje/store.sol\":742:749  uint256 */\n      0x00\n        /* \"deps/proje/store.sol\":789:790  0 */\n      dup1\n        /* \"deps/proje/store.sol\":770:779  _products */\n      dup3\n        /* \"deps/proje/store.sol\":770:786  _products.length */\n      mload\n        /* \"deps/proje/store.sol\":770:790  _products.length > 0 */\n      gt\n        /* \"deps/proje/store.sol\":762:808  require(_products.length > 0 ,\" not products\") */\n      tag_38\n      jumpi\n      mload(0x40)\n      0x08c379a000000000000000000000000000000000000000000000000000000000\n      dup2\n      mstore\n      0x04\n      add\n      tag_39\n      swap1\n      tag_40\n      jump\t// in\n    tag_39:\n      mload(0x40)\n      dup1\n      swap2\n      sub\n      swap1\n      revert\n    tag_38:\n        /* \"deps/proje/store.sol\":822:840  Order memory order */\n      tag_41\n      tag_42\n      jump\t// in\n    tag_41:\n        /* \"deps/proje/store.sol\":903:913  msg.sender */\n      caller\n        /* \"deps/proje/store.sol\":886:891  order */\n      dup2\n        /* \"deps/proje/store.sol\":886:900  order.customer */\n      0x00\n      add\n        /* \"deps/proje/store.sol\":886:913  order.customer = msg.sender */\n      swap1\n      0xffffffffffffffffffffffffffffffffffffffff\n      and\n      swap1\n      dup2\n      0xffffffffffffffffffffffffffffffffffffffff\n      and\n      dup2\n      mstore\n      pop\n      pop\n        /* \"deps/proje/store.sol\":969:977  _zipCode */\n      dup4\n        /* \"deps/proje/store.sol\":953:958  order */\n      dup2\n        /* \"deps/proje/store.sol\":953:966  order.zipCode */\n      0x20\n      add\n        /* \"deps/proje/store.sol\":953:977  order.zipCode = _zipCode */\n      dup2\n      swap1\n      mstore\n      pop\n        /* \"deps/proje/store.sol\":1006:1015  _products */\n      dup3\n        /* \"deps/proje/store.sol\":989:994  order */\n      dup2\n        /* \"deps/proje/store.sol\":989:1003  order.products */\n      0x40\n      add\n        /* \"deps/proje/store.sol\":989:1015  order.products = _products */\n      dup2\n      swap1\n      mstore\n      pop\n        /* \"deps/proje/store.sol\":1043:1055  Status.Taken */\n      0x00\n        /* \"deps/proje/store.sol\":1028:1033  order */\n      dup2\n        /* \"deps/proje/store.sol\":1028:1040  order.status */\n      0x60\n      add\n        /* \"deps/proje/store.sol\":1028:1055  order.status = Status.Taken */\n      swap1\n      0x03\n      dup2\n      gt\n      iszero\n      tag_43\n      jumpi\n      tag_44\n      tag_45\n      jump\t// in\n    tag_44:\n    tag_43:\n      swap1\n      dup2\n      0x03\n      dup2\n      gt\n      iszero\n      tag_46\n      jumpi\n      tag_47\n      tag_45\n      jump\t// in\n    tag_47:\n    tag_46:\n      dup2\n      mstore\n      pop\n      pop\n        /* \"deps/proje/store.sol\":1147:1153  orders */\n      0x00\n        /* \"deps/proje/store.sol\":1159:1164  order */\n      dup2\n        /* \"deps/proje/store.sol\":1147:1165  orders.push(order) */\n      swap1\n      dup1\n      0x01\n      dup2\n      sload\n      add\n      dup1\n      dup3\n      sstore\n      dup1\n      swap2\n      pop\n      pop\n      0x01\n      swap1\n      sub\n      swap1\n      0x00\n      mstore\n      keccak256(0x00, 0x20)\n      swap1\n      0x04\n      mul\n      add\n      0x00\n      swap1\n      swap2\n      swap1\n      swap2\n      swap1\n      swap2\n      pop\n      0x00\n      dup3\n      add\n      mload\n      dup2\n      0x00\n      add\n      exp(0x0100, 0x00)\n      dup2\n      sload\n      dup2\n      0xffffffffffffffffffffffffffffffffffffffff\n      mul\n      not\n      and\n      swap1\n      dup4\n      0xffffffffffffffffffffffffffffffffffffffff\n      and\n      mul\n      or\n      swap1\n      sstore\n      pop\n      0x20\n      dup3\n      add\n      mload\n      dup2\n      0x01\n      add\n      swap1\n      dup1\n      mload\n      swap1\n      0x20\n      add\n      swap1\n      tag_49\n      swap3\n      swap2\n      swap1\n      tag_50\n      jump\t// in\n    tag_49:\n      pop\n      0x40\n      dup3\n      add\n      mload\n      dup2\n      0x02\n      add\n      swap1\n      dup1\n      mload\n      swap1\n      0x20\n      add\n      swap1\n      tag_51\n      swap3\n      swap2\n      swap1\n      tag_52\n      jump\t// in\n    tag_51:\n      pop\n      0x60\n      dup3\n      add\n      mload\n      dup2\n      0x03\n      add\n      exp(0x0100, 0x00)\n      dup2\n      sload\n      dup2\n      0xff\n      mul\n      not\n      and\n      swap1\n      dup4\n      0x03\n      dup2\n      gt\n      iszero\n      tag_53\n      jumpi\n      tag_54\n      tag_45\n      jump\t// in\n    tag_54:\n    tag_53:\n      mul\n      or\n      swap1\n      sstore\n      pop\n      pop\n      pop\n        /* \"deps/proje/store.sol\":1201:1202  1 */\n      0x01\n        /* \"deps/proje/store.sol\":1185:1191  orders */\n      0x00\n        /* \"deps/proje/store.sol\":1185:1198  orders.length */\n      dup1\n      sload\n      swap1\n      pop\n        /* \"deps/proje/store.sol\":1185:1202  orders.length - 1 */\n      tag_55\n      swap2\n      swap1\n      tag_56\n      jump\t// in\n    tag_55:\n        /* \"deps/proje/store.sol\":1178:1202  return orders.length - 1 */\n      swap2\n      pop\n      pop\n        /* \"deps/proje/store.sol\":652:1212  function createOrder(string memory _zipCode, uint256[] memory _products ) public returns (uint256 ){\r... */\n      swap3\n      swap2\n      pop\n      pop\n      jump\t// out\n        /* \"deps/proje/store.sol\":498:518  address public owner */\n    tag_16:\n      0x01\n      0x00\n      swap1\n      sload\n      swap1\n      0x0100\n      exp\n      swap1\n      div\n      0xffffffffffffffffffffffffffffffffffffffff\n      and\n      dup2\n      jump\t// out\n        /* \"deps/proje/store.sol\":431:452  Order[] public orders */\n    tag_22:\n      0x00\n      dup2\n      dup2\n      sload\n      dup2\n      lt\n      tag_57\n      jumpi\n      0x00\n      dup1\n      revert\n    tag_57:\n      swap1\n      0x00\n      mstore\n      keccak256(0x00, 0x20)\n      swap1\n      0x04\n      mul\n      add\n      0x00\n      swap2\n      pop\n      swap1\n      pop\n      dup1\n      0x00\n      add\n      0x00\n      swap1\n      sload\n      swap1\n      0x0100\n      exp\n      swap1\n      div\n      0xffffffffffffffffffffffffffffffffffffffff\n      and\n      swap1\n      dup1\n      0x01\n      add\n      dup1\n      sload\n      tag_59\n      swap1\n      tag_60\n      jump\t// in\n    tag_59:\n      dup1\n      0x1f\n      add\n      0x20\n      dup1\n      swap2\n      div\n      mul\n      0x20\n      add\n      mload(0x40)\n      swap1\n      dup2\n      add\n      0x40\n      mstore\n      dup1\n      swap3\n      swap2\n      swap1\n      dup2\n      dup2\n      mstore\n      0x20\n      add\n      dup3\n      dup1\n      sload\n      tag_61\n      swap1\n      tag_60\n      jump\t// in\n    tag_61:\n      dup1\n      iszero\n      tag_62\n      jumpi\n      dup1\n      0x1f\n      lt\n      tag_63\n      jumpi\n      0x0100\n      dup1\n      dup4\n      sload\n      div\n      mul\n      dup4\n      mstore\n      swap2\n      0x20\n      add\n      swap2\n      jump(tag_62)\n    tag_63:\n      dup3\n      add\n      swap2\n      swap1\n      0x00\n      mstore\n      keccak256(0x00, 0x20)\n      swap1\n    tag_64:\n      dup2\n      sload\n      dup2\n      mstore\n      swap1\n      0x01\n      add\n      swap1\n      0x20\n      add\n      dup1\n      dup4\n      gt\n      tag_64\n      jumpi\n      dup3\n      swap1\n      sub\n      0x1f\n      and\n      dup3\n      add\n      swap2\n    tag_62:\n      pop\n      pop\n      pop\n      pop\n      pop\n      swap1\n      dup1\n      0x03\n      add\n      0x00\n      swap1\n      sload\n      swap1\n      0x0100\n      exp\n      swap1\n      div\n      0xff\n      and\n      swap1\n      pop\n      dup4\n      jump\t// out\n        /* \"deps/proje/store.sol\":1271:1964  function advanceOrder(uint256 order_id ) public {\r... */\n    tag_27:\n        /* \"deps/proje/store.sol\":1347:1357  msg.sender */\n      caller\n        /* \"deps/proje/store.sol\":1338:1357  owner == msg.sender */\n      0xffffffffffffffffffffffffffffffffffffffff\n      and\n        /* \"deps/proje/store.sol\":1338:1343  owner */\n      0x01\n      0x00\n      swap1\n      sload\n      swap1\n      0x0100\n      exp\n      swap1\n      div\n      0xffffffffffffffffffffffffffffffffffffffff\n      and\n        /* \"deps/proje/store.sol\":1338:1357  owner == msg.sender */\n      0xffffffffffffffffffffffffffffffffffffffff\n      and\n      eq\n        /* \"deps/proje/store.sol\":1330:1378  require(owner == msg.sender , \" you not owner \") */\n      tag_66\n      jumpi\n      mload(0x40)\n      0x08c379a000000000000000000000000000000000000000000000000000000000\n      dup2\n      mstore\n      0x04\n      add\n      tag_67\n      swap1\n      tag_68\n      jump\t// in\n    tag_67:\n      mload(0x40)\n      dup1\n      swap2\n      sub\n      swap1\n      revert\n    tag_66:\n        /* \"deps/proje/store.sol\":1410:1416  orders */\n      0x00\n        /* \"deps/proje/store.sol\":1410:1423  orders.length */\n      dup1\n      sload\n      swap1\n      pop\n        /* \"deps/proje/store.sol\":1399:1407  order_id */\n      dup2\n        /* \"deps/proje/store.sol\":1399:1423  order_id < orders.length */\n      lt\n        /* \"deps/proje/store.sol\":1391:1451  require(order_id < orders.length , \"not a valid order id  \") */\n      tag_69\n      jumpi\n      mload(0x40)\n      0x08c379a000000000000000000000000000000000000000000000000000000000\n      dup2\n      mstore\n      0x04\n      add\n      tag_70\n      swap1\n      tag_71\n      jump\t// in\n    tag_70:\n      mload(0x40)\n      dup1\n      swap2\n      sub\n      swap1\n      revert\n    tag_69:\n        /* \"deps/proje/store.sol\":1464:1483  Order storage order */\n      0x00\n        /* \"deps/proje/store.sol\":1486:1492  orders */\n      dup1\n        /* \"deps/proje/store.sol\":1493:1501  order_id */\n      dup3\n        /* \"deps/proje/store.sol\":1486:1502  orders[order_id] */\n      dup2\n      sload\n      dup2\n      lt\n      tag_72\n      jumpi\n      tag_73\n      tag_74\n      jump\t// in\n    tag_73:\n    tag_72:\n      swap1\n      0x00\n      mstore\n      keccak256(0x00, 0x20)\n      swap1\n      0x04\n      mul\n      add\n        /* \"deps/proje/store.sol\":1464:1502  Order storage order = orders[order_id] */\n      swap1\n      pop\n        /* \"deps/proje/store.sol\":1613:1627  Status.Shipped */\n      0x03\n        /* \"deps/proje/store.sol\":1597:1627  order.status != Status.Shipped */\n      dup1\n      dup2\n      gt\n      iszero\n      tag_76\n      jumpi\n      tag_77\n      tag_45\n      jump\t// in\n    tag_77:\n    tag_76:\n        /* \"deps/proje/store.sol\":1597:1602  order */\n      dup2\n        /* \"deps/proje/store.sol\":1597:1609  order.status */\n      0x03\n      add\n      0x00\n      swap1\n      sload\n      swap1\n      0x0100\n      exp\n      swap1\n      div\n      0xff\n      and\n        /* \"deps/proje/store.sol\":1597:1627  order.status != Status.Shipped */\n      0x03\n      dup2\n      gt\n      iszero\n      tag_78\n      jumpi\n      tag_79\n      tag_45\n      jump\t// in\n    tag_79:\n    tag_78:\n      eq\n      iszero\n        /* \"deps/proje/store.sol\":1589:1659  require(order.status != Status.Shipped , \"order is already  shipped \") */\n      tag_80\n      jumpi\n      mload(0x40)\n      0x08c379a000000000000000000000000000000000000000000000000000000000\n      dup2\n      mstore\n      0x04\n      add\n      tag_81\n      swap1\n      tag_82\n      jump\t// in\n    tag_81:\n      mload(0x40)\n      dup1\n      swap2\n      sub\n      swap1\n      revert\n    tag_80:\n        /* \"deps/proje/store.sol\":1691:1703  Status.Taken */\n      0x00\n        /* \"deps/proje/store.sol\":1675:1703  order.status == Status.Taken */\n      0x03\n      dup2\n      gt\n      iszero\n      tag_83\n      jumpi\n      tag_84\n      tag_45\n      jump\t// in\n    tag_84:\n    tag_83:\n        /* \"deps/proje/store.sol\":1675:1680  order */\n      dup2\n        /* \"deps/proje/store.sol\":1675:1687  order.status */\n      0x03\n      add\n      0x00\n      swap1\n      sload\n      swap1\n      0x0100\n      exp\n      swap1\n      div\n      0xff\n      and\n        /* \"deps/proje/store.sol\":1675:1703  order.status == Status.Taken */\n      0x03\n      dup2\n      gt\n      iszero\n      tag_85\n      jumpi\n      tag_86\n      tag_45\n      jump\t// in\n    tag_86:\n    tag_85:\n      eq\n        /* \"deps/proje/store.sol\":1672:1957  if(order.status == Status.Taken){\r... */\n      iszero\n      tag_87\n      jumpi\n        /* \"deps/proje/store.sol\":1735:1751  Status.Prepating */\n      0x01\n        /* \"deps/proje/store.sol\":1720:1725  order */\n      dup2\n        /* \"deps/proje/store.sol\":1720:1732  order.status */\n      0x03\n      add\n      0x00\n        /* \"deps/proje/store.sol\":1720:1751  order.status = Status.Prepating */\n      0x0100\n      exp\n      dup2\n      sload\n      dup2\n      0xff\n      mul\n      not\n      and\n      swap1\n      dup4\n      0x03\n      dup2\n      gt\n      iszero\n      tag_88\n      jumpi\n      tag_89\n      tag_45\n      jump\t// in\n    tag_89:\n    tag_88:\n      mul\n      or\n      swap1\n      sstore\n        /* \"deps/proje/store.sol\":1719:1752  (order.status = Status.Prepating) */\n      pop\n        /* \"deps/proje/store.sol\":1672:1957  if(order.status == Status.Taken){\r... */\n      jump(tag_90)\n    tag_87:\n        /* \"deps/proje/store.sol\":1788:1804  Status.Prepating */\n      0x01\n        /* \"deps/proje/store.sol\":1772:1804  order.status == Status.Prepating */\n      0x03\n      dup2\n      gt\n      iszero\n      tag_91\n      jumpi\n      tag_92\n      tag_45\n      jump\t// in\n    tag_92:\n    tag_91:\n        /* \"deps/proje/store.sol\":1772:1777  order */\n      dup2\n        /* \"deps/proje/store.sol\":1772:1784  order.status */\n      0x03\n      add\n      0x00\n      swap1\n      sload\n      swap1\n      0x0100\n      exp\n      swap1\n      div\n      0xff\n      and\n        /* \"deps/proje/store.sol\":1772:1804  order.status == Status.Prepating */\n      0x03\n      dup2\n      gt\n      iszero\n      tag_93\n      jumpi\n      tag_94\n      tag_45\n      jump\t// in\n    tag_94:\n    tag_93:\n      eq\n        /* \"deps/proje/store.sol\":1769:1957  if(order.status == Status.Prepating){\r... */\n      iszero\n      tag_95\n      jumpi\n        /* \"deps/proje/store.sol\":1836:1848  Status.Boxed */\n      0x02\n        /* \"deps/proje/store.sol\":1821:1826  order */\n      dup2\n        /* \"deps/proje/store.sol\":1821:1833  order.status */\n      0x03\n      add\n      0x00\n        /* \"deps/proje/store.sol\":1821:1848  order.status = Status.Boxed */\n      0x0100\n      exp\n      dup2\n      sload\n      dup2\n      0xff\n      mul\n      not\n      and\n      swap1\n      dup4\n      0x03\n      dup2\n      gt\n      iszero\n      tag_96\n      jumpi\n      tag_97\n      tag_45\n      jump\t// in\n    tag_97:\n    tag_96:\n      mul\n      or\n      swap1\n      sstore\n        /* \"deps/proje/store.sol\":1820:1849  (order.status = Status.Boxed) */\n      pop\n        /* \"deps/proje/store.sol\":1769:1957  if(order.status == Status.Prepating){\r... */\n      jump(tag_98)\n    tag_95:\n        /* \"deps/proje/store.sol\":1886:1898  Status.Boxed */\n      0x02\n        /* \"deps/proje/store.sol\":1870:1898  order.status == Status.Boxed */\n      0x03\n      dup2\n      gt\n      iszero\n      tag_99\n      jumpi\n      tag_100\n      tag_45\n      jump\t// in\n    tag_100:\n    tag_99:\n        /* \"deps/proje/store.sol\":1870:1875  order */\n      dup2\n        /* \"deps/proje/store.sol\":1870:1882  order.status */\n      0x03\n      add\n      0x00\n      swap1\n      sload\n      swap1\n      0x0100\n      exp\n      swap1\n      div\n      0xff\n      and\n        /* \"deps/proje/store.sol\":1870:1898  order.status == Status.Boxed */\n      0x03\n      dup2\n      gt\n      iszero\n      tag_101\n      jumpi\n      tag_102\n      tag_45\n      jump\t// in\n    tag_102:\n    tag_101:\n      eq\n        /* \"deps/proje/store.sol\":1866:1957  if (order.status == Status.Boxed){\r... */\n      iszero\n      tag_103\n      jumpi\n        /* \"deps/proje/store.sol\":1930:1944  Status.Shipped */\n      0x03\n        /* \"deps/proje/store.sol\":1915:1920  order */\n      dup2\n        /* \"deps/proje/store.sol\":1915:1927  order.status */\n      0x03\n      add\n      0x00\n        /* \"deps/proje/store.sol\":1915:1944  order.status = Status.Shipped */\n      0x0100\n      exp\n      dup2\n      sload\n      dup2\n      0xff\n      mul\n      not\n      and\n      swap1\n      dup4\n      0x03\n      dup2\n      gt\n      iszero\n      tag_104\n      jumpi\n      tag_105\n      tag_45\n      jump\t// in\n    tag_105:\n    tag_104:\n      mul\n      or\n      swap1\n      sstore\n        /* \"deps/proje/store.sol\":1914:1945  (order.status = Status.Shipped) */\n      pop\n        /* \"deps/proje/store.sol\":1866:1957  if (order.status == Status.Boxed){\r... */\n    tag_103:\n        /* \"deps/proje/store.sol\":1769:1957  if(order.status == Status.Prepating){\r... */\n    tag_98:\n        /* \"deps/proje/store.sol\":1672:1957  if(order.status == Status.Taken){\r... */\n    tag_90:\n        /* \"deps/proje/store.sol\":1319:1964  {\r... */\n      pop\n        /* \"deps/proje/store.sol\":1271:1964  function advanceOrder(uint256 order_id ) public {\r... */\n      pop\n      jump\t// out\n        /* \"deps/proje/store.sol\":2177:2477  function uploadzip(uint256 order_id , string memory _zip) public {\r... */\n    tag_31:\n        /* \"deps/proje/store.sol\":2272:2278  orders */\n      0x00\n        /* \"deps/proje/store.sol\":2272:2285  orders.length */\n      dup1\n      sload\n      swap1\n      pop\n        /* \"deps/proje/store.sol\":2261:2269  order_id */\n      dup3\n        /* \"deps/proje/store.sol\":2261:2285  order_id < orders.length */\n      lt\n        /* \"deps/proje/store.sol\":2253:2313  require(order_id < orders.length , \"not a valid order id  \") */\n      tag_107\n      jumpi\n      mload(0x40)\n      0x08c379a000000000000000000000000000000000000000000000000000000000\n      dup2\n      mstore\n      0x04\n      add\n      tag_108\n      swap1\n      tag_71\n      jump\t// in\n    tag_108:\n      mload(0x40)\n      dup1\n      swap2\n      sub\n      swap1\n      revert\n    tag_107:\n        /* \"deps/proje/store.sol\":2326:2345  Order storage order */\n      0x00\n        /* \"deps/proje/store.sol\":2348:2354  orders */\n      dup1\n        /* \"deps/proje/store.sol\":2355:2363  order_id */\n      dup4\n        /* \"deps/proje/store.sol\":2348:2364  orders[order_id] */\n      dup2\n      sload\n      dup2\n      lt\n      tag_109\n      jumpi\n      tag_110\n      tag_74\n      jump\t// in\n    tag_110:\n    tag_109:\n      swap1\n      0x00\n      mstore\n      keccak256(0x00, 0x20)\n      swap1\n      0x04\n      mul\n      add\n        /* \"deps/proje/store.sol\":2326:2364  Order storage order = orders[order_id] */\n      swap1\n      pop\n        /* \"deps/proje/store.sol\":2402:2412  msg.sender */\n      caller\n        /* \"deps/proje/store.sol\":2384:2412  order.customer != msg.sender */\n      0xffffffffffffffffffffffffffffffffffffffff\n      and\n        /* \"deps/proje/store.sol\":2384:2389  order */\n      dup2\n        /* \"deps/proje/store.sol\":2384:2398  order.customer */\n      0x00\n      add\n      0x00\n      swap1\n      sload\n      swap1\n      0x0100\n      exp\n      swap1\n      div\n      0xffffffffffffffffffffffffffffffffffffffff\n      and\n        /* \"deps/proje/store.sol\":2384:2412  order.customer != msg.sender */\n      0xffffffffffffffffffffffffffffffffffffffff\n      and\n      eq\n      iszero\n        /* \"deps/proje/store.sol\":2376:2433  require(order.customer != msg.sender , \" you not owner \") */\n      tag_112\n      jumpi\n      mload(0x40)\n      0x08c379a000000000000000000000000000000000000000000000000000000000\n      dup2\n      mstore\n      0x04\n      add\n      tag_113\n      swap1\n      tag_68\n      jump\t// in\n    tag_113:\n      mload(0x40)\n      dup1\n      swap2\n      sub\n      swap1\n      revert\n    tag_112:\n        /* \"deps/proje/store.sol\":2460:2464  _zip */\n      dup2\n        /* \"deps/proje/store.sol\":2444:2449  order */\n      dup2\n        /* \"deps/proje/store.sol\":2444:2457  order.zipCode */\n      0x01\n      add\n        /* \"deps/proje/store.sol\":2444:2464  order.zipCode = _zip */\n      swap1\n      dup1\n      mload\n      swap1\n      0x20\n      add\n      swap1\n      tag_114\n      swap3\n      swap2\n      swap1\n      tag_50\n      jump\t// in\n    tag_114:\n      pop\n        /* \"deps/proje/store.sol\":2242:2477  {\r... */\n      pop\n        /* \"deps/proje/store.sol\":2177:2477  function uploadzip(uint256 order_id , string memory _zip) public {\r... */\n      pop\n      pop\n      jump\t// out\n        /* \"deps/proje/store.sol\":1972:2169  function getOrder(uint256 order_id) public view returns(Order memory){\r... */\n    tag_34:\n        /* \"deps/proje/store.sol\":2028:2040  Order memory */\n      tag_115\n      tag_42\n      jump\t// in\n    tag_115:\n        /* \"deps/proje/store.sol\":2071:2077  orders */\n      0x00\n        /* \"deps/proje/store.sol\":2071:2084  orders.length */\n      dup1\n      sload\n      swap1\n      pop\n        /* \"deps/proje/store.sol\":2060:2068  order_id */\n      dup3\n        /* \"deps/proje/store.sol\":2060:2084  order_id < orders.length */\n      lt\n        /* \"deps/proje/store.sol\":2052:2112  require(order_id < orders.length , \"not a valid order id  \") */\n      tag_117\n      jumpi\n      mload(0x40)\n      0x08c379a000000000000000000000000000000000000000000000000000000000\n      dup2\n      mstore\n      0x04\n      add\n      tag_118\n      swap1\n      tag_71\n      jump\t// in\n    tag_118:\n      mload(0x40)\n      dup1\n      swap2\n      sub\n      swap1\n      revert\n    tag_117:\n        /* \"deps/proje/store.sol\":2142:2148  orders */\n      0x00\n        /* \"deps/proje/store.sol\":2149:2157  order_id */\n      dup3\n        /* \"deps/proje/store.sol\":2142:2158  orders[order_id] */\n      dup2\n      sload\n      dup2\n      lt\n      tag_119\n      jumpi\n      tag_120\n      tag_74\n      jump\t// in\n    tag_120:\n    tag_119:\n      swap1\n      0x00\n      mstore\n      keccak256(0x00, 0x20)\n      swap1\n      0x04\n      mul\n      add\n        /* \"deps/proje/store.sol\":2135:2158  return orders[order_id] */\n      mload(0x40)\n      dup1\n      0x80\n      add\n      0x40\n      mstore\n      swap1\n      dup2\n      0x00\n      dup3\n      add\n      0x00\n      swap1\n      sload\n      swap1\n      0x0100\n      exp\n      swap1\n      div\n      0xffffffffffffffffffffffffffffffffffffffff\n      and\n      0xffffffffffffffffffffffffffffffffffffffff\n      and\n      0xffffffffffffffffffffffffffffffffffffffff\n      and\n      dup2\n      mstore\n      0x20\n      add\n      0x01\n      dup3\n      add\n      dup1\n      sload\n      tag_122\n      swap1\n      tag_60\n      jump\t// in\n    tag_122:\n      dup1\n      0x1f\n      add\n      0x20\n      dup1\n      swap2\n      div\n      mul\n      0x20\n      add\n      mload(0x40)\n      swap1\n      dup2\n      add\n      0x40\n      mstore\n      dup1\n      swap3\n      swap2\n      swap1\n      dup2\n      dup2\n      mstore\n      0x20\n      add\n      dup3\n      dup1\n      sload\n      tag_123\n      swap1\n      tag_60\n      jump\t// in\n    tag_123:\n      dup1\n      iszero\n      tag_124\n      jumpi\n      dup1\n      0x1f\n      lt\n      tag_125\n      jumpi\n      0x0100\n      dup1\n      dup4\n      sload\n      div\n      mul\n      dup4\n      mstore\n      swap2\n      0x20\n      add\n      swap2\n      jump(tag_124)\n    tag_125:\n      dup3\n      add\n      swap2\n      swap1\n      0x00\n      mstore\n      keccak256(0x00, 0x20)\n      swap1\n    tag_126:\n      dup2\n      sload\n      dup2\n      mstore\n      swap1\n      0x01\n      add\n      swap1\n      0x20\n      add\n      dup1\n      dup4\n      gt\n      tag_126\n      jumpi\n      dup3\n      swap1\n      sub\n      0x1f\n      and\n      dup3\n      add\n      swap2\n    tag_124:\n      pop\n      pop\n      pop\n      pop\n      pop\n      dup2\n      mstore\n      0x20\n      add\n      0x02\n      dup3\n      add\n      dup1\n      sload\n      dup1\n      0x20\n      mul\n      0x20\n      add\n      mload(0x40)\n      swap1\n      dup2\n      add\n      0x40\n      mstore\n      dup1\n      swap3\n      swap2\n      swap1\n      dup2\n      dup2\n      mstore\n      0x20\n      add\n      dup3\n      dup1\n      sload\n      dup1\n      iszero\n      tag_127\n      jumpi\n      0x20\n      mul\n      dup3\n      add\n      swap2\n      swap1\n      0x00\n      mstore\n      keccak256(0x00, 0x20)\n      swap1\n    tag_128:\n      dup2\n      sload\n      dup2\n      mstore\n      0x20\n      add\n      swap1\n      0x01\n      add\n      swap1\n      dup1\n      dup4\n      gt\n      tag_128\n      jumpi\n    tag_127:\n      pop\n      pop\n      pop\n      pop\n      pop\n      dup2\n      mstore\n      0x20\n      add\n      0x03\n      dup3\n      add\n      0x00\n      swap1\n      sload\n      swap1\n      0x0100\n      exp\n      swap1\n      div\n      0xff\n      and\n      0x03\n      dup2\n      gt\n      iszero\n      tag_129\n      jumpi\n      tag_130\n      tag_45\n      jump\t// in\n    tag_130:\n    tag_129:\n      0x03\n      dup2\n      gt\n      iszero\n      tag_131\n      jumpi\n      tag_132\n      tag_45\n      jump\t// in\n    tag_132:\n    tag_131:\n      dup2\n      mstore\n      pop\n      pop\n      swap1\n      pop\n        /* \"deps/proje/store.sol\":1972:2169  function getOrder(uint256 order_id) public view returns(Order memory){\r... */\n      swap2\n      swap1\n      pop\n      jump\t// out\n    tag_42:\n      mload(0x40)\n      dup1\n      0x80\n      add\n      0x40\n      mstore\n      dup1\n      and(0xffffffffffffffffffffffffffffffffffffffff, 0x00)\n      dup2\n      mstore\n      0x20\n      add\n      0x60\n      dup2\n      mstore\n      0x20\n      add\n      0x60\n      dup2\n      mstore\n      0x20\n      add\n      0x00\n      0x03\n      dup2\n      gt\n      iszero\n      tag_133\n      jumpi\n      tag_134\n      tag_45\n      jump\t// in\n    tag_134:\n    tag_133:\n      dup2\n      mstore\n      pop\n      swap1\n      jump\t// out\n    tag_50:\n      dup3\n      dup1\n      sload\n      tag_135\n      swap1\n      tag_60\n      jump\t// in\n    tag_135:\n      swap1\n      0x00\n      mstore\n      keccak256(0x00, 0x20)\n      swap1\n      0x1f\n      add\n      0x20\n      swap1\n      div\n      dup2\n      add\n      swap3\n      dup3\n      tag_137\n      jumpi\n      0x00\n      dup6\n      sstore\n      jump(tag_136)\n    tag_137:\n      dup3\n      0x1f\n      lt\n      tag_138\n      jumpi\n      dup1\n      mload\n      not(0xff)\n      and\n      dup4\n      dup1\n      add\n      or\n      dup6\n      sstore\n      jump(tag_136)\n    tag_138:\n      dup3\n      dup1\n      add\n      0x01\n      add\n      dup6\n      sstore\n      dup3\n      iszero\n      tag_136\n      jumpi\n      swap2\n      dup3\n      add\n    tag_139:\n      dup3\n      dup2\n      gt\n      iszero\n      tag_140\n      jumpi\n      dup3\n      mload\n      dup3\n      sstore\n      swap2\n      0x20\n      add\n      swap2\n      swap1\n      0x01\n      add\n      swap1\n      jump(tag_139)\n    tag_140:\n    tag_136:\n      pop\n      swap1\n      pop\n      tag_141\n      swap2\n      swap1\n      tag_142\n      jump\t// in\n    tag_141:\n      pop\n      swap1\n      jump\t// out\n    tag_52:\n      dup3\n      dup1\n      sload\n      dup3\n      dup3\n      sstore\n      swap1\n      0x00\n      mstore\n      keccak256(0x00, 0x20)\n      swap1\n      dup2\n      add\n      swap3\n      dup3\n      iszero\n      tag_143\n      jumpi\n      swap2\n      0x20\n      mul\n      dup3\n      add\n    tag_144:\n      dup3\n      dup2\n      gt\n      iszero\n      tag_145\n      jumpi\n      dup3\n      mload\n      dup3\n      sstore\n      swap2\n      0x20\n      add\n      swap2\n      swap1\n      0x01\n      add\n      swap1\n      jump(tag_144)\n    tag_145:\n    tag_143:\n      pop\n      swap1\n      pop\n      tag_146\n      swap2\n      swap1\n      tag_142\n      jump\t// in\n    tag_146:\n      pop\n      swap1\n      jump\t// out\n    tag_142:\n    tag_147:\n      dup1\n      dup3\n      gt\n      iszero\n      tag_148\n      jumpi\n      0x00\n      dup2\n      0x00\n      swap1\n      sstore\n      pop\n      0x01\n      add\n      jump(tag_147)\n    tag_148:\n      pop\n      swap1\n      jump\t// out\n        /* \"#utility.yul\":24:746   */\n    tag_150:\n        /* \"#utility.yul\":120:125   */\n      0x00\n        /* \"#utility.yul\":145:226   */\n      tag_152\n        /* \"#utility.yul\":161:225   */\n      tag_153\n        /* \"#utility.yul\":218:224   */\n      dup5\n        /* \"#utility.yul\":161:225   */\n      tag_154\n      jump\t// in\n    tag_153:\n        /* \"#utility.yul\":145:226   */\n      tag_155\n      jump\t// in\n    tag_152:\n        /* \"#utility.yul\":136:226   */\n      swap1\n      pop\n        /* \"#utility.yul\":246:251   */\n      dup1\n        /* \"#utility.yul\":275:281   */\n      dup4\n        /* \"#utility.yul\":268:273   */\n      dup3\n        /* \"#utility.yul\":261:282   */\n      mstore\n        /* \"#utility.yul\":309:313   */\n      0x20\n        /* \"#utility.yul\":302:307   */\n      dup3\n        /* \"#utility.yul\":298:314   */\n      add\n        /* \"#utility.yul\":291:314   */\n      swap1\n      pop\n        /* \"#utility.yul\":335:341   */\n      dup3\n        /* \"#utility.yul\":385:388   */\n      dup6\n        /* \"#utility.yul\":377:381   */\n      0x20\n        /* \"#utility.yul\":369:375   */\n      dup7\n        /* \"#utility.yul\":365:382   */\n      mul\n        /* \"#utility.yul\":360:363   */\n      dup3\n        /* \"#utility.yul\":356:383   */\n      add\n        /* \"#utility.yul\":353:389   */\n      gt\n        /* \"#utility.yul\":350:493   */\n      iszero\n      tag_156\n      jumpi\n        /* \"#utility.yul\":404:483   */\n      tag_157\n      tag_158\n      jump\t// in\n    tag_157:\n        /* \"#utility.yul\":350:493   */\n    tag_156:\n        /* \"#utility.yul\":517:518   */\n      0x00\n        /* \"#utility.yul\":502:740   */\n    tag_159:\n        /* \"#utility.yul\":527:533   */\n      dup6\n        /* \"#utility.yul\":524:525   */\n      dup2\n        /* \"#utility.yul\":521:534   */\n      lt\n        /* \"#utility.yul\":502:740   */\n      iszero\n      tag_161\n      jumpi\n        /* \"#utility.yul\":595:598   */\n      dup2\n        /* \"#utility.yul\":624:661   */\n      tag_162\n        /* \"#utility.yul\":657:660   */\n      dup9\n        /* \"#utility.yul\":645:655   */\n      dup3\n        /* \"#utility.yul\":624:661   */\n      tag_163\n      jump\t// in\n    tag_162:\n        /* \"#utility.yul\":619:622   */\n      dup5\n        /* \"#utility.yul\":612:662   */\n      mstore\n        /* \"#utility.yul\":691:695   */\n      0x20\n        /* \"#utility.yul\":686:689   */\n      dup5\n        /* \"#utility.yul\":682:696   */\n      add\n        /* \"#utility.yul\":675:696   */\n      swap4\n      pop\n        /* \"#utility.yul\":725:729   */\n      0x20\n        /* \"#utility.yul\":720:723   */\n      dup4\n        /* \"#utility.yul\":716:730   */\n      add\n        /* \"#utility.yul\":709:730   */\n      swap3\n      pop\n        /* \"#utility.yul\":562:740   */\n      pop\n        /* \"#utility.yul\":549:550   */\n      0x01\n        /* \"#utility.yul\":546:547   */\n      dup2\n        /* \"#utility.yul\":542:551   */\n      add\n        /* \"#utility.yul\":537:551   */\n      swap1\n      pop\n        /* \"#utility.yul\":502:740   */\n      jump(tag_159)\n    tag_161:\n        /* \"#utility.yul\":506:520   */\n      pop\n        /* \"#utility.yul\":126:746   */\n      pop\n      pop\n        /* \"#utility.yul\":24:746   */\n      swap4\n      swap3\n      pop\n      pop\n      pop\n      jump\t// out\n        /* \"#utility.yul\":752:1164   */\n    tag_164:\n        /* \"#utility.yul\":830:835   */\n      0x00\n        /* \"#utility.yul\":855:921   */\n      tag_166\n        /* \"#utility.yul\":871:920   */\n      tag_167\n        /* \"#utility.yul\":913:919   */\n      dup5\n        /* \"#utility.yul\":871:920   */\n      tag_168\n      jump\t// in\n    tag_167:\n        /* \"#utility.yul\":855:921   */\n      tag_155\n      jump\t// in\n    tag_166:\n        /* \"#utility.yul\":846:921   */\n      swap1\n      pop\n        /* \"#utility.yul\":944:950   */\n      dup3\n        /* \"#utility.yul\":937:942   */\n      dup2\n        /* \"#utility.yul\":930:951   */\n      mstore\n        /* \"#utility.yul\":982:986   */\n      0x20\n        /* \"#utility.yul\":975:980   */\n      dup2\n        /* \"#utility.yul\":971:987   */\n      add\n        /* \"#utility.yul\":1020:1023   */\n      dup5\n        /* \"#utility.yul\":1011:1017   */\n      dup5\n        /* \"#utility.yul\":1006:1009   */\n      dup5\n        /* \"#utility.yul\":1002:1018   */\n      add\n        /* \"#utility.yul\":999:1024   */\n      gt\n        /* \"#utility.yul\":996:1108   */\n      iszero\n      tag_169\n      jumpi\n        /* \"#utility.yul\":1027:1106   */\n      tag_170\n      tag_171\n      jump\t// in\n    tag_170:\n        /* \"#utility.yul\":996:1108   */\n    tag_169:\n        /* \"#utility.yul\":1117:1158   */\n      tag_172\n        /* \"#utility.yul\":1151:1157   */\n      dup5\n        /* \"#utility.yul\":1146:1149   */\n      dup3\n        /* \"#utility.yul\":1141:1144   */\n      dup6\n        /* \"#utility.yul\":1117:1158   */\n      tag_173\n      jump\t// in\n    tag_172:\n        /* \"#utility.yul\":836:1164   */\n      pop\n        /* \"#utility.yul\":752:1164   */\n      swap4\n      swap3\n      pop\n      pop\n      pop\n      jump\t// out\n        /* \"#utility.yul\":1187:1557   */\n    tag_174:\n        /* \"#utility.yul\":1258:1263   */\n      0x00\n        /* \"#utility.yul\":1307:1310   */\n      dup3\n        /* \"#utility.yul\":1300:1304   */\n      0x1f\n        /* \"#utility.yul\":1292:1298   */\n      dup4\n        /* \"#utility.yul\":1288:1305   */\n      add\n        /* \"#utility.yul\":1284:1311   */\n      slt\n        /* \"#utility.yul\":1274:1396   */\n      tag_176\n      jumpi\n        /* \"#utility.yul\":1315:1394   */\n      tag_177\n      tag_178\n      jump\t// in\n    tag_177:\n        /* \"#utility.yul\":1274:1396   */\n    tag_176:\n        /* \"#utility.yul\":1432:1438   */\n      dup2\n        /* \"#utility.yul\":1419:1439   */\n      calldataload\n        /* \"#utility.yul\":1457:1551   */\n      tag_179\n        /* \"#utility.yul\":1547:1550   */\n      dup5\n        /* \"#utility.yul\":1539:1545   */\n      dup3\n        /* \"#utility.yul\":1532:1536   */\n      0x20\n        /* \"#utility.yul\":1524:1530   */\n      dup7\n        /* \"#utility.yul\":1520:1537   */\n      add\n        /* \"#utility.yul\":1457:1551   */\n      tag_150\n      jump\t// in\n    tag_179:\n        /* \"#utility.yul\":1448:1551   */\n      swap2\n      pop\n        /* \"#utility.yul\":1264:1557   */\n      pop\n        /* \"#utility.yul\":1187:1557   */\n      swap3\n      swap2\n      pop\n      pop\n      jump\t// out\n        /* \"#utility.yul\":1577:1917   */\n    tag_180:\n        /* \"#utility.yul\":1633:1638   */\n      0x00\n        /* \"#utility.yul\":1682:1685   */\n      dup3\n        /* \"#utility.yul\":1675:1679   */\n      0x1f\n        /* \"#utility.yul\":1667:1673   */\n      dup4\n        /* \"#utility.yul\":1663:1680   */\n      add\n        /* \"#utility.yul\":1659:1686   */\n      slt\n        /* \"#utility.yul\":1649:1771   */\n      tag_182\n      jumpi\n        /* \"#utility.yul\":1690:1769   */\n      tag_183\n      tag_178\n      jump\t// in\n    tag_183:\n        /* \"#utility.yul\":1649:1771   */\n    tag_182:\n        /* \"#utility.yul\":1807:1813   */\n      dup2\n        /* \"#utility.yul\":1794:1814   */\n      calldataload\n        /* \"#utility.yul\":1832:1911   */\n      tag_184\n        /* \"#utility.yul\":1907:1910   */\n      dup5\n        /* \"#utility.yul\":1899:1905   */\n      dup3\n        /* \"#utility.yul\":1892:1896   */\n      0x20\n        /* \"#utility.yul\":1884:1890   */\n      dup7\n        /* \"#utility.yul\":1880:1897   */\n      add\n        /* \"#utility.yul\":1832:1911   */\n      tag_164\n      jump\t// in\n    tag_184:\n        /* \"#utility.yul\":1823:1911   */\n      swap2\n      pop\n        /* \"#utility.yul\":1639:1917   */\n      pop\n        /* \"#utility.yul\":1577:1917   */\n      swap3\n      swap2\n      pop\n      pop\n      jump\t// out\n        /* \"#utility.yul\":1923:2062   */\n    tag_163:\n        /* \"#utility.yul\":1969:1974   */\n      0x00\n        /* \"#utility.yul\":2007:2013   */\n      dup2\n        /* \"#utility.yul\":1994:2014   */\n      calldataload\n        /* \"#utility.yul\":1985:2014   */\n      swap1\n      pop\n        /* \"#utility.yul\":2023:2056   */\n      tag_186\n        /* \"#utility.yul\":2050:2055   */\n      dup2\n        /* \"#utility.yul\":2023:2056   */\n      tag_187\n      jump\t// in\n    tag_186:\n        /* \"#utility.yul\":1923:2062   */\n      swap3\n      swap2\n      pop\n      pop\n      jump\t// out\n        /* \"#utility.yul\":2068:2932   */\n    tag_11:\n        /* \"#utility.yul\":2171:2177   */\n      0x00\n        /* \"#utility.yul\":2179:2185   */\n      dup1\n        /* \"#utility.yul\":2228:2230   */\n      0x40\n        /* \"#utility.yul\":2216:2225   */\n      dup4\n        /* \"#utility.yul\":2207:2214   */\n      dup6\n        /* \"#utility.yul\":2203:2226   */\n      sub\n        /* \"#utility.yul\":2199:2231   */\n      slt\n        /* \"#utility.yul\":2196:2315   */\n      iszero\n      tag_189\n      jumpi\n        /* \"#utility.yul\":2234:2313   */\n      tag_190\n      tag_191\n      jump\t// in\n    tag_190:\n        /* \"#utility.yul\":2196:2315   */\n    tag_189:\n        /* \"#utility.yul\":2382:2383   */\n      0x00\n        /* \"#utility.yul\":2371:2380   */\n      dup4\n        /* \"#utility.yul\":2367:2384   */\n      add\n        /* \"#utility.yul\":2354:2385   */\n      calldataload\n        /* \"#utility.yul\":2412:2430   */\n      0xffffffffffffffff\n        /* \"#utility.yul\":2404:2410   */\n      dup2\n        /* \"#utility.yul\":2401:2431   */\n      gt\n        /* \"#utility.yul\":2398:2515   */\n      iszero\n      tag_192\n      jumpi\n        /* \"#utility.yul\":2434:2513   */\n      tag_193\n      tag_194\n      jump\t// in\n    tag_193:\n        /* \"#utility.yul\":2398:2515   */\n    tag_192:\n        /* \"#utility.yul\":2539:2602   */\n      tag_195\n        /* \"#utility.yul\":2594:2601   */\n      dup6\n        /* \"#utility.yul\":2585:2591   */\n      dup3\n        /* \"#utility.yul\":2574:2583   */\n      dup7\n        /* \"#utility.yul\":2570:2592   */\n      add\n        /* \"#utility.yul\":2539:2602   */\n      tag_180\n      jump\t// in\n    tag_195:\n        /* \"#utility.yul\":2529:2602   */\n      swap3\n      pop\n        /* \"#utility.yul\":2325:2612   */\n      pop\n        /* \"#utility.yul\":2679:2681   */\n      0x20\n        /* \"#utility.yul\":2668:2677   */\n      dup4\n        /* \"#utility.yul\":2664:2682   */\n      add\n        /* \"#utility.yul\":2651:2683   */\n      calldataload\n        /* \"#utility.yul\":2710:2728   */\n      0xffffffffffffffff\n        /* \"#utility.yul\":2702:2708   */\n      dup2\n        /* \"#utility.yul\":2699:2729   */\n      gt\n        /* \"#utility.yul\":2696:2813   */\n      iszero\n      tag_196\n      jumpi\n        /* \"#utility.yul\":2732:2811   */\n      tag_197\n      tag_194\n      jump\t// in\n    tag_197:\n        /* \"#utility.yul\":2696:2813   */\n    tag_196:\n        /* \"#utility.yul\":2837:2915   */\n      tag_198\n        /* \"#utility.yul\":2907:2914   */\n      dup6\n        /* \"#utility.yul\":2898:2904   */\n      dup3\n        /* \"#utility.yul\":2887:2896   */\n      dup7\n        /* \"#utility.yul\":2883:2905   */\n      add\n        /* \"#utility.yul\":2837:2915   */\n      tag_174\n      jump\t// in\n    tag_198:\n        /* \"#utility.yul\":2827:2915   */\n      swap2\n      pop\n        /* \"#utility.yul\":2622:2925   */\n      pop\n        /* \"#utility.yul\":2068:2932   */\n      swap3\n      pop\n      swap3\n      swap1\n      pop\n      jump\t// out\n        /* \"#utility.yul\":2938:3267   */\n    tag_21:\n        /* \"#utility.yul\":2997:3003   */\n      0x00\n        /* \"#utility.yul\":3046:3048   */\n      0x20\n        /* \"#utility.yul\":3034:3043   */\n      dup3\n        /* \"#utility.yul\":3025:3032   */\n      dup5\n        /* \"#utility.yul\":3021:3044   */\n      sub\n        /* \"#utility.yul\":3017:3049   */\n      slt\n        /* \"#utility.yul\":3014:3133   */\n      iszero\n      tag_200\n      jumpi\n        /* \"#utility.yul\":3052:3131   */\n      tag_201\n      tag_191\n      jump\t// in\n    tag_201:\n        /* \"#utility.yul\":3014:3133   */\n    tag_200:\n        /* \"#utility.yul\":3172:3173   */\n      0x00\n        /* \"#utility.yul\":3197:3250   */\n      tag_202\n        /* \"#utility.yul\":3242:3249   */\n      dup5\n        /* \"#utility.yul\":3233:3239   */\n      dup3\n        /* \"#utility.yul\":3222:3231   */\n      dup6\n        /* \"#utility.yul\":3218:3240   */\n      add\n        /* \"#utility.yul\":3197:3250   */\n      tag_163\n      jump\t// in\n    tag_202:\n        /* \"#utility.yul\":3187:3250   */\n      swap2\n      pop\n        /* \"#utility.yul\":3143:3260   */\n      pop\n        /* \"#utility.yul\":2938:3267   */\n      swap3\n      swap2\n      pop\n      pop\n      jump\t// out\n        /* \"#utility.yul\":3273:3927   */\n    tag_30:\n        /* \"#utility.yul\":3351:3357   */\n      0x00\n        /* \"#utility.yul\":3359:3365   */\n      dup1\n        /* \"#utility.yul\":3408:3410   */\n      0x40\n        /* \"#utility.yul\":3396:3405   */\n      dup4\n        /* \"#utility.yul\":3387:3394   */\n      dup6\n        /* \"#utility.yul\":3383:3406   */\n      sub\n        /* \"#utility.yul\":3379:3411   */\n      slt\n        /* \"#utility.yul\":3376:3495   */\n      iszero\n      tag_204\n      jumpi\n        /* \"#utility.yul\":3414:3493   */\n      tag_205\n      tag_191\n      jump\t// in\n    tag_205:\n        /* \"#utility.yul\":3376:3495   */\n    tag_204:\n        /* \"#utility.yul\":3534:3535   */\n      0x00\n        /* \"#utility.yul\":3559:3612   */\n      tag_206\n        /* \"#utility.yul\":3604:3611   */\n      dup6\n        /* \"#utility.yul\":3595:3601   */\n      dup3\n        /* \"#utility.yul\":3584:3593   */\n      dup7\n        /* \"#utility.yul\":3580:3602   */\n      add\n        /* \"#utility.yul\":3559:3612   */\n      tag_163\n      jump\t// in\n    tag_206:\n        /* \"#utility.yul\":3549:3612   */\n      swap3\n      pop\n        /* \"#utility.yul\":3505:3622   */\n      pop\n        /* \"#utility.yul\":3689:3691   */\n      0x20\n        /* \"#utility.yul\":3678:3687   */\n      dup4\n        /* \"#utility.yul\":3674:3692   */\n      add\n        /* \"#utility.yul\":3661:3693   */\n      calldataload\n        /* \"#utility.yul\":3720:3738   */\n      0xffffffffffffffff\n        /* \"#utility.yul\":3712:3718   */\n      dup2\n        /* \"#utility.yul\":3709:3739   */\n      gt\n        /* \"#utility.yul\":3706:3823   */\n      iszero\n      tag_207\n      jumpi\n        /* \"#utility.yul\":3742:3821   */\n      tag_208\n      tag_194\n      jump\t// in\n    tag_208:\n        /* \"#utility.yul\":3706:3823   */\n    tag_207:\n        /* \"#utility.yul\":3847:3910   */\n      tag_209\n        /* \"#utility.yul\":3902:3909   */\n      dup6\n        /* \"#utility.yul\":3893:3899   */\n      dup3\n        /* \"#utility.yul\":3882:3891   */\n      dup7\n        /* \"#utility.yul\":3878:3900   */\n      add\n        /* \"#utility.yul\":3847:3910   */\n      tag_180\n      jump\t// in\n    tag_209:\n        /* \"#utility.yul\":3837:3910   */\n      swap2\n      pop\n        /* \"#utility.yul\":3632:3920   */\n      pop\n        /* \"#utility.yul\":3273:3927   */\n      swap3\n      pop\n      swap3\n      swap1\n      pop\n      jump\t// out\n        /* \"#utility.yul\":3933:4112   */\n    tag_210:\n        /* \"#utility.yul\":4002:4012   */\n      0x00\n        /* \"#utility.yul\":4023:4069   */\n      tag_212\n        /* \"#utility.yul\":4065:4068   */\n      dup4\n        /* \"#utility.yul\":4057:4063   */\n      dup4\n        /* \"#utility.yul\":4023:4069   */\n      tag_213\n      jump\t// in\n    tag_212:\n        /* \"#utility.yul\":4101:4105   */\n      0x20\n        /* \"#utility.yul\":4096:4099   */\n      dup4\n        /* \"#utility.yul\":4092:4106   */\n      add\n        /* \"#utility.yul\":4078:4106   */\n      swap1\n      pop\n        /* \"#utility.yul\":3933:4112   */\n      swap3\n      swap2\n      pop\n      pop\n      jump\t// out\n        /* \"#utility.yul\":4118:4226   */\n    tag_214:\n        /* \"#utility.yul\":4195:4219   */\n      tag_216\n        /* \"#utility.yul\":4213:4218   */\n      dup2\n        /* \"#utility.yul\":4195:4219   */\n      tag_217\n      jump\t// in\n    tag_216:\n        /* \"#utility.yul\":4190:4193   */\n      dup3\n        /* \"#utility.yul\":4183:4220   */\n      mstore\n        /* \"#utility.yul\":4118:4226   */\n      pop\n      pop\n      jump\t// out\n        /* \"#utility.yul\":4232:4350   */\n    tag_218:\n        /* \"#utility.yul\":4319:4343   */\n      tag_220\n        /* \"#utility.yul\":4337:4342   */\n      dup2\n        /* \"#utility.yul\":4319:4343   */\n      tag_217\n      jump\t// in\n    tag_220:\n        /* \"#utility.yul\":4314:4317   */\n      dup3\n        /* \"#utility.yul\":4307:4344   */\n      mstore\n        /* \"#utility.yul\":4232:4350   */\n      pop\n      pop\n      jump\t// out\n        /* \"#utility.yul\":4386:5098   */\n    tag_221:\n        /* \"#utility.yul\":4495:4498   */\n      0x00\n        /* \"#utility.yul\":4524:4578   */\n      tag_223\n        /* \"#utility.yul\":4572:4577   */\n      dup3\n        /* \"#utility.yul\":4524:4578   */\n      tag_224\n      jump\t// in\n    tag_223:\n        /* \"#utility.yul\":4594:4670   */\n      tag_225\n        /* \"#utility.yul\":4663:4669   */\n      dup2\n        /* \"#utility.yul\":4658:4661   */\n      dup6\n        /* \"#utility.yul\":4594:4670   */\n      tag_226\n      jump\t// in\n    tag_225:\n        /* \"#utility.yul\":4587:4670   */\n      swap4\n      pop\n        /* \"#utility.yul\":4694:4750   */\n      tag_227\n        /* \"#utility.yul\":4744:4749   */\n      dup4\n        /* \"#utility.yul\":4694:4750   */\n      tag_228\n      jump\t// in\n    tag_227:\n        /* \"#utility.yul\":4773:4780   */\n      dup1\n        /* \"#utility.yul\":4804:4805   */\n      0x00\n        /* \"#utility.yul\":4789:5073   */\n    tag_229:\n        /* \"#utility.yul\":4814:4820   */\n      dup4\n        /* \"#utility.yul\":4811:4812   */\n      dup2\n        /* \"#utility.yul\":4808:4821   */\n      lt\n        /* \"#utility.yul\":4789:5073   */\n      iszero\n      tag_231\n      jumpi\n        /* \"#utility.yul\":4890:4896   */\n      dup2\n        /* \"#utility.yul\":4884:4897   */\n      mload\n        /* \"#utility.yul\":4917:4980   */\n      tag_232\n        /* \"#utility.yul\":4976:4979   */\n      dup9\n        /* \"#utility.yul\":4961:4974   */\n      dup3\n        /* \"#utility.yul\":4917:4980   */\n      tag_210\n      jump\t// in\n    tag_232:\n        /* \"#utility.yul\":4910:4980   */\n      swap8\n      pop\n        /* \"#utility.yul\":5003:5063   */\n      tag_233\n        /* \"#utility.yul\":5056:5062   */\n      dup4\n        /* \"#utility.yul\":5003:5063   */\n      tag_234\n      jump\t// in\n    tag_233:\n        /* \"#utility.yul\":4993:5063   */\n      swap3\n      pop\n        /* \"#utility.yul\":4849:5073   */\n      pop\n        /* \"#utility.yul\":4836:4837   */\n      0x01\n        /* \"#utility.yul\":4833:4834   */\n      dup2\n        /* \"#utility.yul\":4829:4838   */\n      add\n        /* \"#utility.yul\":4824:4838   */\n      swap1\n      pop\n        /* \"#utility.yul\":4789:5073   */\n      jump(tag_229)\n    tag_231:\n        /* \"#utility.yul\":4793:4807   */\n      pop\n        /* \"#utility.yul\":5089:5092   */\n      dup6\n        /* \"#utility.yul\":5082:5092   */\n      swap4\n      pop\n        /* \"#utility.yul\":4500:5098   */\n      pop\n      pop\n      pop\n        /* \"#utility.yul\":4386:5098   */\n      swap3\n      swap2\n      pop\n      pop\n      jump\t// out\n        /* \"#utility.yul\":5104:5237   */\n    tag_235:\n        /* \"#utility.yul\":5187:5230   */\n      tag_237\n        /* \"#utility.yul\":5224:5229   */\n      dup2\n        /* \"#utility.yul\":5187:5230   */\n      tag_238\n      jump\t// in\n    tag_237:\n        /* \"#utility.yul\":5182:5185   */\n      dup3\n        /* \"#utility.yul\":5175:5231   */\n      mstore\n        /* \"#utility.yul\":5104:5237   */\n      pop\n      pop\n      jump\t// out\n        /* \"#utility.yul\":5243:5386   */\n    tag_239:\n        /* \"#utility.yul\":5336:5379   */\n      tag_241\n        /* \"#utility.yul\":5373:5378   */\n      dup2\n        /* \"#utility.yul\":5336:5379   */\n      tag_238\n      jump\t// in\n    tag_241:\n        /* \"#utility.yul\":5331:5334   */\n      dup3\n        /* \"#utility.yul\":5324:5380   */\n      mstore\n        /* \"#utility.yul\":5243:5386   */\n      pop\n      pop\n      jump\t// out\n        /* \"#utility.yul\":5392:5736   */\n    tag_242:\n        /* \"#utility.yul\":5470:5473   */\n      0x00\n        /* \"#utility.yul\":5498:5537   */\n      tag_244\n        /* \"#utility.yul\":5531:5536   */\n      dup3\n        /* \"#utility.yul\":5498:5537   */\n      tag_245\n      jump\t// in\n    tag_244:\n        /* \"#utility.yul\":5553:5614   */\n      tag_246\n        /* \"#utility.yul\":5607:5613   */\n      dup2\n        /* \"#utility.yul\":5602:5605   */\n      dup6\n        /* \"#utility.yul\":5553:5614   */\n      tag_247\n      jump\t// in\n    tag_246:\n        /* \"#utility.yul\":5546:5614   */\n      swap4\n      pop\n        /* \"#utility.yul\":5623:5675   */\n      tag_248\n        /* \"#utility.yul\":5668:5674   */\n      dup2\n        /* \"#utility.yul\":5663:5666   */\n      dup6\n        /* \"#utility.yul\":5656:5660   */\n      0x20\n        /* \"#utility.yul\":5649:5654   */\n      dup7\n        /* \"#utility.yul\":5645:5661   */\n      add\n        /* \"#utility.yul\":5623:5675   */\n      tag_249\n      jump\t// in\n    tag_248:\n        /* \"#utility.yul\":5700:5729   */\n      tag_250\n        /* \"#utility.yul\":5722:5728   */\n      dup2\n        /* \"#utility.yul\":5700:5729   */\n      tag_251\n      jump\t// in\n    tag_250:\n        /* \"#utility.yul\":5695:5698   */\n      dup5\n        /* \"#utility.yul\":5691:5730   */\n      add\n        /* \"#utility.yul\":5684:5730   */\n      swap2\n      pop\n        /* \"#utility.yul\":5474:5736   */\n      pop\n        /* \"#utility.yul\":5392:5736   */\n      swap3\n      swap2\n      pop\n      pop\n      jump\t// out\n        /* \"#utility.yul\":5742:6106   */\n    tag_252:\n        /* \"#utility.yul\":5830:5833   */\n      0x00\n        /* \"#utility.yul\":5858:5897   */\n      tag_254\n        /* \"#utility.yul\":5891:5896   */\n      dup3\n        /* \"#utility.yul\":5858:5897   */\n      tag_245\n      jump\t// in\n    tag_254:\n        /* \"#utility.yul\":5913:5984   */\n      tag_255\n        /* \"#utility.yul\":5977:5983   */\n      dup2\n        /* \"#utility.yul\":5972:5975   */\n      dup6\n        /* \"#utility.yul\":5913:5984   */\n      tag_256\n      jump\t// in\n    tag_255:\n        /* \"#utility.yul\":5906:5984   */\n      swap4\n      pop\n        /* \"#utility.yul\":5993:6045   */\n      tag_257\n        /* \"#utility.yul\":6038:6044   */\n      dup2\n        /* \"#utility.yul\":6033:6036   */\n      dup6\n        /* \"#utility.yul\":6026:6030   */\n      0x20\n        /* \"#utility.yul\":6019:6024   */\n      dup7\n        /* \"#utility.yul\":6015:6031   */\n      add\n        /* \"#utility.yul\":5993:6045   */\n      tag_249\n      jump\t// in\n    tag_257:\n        /* \"#utility.yul\":6070:6099   */\n      tag_258\n        /* \"#utility.yul\":6092:6098   */\n      dup2\n        /* \"#utility.yul\":6070:6099   */\n      tag_251\n      jump\t// in\n    tag_258:\n        /* \"#utility.yul\":6065:6068   */\n      dup5\n        /* \"#utility.yul\":6061:6100   */\n      add\n        /* \"#utility.yul\":6054:6100   */\n      swap2\n      pop\n        /* \"#utility.yul\":5834:6106   */\n      pop\n        /* \"#utility.yul\":5742:6106   */\n      swap3\n      swap2\n      pop\n      pop\n      jump\t// out\n        /* \"#utility.yul\":6112:6478   */\n    tag_259:\n        /* \"#utility.yul\":6254:6257   */\n      0x00\n        /* \"#utility.yul\":6275:6342   */\n      tag_261\n        /* \"#utility.yul\":6339:6341   */\n      0x0f\n        /* \"#utility.yul\":6334:6337   */\n      dup4\n        /* \"#utility.yul\":6275:6342   */\n      tag_256\n      jump\t// in\n    tag_261:\n        /* \"#utility.yul\":6268:6342   */\n      swap2\n      pop\n        /* \"#utility.yul\":6351:6444   */\n      tag_262\n        /* \"#utility.yul\":6440:6443   */\n      dup3\n        /* \"#utility.yul\":6351:6444   */\n      tag_263\n      jump\t// in\n    tag_262:\n        /* \"#utility.yul\":6469:6471   */\n      0x20\n        /* \"#utility.yul\":6464:6467   */\n      dup3\n        /* \"#utility.yul\":6460:6472   */\n      add\n        /* \"#utility.yul\":6453:6472   */\n      swap1\n      pop\n        /* \"#utility.yul\":6112:6478   */\n      swap2\n      swap1\n      pop\n      jump\t// out\n        /* \"#utility.yul\":6484:6850   */\n    tag_264:\n        /* \"#utility.yul\":6626:6629   */\n      0x00\n        /* \"#utility.yul\":6647:6714   */\n      tag_266\n        /* \"#utility.yul\":6711:6713   */\n      0x1a\n        /* \"#utility.yul\":6706:6709   */\n      dup4\n        /* \"#utility.yul\":6647:6714   */\n      tag_256\n      jump\t// in\n    tag_266:\n        /* \"#utility.yul\":6640:6714   */\n      swap2\n      pop\n        /* \"#utility.yul\":6723:6816   */\n      tag_267\n        /* \"#utility.yul\":6812:6815   */\n      dup3\n        /* \"#utility.yul\":6723:6816   */\n      tag_268\n      jump\t// in\n    tag_267:\n        /* \"#utility.yul\":6841:6843   */\n      0x20\n        /* \"#utility.yul\":6836:6839   */\n      dup3\n        /* \"#utility.yul\":6832:6844   */\n      add\n        /* \"#utility.yul\":6825:6844   */\n      swap1\n      pop\n        /* \"#utility.yul\":6484:6850   */\n      swap2\n      swap1\n      pop\n      jump\t// out\n        /* \"#utility.yul\":6856:7222   */\n    tag_269:\n        /* \"#utility.yul\":6998:7001   */\n      0x00\n        /* \"#utility.yul\":7019:7086   */\n      tag_271\n        /* \"#utility.yul\":7083:7085   */\n      0x16\n        /* \"#utility.yul\":7078:7081   */\n      dup4\n        /* \"#utility.yul\":7019:7086   */\n      tag_256\n      jump\t// in\n    tag_271:\n        /* \"#utility.yul\":7012:7086   */\n      swap2\n      pop\n        /* \"#utility.yul\":7095:7188   */\n      tag_272\n        /* \"#utility.yul\":7184:7187   */\n      dup3\n        /* \"#utility.yul\":7095:7188   */\n      tag_273\n      jump\t// in\n    tag_272:\n        /* \"#utility.yul\":7213:7215   */\n      0x20\n        /* \"#utility.yul\":7208:7211   */\n      dup3\n        /* \"#utility.yul\":7204:7216   */\n      add\n        /* \"#utility.yul\":7197:7216   */\n      swap1\n      pop\n        /* \"#utility.yul\":6856:7222   */\n      swap2\n      swap1\n      pop\n      jump\t// out\n        /* \"#utility.yul\":7228:7594   */\n    tag_274:\n        /* \"#utility.yul\":7370:7373   */\n      0x00\n        /* \"#utility.yul\":7391:7458   */\n      tag_276\n        /* \"#utility.yul\":7455:7457   */\n      0x0d\n        /* \"#utility.yul\":7450:7453   */\n      dup4\n        /* \"#utility.yul\":7391:7458   */\n      tag_256\n      jump\t// in\n    tag_276:\n        /* \"#utility.yul\":7384:7458   */\n      swap2\n      pop\n        /* \"#utility.yul\":7467:7560   */\n      tag_277\n        /* \"#utility.yul\":7556:7559   */\n      dup3\n        /* \"#utility.yul\":7467:7560   */\n      tag_278\n      jump\t// in\n    tag_277:\n        /* \"#utility.yul\":7585:7587   */\n      0x20\n        /* \"#utility.yul\":7580:7583   */\n      dup3\n        /* \"#utility.yul\":7576:7588   */\n      add\n        /* \"#utility.yul\":7569:7588   */\n      swap1\n      pop\n        /* \"#utility.yul\":7228:7594   */\n      swap2\n      swap1\n      pop\n      jump\t// out\n        /* \"#utility.yul\":7648:8714   */\n    tag_279:\n        /* \"#utility.yul\":7759:7762   */\n      0x00\n        /* \"#utility.yul\":7795:7799   */\n      0x80\n        /* \"#utility.yul\":7790:7793   */\n      dup4\n        /* \"#utility.yul\":7786:7800   */\n      add\n        /* \"#utility.yul\":7886:7890   */\n      0x00\n        /* \"#utility.yul\":7879:7884   */\n      dup4\n        /* \"#utility.yul\":7875:7891   */\n      add\n        /* \"#utility.yul\":7869:7892   */\n      mload\n        /* \"#utility.yul\":7905:7968   */\n      tag_281\n        /* \"#utility.yul\":7962:7966   */\n      0x00\n        /* \"#utility.yul\":7957:7960   */\n      dup7\n        /* \"#utility.yul\":7953:7967   */\n      add\n        /* \"#utility.yul\":7939:7951   */\n      dup3\n        /* \"#utility.yul\":7905:7968   */\n      tag_214\n      jump\t// in\n    tag_281:\n        /* \"#utility.yul\":7810:7978   */\n      pop\n        /* \"#utility.yul\":8063:8067   */\n      0x20\n        /* \"#utility.yul\":8056:8061   */\n      dup4\n        /* \"#utility.yul\":8052:8068   */\n      add\n        /* \"#utility.yul\":8046:8069   */\n      mload\n        /* \"#utility.yul\":8116:8119   */\n      dup5\n        /* \"#utility.yul\":8110:8114   */\n      dup3\n        /* \"#utility.yul\":8106:8120   */\n      sub\n        /* \"#utility.yul\":8099:8103   */\n      0x20\n        /* \"#utility.yul\":8094:8097   */\n      dup7\n        /* \"#utility.yul\":8090:8104   */\n      add\n        /* \"#utility.yul\":8083:8121   */\n      mstore\n        /* \"#utility.yul\":8142:8215   */\n      tag_282\n        /* \"#utility.yul\":8210:8214   */\n      dup3\n        /* \"#utility.yul\":8196:8208   */\n      dup3\n        /* \"#utility.yul\":8142:8215   */\n      tag_242\n      jump\t// in\n    tag_282:\n        /* \"#utility.yul\":8134:8215   */\n      swap2\n      pop\n        /* \"#utility.yul\":7988:8226   */\n      pop\n        /* \"#utility.yul\":8312:8316   */\n      0x40\n        /* \"#utility.yul\":8305:8310   */\n      dup4\n        /* \"#utility.yul\":8301:8317   */\n      add\n        /* \"#utility.yul\":8295:8318   */\n      mload\n        /* \"#utility.yul\":8365:8368   */\n      dup5\n        /* \"#utility.yul\":8359:8363   */\n      dup3\n        /* \"#utility.yul\":8355:8369   */\n      sub\n        /* \"#utility.yul\":8348:8352   */\n      0x40\n        /* \"#utility.yul\":8343:8346   */\n      dup7\n        /* \"#utility.yul\":8339:8353   */\n      add\n        /* \"#utility.yul\":8332:8370   */\n      mstore\n        /* \"#utility.yul\":8391:8494   */\n      tag_283\n        /* \"#utility.yul\":8489:8493   */\n      dup3\n        /* \"#utility.yul\":8475:8487   */\n      dup3\n        /* \"#utility.yul\":8391:8494   */\n      tag_221\n      jump\t// in\n    tag_283:\n        /* \"#utility.yul\":8383:8494   */\n      swap2\n      pop\n        /* \"#utility.yul\":8236:8505   */\n      pop\n        /* \"#utility.yul\":8589:8593   */\n      0x60\n        /* \"#utility.yul\":8582:8587   */\n      dup4\n        /* \"#utility.yul\":8578:8594   */\n      add\n        /* \"#utility.yul\":8572:8595   */\n      mload\n        /* \"#utility.yul\":8608:8677   */\n      tag_284\n        /* \"#utility.yul\":8671:8675   */\n      0x60\n        /* \"#utility.yul\":8666:8669   */\n      dup7\n        /* \"#utility.yul\":8662:8676   */\n      add\n        /* \"#utility.yul\":8648:8660   */\n      dup3\n        /* \"#utility.yul\":8608:8677   */\n      tag_235\n      jump\t// in\n    tag_284:\n        /* \"#utility.yul\":8515:8687   */\n      pop\n        /* \"#utility.yul\":8704:8708   */\n      dup1\n        /* \"#utility.yul\":8697:8708   */\n      swap2\n      pop\n        /* \"#utility.yul\":7764:8714   */\n      pop\n        /* \"#utility.yul\":7648:8714   */\n      swap3\n      swap2\n      pop\n      pop\n      jump\t// out\n        /* \"#utility.yul\":8720:8828   */\n    tag_213:\n        /* \"#utility.yul\":8797:8821   */\n      tag_286\n        /* \"#utility.yul\":8815:8820   */\n      dup2\n        /* \"#utility.yul\":8797:8821   */\n      tag_287\n      jump\t// in\n    tag_286:\n        /* \"#utility.yul\":8792:8795   */\n      dup3\n        /* \"#utility.yul\":8785:8822   */\n      mstore\n        /* \"#utility.yul\":8720:8828   */\n      pop\n      pop\n      jump\t// out\n        /* \"#utility.yul\":8834:8952   */\n    tag_288:\n        /* \"#utility.yul\":8921:8945   */\n      tag_290\n        /* \"#utility.yul\":8939:8944   */\n      dup2\n        /* \"#utility.yul\":8921:8945   */\n      tag_287\n      jump\t// in\n    tag_290:\n        /* \"#utility.yul\":8916:8919   */\n      dup3\n        /* \"#utility.yul\":8909:8946   */\n      mstore\n        /* \"#utility.yul\":8834:8952   */\n      pop\n      pop\n      jump\t// out\n        /* \"#utility.yul\":8958:9180   */\n    tag_18:\n        /* \"#utility.yul\":9051:9055   */\n      0x00\n        /* \"#utility.yul\":9089:9091   */\n      0x20\n        /* \"#utility.yul\":9078:9087   */\n      dup3\n        /* \"#utility.yul\":9074:9092   */\n      add\n        /* \"#utility.yul\":9066:9092   */\n      swap1\n      pop\n        /* \"#utility.yul\":9102:9173   */\n      tag_292\n        /* \"#utility.yul\":9170:9171   */\n      0x00\n        /* \"#utility.yul\":9159:9168   */\n      dup4\n        /* \"#utility.yul\":9155:9172   */\n      add\n        /* \"#utility.yul\":9146:9152   */\n      dup5\n        /* \"#utility.yul\":9102:9173   */\n      tag_218\n      jump\t// in\n    tag_292:\n        /* \"#utility.yul\":8958:9180   */\n      swap3\n      swap2\n      pop\n      pop\n      jump\t// out\n        /* \"#utility.yul\":9186:9731   */\n    tag_24:\n        /* \"#utility.yul\":9361:9365   */\n      0x00\n        /* \"#utility.yul\":9399:9401   */\n      0x60\n        /* \"#utility.yul\":9388:9397   */\n      dup3\n        /* \"#utility.yul\":9384:9402   */\n      add\n        /* \"#utility.yul\":9376:9402   */\n      swap1\n      pop\n        /* \"#utility.yul\":9412:9483   */\n      tag_294\n        /* \"#utility.yul\":9480:9481   */\n      0x00\n        /* \"#utility.yul\":9469:9478   */\n      dup4\n        /* \"#utility.yul\":9465:9482   */\n      add\n        /* \"#utility.yul\":9456:9462   */\n      dup7\n        /* \"#utility.yul\":9412:9483   */\n      tag_218\n      jump\t// in\n    tag_294:\n        /* \"#utility.yul\":9530:9539   */\n      dup2\n        /* \"#utility.yul\":9524:9528   */\n      dup2\n        /* \"#utility.yul\":9520:9540   */\n      sub\n        /* \"#utility.yul\":9515:9517   */\n      0x20\n        /* \"#utility.yul\":9504:9513   */\n      dup4\n        /* \"#utility.yul\":9500:9518   */\n      add\n        /* \"#utility.yul\":9493:9541   */\n      mstore\n        /* \"#utility.yul\":9558:9636   */\n      tag_295\n        /* \"#utility.yul\":9631:9635   */\n      dup2\n        /* \"#utility.yul\":9622:9628   */\n      dup6\n        /* \"#utility.yul\":9558:9636   */\n      tag_252\n      jump\t// in\n    tag_295:\n        /* \"#utility.yul\":9550:9636   */\n      swap1\n      pop\n        /* \"#utility.yul\":9646:9724   */\n      tag_296\n        /* \"#utility.yul\":9720:9722   */\n      0x40\n        /* \"#utility.yul\":9709:9718   */\n      dup4\n        /* \"#utility.yul\":9705:9723   */\n      add\n        /* \"#utility.yul\":9696:9702   */\n      dup5\n        /* \"#utility.yul\":9646:9724   */\n      tag_239\n      jump\t// in\n    tag_296:\n        /* \"#utility.yul\":9186:9731   */\n      swap5\n      swap4\n      pop\n      pop\n      pop\n      pop\n      jump\t// out\n        /* \"#utility.yul\":9737:10156   */\n    tag_68:\n        /* \"#utility.yul\":9903:9907   */\n      0x00\n        /* \"#utility.yul\":9941:9943   */\n      0x20\n        /* \"#utility.yul\":9930:9939   */\n      dup3\n        /* \"#utility.yul\":9926:9944   */\n      add\n        /* \"#utility.yul\":9918:9944   */\n      swap1\n      pop\n        /* \"#utility.yul\":9990:9999   */\n      dup2\n        /* \"#utility.yul\":9984:9988   */\n      dup2\n        /* \"#utility.yul\":9980:10000   */\n      sub\n        /* \"#utility.yul\":9976:9977   */\n      0x00\n        /* \"#utility.yul\":9965:9974   */\n      dup4\n        /* \"#utility.yul\":9961:9978   */\n      add\n        /* \"#utility.yul\":9954:10001   */\n      mstore\n        /* \"#utility.yul\":10018:10149   */\n      tag_298\n        /* \"#utility.yul\":10144:10148   */\n      dup2\n        /* \"#utility.yul\":10018:10149   */\n      tag_259\n      jump\t// in\n    tag_298:\n        /* \"#utility.yul\":10010:10149   */\n      swap1\n      pop\n        /* \"#utility.yul\":9737:10156   */\n      swap2\n      swap1\n      pop\n      jump\t// out\n        /* \"#utility.yul\":10162:10581   */\n    tag_82:\n        /* \"#utility.yul\":10328:10332   */\n      0x00\n        /* \"#utility.yul\":10366:10368   */\n      0x20\n        /* \"#utility.yul\":10355:10364   */\n      dup3\n        /* \"#utility.yul\":10351:10369   */\n      add\n        /* \"#utility.yul\":10343:10369   */\n      swap1\n      pop\n        /* \"#utility.yul\":10415:10424   */\n      dup2\n        /* \"#utility.yul\":10409:10413   */\n      dup2\n        /* \"#utility.yul\":10405:10425   */\n      sub\n        /* \"#utility.yul\":10401:10402   */\n      0x00\n        /* \"#utility.yul\":10390:10399   */\n      dup4\n        /* \"#utility.yul\":10386:10403   */\n      add\n        /* \"#utility.yul\":10379:10426   */\n      mstore\n        /* \"#utility.yul\":10443:10574   */\n      tag_300\n        /* \"#utility.yul\":10569:10573   */\n      dup2\n        /* \"#utility.yul\":10443:10574   */\n      tag_264\n      jump\t// in\n    tag_300:\n        /* \"#utility.yul\":10435:10574   */\n      swap1\n      pop\n        /* \"#utility.yul\":10162:10581   */\n      swap2\n      swap1\n      pop\n      jump\t// out\n        /* \"#utility.yul\":10587:11006   */\n    tag_71:\n        /* \"#utility.yul\":10753:10757   */\n      0x00\n        /* \"#utility.yul\":10791:10793   */\n      0x20\n        /* \"#utility.yul\":10780:10789   */\n      dup3\n        /* \"#utility.yul\":10776:10794   */\n      add\n        /* \"#utility.yul\":10768:10794   */\n      swap1\n      pop\n        /* \"#utility.yul\":10840:10849   */\n      dup2\n        /* \"#utility.yul\":10834:10838   */\n      dup2\n        /* \"#utility.yul\":10830:10850   */\n      sub\n        /* \"#utility.yul\":10826:10827   */\n      0x00\n        /* \"#utility.yul\":10815:10824   */\n      dup4\n        /* \"#utility.yul\":10811:10828   */\n      add\n        /* \"#utility.yul\":10804:10851   */\n      mstore\n        /* \"#utility.yul\":10868:10999   */\n      tag_302\n        /* \"#utility.yul\":10994:10998   */\n      dup2\n        /* \"#utility.yul\":10868:10999   */\n      tag_269\n      jump\t// in\n    tag_302:\n        /* \"#utility.yul\":10860:10999   */\n      swap1\n      pop\n        /* \"#utility.yul\":10587:11006   */\n      swap2\n      swap1\n      pop\n      jump\t// out\n        /* \"#utility.yul\":11012:11431   */\n    tag_40:\n        /* \"#utility.yul\":11178:11182   */\n      0x00\n        /* \"#utility.yul\":11216:11218   */\n      0x20\n        /* \"#utility.yul\":11205:11214   */\n      dup3\n        /* \"#utility.yul\":11201:11219   */\n      add\n        /* \"#utility.yul\":11193:11219   */\n      swap1\n      pop\n        /* \"#utility.yul\":11265:11274   */\n      dup2\n        /* \"#utility.yul\":11259:11263   */\n      dup2\n        /* \"#utility.yul\":11255:11275   */\n      sub\n        /* \"#utility.yul\":11251:11252   */\n      0x00\n        /* \"#utility.yul\":11240:11249   */\n      dup4\n        /* \"#utility.yul\":11236:11253   */\n      add\n        /* \"#utility.yul\":11229:11276   */\n      mstore\n        /* \"#utility.yul\":11293:11424   */\n      tag_304\n        /* \"#utility.yul\":11419:11423   */\n      dup2\n        /* \"#utility.yul\":11293:11424   */\n      tag_274\n      jump\t// in\n    tag_304:\n        /* \"#utility.yul\":11285:11424   */\n      swap1\n      pop\n        /* \"#utility.yul\":11012:11431   */\n      swap2\n      swap1\n      pop\n      jump\t// out\n        /* \"#utility.yul\":11437:11794   */\n    tag_36:\n        /* \"#utility.yul\":11572:11576   */\n      0x00\n        /* \"#utility.yul\":11610:11612   */\n      0x20\n        /* \"#utility.yul\":11599:11608   */\n      dup3\n        /* \"#utility.yul\":11595:11613   */\n      add\n        /* \"#utility.yul\":11587:11613   */\n      swap1\n      pop\n        /* \"#utility.yul\":11659:11668   */\n      dup2\n        /* \"#utility.yul\":11653:11657   */\n      dup2\n        /* \"#utility.yul\":11649:11669   */\n      sub\n        /* \"#utility.yul\":11645:11646   */\n      0x00\n        /* \"#utility.yul\":11634:11643   */\n      dup4\n        /* \"#utility.yul\":11630:11647   */\n      add\n        /* \"#utility.yul\":11623:11670   */\n      mstore\n        /* \"#utility.yul\":11687:11787   */\n      tag_306\n        /* \"#utility.yul\":11782:11786   */\n      dup2\n        /* \"#utility.yul\":11773:11779   */\n      dup5\n        /* \"#utility.yul\":11687:11787   */\n      tag_279\n      jump\t// in\n    tag_306:\n        /* \"#utility.yul\":11679:11787   */\n      swap1\n      pop\n        /* \"#utility.yul\":11437:11794   */\n      swap3\n      swap2\n      pop\n      pop\n      jump\t// out\n        /* \"#utility.yul\":11800:12022   */\n    tag_14:\n        /* \"#utility.yul\":11893:11897   */\n      0x00\n        /* \"#utility.yul\":11931:11933   */\n      0x20\n        /* \"#utility.yul\":11920:11929   */\n      dup3\n        /* \"#utility.yul\":11916:11934   */\n      add\n        /* \"#utility.yul\":11908:11934   */\n      swap1\n      pop\n        /* \"#utility.yul\":11944:12015   */\n      tag_308\n        /* \"#utility.yul\":12012:12013   */\n      0x00\n        /* \"#utility.yul\":12001:12010   */\n      dup4\n        /* \"#utility.yul\":11997:12014   */\n      add\n        /* \"#utility.yul\":11988:11994   */\n      dup5\n        /* \"#utility.yul\":11944:12015   */\n      tag_288\n      jump\t// in\n    tag_308:\n        /* \"#utility.yul\":11800:12022   */\n      swap3\n      swap2\n      pop\n      pop\n      jump\t// out\n        /* \"#utility.yul\":12028:12157   */\n    tag_155:\n        /* \"#utility.yul\":12062:12068   */\n      0x00\n        /* \"#utility.yul\":12089:12109   */\n      tag_310\n      tag_311\n      jump\t// in\n    tag_310:\n        /* \"#utility.yul\":12079:12109   */\n      swap1\n      pop\n        /* \"#utility.yul\":12118:12151   */\n      tag_312\n        /* \"#utility.yul\":12146:12150   */\n      dup3\n        /* \"#utility.yul\":12138:12144   */\n      dup3\n        /* \"#utility.yul\":12118:12151   */\n      tag_313\n      jump\t// in\n    tag_312:\n        /* \"#utility.yul\":12028:12157   */\n      swap2\n      swap1\n      pop\n      jump\t// out\n        /* \"#utility.yul\":12163:12238   */\n    tag_311:\n        /* \"#utility.yul\":12196:12202   */\n      0x00\n        /* \"#utility.yul\":12229:12231   */\n      0x40\n        /* \"#utility.yul\":12223:12232   */\n      mload\n        /* \"#utility.yul\":12213:12232   */\n      swap1\n      pop\n        /* \"#utility.yul\":12163:12238   */\n      swap1\n      jump\t// out\n        /* \"#utility.yul\":12244:12555   */\n    tag_154:\n        /* \"#utility.yul\":12321:12325   */\n      0x00\n        /* \"#utility.yul\":12411:12429   */\n      0xffffffffffffffff\n        /* \"#utility.yul\":12403:12409   */\n      dup3\n        /* \"#utility.yul\":12400:12430   */\n      gt\n        /* \"#utility.yul\":12397:12453   */\n      iszero\n      tag_316\n      jumpi\n        /* \"#utility.yul\":12433:12451   */\n      tag_317\n      tag_318\n      jump\t// in\n    tag_317:\n        /* \"#utility.yul\":12397:12453   */\n    tag_316:\n        /* \"#utility.yul\":12483:12487   */\n      0x20\n        /* \"#utility.yul\":12475:12481   */\n      dup3\n        /* \"#utility.yul\":12471:12488   */\n      mul\n        /* \"#utility.yul\":12463:12488   */\n      swap1\n      pop\n        /* \"#utility.yul\":12543:12547   */\n      0x20\n        /* \"#utility.yul\":12537:12541   */\n      dup2\n        /* \"#utility.yul\":12533:12548   */\n      add\n        /* \"#utility.yul\":12525:12548   */\n      swap1\n      pop\n        /* \"#utility.yul\":12244:12555   */\n      swap2\n      swap1\n      pop\n      jump\t// out\n        /* \"#utility.yul\":12561:12869   */\n    tag_168:\n        /* \"#utility.yul\":12623:12627   */\n      0x00\n        /* \"#utility.yul\":12713:12731   */\n      0xffffffffffffffff\n        /* \"#utility.yul\":12705:12711   */\n      dup3\n        /* \"#utility.yul\":12702:12732   */\n      gt\n        /* \"#utility.yul\":12699:12755   */\n      iszero\n      tag_320\n      jumpi\n        /* \"#utility.yul\":12735:12753   */\n      tag_321\n      tag_318\n      jump\t// in\n    tag_321:\n        /* \"#utility.yul\":12699:12755   */\n    tag_320:\n        /* \"#utility.yul\":12773:12802   */\n      tag_322\n        /* \"#utility.yul\":12795:12801   */\n      dup3\n        /* \"#utility.yul\":12773:12802   */\n      tag_251\n      jump\t// in\n    tag_322:\n        /* \"#utility.yul\":12765:12802   */\n      swap1\n      pop\n        /* \"#utility.yul\":12857:12861   */\n      0x20\n        /* \"#utility.yul\":12851:12855   */\n      dup2\n        /* \"#utility.yul\":12847:12862   */\n      add\n        /* \"#utility.yul\":12839:12862   */\n      swap1\n      pop\n        /* \"#utility.yul\":12561:12869   */\n      swap2\n      swap1\n      pop\n      jump\t// out\n        /* \"#utility.yul\":12875:13007   */\n    tag_228:\n        /* \"#utility.yul\":12942:12946   */\n      0x00\n        /* \"#utility.yul\":12965:12968   */\n      dup2\n        /* \"#utility.yul\":12957:12968   */\n      swap1\n      pop\n        /* \"#utility.yul\":12995:12999   */\n      0x20\n        /* \"#utility.yul\":12990:12993   */\n      dup3\n        /* \"#utility.yul\":12986:13000   */\n      add\n        /* \"#utility.yul\":12978:13000   */\n      swap1\n      pop\n        /* \"#utility.yul\":12875:13007   */\n      swap2\n      swap1\n      pop\n      jump\t// out\n        /* \"#utility.yul\":13013:13127   */\n    tag_224:\n        /* \"#utility.yul\":13080:13086   */\n      0x00\n        /* \"#utility.yul\":13114:13119   */\n      dup2\n        /* \"#utility.yul\":13108:13120   */\n      mload\n        /* \"#utility.yul\":13098:13120   */\n      swap1\n      pop\n        /* \"#utility.yul\":13013:13127   */\n      swap2\n      swap1\n      pop\n      jump\t// out\n        /* \"#utility.yul\":13133:13232   */\n    tag_245:\n        /* \"#utility.yul\":13185:13191   */\n      0x00\n        /* \"#utility.yul\":13219:13224   */\n      dup2\n        /* \"#utility.yul\":13213:13225   */\n      mload\n        /* \"#utility.yul\":13203:13225   */\n      swap1\n      pop\n        /* \"#utility.yul\":13133:13232   */\n      swap2\n      swap1\n      pop\n      jump\t// out\n        /* \"#utility.yul\":13238:13351   */\n    tag_234:\n        /* \"#utility.yul\":13308:13312   */\n      0x00\n        /* \"#utility.yul\":13340:13344   */\n      0x20\n        /* \"#utility.yul\":13335:13338   */\n      dup3\n        /* \"#utility.yul\":13331:13345   */\n      add\n        /* \"#utility.yul\":13323:13345   */\n      swap1\n      pop\n        /* \"#utility.yul\":13238:13351   */\n      swap2\n      swap1\n      pop\n      jump\t// out\n        /* \"#utility.yul\":13357:13531   */\n    tag_226:\n        /* \"#utility.yul\":13446:13457   */\n      0x00\n        /* \"#utility.yul\":13480:13486   */\n      dup3\n        /* \"#utility.yul\":13475:13478   */\n      dup3\n        /* \"#utility.yul\":13468:13487   */\n      mstore\n        /* \"#utility.yul\":13520:13524   */\n      0x20\n        /* \"#utility.yul\":13515:13518   */\n      dup3\n        /* \"#utility.yul\":13511:13525   */\n      add\n        /* \"#utility.yul\":13496:13525   */\n      swap1\n      pop\n        /* \"#utility.yul\":13357:13531   */\n      swap3\n      swap2\n      pop\n      pop\n      jump\t// out\n        /* \"#utility.yul\":13537:13696   */\n    tag_247:\n        /* \"#utility.yul\":13611:13622   */\n      0x00\n        /* \"#utility.yul\":13645:13651   */\n      dup3\n        /* \"#utility.yul\":13640:13643   */\n      dup3\n        /* \"#utility.yul\":13633:13652   */\n      mstore\n        /* \"#utility.yul\":13685:13689   */\n      0x20\n        /* \"#utility.yul\":13680:13683   */\n      dup3\n        /* \"#utility.yul\":13676:13690   */\n      add\n        /* \"#utility.yul\":13661:13690   */\n      swap1\n      pop\n        /* \"#utility.yul\":13537:13696   */\n      swap3\n      swap2\n      pop\n      pop\n      jump\t// out\n        /* \"#utility.yul\":13702:13871   */\n    tag_256:\n        /* \"#utility.yul\":13786:13797   */\n      0x00\n        /* \"#utility.yul\":13820:13826   */\n      dup3\n        /* \"#utility.yul\":13815:13818   */\n      dup3\n        /* \"#utility.yul\":13808:13827   */\n      mstore\n        /* \"#utility.yul\":13860:13864   */\n      0x20\n        /* \"#utility.yul\":13855:13858   */\n      dup3\n        /* \"#utility.yul\":13851:13865   */\n      add\n        /* \"#utility.yul\":13836:13865   */\n      swap1\n      pop\n        /* \"#utility.yul\":13702:13871   */\n      swap3\n      swap2\n      pop\n      pop\n      jump\t// out\n        /* \"#utility.yul\":13877:14068   */\n    tag_56:\n        /* \"#utility.yul\":13917:13921   */\n      0x00\n        /* \"#utility.yul\":13937:13957   */\n      tag_331\n        /* \"#utility.yul\":13955:13956   */\n      dup3\n        /* \"#utility.yul\":13937:13957   */\n      tag_287\n      jump\t// in\n    tag_331:\n        /* \"#utility.yul\":13932:13957   */\n      swap2\n      pop\n        /* \"#utility.yul\":13971:13991   */\n      tag_332\n        /* \"#utility.yul\":13989:13990   */\n      dup4\n        /* \"#utility.yul\":13971:13991   */\n      tag_287\n      jump\t// in\n    tag_332:\n        /* \"#utility.yul\":13966:13991   */\n      swap3\n      pop\n        /* \"#utility.yul\":14010:14011   */\n      dup3\n        /* \"#utility.yul\":14007:14008   */\n      dup3\n        /* \"#utility.yul\":14004:14012   */\n      lt\n        /* \"#utility.yul\":14001:14035   */\n      iszero\n      tag_333\n      jumpi\n        /* \"#utility.yul\":14015:14033   */\n      tag_334\n      tag_335\n      jump\t// in\n    tag_334:\n        /* \"#utility.yul\":14001:14035   */\n    tag_333:\n        /* \"#utility.yul\":14060:14061   */\n      dup3\n        /* \"#utility.yul\":14057:14058   */\n      dup3\n        /* \"#utility.yul\":14053:14062   */\n      sub\n        /* \"#utility.yul\":14045:14062   */\n      swap1\n      pop\n        /* \"#utility.yul\":13877:14068   */\n      swap3\n      swap2\n      pop\n      pop\n      jump\t// out\n        /* \"#utility.yul\":14074:14170   */\n    tag_217:\n        /* \"#utility.yul\":14111:14118   */\n      0x00\n        /* \"#utility.yul\":14140:14164   */\n      tag_337\n        /* \"#utility.yul\":14158:14163   */\n      dup3\n        /* \"#utility.yul\":14140:14164   */\n      tag_338\n      jump\t// in\n    tag_337:\n        /* \"#utility.yul\":14129:14164   */\n      swap1\n      pop\n        /* \"#utility.yul\":14074:14170   */\n      swap2\n      swap1\n      pop\n      jump\t// out\n        /* \"#utility.yul\":14176:14303   */\n    tag_339:\n        /* \"#utility.yul\":14221:14228   */\n      0x00\n        /* \"#utility.yul\":14250:14255   */\n      dup2\n        /* \"#utility.yul\":14239:14255   */\n      swap1\n      pop\n        /* \"#utility.yul\":14256:14297   */\n      tag_341\n        /* \"#utility.yul\":14291:14296   */\n      dup3\n        /* \"#utility.yul\":14256:14297   */\n      tag_342\n      jump\t// in\n    tag_341:\n        /* \"#utility.yul\":14176:14303   */\n      swap2\n      swap1\n      pop\n      jump\t// out\n        /* \"#utility.yul\":14309:14435   */\n    tag_338:\n        /* \"#utility.yul\":14346:14353   */\n      0x00\n        /* \"#utility.yul\":14386:14428   */\n      0xffffffffffffffffffffffffffffffffffffffff\n        /* \"#utility.yul\":14379:14384   */\n      dup3\n        /* \"#utility.yul\":14375:14429   */\n      and\n        /* \"#utility.yul\":14364:14429   */\n      swap1\n      pop\n        /* \"#utility.yul\":14309:14435   */\n      swap2\n      swap1\n      pop\n      jump\t// out\n        /* \"#utility.yul\":14441:14518   */\n    tag_287:\n        /* \"#utility.yul\":14478:14485   */\n      0x00\n        /* \"#utility.yul\":14507:14512   */\n      dup2\n        /* \"#utility.yul\":14496:14512   */\n      swap1\n      pop\n        /* \"#utility.yul\":14441:14518   */\n      swap2\n      swap1\n      pop\n      jump\t// out\n        /* \"#utility.yul\":14524:14651   */\n    tag_238:\n        /* \"#utility.yul\":14580:14589   */\n      0x00\n        /* \"#utility.yul\":14613:14645   */\n      tag_346\n        /* \"#utility.yul\":14639:14644   */\n      dup3\n        /* \"#utility.yul\":14613:14645   */\n      tag_339\n      jump\t// in\n    tag_346:\n        /* \"#utility.yul\":14600:14645   */\n      swap1\n      pop\n        /* \"#utility.yul\":14524:14651   */\n      swap2\n      swap1\n      pop\n      jump\t// out\n        /* \"#utility.yul\":14657:14811   */\n    tag_173:\n        /* \"#utility.yul\":14741:14747   */\n      dup3\n        /* \"#utility.yul\":14736:14739   */\n      dup2\n        /* \"#utility.yul\":14731:14734   */\n      dup4\n        /* \"#utility.yul\":14718:14748   */\n      calldatacopy\n        /* \"#utility.yul\":14803:14804   */\n      0x00\n        /* \"#utility.yul\":14794:14800   */\n      dup4\n        /* \"#utility.yul\":14789:14792   */\n      dup4\n        /* \"#utility.yul\":14785:14801   */\n      add\n        /* \"#utility.yul\":14778:14805   */\n      mstore\n        /* \"#utility.yul\":14657:14811   */\n      pop\n      pop\n      pop\n      jump\t// out\n        /* \"#utility.yul\":14817:15124   */\n    tag_249:\n        /* \"#utility.yul\":14885:14886   */\n      0x00\n        /* \"#utility.yul\":14895:15008   */\n    tag_349:\n        /* \"#utility.yul\":14909:14915   */\n      dup4\n        /* \"#utility.yul\":14906:14907   */\n      dup2\n        /* \"#utility.yul\":14903:14916   */\n      lt\n        /* \"#utility.yul\":14895:15008   */\n      iszero\n      tag_351\n      jumpi\n        /* \"#utility.yul\":14994:14995   */\n      dup1\n        /* \"#utility.yul\":14989:14992   */\n      dup3\n        /* \"#utility.yul\":14985:14996   */\n      add\n        /* \"#utility.yul\":14979:14997   */\n      mload\n        /* \"#utility.yul\":14975:14976   */\n      dup2\n        /* \"#utility.yul\":14970:14973   */\n      dup5\n        /* \"#utility.yul\":14966:14977   */\n      add\n        /* \"#utility.yul\":14959:14998   */\n      mstore\n        /* \"#utility.yul\":14931:14933   */\n      0x20\n        /* \"#utility.yul\":14928:14929   */\n      dup2\n        /* \"#utility.yul\":14924:14934   */\n      add\n        /* \"#utility.yul\":14919:14934   */\n      swap1\n      pop\n        /* \"#utility.yul\":14895:15008   */\n      jump(tag_349)\n    tag_351:\n        /* \"#utility.yul\":15026:15032   */\n      dup4\n        /* \"#utility.yul\":15023:15024   */\n      dup2\n        /* \"#utility.yul\":15020:15033   */\n      gt\n        /* \"#utility.yul\":15017:15118   */\n      iszero\n      tag_352\n      jumpi\n        /* \"#utility.yul\":15106:15107   */\n      0x00\n        /* \"#utility.yul\":15097:15103   */\n      dup5\n        /* \"#utility.yul\":15092:15095   */\n      dup5\n        /* \"#utility.yul\":15088:15104   */\n      add\n        /* \"#utility.yul\":15081:15108   */\n      mstore\n        /* \"#utility.yul\":15017:15118   */\n    tag_352:\n        /* \"#utility.yul\":14866:15124   */\n      pop\n        /* \"#utility.yul\":14817:15124   */\n      pop\n      pop\n      pop\n      jump\t// out\n        /* \"#utility.yul\":15130:15450   */\n    tag_60:\n        /* \"#utility.yul\":15174:15180   */\n      0x00\n        /* \"#utility.yul\":15211:15212   */\n      0x02\n        /* \"#utility.yul\":15205:15209   */\n      dup3\n        /* \"#utility.yul\":15201:15213   */\n      div\n        /* \"#utility.yul\":15191:15213   */\n      swap1\n      pop\n        /* \"#utility.yul\":15258:15259   */\n      0x01\n        /* \"#utility.yul\":15252:15256   */\n      dup3\n        /* \"#utility.yul\":15248:15260   */\n      and\n        /* \"#utility.yul\":15279:15297   */\n      dup1\n        /* \"#utility.yul\":15269:15350   */\n      tag_354\n      jumpi\n        /* \"#utility.yul\":15335:15339   */\n      0x7f\n        /* \"#utility.yul\":15327:15333   */\n      dup3\n        /* \"#utility.yul\":15323:15340   */\n      and\n        /* \"#utility.yul\":15313:15340   */\n      swap2\n      pop\n        /* \"#utility.yul\":15269:15350   */\n    tag_354:\n        /* \"#utility.yul\":15397:15399   */\n      0x20\n        /* \"#utility.yul\":15389:15395   */\n      dup3\n        /* \"#utility.yul\":15386:15400   */\n      lt\n        /* \"#utility.yul\":15366:15384   */\n      dup2\n        /* \"#utility.yul\":15363:15401   */\n      eq\n        /* \"#utility.yul\":15360:15444   */\n      iszero\n      tag_355\n      jumpi\n        /* \"#utility.yul\":15416:15434   */\n      tag_356\n      tag_357\n      jump\t// in\n    tag_356:\n        /* \"#utility.yul\":15360:15444   */\n    tag_355:\n        /* \"#utility.yul\":15181:15450   */\n      pop\n        /* \"#utility.yul\":15130:15450   */\n      swap2\n      swap1\n      pop\n      jump\t// out\n        /* \"#utility.yul\":15456:15737   */\n    tag_313:\n        /* \"#utility.yul\":15539:15566   */\n      tag_359\n        /* \"#utility.yul\":15561:15565   */\n      dup3\n        /* \"#utility.yul\":15539:15566   */\n      tag_251\n      jump\t// in\n    tag_359:\n        /* \"#utility.yul\":15531:15537   */\n      dup2\n        /* \"#utility.yul\":15527:15567   */\n      add\n        /* \"#utility.yul\":15669:15675   */\n      dup2\n        /* \"#utility.yul\":15657:15667   */\n      dup2\n        /* \"#utility.yul\":15654:15676   */\n      lt\n        /* \"#utility.yul\":15633:15651   */\n      0xffffffffffffffff\n        /* \"#utility.yul\":15621:15631   */\n      dup3\n        /* \"#utility.yul\":15618:15652   */\n      gt\n        /* \"#utility.yul\":15615:15677   */\n      or\n        /* \"#utility.yul\":15612:15700   */\n      iszero\n      tag_360\n      jumpi\n        /* \"#utility.yul\":15680:15698   */\n      tag_361\n      tag_318\n      jump\t// in\n    tag_361:\n        /* \"#utility.yul\":15612:15700   */\n    tag_360:\n        /* \"#utility.yul\":15720:15730   */\n      dup1\n        /* \"#utility.yul\":15716:15718   */\n      0x40\n        /* \"#utility.yul\":15709:15731   */\n      mstore\n        /* \"#utility.yul\":15499:15737   */\n      pop\n        /* \"#utility.yul\":15456:15737   */\n      pop\n      pop\n      jump\t// out\n        /* \"#utility.yul\":15743:15923   */\n    tag_335:\n        /* \"#utility.yul\":15791:15868   */\n      0x4e487b7100000000000000000000000000000000000000000000000000000000\n        /* \"#utility.yul\":15788:15789   */\n      0x00\n        /* \"#utility.yul\":15781:15869   */\n      mstore\n        /* \"#utility.yul\":15888:15892   */\n      0x11\n        /* \"#utility.yul\":15885:15886   */\n      0x04\n        /* \"#utility.yul\":15878:15893   */\n      mstore\n        /* \"#utility.yul\":15912:15916   */\n      0x24\n        /* \"#utility.yul\":15909:15910   */\n      0x00\n        /* \"#utility.yul\":15902:15917   */\n      revert\n        /* \"#utility.yul\":15929:16109   */\n    tag_45:\n        /* \"#utility.yul\":15977:16054   */\n      0x4e487b7100000000000000000000000000000000000000000000000000000000\n        /* \"#utility.yul\":15974:15975   */\n      0x00\n        /* \"#utility.yul\":15967:16055   */\n      mstore\n        /* \"#utility.yul\":16074:16078   */\n      0x21\n        /* \"#utility.yul\":16071:16072   */\n      0x04\n        /* \"#utility.yul\":16064:16079   */\n      mstore\n        /* \"#utility.yul\":16098:16102   */\n      0x24\n        /* \"#utility.yul\":16095:16096   */\n      0x00\n        /* \"#utility.yul\":16088:16103   */\n      revert\n        /* \"#utility.yul\":16115:16295   */\n    tag_357:\n        /* \"#utility.yul\":16163:16240   */\n      0x4e487b7100000000000000000000000000000000000000000000000000000000\n        /* \"#utility.yul\":16160:16161   */\n      0x00\n        /* \"#utility.yul\":16153:16241   */\n      mstore\n        /* \"#utility.yul\":16260:16264   */\n      0x22\n        /* \"#utility.yul\":16257:16258   */\n      0x04\n        /* \"#utility.yul\":16250:16265   */\n      mstore\n        /* \"#utility.yul\":16284:16288   */\n      0x24\n        /* \"#utility.yul\":16281:16282   */\n      0x00\n        /* \"#utility.yul\":16274:16289   */\n      revert\n        /* \"#utility.yul\":16301:16481   */\n    tag_74:\n        /* \"#utility.yul\":16349:16426   */\n      0x4e487b7100000000000000000000000000000000000000000000000000000000\n        /* \"#utility.yul\":16346:16347   */\n      0x00\n        /* \"#utility.yul\":16339:16427   */\n      mstore\n        /* \"#utility.yul\":16446:16450   */\n      0x32\n        /* \"#utility.yul\":16443:16444   */\n      0x04\n        /* \"#utility.yul\":16436:16451   */\n      mstore\n        /* \"#utility.yul\":16470:16474   */\n      0x24\n        /* \"#utility.yul\":16467:16468   */\n      0x00\n        /* \"#utility.yul\":16460:16475   */\n      revert\n        /* \"#utility.yul\":16487:16667   */\n    tag_318:\n        /* \"#utility.yul\":16535:16612   */\n      0x4e487b7100000000000000000000000000000000000000000000000000000000\n        /* \"#utility.yul\":16532:16533   */\n      0x00\n        /* \"#utility.yul\":16525:16613   */\n      mstore\n        /* \"#utility.yul\":16632:16636   */\n      0x41\n        /* \"#utility.yul\":16629:16630   */\n      0x04\n        /* \"#utility.yul\":16622:16637   */\n      mstore\n        /* \"#utility.yul\":16656:16660   */\n      0x24\n        /* \"#utility.yul\":16653:16654   */\n      0x00\n        /* \"#utility.yul\":16646:16661   */\n      revert\n        /* \"#utility.yul\":16673:16790   */\n    tag_178:\n        /* \"#utility.yul\":16782:16783   */\n      0x00\n        /* \"#utility.yul\":16779:16780   */\n      dup1\n        /* \"#utility.yul\":16772:16784   */\n      revert\n        /* \"#utility.yul\":16796:16913   */\n    tag_158:\n        /* \"#utility.yul\":16905:16906   */\n      0x00\n        /* \"#utility.yul\":16902:16903   */\n      dup1\n        /* \"#utility.yul\":16895:16907   */\n      revert\n        /* \"#utility.yul\":16919:17036   */\n    tag_171:\n        /* \"#utility.yul\":17028:17029   */\n      0x00\n        /* \"#utility.yul\":17025:17026   */\n      dup1\n        /* \"#utility.yul\":17018:17030   */\n      revert\n        /* \"#utility.yul\":17042:17159   */\n    tag_194:\n        /* \"#utility.yul\":17151:17152   */\n      0x00\n        /* \"#utility.yul\":17148:17149   */\n      dup1\n        /* \"#utility.yul\":17141:17153   */\n      revert\n        /* \"#utility.yul\":17165:17282   */\n    tag_191:\n        /* \"#utility.yul\":17274:17275   */\n      0x00\n        /* \"#utility.yul\":17271:17272   */\n      dup1\n        /* \"#utility.yul\":17264:17276   */\n      revert\n        /* \"#utility.yul\":17288:17390   */\n    tag_251:\n        /* \"#utility.yul\":17329:17335   */\n      0x00\n        /* \"#utility.yul\":17380:17382   */\n      0x1f\n        /* \"#utility.yul\":17376:17383   */\n      not\n        /* \"#utility.yul\":17371:17373   */\n      0x1f\n        /* \"#utility.yul\":17364:17369   */\n      dup4\n        /* \"#utility.yul\":17360:17374   */\n      add\n        /* \"#utility.yul\":17356:17384   */\n      and\n        /* \"#utility.yul\":17346:17384   */\n      swap1\n      pop\n        /* \"#utility.yul\":17288:17390   */\n      swap2\n      swap1\n      pop\n      jump\t// out\n        /* \"#utility.yul\":17396:17561   */\n    tag_263:\n        /* \"#utility.yul\":17536:17553   */\n      0x20796f75206e6f74206f776e6572200000000000000000000000000000000000\n        /* \"#utility.yul\":17532:17533   */\n      0x00\n        /* \"#utility.yul\":17524:17530   */\n      dup3\n        /* \"#utility.yul\":17520:17534   */\n      add\n        /* \"#utility.yul\":17513:17554   */\n      mstore\n        /* \"#utility.yul\":17396:17561   */\n      pop\n      jump\t// out\n        /* \"#utility.yul\":17567:17743   */\n    tag_268:\n        /* \"#utility.yul\":17707:17735   */\n      0x6f7264657220697320616c726561647920207368697070656420000000000000\n        /* \"#utility.yul\":17703:17704   */\n      0x00\n        /* \"#utility.yul\":17695:17701   */\n      dup3\n        /* \"#utility.yul\":17691:17705   */\n      add\n        /* \"#utility.yul\":17684:17736   */\n      mstore\n        /* \"#utility.yul\":17567:17743   */\n      pop\n      jump\t// out\n        /* \"#utility.yul\":17749:17921   */\n    tag_273:\n        /* \"#utility.yul\":17889:17913   */\n      0x6e6f7420612076616c6964206f72646572206964202000000000000000000000\n        /* \"#utility.yul\":17885:17886   */\n      0x00\n        /* \"#utility.yul\":17877:17883   */\n      dup3\n        /* \"#utility.yul\":17873:17887   */\n      add\n        /* \"#utility.yul\":17866:17914   */\n      mstore\n        /* \"#utility.yul\":17749:17921   */\n      pop\n      jump\t// out\n        /* \"#utility.yul\":17927:18090   */\n    tag_278:\n        /* \"#utility.yul\":18067:18082   */\n      0x206e6f742070726f647563747300000000000000000000000000000000000000\n        /* \"#utility.yul\":18063:18064   */\n      0x00\n        /* \"#utility.yul\":18055:18061   */\n      dup3\n        /* \"#utility.yul\":18051:18065   */\n      add\n        /* \"#utility.yul\":18044:18083   */\n      mstore\n        /* \"#utility.yul\":17927:18090   */\n      pop\n      jump\t// out\n        /* \"#utility.yul\":18096:18209   */\n    tag_342:\n        /* \"#utility.yul\":18177:18178   */\n      0x04\n        /* \"#utility.yul\":18170:18175   */\n      dup2\n        /* \"#utility.yul\":18167:18179   */\n      lt\n        /* \"#utility.yul\":18157:18203   */\n      tag_378\n      jumpi\n        /* \"#utility.yul\":18183:18201   */\n      tag_379\n      tag_45\n      jump\t// in\n    tag_379:\n        /* \"#utility.yul\":18157:18203   */\n    tag_378:\n        /* \"#utility.yul\":18096:18209   */\n      pop\n      jump\t// out\n        /* \"#utility.yul\":18215:18337   */\n    tag_187:\n        /* \"#utility.yul\":18288:18312   */\n      tag_381\n        /* \"#utility.yul\":18306:18311   */\n      dup2\n        /* \"#utility.yul\":18288:18312   */\n      tag_287\n      jump\t// in\n    tag_381:\n        /* \"#utility.yul\":18281:18286   */\n      dup2\n        /* \"#utility.yul\":18278:18313   */\n      eq\n        /* \"#utility.yul\":18268:18331   */\n      tag_382\n      jumpi\n        /* \"#utility.yul\":18327:18328   */\n      0x00\n        /* \"#utility.yul\":18324:18325   */\n      dup1\n        /* \"#utility.yul\":18317:18329   */\n      revert\n        /* \"#utility.yul\":18268:18331   */\n    tag_382:\n        /* \"#utility.yul\":18215:18337   */\n      pop\n      jump\t// out\n\n    auxdata: 0xa2646970667358221220cc81f240e69266f2052dccfe03fa371cdae5381ae8c569dde6d53e622c69543364736f6c63430008070033\n}\n",
				"bytecode": {
					"linkReferences": {},
					"object": "608060405234801561001057600080fd5b5033600160006101000a81548173ffffffffffffffffffffffffffffffffffffffff021916908373ffffffffffffffffffffffffffffffffffffffff1602179055506114f5806100616000396000f3fe608060405234801561001057600080fd5b50600436106100625760003560e01c80636d9a65d8146100675780638da5cb5b14610097578063a85c38ef146100b5578063afe13a62146100e7578063b28445c714610103578063d09ef2411461011f575b600080fd5b610081600480360381019061007c9190610c6a565b61014f565b60405161008e919061109e565b60405180910390f35b61009f610311565b6040516100ac9190610fa3565b60405180910390f35b6100cf60048036038101906100ca9190610ce2565b610337565b6040516100de93929190610fbe565b60405180910390f35b61010160048036038101906100fc9190610ce2565b610426565b005b61011d60048036038101906101189190610d0f565b6106ec565b005b61013960048036038101906101349190610ce2565b610809565b604051610146919061107c565b60405180910390f35b600080825111610194576040517f08c379a000000000000000000000000000000000000000000000000000000000815260040161018b9061105c565b60405180910390fd5b61019c610a07565b33816000019073ffffffffffffffffffffffffffffffffffffffff16908173ffffffffffffffffffffffffffffffffffffffff16815250508381602001819052508281604001819052506000816060019060038111156101ff576101fe61130a565b5b908160038111156102135761021261130a565b5b81525050600081908060018154018082558091505060019003906000526020600020906004020160009091909190915060008201518160000160006101000a81548173ffffffffffffffffffffffffffffffffffffffff021916908373ffffffffffffffffffffffffffffffffffffffff16021790555060208201518160010190805190602001906102a6929190610a57565b5060408201518160020190805190602001906102c3929190610add565b5060608201518160030160006101000a81548160ff021916908360038111156102ef576102ee61130a565b5b02179055505050600160008054905061030891906111a1565b91505092915050565b600160009054906101000a900473ffffffffffffffffffffffffffffffffffffffff1681565b6000818154811061034757600080fd5b90600052602060002090600402016000915090508060000160009054906101000a900473ffffffffffffffffffffffffffffffffffffffff169080600101805461039090611278565b80601f01602080910402602001604051908101604052809291908181526020018280546103bc90611278565b80156104095780601f106103de57610100808354040283529160200191610409565b820191906000526020600020905b8154815290600101906020018083116103ec57829003601f168201915b5050505050908060030160009054906101000a900460ff16905083565b3373ffffffffffffffffffffffffffffffffffffffff16600160009054906101000a900473ffffffffffffffffffffffffffffffffffffffff1673ffffffffffffffffffffffffffffffffffffffff16146104b6576040517f08c379a00000000000000000000000000000000000000000000000000000000081526004016104ad90610ffc565b60405180910390fd5b60008054905081106104fd576040517f08c379a00000000000000000000000000000000000000000000000000000000081526004016104f49061103c565b60405180910390fd5b600080828154811061051257610511611368565b5b906000526020600020906004020190506003808111156105355761053461130a565b5b8160030160009054906101000a900460ff1660038111156105595761055861130a565b5b141561059a576040517f08c379a00000000000000000000000000000000000000000000000000000000081526004016105919061101c565b60405180910390fd5b600060038111156105ae576105ad61130a565b5b8160030160009054906101000a900460ff1660038111156105d2576105d161130a565b5b141561060a5760018160030160006101000a81548160ff02191690836003811115610600576105ff61130a565b5b02179055506106e8565b6001600381111561061e5761061d61130a565b5b8160030160009054906101000a900460ff1660038111156106425761064161130a565b5b141561067a5760028160030160006101000a81548160ff021916908360038111156106705761066f61130a565b5b02179055506106e7565b6002600381111561068e5761068d61130a565b5b8160030160009054906101000a900460ff1660038111156106b2576106b161130a565b5b14156106e65760038160030160006101000a81548160ff021916908360038111156106e0576106df61130a565b5b02179055505b5b5b5050565b6000805490508210610733576040517f08c379a000000000000000000000000000000000000000000000000000000000815260040161072a9061103c565b60405180910390fd5b600080838154811061074857610747611368565b5b906000526020600020906004020190503373ffffffffffffffffffffffffffffffffffffffff168160000160009054906101000a900473ffffffffffffffffffffffffffffffffffffffff1673ffffffffffffffffffffffffffffffffffffffff1614156107eb576040517f08c379a00000000000000000000000000000000000000000000000000000000081526004016107e290610ffc565b60405180910390fd5b81816001019080519060200190610803929190610a57565b50505050565b610811610a07565b6000805490508210610858576040517f08c379a000000000000000000000000000000000000000000000000000000000815260040161084f9061103c565b60405180910390fd5b6000828154811061086c5761086b611368565b5b90600052602060002090600402016040518060800160405290816000820160009054906101000a900473ffffffffffffffffffffffffffffffffffffffff1673ffffffffffffffffffffffffffffffffffffffff1673ffffffffffffffffffffffffffffffffffffffff1681526020016001820180546108eb90611278565b80601f016020809104026020016040519081016040528092919081815260200182805461091790611278565b80156109645780601f1061093957610100808354040283529160200191610964565b820191906000526020600020905b81548152906001019060200180831161094757829003601f168201915b50505050508152602001600282018054806020026020016040519081016040528092919081815260200182805480156109bc57602002820191906000526020600020905b8154815260200190600101908083116109a8575b505050505081526020016003820160009054906101000a900460ff1660038111156109ea576109e961130a565b5b60038111156109fc576109fb61130a565b5b815250509050919050565b6040518060800160405280600073ffffffffffffffffffffffffffffffffffffffff168152602001606081526020016060815260200160006003811115610a5157610a5061130a565b5b81525090565b828054610a6390611278565b90600052602060002090601f016020900481019282610a855760008555610acc565b82601f10610a9e57805160ff1916838001178555610acc565b82800160010185558215610acc579182015b82811115610acb578251825591602001919060010190610ab0565b5b509050610ad99190610b2a565b5090565b828054828255906000526020600020908101928215610b19579160200282015b82811115610b18578251825591602001919060010190610afd565b5b509050610b269190610b2a565b5090565b5b80821115610b43576000816000905550600101610b2b565b5090565b6000610b5a610b55846110de565b6110b9565b90508083825260208201905082856020860282011115610b7d57610b7c6113cb565b5b60005b85811015610bad5781610b938882610c55565b845260208401935060208301925050600181019050610b80565b5050509392505050565b6000610bca610bc58461110a565b6110b9565b905082815260208101848484011115610be657610be56113d0565b5b610bf1848285611236565b509392505050565b600082601f830112610c0e57610c0d6113c6565b5b8135610c1e848260208601610b47565b91505092915050565b600082601f830112610c3c57610c3b6113c6565b5b8135610c4c848260208601610bb7565b91505092915050565b600081359050610c64816114a8565b92915050565b60008060408385031215610c8157610c806113da565b5b600083013567ffffffffffffffff811115610c9f57610c9e6113d5565b5b610cab85828601610c27565b925050602083013567ffffffffffffffff811115610ccc57610ccb6113d5565b5b610cd885828601610bf9565b9150509250929050565b600060208284031215610cf857610cf76113da565b5b6000610d0684828501610c55565b91505092915050565b60008060408385031215610d2657610d256113da565b5b6000610d3485828601610c55565b925050602083013567ffffffffffffffff811115610d5557610d546113d5565b5b610d6185828601610c27565b9150509250929050565b6000610d778383610f85565b60208301905092915050565b610d8c816111d5565b82525050565b610d9b816111d5565b82525050565b6000610dac8261114b565b610db6818561116e565b9350610dc18361113b565b8060005b83811015610df2578151610dd98882610d6b565b9750610de483611161565b925050600181019050610dc5565b5085935050505092915050565b610e0881611224565b82525050565b610e1781611224565b82525050565b6000610e2882611156565b610e32818561117f565b9350610e42818560208601611245565b610e4b816113df565b840191505092915050565b6000610e6182611156565b610e6b8185611190565b9350610e7b818560208601611245565b610e84816113df565b840191505092915050565b6000610e9c600f83611190565b9150610ea7826113f0565b602082019050919050565b6000610ebf601a83611190565b9150610eca82611419565b602082019050919050565b6000610ee2601683611190565b9150610eed82611442565b602082019050919050565b6000610f05600d83611190565b9150610f108261146b565b602082019050919050565b6000608083016000830151610f336000860182610d83565b5060208301518482036020860152610f4b8282610e1d565b91505060408301518482036040860152610f658282610da1565b9150506060830151610f7a6060860182610dff565b508091505092915050565b610f8e8161121a565b82525050565b610f9d8161121a565b82525050565b6000602082019050610fb86000830184610d92565b92915050565b6000606082019050610fd36000830186610d92565b8181036020830152610fe58185610e56565b9050610ff46040830184610e0e565b949350505050565b6000602082019050818103600083015261101581610e8f565b9050919050565b6000602082019050818103600083015261103581610eb2565b9050919050565b6000602082019050818103600083015261105581610ed5565b9050919050565b6000602082019050818103600083015261107581610ef8565b9050919050565b600060208201905081810360008301526110968184610f1b565b905092915050565b60006020820190506110b36000830184610f94565b92915050565b60006110c36110d4565b90506110cf82826112aa565b919050565b6000604051905090565b600067ffffffffffffffff8211156110f9576110f8611397565b5b602082029050602081019050919050565b600067ffffffffffffffff82111561112557611124611397565b5b61112e826113df565b9050602081019050919050565b6000819050602082019050919050565b600081519050919050565b600081519050919050565b6000602082019050919050565b600082825260208201905092915050565b600082825260208201905092915050565b600082825260208201905092915050565b60006111ac8261121a565b91506111b78361121a565b9250828210156111ca576111c96112db565b5b828203905092915050565b60006111e0826111fa565b9050919050565b60008190506111f582611494565b919050565b600073ffffffffffffffffffffffffffffffffffffffff82169050919050565b6000819050919050565b600061122f826111e7565b9050919050565b82818337600083830152505050565b60005b83811015611263578082015181840152602081019050611248565b83811115611272576000848401525b50505050565b6000600282049050600182168061129057607f821691505b602082108114156112a4576112a3611339565b5b50919050565b6112b3826113df565b810181811067ffffffffffffffff821117156112d2576112d1611397565b5b80604052505050565b7f4e487b7100000000000000000000000000000000000000000000000000000000600052601160045260246000fd5b7f4e487b7100000000000000000000000000000000000000000000000000000000600052602160045260246000fd5b7f4e487b7100000000000000000000000000000000000000000000000000000000600052602260045260246000fd5b7f4e487b7100000000000000000000000000000000000000000000000000000000600052603260045260246000fd5b7f4e487b7100000000000000000000000000000000000000000000000000000000600052604160045260246000fd5b600080fd5b600080fd5b600080fd5b600080fd5b600080fd5b6000601f19601f8301169050919050565b7f20796f75206e6f74206f776e6572200000000000000000000000000000000000600082015250565b7f6f7264657220697320616c726561647920207368697070656420000000000000600082015250565b7f6e6f7420612076616c6964206f72646572206964202000000000000000000000600082015250565b7f206e6f742070726f647563747300000000000000000000000000000000000000600082015250565b600481106114a5576114a461130a565b5b50565b6114b18161121a565b81146114bc57600080fd5b5056fea2646970667358221220cc81f240e69266f2052dccfe03fa371cdae5381ae8c569dde6d53e622c69543364736f6c63430008070033",
					"opcodes": "PUSH1 0x80 PUSH1 0x40 MSTORE CALLVALUE DUP1 ISZERO PUSH2 0x10 JUMPI PUSH1 0x0 DUP1 REVERT JUMPDEST POP CALLER PUSH1 0x1 PUSH1 0x0 PUSH2 0x100 EXP DUP2 SLOAD DUP2 PUSH20 0xFFFFFFFFFFFFFFFFFFFFFFFFFFFFFFFFFFFFFFFF MUL NOT AND SWAP1 DUP4 PUSH20 0xFFFFFFFFFFFFFFFFFFFFFFFFFFFFFFFFFFFFFFFF AND MUL OR SWAP1 SSTORE POP PUSH2 0x14F5 DUP1 PUSH2 0x61 PUSH1 0x0 CODECOPY PUSH1 0x0 RETURN INVALID PUSH1 0x80 PUSH1 0x40 MSTORE CALLVALUE DUP1 ISZERO PUSH2 0x10 JUMPI PUSH1 0x0 DUP1 REVERT JUMPDEST POP PUSH1 0x4 CALLDATASIZE LT PUSH2 0x62 JUMPI PUSH1 0x0 CALLDATALOAD PUSH1 0xE0 SHR DUP1 PUSH4 0x6D9A65D8 EQ PUSH2 0x67 JUMPI DUP1 PUSH4 0x8DA5CB5B EQ PUSH2 0x97 JUMPI DUP1 PUSH4 0xA85C38EF EQ PUSH2 0xB5 JUMPI DUP1 PUSH4 0xAFE13A62 EQ PUSH2 0xE7 JUMPI DUP1 PUSH4 0xB28445C7 EQ PUSH2 0x103 JUMPI DUP1 PUSH4 0xD09EF241 EQ PUSH2 0x11F JUMPI JUMPDEST PUSH1 0x0 DUP1 REVERT JUMPDEST PUSH2 0x81 PUSH1 0x4 DUP1 CALLDATASIZE SUB DUP2 ADD SWAP1 PUSH2 0x7C SWAP2 SWAP1 PUSH2 0xC6A JUMP JUMPDEST PUSH2 0x14F JUMP JUMPDEST PUSH1 0x40 MLOAD PUSH2 0x8E SWAP2 SWAP1 PUSH2 0x109E JUMP JUMPDEST PUSH1 0x40 MLOAD DUP1 SWAP2 SUB SWAP1 RETURN JUMPDEST PUSH2 0x9F PUSH2 0x311 JUMP JUMPDEST PUSH1 0x40 MLOAD PUSH2 0xAC SWAP2 SWAP1 PUSH2 0xFA3 JUMP JUMPDEST PUSH1 0x40 MLOAD DUP1 SWAP2 SUB SWAP1 RETURN JUMPDEST PUSH2 0xCF PUSH1 0x4 DUP1 CALLDATASIZE SUB DUP2 ADD SWAP1 PUSH2 0xCA SWAP2 SWAP1 PUSH2 0xCE2 JUMP JUMPDEST PUSH2 0x337 JUMP JUMPDEST PUSH1 0x40 MLOAD PUSH2 0xDE SWAP4 SWAP3 SWAP2 SWAP1 PUSH2 0xFBE JUMP JUMPDEST PUSH1 0x40 MLOAD DUP1 SWAP2 SUB SWAP1 RETURN JUMPDEST PUSH2 0x101 PUSH1 0x4 DUP1 CALLDATASIZE SUB DUP2 ADD SWAP1 PUSH2 0xFC SWAP2 SWAP1 PUSH2 0xCE2 JUMP JUMPDEST PUSH2 0x426 JUMP JUMPDEST STOP JUMPDEST PUSH2 0x11D PUSH1 0x4 DUP1 CALLDATASIZE SUB DUP2 ADD SWAP1 PUSH2 0x118 SWAP2 SWAP1 PUSH2 0xD0F JUMP JUMPDEST PUSH2 0x6EC JUMP JUMPDEST STOP JUMPDEST PUSH2 0x139 PUSH1 0x4 DUP1 CALLDATASIZE SUB DUP2 ADD SWAP1 PUSH2 0x134 SWAP2 SWAP1 PUSH2 0xCE2 JUMP JUMPDEST PUSH2 0x809 JUMP JUMPDEST PUSH1 0x40 MLOAD PUSH2 0x146 SWAP2 SWAP1 PUSH2 0x107C JUMP JUMPDEST PUSH1 0x40 MLOAD DUP1 SWAP2 SUB SWAP1 RETURN JUMPDEST PUSH1 0x0 DUP1 DUP3 MLOAD GT PUSH2 0x194 JUMPI PUSH1 0x40 MLOAD PUSH32 0x8C379A000000000000000000000000000000000000000000000000000000000 DUP2 MSTORE PUSH1 0x4 ADD PUSH2 0x18B SWAP1 PUSH2 0x105C JUMP JUMPDEST PUSH1 0x40 MLOAD DUP1 SWAP2 SUB SWAP1 REVERT JUMPDEST PUSH2 0x19C PUSH2 0xA07 JUMP JUMPDEST CALLER DUP2 PUSH1 0x0 ADD SWAP1 PUSH20 0xFFFFFFFFFFFFFFFFFFFFFFFFFFFFFFFFFFFFFFFF AND SWAP1 DUP2 PUSH20 0xFFFFFFFFFFFFFFFFFFFFFFFFFFFFFFFFFFFFFFFF AND DUP2 MSTORE POP POP DUP4 DUP2 PUSH1 0x20 ADD DUP2 SWAP1 MSTORE POP DUP3 DUP2 PUSH1 0x40 ADD DUP2 SWAP1 MSTORE POP PUSH1 0x0 DUP2 PUSH1 0x60 ADD SWAP1 PUSH1 0x3 DUP2 GT ISZERO PUSH2 0x1FF JUMPI PUSH2 0x1FE PUSH2 0x130A JUMP JUMPDEST JUMPDEST SWAP1 DUP2 PUSH1 0x3 DUP2 GT ISZERO PUSH2 0x213 JUMPI PUSH2 0x212 PUSH2 0x130A JUMP JUMPDEST JUMPDEST DUP2 MSTORE POP POP PUSH1 0x0 DUP2 SWAP1 DUP1 PUSH1 0x1 DUP2 SLOAD ADD DUP1 DUP3 SSTORE DUP1 SWAP2 POP POP PUSH1 0x1 SWAP1 SUB SWAP1 PUSH1 0x0 MSTORE PUSH1 0x20 PUSH1 0x0 KECCAK256 SWAP1 PUSH1 0x4 MUL ADD PUSH1 0x0 SWAP1 SWAP2 SWAP1 SWAP2 SWAP1 SWAP2 POP PUSH1 0x0 DUP3 ADD MLOAD DUP2 PUSH1 0x0 ADD PUSH1 0x0 PUSH2 0x100 EXP DUP2 SLOAD DUP2 PUSH20 0xFFFFFFFFFFFFFFFFFFFFFFFFFFFFFFFFFFFFFFFF MUL NOT AND SWAP1 DUP4 PUSH20 0xFFFFFFFFFFFFFFFFFFFFFFFFFFFFFFFFFFFFFFFF AND MUL OR SWAP1 SSTORE POP PUSH1 0x20 DUP3 ADD MLOAD DUP2 PUSH1 0x1 ADD SWAP1 DUP1 MLOAD SWAP1 PUSH1 0x20 ADD SWAP1 PUSH2 0x2A6 SWAP3 SWAP2 SWAP1 PUSH2 0xA57 JUMP JUMPDEST POP PUSH1 0x40 DUP3 ADD MLOAD DUP2 PUSH1 0x2 ADD SWAP1 DUP1 MLOAD SWAP1 PUSH1 0x20 ADD SWAP1 PUSH2 0x2C3 SWAP3 SWAP2 SWAP1 PUSH2 0xADD JUMP JUMPDEST POP PUSH1 0x60 DUP3 ADD MLOAD DUP2 PUSH1 0x3 ADD PUSH1 0x0 PUSH2 0x100 EXP DUP2 SLOAD DUP2 PUSH1 0xFF MUL NOT AND SWAP1 DUP4 PUSH1 0x3 DUP2 GT ISZERO PUSH2 0x2EF JUMPI PUSH2 0x2EE PUSH2 0x130A JUMP JUMPDEST JUMPDEST MUL OR SWAP1 SSTORE POP POP POP PUSH1 0x1 PUSH1 0x0 DUP1 SLOAD SWAP1 POP PUSH2 0x308 SWAP2 SWAP1 PUSH2 0x11A1 JUMP JUMPDEST SWAP2 POP POP SWAP3 SWAP2 POP POP JUMP JUMPDEST PUSH1 0x1 PUSH1 0x0 SWAP1 SLOAD SWAP1 PUSH2 0x100 EXP SWAP1 DIV PUSH20 0xFFFFFFFFFFFFFFFFFFFFFFFFFFFFFFFFFFFFFFFF AND DUP2 JUMP JUMPDEST PUSH1 0x0 DUP2 DUP2 SLOAD DUP2 LT PUSH2 0x347 JUMPI PUSH1 0x0 DUP1 REVERT JUMPDEST SWAP1 PUSH1 0x0 MSTORE PUSH1 0x20 PUSH1 0x0 KECCAK256 SWAP1 PUSH1 0x4 MUL ADD PUSH1 0x0 SWAP2 POP SWAP1 POP DUP1 PUSH1 0x0 ADD PUSH1 0x0 SWAP1 SLOAD SWAP1 PUSH2 0x100 EXP SWAP1 DIV PUSH20 0xFFFFFFFFFFFFFFFFFFFFFFFFFFFFFFFFFFFFFFFF AND SWAP1 DUP1 PUSH1 0x1 ADD DUP1 SLOAD PUSH2 0x390 SWAP1 PUSH2 0x1278 JUMP JUMPDEST DUP1 PUSH1 0x1F ADD PUSH1 0x20 DUP1 SWAP2 DIV MUL PUSH1 0x20 ADD PUSH1 0x40 MLOAD SWAP1 DUP2 ADD PUSH1 0x40 MSTORE DUP1 SWAP3 SWAP2 SWAP1 DUP2 DUP2 MSTORE PUSH1 0x20 ADD DUP3 DUP1 SLOAD PUSH2 0x3BC SWAP1 PUSH2 0x1278 JUMP JUMPDEST DUP1 ISZERO PUSH2 0x409 JUMPI DUP1 PUSH1 0x1F LT PUSH2 0x3DE JUMPI PUSH2 0x100 DUP1 DUP4 SLOAD DIV MUL DUP4 MSTORE SWAP2 PUSH1 0x20 ADD SWAP2 PUSH2 0x409 JUMP JUMPDEST DUP3 ADD SWAP2 SWAP1 PUSH1 0x0 MSTORE PUSH1 0x20 PUSH1 0x0 KECCAK256 SWAP1 JUMPDEST DUP2 SLOAD DUP2 MSTORE SWAP1 PUSH1 0x1 ADD SWAP1 PUSH1 0x20 ADD DUP1 DUP4 GT PUSH2 0x3EC JUMPI DUP3 SWAP1 SUB PUSH1 0x1F AND DUP3 ADD SWAP2 JUMPDEST POP POP POP POP POP SWAP1 DUP1 PUSH1 0x3 ADD PUSH1 0x0 SWAP1 SLOAD SWAP1 PUSH2 0x100 EXP SWAP1 DIV PUSH1 0xFF AND SWAP1 POP DUP4 JUMP JUMPDEST CALLER PUSH20 0xFFFFFFFFFFFFFFFFFFFFFFFFFFFFFFFFFFFFFFFF AND PUSH1 0x1 PUSH1 0x0 SWAP1 SLOAD SWAP1 PUSH2 0x100 EXP SWAP1 DIV PUSH20 0xFFFFFFFFFFFFFFFFFFFFFFFFFFFFFFFFFFFFFFFF AND PUSH20 0xFFFFFFFFFFFFFFFFFFFFFFFFFFFFFFFFFFFFFFFF AND EQ PUSH2 0x4B6 JUMPI PUSH1 0x40 MLOAD PUSH32 0x8C379A000000000000000000000000000000000000000000000000000000000 DUP2 MSTORE PUSH1 0x4 ADD PUSH2 0x4AD SWAP1 PUSH2 0xFFC JUMP JUMPDEST PUSH1 0x40 MLOAD DUP1 SWAP2 SUB SWAP1 REVERT JUMPDEST PUSH1 0x0 DUP1 SLOAD SWAP1 POP DUP2 LT PUSH2 0x4FD JUMPI PUSH1 0x40 MLOAD PUSH32 0x8C379A000000000000000000000000000000000000000000000000000000000 DUP2 MSTORE PUSH1 0x4 ADD PUSH2 0x4F4 SWAP1 PUSH2 0x103C JUMP JUMPDEST PUSH1 0x40 MLOAD DUP1 SWAP2 SUB SWAP1 REVERT JUMPDEST PUSH1 0x0 DUP1 DUP3 DUP2 SLOAD DUP2 LT PUSH2 0x512 JUMPI PUSH2 0x511 PUSH2 0x1368 JUMP JUMPDEST JUMPDEST SWAP1 PUSH1 0x0 MSTORE PUSH1 0x20 PUSH1 0x0 KECCAK256 SWAP1 PUSH1 0x4 MUL ADD SWAP1 POP PUSH1 0x3 DUP1 DUP2 GT ISZERO PUSH2 0x535 JUMPI PUSH2 0x534 PUSH2 0x130A JUMP JUMPDEST JUMPDEST DUP2 PUSH1 0x3 ADD PUSH1 0x0 SWAP1 SLOAD SWAP1 PUSH2 0x100 EXP SWAP1 DIV PUSH1 0xFF AND PUSH1 0x3 DUP2 GT ISZERO PUSH2 0x559 JUMPI PUSH2 0x558 PUSH2 0x130A JUMP JUMPDEST JUMPDEST EQ ISZERO PUSH2 0x59A JUMPI PUSH1 0x40 MLOAD PUSH32 0x8C379A000000000000000000000000000000000000000000000000000000000 DUP2 MSTORE PUSH1 0x4 ADD PUSH2 0x591 SWAP1 PUSH2 0x101C JUMP JUMPDEST PUSH1 0x40 MLOAD DUP1 SWAP2 SUB SWAP1 REVERT JUMPDEST PUSH1 0x0 PUSH1 0x3 DUP2 GT ISZERO PUSH2 0x5AE JUMPI PUSH2 0x5AD PUSH2 0x130A JUMP JUMPDEST JUMPDEST DUP2 PUSH1 0x3 ADD PUSH1 0x0 SWAP1 SLOAD SWAP1 PUSH2 0x100 EXP SWAP1 DIV PUSH1 0xFF AND PUSH1 0x3 DUP2 GT ISZERO PUSH2 0x5D2 JUMPI PUSH2 0x5D1 PUSH2 0x130A JUMP JUMPDEST JUMPDEST EQ ISZERO PUSH2 0x60A JUMPI PUSH1 0x1 DUP2 PUSH1 0x3 ADD PUSH1 0x0 PUSH2 0x100 EXP DUP2 SLOAD DUP2 PUSH1 0xFF MUL NOT AND SWAP1 DUP4 PUSH1 0x3 DUP2 GT ISZERO PUSH2 0x600 JUMPI PUSH2 0x5FF PUSH2 0x130A JUMP JUMPDEST JUMPDEST MUL OR SWAP1 SSTORE POP PUSH2 0x6E8 JUMP JUMPDEST PUSH1 0x1 PUSH1 0x3 DUP2 GT ISZERO PUSH2 0x61E JUMPI PUSH2 0x61D PUSH2 0x130A JUMP JUMPDEST JUMPDEST DUP2 PUSH1 0x3 ADD PUSH1 0x0 SWAP1 SLOAD SWAP1 PUSH2 0x100 EXP SWAP1 DIV PUSH1 0xFF AND PUSH1 0x3 DUP2 GT ISZERO PUSH2 0x642 JUMPI PUSH2 0x641 PUSH2 0x130A JUMP JUMPDEST JUMPDEST EQ ISZERO PUSH2 0x67A JUMPI PUSH1 0x2 DUP2 PUSH1 0x3 ADD PUSH1 0x0 PUSH2 0x100 EXP DUP2 SLOAD DUP2 PUSH1 0xFF MUL NOT AND SWAP1 DUP4 PUSH1 0x3 DUP2 GT ISZERO PUSH2 0x670 JUMPI PUSH2 0x66F PUSH2 0x130A JUMP JUMPDEST JUMPDEST MUL OR SWAP1 SSTORE POP PUSH2 0x6E7 JUMP JUMPDEST PUSH1 0x2 PUSH1 0x3 DUP2 GT ISZERO PUSH2 0x68E JUMPI PUSH2 0x68D PUSH2 0x130A JUMP JUMPDEST JUMPDEST DUP2 PUSH1 0x3 ADD PUSH1 0x0 SWAP1 SLOAD SWAP1 PUSH2 0x100 EXP SWAP1 DIV PUSH1 0xFF AND PUSH1 0x3 DUP2 GT ISZERO PUSH2 0x6B2 JUMPI PUSH2 0x6B1 PUSH2 0x130A JUMP JUMPDEST JUMPDEST EQ ISZERO PUSH2 0x6E6 JUMPI PUSH1 0x3 DUP2 PUSH1 0x3 ADD PUSH1 0x0 PUSH2 0x100 EXP DUP2 SLOAD DUP2 PUSH1 0xFF MUL NOT AND SWAP1 DUP4 PUSH1 0x3 DUP2 GT ISZERO PUSH2 0x6E0 JUMPI PUSH2 0x6DF PUSH2 0x130A JUMP JUMPDEST JUMPDEST MUL OR SWAP1 SSTORE POP JUMPDEST JUMPDEST JUMPDEST POP POP JUMP JUMPDEST PUSH1 0x0 DUP1 SLOAD SWAP1 POP DUP3 LT PUSH2 0x733 JUMPI PUSH1 0x40 MLOAD PUSH32 0x8C379A000000000000000000000000000000000000000000000000000000000 DUP2 MSTORE PUSH1 0x4 ADD PUSH2 0x72A SWAP1 PUSH2 0x103C JUMP JUMPDEST PUSH1 0x40 MLOAD DUP1 SWAP2 SUB SWAP1 REVERT JUMPDEST PUSH1 0x0 DUP1 DUP4 DUP2 SLOAD DUP2 LT PUSH2 0x748 JUMPI PUSH2 0x747 PUSH2 0x1368 JUMP JUMPDEST JUMPDEST SWAP1 PUSH1 0x0 MSTORE PUSH1 0x20 PUSH1 0x0 KECCAK256 SWAP1 PUSH1 0x4 MUL ADD SWAP1 POP CALLER PUSH20 0xFFFFFFFFFFFFFFFFFFFFFFFFFFFFFFFFFFFFFFFF AND DUP2 PUSH1 0x0 ADD PUSH1 0x0 SWAP1 SLOAD SWAP1 PUSH2 0x100 EXP SWAP1 DIV PUSH20 0xFFFFFFFFFFFFFFFFFFFFFFFFFFFFFFFFFFFFFFFF AND PUSH20 0xFFFFFFFFFFFFFFFFFFFFFFFFFFFFFFFFFFFFFFFF AND EQ ISZERO PUSH2 0x7EB JUMPI PUSH1 0x40 MLOAD PUSH32 0x8C379A000000000000000000000000000000000000000000000000000000000 DUP2 MSTORE PUSH1 0x4 ADD PUSH2 0x7E2 SWAP1 PUSH2 0xFFC JUMP JUMPDEST PUSH1 0x40 MLOAD DUP1 SWAP2 SUB SWAP1 REVERT JUMPDEST DUP2 DUP2 PUSH1 0x1 ADD SWAP1 DUP1 MLOAD SWAP1 PUSH1 0x20 ADD SWAP1 PUSH2 0x803 SWAP3 SWAP2 SWAP1 PUSH2 0xA57 JUMP JUMPDEST POP POP POP POP JUMP JUMPDEST PUSH2 0x811 PUSH2 0xA07 JUMP JUMPDEST PUSH1 0x0 DUP1 SLOAD SWAP1 POP DUP3 LT PUSH2 0x858 JUMPI PUSH1 0x40 MLOAD PUSH32 0x8C379A000000000000000000000000000000000000000000000000000000000 DUP2 MSTORE PUSH1 0x4 ADD PUSH2 0x84F SWAP1 PUSH2 0x103C JUMP JUMPDEST PUSH1 0x40 MLOAD DUP1 SWAP2 SUB SWAP1 REVERT JUMPDEST PUSH1 0x0 DUP3 DUP2 SLOAD DUP2 LT PUSH2 0x86C JUMPI PUSH2 0x86B PUSH2 0x1368 JUMP JUMPDEST JUMPDEST SWAP1 PUSH1 0x0 MSTORE PUSH1 0x20 PUSH1 0x0 KECCAK256 SWAP1 PUSH1 0x4 MUL ADD PUSH1 0x40 MLOAD DUP1 PUSH1 0x80 ADD PUSH1 0x40 MSTORE SWAP1 DUP2 PUSH1 0x0 DUP3 ADD PUSH1 0x0 SWAP1 SLOAD SWAP1 PUSH2 0x100 EXP SWAP1 DIV PUSH20 0xFFFFFFFFFFFFFFFFFFFFFFFFFFFFFFFFFFFFFFFF AND PUSH20 0xFFFFFFFFFFFFFFFFFFFFFFFFFFFFFFFFFFFFFFFF AND PUSH20 0xFFFFFFFFFFFFFFFFFFFFFFFFFFFFFFFFFFFFFFFF AND DUP2 MSTORE PUSH1 0x20 ADD PUSH1 0x1 DUP3 ADD DUP1 SLOAD PUSH2 0x8EB SWAP1 PUSH2 0x1278 JUMP JUMPDEST DUP1 PUSH1 0x1F ADD PUSH1 0x20 DUP1 SWAP2 DIV MUL PUSH1 0x20 ADD PUSH1 0x40 MLOAD SWAP1 DUP2 ADD PUSH1 0x40 MSTORE DUP1 SWAP3 SWAP2 SWAP1 DUP2 DUP2 MSTORE PUSH1 0x20 ADD DUP3 DUP1 SLOAD PUSH2 0x917 SWAP1 PUSH2 0x1278 JUMP JUMPDEST DUP1 ISZERO PUSH2 0x964 JUMPI DUP1 PUSH1 0x1F LT PUSH2 0x939 JUMPI PUSH2 0x100 DUP1 DUP4 SLOAD DIV MUL DUP4 MSTORE SWAP2 PUSH1 0x20 ADD SWAP2 PUSH2 0x964 JUMP JUMPDEST DUP3 ADD SWAP2 SWAP1 PUSH1 0x0 MSTORE PUSH1 0x20 PUSH1 0x0 KECCAK256 SWAP1 JUMPDEST DUP2 SLOAD DUP2 MSTORE SWAP1 PUSH1 0x1 ADD SWAP1 PUSH1 0x20 ADD DUP1 DUP4 GT PUSH2 0x947 JUMPI DUP3 SWAP1 SUB PUSH1 0x1F AND DUP3 ADD SWAP2 JUMPDEST POP POP POP POP POP DUP2 MSTORE PUSH1 0x20 ADD PUSH1 0x2 DUP3 ADD DUP1 SLOAD DUP1 PUSH1 0x20 MUL PUSH1 0x20 ADD PUSH1 0x40 MLOAD SWAP1 DUP2 ADD PUSH1 0x40 MSTORE DUP1 SWAP3 SWAP2 SWAP1 DUP2 DUP2 MSTORE PUSH1 0x20 ADD DUP3 DUP1 SLOAD DUP1 ISZERO PUSH2 0x9BC JUMPI PUSH1 0x20 MUL DUP3 ADD SWAP2 SWAP1 PUSH1 0x0 MSTORE PUSH1 0x20 PUSH1 0x0 KECCAK256 SWAP1 JUMPDEST DUP2 SLOAD DUP2 MSTORE PUSH1 0x20 ADD SWAP1 PUSH1 0x1 ADD SWAP1 DUP1 DUP4 GT PUSH2 0x9A8 JUMPI JUMPDEST POP POP POP POP POP DUP2 MSTORE PUSH1 0x20 ADD PUSH1 0x3 DUP3 ADD PUSH1 0x0 SWAP1 SLOAD SWAP1 PUSH2 0x100 EXP SWAP1 DIV PUSH1 0xFF AND PUSH1 0x3 DUP2 GT ISZERO PUSH2 0x9EA JUMPI PUSH2 0x9E9 PUSH2 0x130A JUMP JUMPDEST JUMPDEST PUSH1 0x3 DUP2 GT ISZERO PUSH2 0x9FC JUMPI PUSH2 0x9FB PUSH2 0x130A JUMP JUMPDEST JUMPDEST DUP2 MSTORE POP POP SWAP1 POP SWAP2 SWAP1 POP JUMP JUMPDEST PUSH1 0x40 MLOAD DUP1 PUSH1 0x80 ADD PUSH1 0x40 MSTORE DUP1 PUSH1 0x0 PUSH20 0xFFFFFFFFFFFFFFFFFFFFFFFFFFFFFFFFFFFFFFFF AND DUP2 MSTORE PUSH1 0x20 ADD PUSH1 0x60 DUP2 MSTORE PUSH1 0x20 ADD PUSH1 0x60 DUP2 MSTORE PUSH1 0x20 ADD PUSH1 0x0 PUSH1 0x3 DUP2 GT ISZERO PUSH2 0xA51 JUMPI PUSH2 0xA50 PUSH2 0x130A JUMP JUMPDEST JUMPDEST DUP2 MSTORE POP SWAP1 JUMP JUMPDEST DUP3 DUP1 SLOAD PUSH2 0xA63 SWAP1 PUSH2 0x1278 JUMP JUMPDEST SWAP1 PUSH1 0x0 MSTORE PUSH1 0x20 PUSH1 0x0 KECCAK256 SWAP1 PUSH1 0x1F ADD PUSH1 0x20 SWAP1 DIV DUP2 ADD SWAP3 DUP3 PUSH2 0xA85 JUMPI PUSH1 0x0 DUP6 SSTORE PUSH2 0xACC JUMP JUMPDEST DUP3 PUSH1 0x1F LT PUSH2 0xA9E JUMPI DUP1 MLOAD PUSH1 0xFF NOT AND DUP4 DUP1 ADD OR DUP6 SSTORE PUSH2 0xACC JUMP JUMPDEST DUP3 DUP1 ADD PUSH1 0x1 ADD DUP6 SSTORE DUP3 ISZERO PUSH2 0xACC JUMPI SWAP2 DUP3 ADD JUMPDEST DUP3 DUP2 GT ISZERO PUSH2 0xACB JUMPI DUP3 MLOAD DUP3 SSTORE SWAP2 PUSH1 0x20 ADD SWAP2 SWAP1 PUSH1 0x1 ADD SWAP1 PUSH2 0xAB0 JUMP JUMPDEST JUMPDEST POP SWAP1 POP PUSH2 0xAD9 SWAP2 SWAP1 PUSH2 0xB2A JUMP JUMPDEST POP SWAP1 JUMP JUMPDEST DUP3 DUP1 SLOAD DUP3 DUP3 SSTORE SWAP1 PUSH1 0x0 MSTORE PUSH1 0x20 PUSH1 0x0 KECCAK256 SWAP1 DUP2 ADD SWAP3 DUP3 ISZERO PUSH2 0xB19 JUMPI SWAP2 PUSH1 0x20 MUL DUP3 ADD JUMPDEST DUP3 DUP2 GT ISZERO PUSH2 0xB18 JUMPI DUP3 MLOAD DUP3 SSTORE SWAP2 PUSH1 0x20 ADD SWAP2 SWAP1 PUSH1 0x1 ADD SWAP1 PUSH2 0xAFD JUMP JUMPDEST JUMPDEST POP SWAP1 POP PUSH2 0xB26 SWAP2 SWAP1 PUSH2 0xB2A JUMP JUMPDEST POP SWAP1 JUMP JUMPDEST JUMPDEST DUP1 DUP3 GT ISZERO PUSH2 0xB43 JUMPI PUSH1 0x0 DUP2 PUSH1 0x0 SWAP1 SSTORE POP PUSH1 0x1 ADD PUSH2 0xB2B JUMP JUMPDEST POP SWAP1 JUMP JUMPDEST PUSH1 0x0 PUSH2 0xB5A PUSH2 0xB55 DUP5 PUSH2 0x10DE JUMP JUMPDEST PUSH2 0x10B9 JUMP JUMPDEST SWAP1 POP DUP1 DUP4 DUP3 MSTORE PUSH1 0x20 DUP3 ADD SWAP1 POP DUP3 DUP6 PUSH1 0x20 DUP7 MUL DUP3 ADD GT ISZERO PUSH2 0xB7D JUMPI PUSH2 0xB7C PUSH2 0x13CB JUMP JUMPDEST JUMPDEST PUSH1 0x0 JUMPDEST DUP6 DUP2 LT ISZERO PUSH2 0xBAD JUMPI DUP2 PUSH2 0xB93 DUP9 DUP3 PUSH2 0xC55 JUMP JUMPDEST DUP5 MSTORE PUSH1 0x20 DUP5 ADD SWAP4 POP PUSH1 0x20 DUP4 ADD SWAP3 POP POP PUSH1 0x1 DUP2 ADD SWAP1 POP PUSH2 0xB80 JUMP JUMPDEST POP POP POP SWAP4 SWAP3 POP POP POP JUMP JUMPDEST PUSH1 0x0 PUSH2 0xBCA PUSH2 0xBC5 DUP5 PUSH2 0x110A JUMP JUMPDEST PUSH2 0x10B9 JUMP JUMPDEST SWAP1 POP DUP3 DUP2 MSTORE PUSH1 0x20 DUP2 ADD DUP5 DUP5 DUP5 ADD GT ISZERO PUSH2 0xBE6 JUMPI PUSH2 0xBE5 PUSH2 0x13D0 JUMP JUMPDEST JUMPDEST PUSH2 0xBF1 DUP5 DUP3 DUP6 PUSH2 0x1236 JUMP JUMPDEST POP SWAP4 SWAP3 POP POP POP JUMP JUMPDEST PUSH1 0x0 DUP3 PUSH1 0x1F DUP4 ADD SLT PUSH2 0xC0E JUMPI PUSH2 0xC0D PUSH2 0x13C6 JUMP JUMPDEST JUMPDEST DUP2 CALLDATALOAD PUSH2 0xC1E DUP5 DUP3 PUSH1 0x20 DUP7 ADD PUSH2 0xB47 JUMP JUMPDEST SWAP2 POP POP SWAP3 SWAP2 POP POP JUMP JUMPDEST PUSH1 0x0 DUP3 PUSH1 0x1F DUP4 ADD SLT PUSH2 0xC3C JUMPI PUSH2 0xC3B PUSH2 0x13C6 JUMP JUMPDEST JUMPDEST DUP2 CALLDATALOAD PUSH2 0xC4C DUP5 DUP3 PUSH1 0x20 DUP7 ADD PUSH2 0xBB7 JUMP JUMPDEST SWAP2 POP POP SWAP3 SWAP2 POP POP JUMP JUMPDEST PUSH1 0x0 DUP2 CALLDATALOAD SWAP1 POP PUSH2 0xC64 DUP2 PUSH2 0x14A8 JUMP JUMPDEST SWAP3 SWAP2 POP POP JUMP JUMPDEST PUSH1 0x0 DUP1 PUSH1 0x40 DUP4 DUP6 SUB SLT ISZERO PUSH2 0xC81 JUMPI PUSH2 0xC80 PUSH2 0x13DA JUMP JUMPDEST JUMPDEST PUSH1 0x0 DUP4 ADD CALLDATALOAD PUSH8 0xFFFFFFFFFFFFFFFF DUP2 GT ISZERO PUSH2 0xC9F JUMPI PUSH2 0xC9E PUSH2 0x13D5 JUMP JUMPDEST JUMPDEST PUSH2 0xCAB DUP6 DUP3 DUP7 ADD PUSH2 0xC27 JUMP JUMPDEST SWAP3 POP POP PUSH1 0x20 DUP4 ADD CALLDATALOAD PUSH8 0xFFFFFFFFFFFFFFFF DUP2 GT ISZERO PUSH2 0xCCC JUMPI PUSH2 0xCCB PUSH2 0x13D5 JUMP JUMPDEST JUMPDEST PUSH2 0xCD8 DUP6 DUP3 DUP7 ADD PUSH2 0xBF9 JUMP JUMPDEST SWAP2 POP POP SWAP3 POP SWAP3 SWAP1 POP JUMP JUMPDEST PUSH1 0x0 PUSH1 0x20 DUP3 DUP5 SUB SLT ISZERO PUSH2 0xCF8 JUMPI PUSH2 0xCF7 PUSH2 0x13DA JUMP JUMPDEST JUMPDEST PUSH1 0x0 PUSH2 0xD06 DUP5 DUP3 DUP6 ADD PUSH2 0xC55 JUMP JUMPDEST SWAP2 POP POP SWAP3 SWAP2 POP POP JUMP JUMPDEST PUSH1 0x0 DUP1 PUSH1 0x40 DUP4 DUP6 SUB SLT ISZERO PUSH2 0xD26 JUMPI PUSH2 0xD25 PUSH2 0x13DA JUMP JUMPDEST JUMPDEST PUSH1 0x0 PUSH2 0xD34 DUP6 DUP3 DUP7 ADD PUSH2 0xC55 JUMP JUMPDEST SWAP3 POP POP PUSH1 0x20 DUP4 ADD CALLDATALOAD PUSH8 0xFFFFFFFFFFFFFFFF DUP2 GT ISZERO PUSH2 0xD55 JUMPI PUSH2 0xD54 PUSH2 0x13D5 JUMP JUMPDEST JUMPDEST PUSH2 0xD61 DUP6 DUP3 DUP7 ADD PUSH2 0xC27 JUMP JUMPDEST SWAP2 POP POP SWAP3 POP SWAP3 SWAP1 POP JUMP JUMPDEST PUSH1 0x0 PUSH2 0xD77 DUP4 DUP4 PUSH2 0xF85 JUMP JUMPDEST PUSH1 0x20 DUP4 ADD SWAP1 POP SWAP3 SWAP2 POP POP JUMP JUMPDEST PUSH2 0xD8C DUP2 PUSH2 0x11D5 JUMP JUMPDEST DUP3 MSTORE POP POP JUMP JUMPDEST PUSH2 0xD9B DUP2 PUSH2 0x11D5 JUMP JUMPDEST DUP3 MSTORE POP POP JUMP JUMPDEST PUSH1 0x0 PUSH2 0xDAC DUP3 PUSH2 0x114B JUMP JUMPDEST PUSH2 0xDB6 DUP2 DUP6 PUSH2 0x116E JUMP JUMPDEST SWAP4 POP PUSH2 0xDC1 DUP4 PUSH2 0x113B JUMP JUMPDEST DUP1 PUSH1 0x0 JUMPDEST DUP4 DUP2 LT ISZERO PUSH2 0xDF2 JUMPI DUP2 MLOAD PUSH2 0xDD9 DUP9 DUP3 PUSH2 0xD6B JUMP JUMPDEST SWAP8 POP PUSH2 0xDE4 DUP4 PUSH2 0x1161 JUMP JUMPDEST SWAP3 POP POP PUSH1 0x1 DUP2 ADD SWAP1 POP PUSH2 0xDC5 JUMP JUMPDEST POP DUP6 SWAP4 POP POP POP POP SWAP3 SWAP2 POP POP JUMP JUMPDEST PUSH2 0xE08 DUP2 PUSH2 0x1224 JUMP JUMPDEST DUP3 MSTORE POP POP JUMP JUMPDEST PUSH2 0xE17 DUP2 PUSH2 0x1224 JUMP JUMPDEST DUP3 MSTORE POP POP JUMP JUMPDEST PUSH1 0x0 PUSH2 0xE28 DUP3 PUSH2 0x1156 JUMP JUMPDEST PUSH2 0xE32 DUP2 DUP6 PUSH2 0x117F JUMP JUMPDEST SWAP4 POP PUSH2 0xE42 DUP2 DUP6 PUSH1 0x20 DUP7 ADD PUSH2 0x1245 JUMP JUMPDEST PUSH2 0xE4B DUP2 PUSH2 0x13DF JUMP JUMPDEST DUP5 ADD SWAP2 POP POP SWAP3 SWAP2 POP POP JUMP JUMPDEST PUSH1 0x0 PUSH2 0xE61 DUP3 PUSH2 0x1156 JUMP JUMPDEST PUSH2 0xE6B DUP2 DUP6 PUSH2 0x1190 JUMP JUMPDEST SWAP4 POP PUSH2 0xE7B DUP2 DUP6 PUSH1 0x20 DUP7 ADD PUSH2 0x1245 JUMP JUMPDEST PUSH2 0xE84 DUP2 PUSH2 0x13DF JUMP JUMPDEST DUP5 ADD SWAP2 POP POP SWAP3 SWAP2 POP POP JUMP JUMPDEST PUSH1 0x0 PUSH2 0xE9C PUSH1 0xF DUP4 PUSH2 0x1190 JUMP JUMPDEST SWAP2 POP PUSH2 0xEA7 DUP3 PUSH2 0x13F0 JUMP JUMPDEST PUSH1 0x20 DUP3 ADD SWAP1 POP SWAP2 SWAP1 POP JUMP JUMPDEST PUSH1 0x0 PUSH2 0xEBF PUSH1 0x1A DUP4 PUSH2 0x1190 JUMP JUMPDEST SWAP2 POP PUSH2 0xECA DUP3 PUSH2 0x1419 JUMP JUMPDEST PUSH1 0x20 DUP3 ADD SWAP1 POP SWAP2 SWAP1 POP JUMP JUMPDEST PUSH1 0x0 PUSH2 0xEE2 PUSH1 0x16 DUP4 PUSH2 0x1190 JUMP JUMPDEST SWAP2 POP PUSH2 0xEED DUP3 PUSH2 0x1442 JUMP JUMPDEST PUSH1 0x20 DUP3 ADD SWAP1 POP SWAP2 SWAP1 POP JUMP JUMPDEST PUSH1 0x0 PUSH2 0xF05 PUSH1 0xD DUP4 PUSH2 0x1190 JUMP JUMPDEST SWAP2 POP PUSH2 0xF10 DUP3 PUSH2 0x146B JUMP JUMPDEST PUSH1 0x20 DUP3 ADD SWAP1 POP SWAP2 SWAP1 POP JUMP JUMPDEST PUSH1 0x0 PUSH1 0x80 DUP4 ADD PUSH1 0x0 DUP4 ADD MLOAD PUSH2 0xF33 PUSH1 0x0 DUP7 ADD DUP3 PUSH2 0xD83 JUMP JUMPDEST POP PUSH1 0x20 DUP4 ADD MLOAD DUP5 DUP3 SUB PUSH1 0x20 DUP7 ADD MSTORE PUSH2 0xF4B DUP3 DUP3 PUSH2 0xE1D JUMP JUMPDEST SWAP2 POP POP PUSH1 0x40 DUP4 ADD MLOAD DUP5 DUP3 SUB PUSH1 0x40 DUP7 ADD MSTORE PUSH2 0xF65 DUP3 DUP3 PUSH2 0xDA1 JUMP JUMPDEST SWAP2 POP POP PUSH1 0x60 DUP4 ADD MLOAD PUSH2 0xF7A PUSH1 0x60 DUP7 ADD DUP3 PUSH2 0xDFF JUMP JUMPDEST POP DUP1 SWAP2 POP POP SWAP3 SWAP2 POP POP JUMP JUMPDEST PUSH2 0xF8E DUP2 PUSH2 0x121A JUMP JUMPDEST DUP3 MSTORE POP POP JUMP JUMPDEST PUSH2 0xF9D DUP2 PUSH2 0x121A JUMP JUMPDEST DUP3 MSTORE POP POP JUMP JUMPDEST PUSH1 0x0 PUSH1 0x20 DUP3 ADD SWAP1 POP PUSH2 0xFB8 PUSH1 0x0 DUP4 ADD DUP5 PUSH2 0xD92 JUMP JUMPDEST SWAP3 SWAP2 POP POP JUMP JUMPDEST PUSH1 0x0 PUSH1 0x60 DUP3 ADD SWAP1 POP PUSH2 0xFD3 PUSH1 0x0 DUP4 ADD DUP7 PUSH2 0xD92 JUMP JUMPDEST DUP2 DUP2 SUB PUSH1 0x20 DUP4 ADD MSTORE PUSH2 0xFE5 DUP2 DUP6 PUSH2 0xE56 JUMP JUMPDEST SWAP1 POP PUSH2 0xFF4 PUSH1 0x40 DUP4 ADD DUP5 PUSH2 0xE0E JUMP JUMPDEST SWAP5 SWAP4 POP POP POP POP JUMP JUMPDEST PUSH1 0x0 PUSH1 0x20 DUP3 ADD SWAP1 POP DUP2 DUP2 SUB PUSH1 0x0 DUP4 ADD MSTORE PUSH2 0x1015 DUP2 PUSH2 0xE8F JUMP JUMPDEST SWAP1 POP SWAP2 SWAP1 POP JUMP JUMPDEST PUSH1 0x0 PUSH1 0x20 DUP3 ADD SWAP1 POP DUP2 DUP2 SUB PUSH1 0x0 DUP4 ADD MSTORE PUSH2 0x1035 DUP2 PUSH2 0xEB2 JUMP JUMPDEST SWAP1 POP SWAP2 SWAP1 POP JUMP JUMPDEST PUSH1 0x0 PUSH1 0x20 DUP3 ADD SWAP1 POP DUP2 DUP2 SUB PUSH1 0x0 DUP4 ADD MSTORE PUSH2 0x1055 DUP2 PUSH2 0xED5 JUMP JUMPDEST SWAP1 POP SWAP2 SWAP1 POP JUMP JUMPDEST PUSH1 0x0 PUSH1 0x20 DUP3 ADD SWAP1 POP DUP2 DUP2 SUB PUSH1 0x0 DUP4 ADD MSTORE PUSH2 0x1075 DUP2 PUSH2 0xEF8 JUMP JUMPDEST SWAP1 POP SWAP2 SWAP1 POP JUMP JUMPDEST PUSH1 0x0 PUSH1 0x20 DUP3 ADD SWAP1 POP DUP2 DUP2 SUB PUSH1 0x0 DUP4 ADD MSTORE PUSH2 0x1096 DUP2 DUP5 PUSH2 0xF1B JUMP JUMPDEST SWAP1 POP SWAP3 SWAP2 POP POP JUMP JUMPDEST PUSH1 0x0 PUSH1 0x20 DUP3 ADD SWAP1 POP PUSH2 0x10B3 PUSH1 0x0 DUP4 ADD DUP5 PUSH2 0xF94 JUMP JUMPDEST SWAP3 SWAP2 POP POP JUMP JUMPDEST PUSH1 0x0 PUSH2 0x10C3 PUSH2 0x10D4 JUMP JUMPDEST SWAP1 POP PUSH2 0x10CF DUP3 DUP3 PUSH2 0x12AA JUMP JUMPDEST SWAP2 SWAP1 POP JUMP JUMPDEST PUSH1 0x0 PUSH1 0x40 MLOAD SWAP1 POP SWAP1 JUMP JUMPDEST PUSH1 0x0 PUSH8 0xFFFFFFFFFFFFFFFF DUP3 GT ISZERO PUSH2 0x10F9 JUMPI PUSH2 0x10F8 PUSH2 0x1397 JUMP JUMPDEST JUMPDEST PUSH1 0x20 DUP3 MUL SWAP1 POP PUSH1 0x20 DUP2 ADD SWAP1 POP SWAP2 SWAP1 POP JUMP JUMPDEST PUSH1 0x0 PUSH8 0xFFFFFFFFFFFFFFFF DUP3 GT ISZERO PUSH2 0x1125 JUMPI PUSH2 0x1124 PUSH2 0x1397 JUMP JUMPDEST JUMPDEST PUSH2 0x112E DUP3 PUSH2 0x13DF JUMP JUMPDEST SWAP1 POP PUSH1 0x20 DUP2 ADD SWAP1 POP SWAP2 SWAP1 POP JUMP JUMPDEST PUSH1 0x0 DUP2 SWAP1 POP PUSH1 0x20 DUP3 ADD SWAP1 POP SWAP2 SWAP1 POP JUMP JUMPDEST PUSH1 0x0 DUP2 MLOAD SWAP1 POP SWAP2 SWAP1 POP JUMP JUMPDEST PUSH1 0x0 DUP2 MLOAD SWAP1 POP SWAP2 SWAP1 POP JUMP JUMPDEST PUSH1 0x0 PUSH1 0x20 DUP3 ADD SWAP1 POP SWAP2 SWAP1 POP JUMP JUMPDEST PUSH1 0x0 DUP3 DUP3 MSTORE PUSH1 0x20 DUP3 ADD SWAP1 POP SWAP3 SWAP2 POP POP JUMP JUMPDEST PUSH1 0x0 DUP3 DUP3 MSTORE PUSH1 0x20 DUP3 ADD SWAP1 POP SWAP3 SWAP2 POP POP JUMP JUMPDEST PUSH1 0x0 DUP3 DUP3 MSTORE PUSH1 0x20 DUP3 ADD SWAP1 POP SWAP3 SWAP2 POP POP JUMP JUMPDEST PUSH1 0x0 PUSH2 0x11AC DUP3 PUSH2 0x121A JUMP JUMPDEST SWAP2 POP PUSH2 0x11B7 DUP4 PUSH2 0x121A JUMP JUMPDEST SWAP3 POP DUP3 DUP3 LT ISZERO PUSH2 0x11CA JUMPI PUSH2 0x11C9 PUSH2 0x12DB JUMP JUMPDEST JUMPDEST DUP3 DUP3 SUB SWAP1 POP SWAP3 SWAP2 POP POP JUMP JUMPDEST PUSH1 0x0 PUSH2 0x11E0 DUP3 PUSH2 0x11FA JUMP JUMPDEST SWAP1 POP SWAP2 SWAP1 POP JUMP JUMPDEST PUSH1 0x0 DUP2 SWAP1 POP PUSH2 0x11F5 DUP3 PUSH2 0x1494 JUMP JUMPDEST SWAP2 SWAP1 POP JUMP JUMPDEST PUSH1 0x0 PUSH20 0xFFFFFFFFFFFFFFFFFFFFFFFFFFFFFFFFFFFFFFFF DUP3 AND SWAP1 POP SWAP2 SWAP1 POP JUMP JUMPDEST PUSH1 0x0 DUP2 SWAP1 POP SWAP2 SWAP1 POP JUMP JUMPDEST PUSH1 0x0 PUSH2 0x122F DUP3 PUSH2 0x11E7 JUMP JUMPDEST SWAP1 POP SWAP2 SWAP1 POP JUMP JUMPDEST DUP3 DUP2 DUP4 CALLDATACOPY PUSH1 0x0 DUP4 DUP4 ADD MSTORE POP POP POP JUMP JUMPDEST PUSH1 0x0 JUMPDEST DUP4 DUP2 LT ISZERO PUSH2 0x1263 JUMPI DUP1 DUP3 ADD MLOAD DUP2 DUP5 ADD MSTORE PUSH1 0x20 DUP2 ADD SWAP1 POP PUSH2 0x1248 JUMP JUMPDEST DUP4 DUP2 GT ISZERO PUSH2 0x1272 JUMPI PUSH1 0x0 DUP5 DUP5 ADD MSTORE JUMPDEST POP POP POP POP JUMP JUMPDEST PUSH1 0x0 PUSH1 0x2 DUP3 DIV SWAP1 POP PUSH1 0x1 DUP3 AND DUP1 PUSH2 0x1290 JUMPI PUSH1 0x7F DUP3 AND SWAP2 POP JUMPDEST PUSH1 0x20 DUP3 LT DUP2 EQ ISZERO PUSH2 0x12A4 JUMPI PUSH2 0x12A3 PUSH2 0x1339 JUMP JUMPDEST JUMPDEST POP SWAP2 SWAP1 POP JUMP JUMPDEST PUSH2 0x12B3 DUP3 PUSH2 0x13DF JUMP JUMPDEST DUP2 ADD DUP2 DUP2 LT PUSH8 0xFFFFFFFFFFFFFFFF DUP3 GT OR ISZERO PUSH2 0x12D2 JUMPI PUSH2 0x12D1 PUSH2 0x1397 JUMP JUMPDEST JUMPDEST DUP1 PUSH1 0x40 MSTORE POP POP POP JUMP JUMPDEST PUSH32 0x4E487B7100000000000000000000000000000000000000000000000000000000 PUSH1 0x0 MSTORE PUSH1 0x11 PUSH1 0x4 MSTORE PUSH1 0x24 PUSH1 0x0 REVERT JUMPDEST PUSH32 0x4E487B7100000000000000000000000000000000000000000000000000000000 PUSH1 0x0 MSTORE PUSH1 0x21 PUSH1 0x4 MSTORE PUSH1 0x24 PUSH1 0x0 REVERT JUMPDEST PUSH32 0x4E487B7100000000000000000000000000000000000000000000000000000000 PUSH1 0x0 MSTORE PUSH1 0x22 PUSH1 0x4 MSTORE PUSH1 0x24 PUSH1 0x0 REVERT JUMPDEST PUSH32 0x4E487B7100000000000000000000000000000000000000000000000000000000 PUSH1 0x0 MSTORE PUSH1 0x32 PUSH1 0x4 MSTORE PUSH1 0x24 PUSH1 0x0 REVERT JUMPDEST PUSH32 0x4E487B7100000000000000000000000000000000000000000000000000000000 PUSH1 0x0 MSTORE PUSH1 0x41 PUSH1 0x4 MSTORE PUSH1 0x24 PUSH1 0x0 REVERT JUMPDEST PUSH1 0x0 DUP1 REVERT JUMPDEST PUSH1 0x0 DUP1 REVERT JUMPDEST PUSH1 0x0 DUP1 REVERT JUMPDEST PUSH1 0x0 DUP1 REVERT JUMPDEST PUSH1 0x0 DUP1 REVERT JUMPDEST PUSH1 0x0 PUSH1 0x1F NOT PUSH1 0x1F DUP4 ADD AND SWAP1 POP SWAP2 SWAP1 POP JUMP JUMPDEST PUSH32 0x20796F75206E6F74206F776E6572200000000000000000000000000000000000 PUSH1 0x0 DUP3 ADD MSTORE POP JUMP JUMPDEST PUSH32 0x6F7264657220697320616C726561647920207368697070656420000000000000 PUSH1 0x0 DUP3 ADD MSTORE POP JUMP JUMPDEST PUSH32 0x6E6F7420612076616C6964206F72646572206964202000000000000000000000 PUSH1 0x0 DUP3 ADD MSTORE POP JUMP JUMPDEST PUSH32 0x206E6F742070726F647563747300000000000000000000000000000000000000 PUSH1 0x0 DUP3 ADD MSTORE POP JUMP JUMPDEST PUSH1 0x4 DUP2 LT PUSH2 0x14A5 JUMPI PUSH2 0x14A4 PUSH2 0x130A JUMP JUMPDEST JUMPDEST POP JUMP JUMPDEST PUSH2 0x14B1 DUP2 PUSH2 0x121A JUMP JUMPDEST DUP2 EQ PUSH2 0x14BC JUMPI PUSH1 0x0 DUP1 REVERT JUMPDEST POP JUMP INVALID LOG2 PUSH5 0x6970667358 0x22 SLT KECCAK256 0xCC DUP2 CALLCODE BLOCKHASH 0xE6 SWAP3 PUSH7 0xF2052DCCFE03FA CALLDATACOPY SHR 0xDA 0xE5 CODESIZE BYTE 0xE8 0xC5 PUSH10 0xDDE6D53E622C69543364 PUSH20 0x6F6C634300080700330000000000000000000000 "
				},
				"gasEstimates": {
					"creation": {
						"codeDepositCost": "1073000",
						"executionCost": "25380",
						"totalCost": "1098380"
					},
					"external": {
						"advanceOrder(uint256)": "40130",
						"createOrder(string,uint256[])": "infinite",
						"getOrder(uint256)": "infinite",
						"orders(uint256)": "infinite",
						"owner()": "2514",
						"uploadzip(uint256,string)": "infinite"
					}
				},
				"methodIdentifiers": {
					"advanceOrder(uint256)": "afe13a62",
					"createOrder(string,uint256[])": "6d9a65d8",
					"getOrder(uint256)": "d09ef241",
					"orders(uint256)": "a85c38ef",
					"owner()": "8da5cb5b",
					"uploadzip(uint256,string)": "b28445c7"
				}
			},
			"storageLayout": {
				"storage": [
					{
						"astId": 21,
						"contract": "deps/proje/store.sol:Store",
						"label": "orders",
						"offset": 0,
						"slot": "0",
						"type": "t_array(t_struct(Order)17_storage)dyn_storage"
					},
					{
						"astId": 23,
						"contract": "deps/proje/store.sol:Store",
						"label": "owner",
						"offset": 0,
						"slot": "1",
						"type": "t_address"
					}
				],
				"types": {
					"t_address": {
						"encoding": "inplace",
						"label": "address",
						"numberOfBytes": "20"
					},
					"t_array(t_struct(Order)17_storage)dyn_storage": {
						"base": "t_struct(Order)17_storage",
						"encoding": "dynamic_array",
						"label": "struct Store.Order[]",
						"numberOfBytes": "32"
					},
					"t_array(t_uint256)dyn_storage": {
						"base": "t_uint256",
						"encoding": "dynamic_array",
						"label": "uint256[]",
						"numberOfBytes": "32"
					},
					"t_enum(Status)6": {
						"encoding": "inplace",
						"label": "enum Store.Status",
						"numberOfBytes": "1"
					},
					"t_string_storage": {
						"encoding": "bytes",
						"label": "string",
						"numberOfBytes": "32"
					},
					"t_struct(Order)17_storage": {
						"encoding": "inplace",
						"label": "struct Store.Order",
						"members": [
							{
								"astId": 8,
								"contract": "deps/proje/store.sol:Store",
								"label": "customer",
								"offset": 0,
								"slot": "0",
								"type": "t_address"
							},
							{
								"astId": 10,
								"contract": "deps/proje/store.sol:Store",
								"label": "zipCode",
								"offset": 0,
								"slot": "1",
								"type": "t_string_storage"
							},
							{
								"astId": 13,
								"contract": "deps/proje/store.sol:Store",
								"label": "products",
								"offset": 0,
								"slot": "2",
								"type": "t_array(t_uint256)dyn_storage"
							},
							{
								"astId": 16,
								"contract": "deps/proje/store.sol:Store",
								"label": "status",
								"offset": 0,
								"slot": "3",
								"type": "t_enum(Status)6"
							}
						],
						"numberOfBytes": "128"
					},
					"t_uint256": {
						"encoding": "inplace",
						"label": "uint256",
						"numberOfBytes": "32"
					}
				}
			},
			"userdoc": {
				"kind": "user",
				"methods": {},
				"version": 1
			}
		}
	}
}