{
	"deps/proje/store.sol": {
		"Store": {
			"abi": [
				{
					"inputs": [],
					"stateMutability": "nonpayable",
					"type": "constructor"
				},
				{
					"inputs": [
						{
							"internalType": "uint256",
							"name": "order_id",
							"type": "uint256"
						}
					],
					"name": "advanceOrder",
					"outputs": [],
					"stateMutability": "nonpayable",
					"type": "function"
				},
				{
					"inputs": [
						{
							"internalType": "string",
							"name": "_zipCode",
							"type": "string"
						},
						{
							"internalType": "uint256[]",
							"name": "_products",
							"type": "uint256[]"
						}
					],
					"name": "createOrder",
					"outputs": [
						{
							"internalType": "uint256",
							"name": "",
							"type": "uint256"
						}
					],
					"stateMutability": "nonpayable",
					"type": "function"
				},
				{
					"inputs": [
						{
							"internalType": "uint256",
							"name": "order_id",
							"type": "uint256"
						}
					],
					"name": "getOrder",
					"outputs": [
						{
							"components": [
								{
									"internalType": "address",
									"name": "customer",
									"type": "address"
								},
								{
									"internalType": "string",
									"name": "zipCode",
									"type": "string"
								},
								{
									"internalType": "uint256[]",
									"name": "products",
									"type": "uint256[]"
								},
								{
									"internalType": "enum Store.Status",
									"name": "status",
									"type": "uint8"
								}
							],
							"internalType": "struct Store.Order",
							"name": "",
							"type": "tuple"
						}
					],
					"stateMutability": "view",
					"type": "function"
				},
				{
					"inputs": [
						{
							"internalType": "uint256",
							"name": "",
							"type": "uint256"
						}
					],
					"name": "orders",
					"outputs": [
						{
							"internalType": "address",
							"name": "customer",
							"type": "address"
						},
						{
							"internalType": "string",
							"name": "zipCode",
							"type": "string"
						},
						{
							"internalType": "enum Store.Status",
							"name": "status",
							"type": "uint8"
						}
					],
					"stateMutability": "view",
					"type": "function"
				},
				{
					"inputs": [],
					"name": "owner",
					"outputs": [
						{
							"internalType": "address",
							"name": "",
							"type": "address"
						}
					],
					"stateMutability": "view",
					"type": "function"
				}
			],
			"devdoc": {
				"kind": "dev",
				"methods": {},
				"version": 1
			},
			"evm": {
				"assembly": "    /* \"deps/proje/store.sol\":60:2053  contract Store{\r... */\n  mstore(0x40, 0x80)\n    /* \"deps/proje/store.sol\":532:644  constructor(){\r... */\n  callvalue\n  dup1\n  iszero\n  tag_1\n  jumpi\n  0x00\n  dup1\n  revert\ntag_1:\n  pop\n    /* \"deps/proje/store.sol\":564:574  msg.sender */\n  caller\n    /* \"deps/proje/store.sol\":556:561  owner */\n  0x01\n  0x00\n    /* \"deps/proje/store.sol\":556:574  owner = msg.sender */\n  0x0100\n  exp\n  dup2\n  sload\n  dup2\n  0xffffffffffffffffffffffffffffffffffffffff\n  mul\n  not\n  and\n  swap1\n  dup4\n  0xffffffffffffffffffffffffffffffffffffffff\n  and\n  mul\n  or\n  swap1\n  sstore\n  pop\n    /* \"deps/proje/store.sol\":60:2053  contract Store{\r... */\n  dataSize(sub_0)\n  dup1\n  dataOffset(sub_0)\n  0x00\n  codecopy\n  0x00\n  return\nstop\n\nsub_0: assembly {\n        /* \"deps/proje/store.sol\":60:2053  contract Store{\r... */\n      mstore(0x40, 0x80)\n      callvalue\n      dup1\n      iszero\n      tag_1\n      jumpi\n      0x00\n      dup1\n      revert\n    tag_1:\n      pop\n      jumpi(tag_2, lt(calldatasize, 0x04))\n      shr(0xe0, calldataload(0x00))\n      dup1\n      0x6d9a65d8\n      eq\n      tag_3\n      jumpi\n      dup1\n      0x8da5cb5b\n      eq\n      tag_4\n      jumpi\n      dup1\n      0xa85c38ef\n      eq\n      tag_5\n      jumpi\n      dup1\n      0xafe13a62\n      eq\n      tag_6\n      jumpi\n      dup1\n      0xd09ef241\n      eq\n      tag_7\n      jumpi\n    tag_2:\n      0x00\n      dup1\n      revert\n        /* \"deps/proje/store.sol\":652:1212  function createOrder(string memory _zipCode, uint256[] memory _products ) public returns (uint256 ){\r... */\n    tag_3:\n      tag_8\n      0x04\n      dup1\n      calldatasize\n      sub\n      dup2\n      add\n      swap1\n      tag_9\n      swap2\n      swap1\n      tag_10\n      jump\t// in\n    tag_9:\n      tag_11\n      jump\t// in\n    tag_8:\n      mload(0x40)\n      tag_12\n      swap2\n      swap1\n      tag_13\n      jump\t// in\n    tag_12:\n      mload(0x40)\n      dup1\n      swap2\n      sub\n      swap1\n      return\n        /* \"deps/proje/store.sol\":498:518  address public owner */\n    tag_4:\n      tag_14\n      tag_15\n      jump\t// in\n    tag_14:\n      mload(0x40)\n      tag_16\n      swap2\n      swap1\n      tag_17\n      jump\t// in\n    tag_16:\n      mload(0x40)\n      dup1\n      swap2\n      sub\n      swap1\n      return\n        /* \"deps/proje/store.sol\":431:452  Order[] public orders */\n    tag_5:\n      tag_18\n      0x04\n      dup1\n      calldatasize\n      sub\n      dup2\n      add\n      swap1\n      tag_19\n      swap2\n      swap1\n      tag_20\n      jump\t// in\n    tag_19:\n      tag_21\n      jump\t// in\n    tag_18:\n      mload(0x40)\n      tag_22\n      swap4\n      swap3\n      swap2\n      swap1\n      tag_23\n      jump\t// in\n    tag_22:\n      mload(0x40)\n      dup1\n      swap2\n      sub\n      swap1\n      return\n        /* \"deps/proje/store.sol\":1271:1963  function advanceOrder(uint256 order_id ) public {\r... */\n    tag_6:\n      tag_24\n      0x04\n      dup1\n      calldatasize\n      sub\n      dup2\n      add\n      swap1\n      tag_25\n      swap2\n      swap1\n      tag_20\n      jump\t// in\n    tag_25:\n      tag_26\n      jump\t// in\n    tag_24:\n      stop\n        /* \"deps/proje/store.sol\":1971:2050  function getOrder(uint256 order_id) public view returns(Order memory){\r... */\n    tag_7:\n      tag_27\n      0x04\n      dup1\n      calldatasize\n      sub\n      dup2\n      add\n      swap1\n      tag_28\n      swap2\n      swap1\n      tag_20\n      jump\t// in\n    tag_28:\n      tag_29\n      jump\t// in\n    tag_27:\n      mload(0x40)\n      tag_30\n      swap2\n      swap1\n      tag_31\n      jump\t// in\n    tag_30:\n      mload(0x40)\n      dup1\n      swap2\n      sub\n      swap1\n      return\n        /* \"deps/proje/store.sol\":652:1212  function createOrder(string memory _zipCode, uint256[] memory _products ) public returns (uint256 ){\r... */\n    tag_11:\n        /* \"deps/proje/store.sol\":742:749  uint256 */\n      0x00\n        /* \"deps/proje/store.sol\":789:790  0 */\n      dup1\n        /* \"deps/proje/store.sol\":770:779  _products */\n      dup3\n        /* \"deps/proje/store.sol\":770:786  _products.length */\n      mload\n        /* \"deps/proje/store.sol\":770:790  _products.length > 0 */\n      gt\n        /* \"deps/proje/store.sol\":762:808  require(_products.length > 0 ,\" not products\") */\n      tag_33\n      jumpi\n      mload(0x40)\n      0x08c379a000000000000000000000000000000000000000000000000000000000\n      dup2\n      mstore\n      0x04\n      add\n      tag_34\n      swap1\n      tag_35\n      jump\t// in\n    tag_34:\n      mload(0x40)\n      dup1\n      swap2\n      sub\n      swap1\n      revert\n    tag_33:\n        /* \"deps/proje/store.sol\":822:840  Order memory order */\n      tag_36\n      tag_37\n      jump\t// in\n    tag_36:\n        /* \"deps/proje/store.sol\":903:913  msg.sender */\n      caller\n        /* \"deps/proje/store.sol\":886:891  order */\n      dup2\n        /* \"deps/proje/store.sol\":886:900  order.customer */\n      0x00\n      add\n        /* \"deps/proje/store.sol\":886:913  order.customer = msg.sender */\n      swap1\n      0xffffffffffffffffffffffffffffffffffffffff\n      and\n      swap1\n      dup2\n      0xffffffffffffffffffffffffffffffffffffffff\n      and\n      dup2\n      mstore\n      pop\n      pop\n        /* \"deps/proje/store.sol\":969:977  _zipCode */\n      dup4\n        /* \"deps/proje/store.sol\":953:958  order */\n      dup2\n        /* \"deps/proje/store.sol\":953:966  order.zipCode */\n      0x20\n      add\n        /* \"deps/proje/store.sol\":953:977  order.zipCode = _zipCode */\n      dup2\n      swap1\n      mstore\n      pop\n        /* \"deps/proje/store.sol\":1006:1015  _products */\n      dup3\n        /* \"deps/proje/store.sol\":989:994  order */\n      dup2\n        /* \"deps/proje/store.sol\":989:1003  order.products */\n      0x40\n      add\n        /* \"deps/proje/store.sol\":989:1015  order.products = _products */\n      dup2\n      swap1\n      mstore\n      pop\n        /* \"deps/proje/store.sol\":1043:1055  Status.Taken */\n      0x00\n        /* \"deps/proje/store.sol\":1028:1033  order */\n      dup2\n        /* \"deps/proje/store.sol\":1028:1040  order.status */\n      0x60\n      add\n        /* \"deps/proje/store.sol\":1028:1055  order.status = Status.Taken */\n      swap1\n      0x03\n      dup2\n      gt\n      iszero\n      tag_38\n      jumpi\n      tag_39\n      tag_40\n      jump\t// in\n    tag_39:\n    tag_38:\n      swap1\n      dup2\n      0x03\n      dup2\n      gt\n      iszero\n      tag_41\n      jumpi\n      tag_42\n      tag_40\n      jump\t// in\n    tag_42:\n    tag_41:\n      dup2\n      mstore\n      pop\n      pop\n        /* \"deps/proje/store.sol\":1147:1153  orders */\n      0x00\n        /* \"deps/proje/store.sol\":1159:1164  order */\n      dup2\n        /* \"deps/proje/store.sol\":1147:1165  orders.push(order) */\n      swap1\n      dup1\n      0x01\n      dup2\n      sload\n      add\n      dup1\n      dup3\n      sstore\n      dup1\n      swap2\n      pop\n      pop\n      0x01\n      swap1\n      sub\n      swap1\n      0x00\n      mstore\n      keccak256(0x00, 0x20)\n      swap1\n      0x04\n      mul\n      add\n      0x00\n      swap1\n      swap2\n      swap1\n      swap2\n      swap1\n      swap2\n      pop\n      0x00\n      dup3\n      add\n      mload\n      dup2\n      0x00\n      add\n      exp(0x0100, 0x00)\n      dup2\n      sload\n      dup2\n      0xffffffffffffffffffffffffffffffffffffffff\n      mul\n      not\n      and\n      swap1\n      dup4\n      0xffffffffffffffffffffffffffffffffffffffff\n      and\n      mul\n      or\n      swap1\n      sstore\n      pop\n      0x20\n      dup3\n      add\n      mload\n      dup2\n      0x01\n      add\n      swap1\n      dup1\n      mload\n      swap1\n      0x20\n      add\n      swap1\n      tag_44\n      swap3\n      swap2\n      swap1\n      tag_45\n      jump\t// in\n    tag_44:\n      pop\n      0x40\n      dup3\n      add\n      mload\n      dup2\n      0x02\n      add\n      swap1\n      dup1\n      mload\n      swap1\n      0x20\n      add\n      swap1\n      tag_46\n      swap3\n      swap2\n      swap1\n      tag_47\n      jump\t// in\n    tag_46:\n      pop\n      0x60\n      dup3\n      add\n      mload\n      dup2\n      0x03\n      add\n      exp(0x0100, 0x00)\n      dup2\n      sload\n      dup2\n      0xff\n      mul\n      not\n      and\n      swap1\n      dup4\n      0x03\n      dup2\n      gt\n      iszero\n      tag_48\n      jumpi\n      tag_49\n      tag_40\n      jump\t// in\n    tag_49:\n    tag_48:\n      mul\n      or\n      swap1\n      sstore\n      pop\n      pop\n      pop\n        /* \"deps/proje/store.sol\":1201:1202  1 */\n      0x01\n        /* \"deps/proje/store.sol\":1185:1191  orders */\n      0x00\n        /* \"deps/proje/store.sol\":1185:1198  orders.length */\n      dup1\n      sload\n      swap1\n      pop\n        /* \"deps/proje/store.sol\":1185:1202  orders.length - 1 */\n      tag_50\n      swap2\n      swap1\n      tag_51\n      jump\t// in\n    tag_50:\n        /* \"deps/proje/store.sol\":1178:1202  return orders.length - 1 */\n      swap2\n      pop\n      pop\n        /* \"deps/proje/store.sol\":652:1212  function createOrder(string memory _zipCode, uint256[] memory _products ) public returns (uint256 ){\r... */\n      swap3\n      swap2\n      pop\n      pop\n      jump\t// out\n        /* \"deps/proje/store.sol\":498:518  address public owner */\n    tag_15:\n      0x01\n      0x00\n      swap1\n      sload\n      swap1\n      0x0100\n      exp\n      swap1\n      div\n      0xffffffffffffffffffffffffffffffffffffffff\n      and\n      dup2\n      jump\t// out\n        /* \"deps/proje/store.sol\":431:452  Order[] public orders */\n    tag_21:\n      0x00\n      dup2\n      dup2\n      sload\n      dup2\n      lt\n      tag_52\n      jumpi\n      0x00\n      dup1\n      revert\n    tag_52:\n      swap1\n      0x00\n      mstore\n      keccak256(0x00, 0x20)\n      swap1\n      0x04\n      mul\n      add\n      0x00\n      swap2\n      pop\n      swap1\n      pop\n      dup1\n      0x00\n      add\n      0x00\n      swap1\n      sload\n      swap1\n      0x0100\n      exp\n      swap1\n      div\n      0xffffffffffffffffffffffffffffffffffffffff\n      and\n      swap1\n      dup1\n      0x01\n      add\n      dup1\n      sload\n      tag_54\n      swap1\n      tag_55\n      jump\t// in\n    tag_54:\n      dup1\n      0x1f\n      add\n      0x20\n      dup1\n      swap2\n      div\n      mul\n      0x20\n      add\n      mload(0x40)\n      swap1\n      dup2\n      add\n      0x40\n      mstore\n      dup1\n      swap3\n      swap2\n      swap1\n      dup2\n      dup2\n      mstore\n      0x20\n      add\n      dup3\n      dup1\n      sload\n      tag_56\n      swap1\n      tag_55\n      jump\t// in\n    tag_56:\n      dup1\n      iszero\n      tag_57\n      jumpi\n      dup1\n      0x1f\n      lt\n      tag_58\n      jumpi\n      0x0100\n      dup1\n      dup4\n      sload\n      div\n      mul\n      dup4\n      mstore\n      swap2\n      0x20\n      add\n      swap2\n      jump(tag_57)\n    tag_58:\n      dup3\n      add\n      swap2\n      swap1\n      0x00\n      mstore\n      keccak256(0x00, 0x20)\n      swap1\n    tag_59:\n      dup2\n      sload\n      dup2\n      mstore\n      swap1\n      0x01\n      add\n      swap1\n      0x20\n      add\n      dup1\n      dup4\n      gt\n      tag_59\n      jumpi\n      dup3\n      swap1\n      sub\n      0x1f\n      and\n      dup3\n      add\n      swap2\n    tag_57:\n      pop\n      pop\n      pop\n      pop\n      pop\n      swap1\n      dup1\n      0x03\n      add\n      0x00\n      swap1\n      sload\n      swap1\n      0x0100\n      exp\n      swap1\n      div\n      0xff\n      and\n      swap1\n      pop\n      dup4\n      jump\t// out\n        /* \"deps/proje/store.sol\":1271:1963  function advanceOrder(uint256 order_id ) public {\r... */\n    tag_26:\n        /* \"deps/proje/store.sol\":1347:1357  msg.sender */\n      caller\n        /* \"deps/proje/store.sol\":1338:1357  owner == msg.sender */\n      0xffffffffffffffffffffffffffffffffffffffff\n      and\n        /* \"deps/proje/store.sol\":1338:1343  owner */\n      0x01\n      0x00\n      swap1\n      sload\n      swap1\n      0x0100\n      exp\n      swap1\n      div\n      0xffffffffffffffffffffffffffffffffffffffff\n      and\n        /* \"deps/proje/store.sol\":1338:1357  owner == msg.sender */\n      0xffffffffffffffffffffffffffffffffffffffff\n      and\n      eq\n        /* \"deps/proje/store.sol\":1330:1378  require(owner == msg.sender , \" you not owner \") */\n      tag_61\n      jumpi\n      mload(0x40)\n      0x08c379a000000000000000000000000000000000000000000000000000000000\n      dup2\n      mstore\n      0x04\n      add\n      tag_62\n      swap1\n      tag_63\n      jump\t// in\n    tag_62:\n      mload(0x40)\n      dup1\n      swap2\n      sub\n      swap1\n      revert\n    tag_61:\n        /* \"deps/proje/store.sol\":1410:1416  orders */\n      0x00\n        /* \"deps/proje/store.sol\":1410:1423  orders.length */\n      dup1\n      sload\n      swap1\n      pop\n        /* \"deps/proje/store.sol\":1399:1407  order_id */\n      dup2\n        /* \"deps/proje/store.sol\":1399:1423  order_id < orders.length */\n      lt\n        /* \"deps/proje/store.sol\":1391:1450  require(order_id < orders.length , \"not a valid orderid  \") */\n      tag_64\n      jumpi\n      mload(0x40)\n      0x08c379a000000000000000000000000000000000000000000000000000000000\n      dup2\n      mstore\n      0x04\n      add\n      tag_65\n      swap1\n      tag_66\n      jump\t// in\n    tag_65:\n      mload(0x40)\n      dup1\n      swap2\n      sub\n      swap1\n      revert\n    tag_64:\n        /* \"deps/proje/store.sol\":1463:1482  Order storage order */\n      0x00\n        /* \"deps/proje/store.sol\":1485:1491  orders */\n      dup1\n        /* \"deps/proje/store.sol\":1492:1500  order_id */\n      dup3\n        /* \"deps/proje/store.sol\":1485:1501  orders[order_id] */\n      dup2\n      sload\n      dup2\n      lt\n      tag_67\n      jumpi\n      tag_68\n      tag_69\n      jump\t// in\n    tag_68:\n    tag_67:\n      swap1\n      0x00\n      mstore\n      keccak256(0x00, 0x20)\n      swap1\n      0x04\n      mul\n      add\n        /* \"deps/proje/store.sol\":1463:1501  Order storage order = orders[order_id] */\n      swap1\n      pop\n        /* \"deps/proje/store.sol\":1612:1626  Status.Shipped */\n      0x03\n        /* \"deps/proje/store.sol\":1596:1626  order.status != Status.Shipped */\n      dup1\n      dup2\n      gt\n      iszero\n      tag_71\n      jumpi\n      tag_72\n      tag_40\n      jump\t// in\n    tag_72:\n    tag_71:\n        /* \"deps/proje/store.sol\":1596:1601  order */\n      dup2\n        /* \"deps/proje/store.sol\":1596:1608  order.status */\n      0x03\n      add\n      0x00\n      swap1\n      sload\n      swap1\n      0x0100\n      exp\n      swap1\n      div\n      0xff\n      and\n        /* \"deps/proje/store.sol\":1596:1626  order.status != Status.Shipped */\n      0x03\n      dup2\n      gt\n      iszero\n      tag_73\n      jumpi\n      tag_74\n      tag_40\n      jump\t// in\n    tag_74:\n    tag_73:\n      eq\n      iszero\n        /* \"deps/proje/store.sol\":1588:1658  require(order.status != Status.Shipped , \"order is already  shipped \") */\n      tag_75\n      jumpi\n      mload(0x40)\n      0x08c379a000000000000000000000000000000000000000000000000000000000\n      dup2\n      mstore\n      0x04\n      add\n      tag_76\n      swap1\n      tag_77\n      jump\t// in\n    tag_76:\n      mload(0x40)\n      dup1\n      swap2\n      sub\n      swap1\n      revert\n    tag_75:\n        /* \"deps/proje/store.sol\":1690:1702  Status.Taken */\n      0x00\n        /* \"deps/proje/store.sol\":1674:1702  order.status == Status.Taken */\n      0x03\n      dup2\n      gt\n      iszero\n      tag_78\n      jumpi\n      tag_79\n      tag_40\n      jump\t// in\n    tag_79:\n    tag_78:\n        /* \"deps/proje/store.sol\":1674:1679  order */\n      dup2\n        /* \"deps/proje/store.sol\":1674:1686  order.status */\n      0x03\n      add\n      0x00\n      swap1\n      sload\n      swap1\n      0x0100\n      exp\n      swap1\n      div\n      0xff\n      and\n        /* \"deps/proje/store.sol\":1674:1702  order.status == Status.Taken */\n      0x03\n      dup2\n      gt\n      iszero\n      tag_80\n      jumpi\n      tag_81\n      tag_40\n      jump\t// in\n    tag_81:\n    tag_80:\n      eq\n        /* \"deps/proje/store.sol\":1671:1956  if(order.status == Status.Taken){\r... */\n      iszero\n      tag_82\n      jumpi\n        /* \"deps/proje/store.sol\":1734:1750  Status.Prepating */\n      0x01\n        /* \"deps/proje/store.sol\":1719:1724  order */\n      dup2\n        /* \"deps/proje/store.sol\":1719:1731  order.status */\n      0x03\n      add\n      0x00\n        /* \"deps/proje/store.sol\":1719:1750  order.status = Status.Prepating */\n      0x0100\n      exp\n      dup2\n      sload\n      dup2\n      0xff\n      mul\n      not\n      and\n      swap1\n      dup4\n      0x03\n      dup2\n      gt\n      iszero\n      tag_83\n      jumpi\n      tag_84\n      tag_40\n      jump\t// in\n    tag_84:\n    tag_83:\n      mul\n      or\n      swap1\n      sstore\n        /* \"deps/proje/store.sol\":1718:1751  (order.status = Status.Prepating) */\n      pop\n        /* \"deps/proje/store.sol\":1671:1956  if(order.status == Status.Taken){\r... */\n      jump(tag_85)\n    tag_82:\n        /* \"deps/proje/store.sol\":1787:1803  Status.Prepating */\n      0x01\n        /* \"deps/proje/store.sol\":1771:1803  order.status == Status.Prepating */\n      0x03\n      dup2\n      gt\n      iszero\n      tag_86\n      jumpi\n      tag_87\n      tag_40\n      jump\t// in\n    tag_87:\n    tag_86:\n        /* \"deps/proje/store.sol\":1771:1776  order */\n      dup2\n        /* \"deps/proje/store.sol\":1771:1783  order.status */\n      0x03\n      add\n      0x00\n      swap1\n      sload\n      swap1\n      0x0100\n      exp\n      swap1\n      div\n      0xff\n      and\n        /* \"deps/proje/store.sol\":1771:1803  order.status == Status.Prepating */\n      0x03\n      dup2\n      gt\n      iszero\n      tag_88\n      jumpi\n      tag_89\n      tag_40\n      jump\t// in\n    tag_89:\n    tag_88:\n      eq\n        /* \"deps/proje/store.sol\":1768:1956  if(order.status == Status.Prepating){\r... */\n      iszero\n      tag_90\n      jumpi\n        /* \"deps/proje/store.sol\":1835:1847  Status.Boxed */\n      0x02\n        /* \"deps/proje/store.sol\":1820:1825  order */\n      dup2\n        /* \"deps/proje/store.sol\":1820:1832  order.status */\n      0x03\n      add\n      0x00\n        /* \"deps/proje/store.sol\":1820:1847  order.status = Status.Boxed */\n      0x0100\n      exp\n      dup2\n      sload\n      dup2\n      0xff\n      mul\n      not\n      and\n      swap1\n      dup4\n      0x03\n      dup2\n      gt\n      iszero\n      tag_91\n      jumpi\n      tag_92\n      tag_40\n      jump\t// in\n    tag_92:\n    tag_91:\n      mul\n      or\n      swap1\n      sstore\n        /* \"deps/proje/store.sol\":1819:1848  (order.status = Status.Boxed) */\n      pop\n        /* \"deps/proje/store.sol\":1768:1956  if(order.status == Status.Prepating){\r... */\n      jump(tag_93)\n    tag_90:\n        /* \"deps/proje/store.sol\":1885:1897  Status.Boxed */\n      0x02\n        /* \"deps/proje/store.sol\":1869:1897  order.status == Status.Boxed */\n      0x03\n      dup2\n      gt\n      iszero\n      tag_94\n      jumpi\n      tag_95\n      tag_40\n      jump\t// in\n    tag_95:\n    tag_94:\n        /* \"deps/proje/store.sol\":1869:1874  order */\n      dup2\n        /* \"deps/proje/store.sol\":1869:1881  order.status */\n      0x03\n      add\n      0x00\n      swap1\n      sload\n      swap1\n      0x0100\n      exp\n      swap1\n      div\n      0xff\n      and\n        /* \"deps/proje/store.sol\":1869:1897  order.status == Status.Boxed */\n      0x03\n      dup2\n      gt\n      iszero\n      tag_96\n      jumpi\n      tag_97\n      tag_40\n      jump\t// in\n    tag_97:\n    tag_96:\n      eq\n        /* \"deps/proje/store.sol\":1865:1956  if (order.status == Status.Boxed){\r... */\n      iszero\n      tag_98\n      jumpi\n        /* \"deps/proje/store.sol\":1929:1943  Status.Shipped */\n      0x03\n        /* \"deps/proje/store.sol\":1914:1919  order */\n      dup2\n        /* \"deps/proje/store.sol\":1914:1926  order.status */\n      0x03\n      add\n      0x00\n        /* \"deps/proje/store.sol\":1914:1943  order.status = Status.Shipped */\n      0x0100\n      exp\n      dup2\n      sload\n      dup2\n      0xff\n      mul\n      not\n      and\n      swap1\n      dup4\n      0x03\n      dup2\n      gt\n      iszero\n      tag_99\n      jumpi\n      tag_100\n      tag_40\n      jump\t// in\n    tag_100:\n    tag_99:\n      mul\n      or\n      swap1\n      sstore\n        /* \"deps/proje/store.sol\":1913:1944  (order.status = Status.Shipped) */\n      pop\n        /* \"deps/proje/store.sol\":1865:1956  if (order.status == Status.Boxed){\r... */\n    tag_98:\n        /* \"deps/proje/store.sol\":1768:1956  if(order.status == Status.Prepating){\r... */\n    tag_93:\n        /* \"deps/proje/store.sol\":1671:1956  if(order.status == Status.Taken){\r... */\n    tag_85:\n        /* \"deps/proje/store.sol\":1319:1963  {\r... */\n      pop\n        /* \"deps/proje/store.sol\":1271:1963  function advanceOrder(uint256 order_id ) public {\r... */\n      pop\n      jump\t// out\n        /* \"deps/proje/store.sol\":1971:2050  function getOrder(uint256 order_id) public view returns(Order memory){\r... */\n    tag_29:\n        /* \"deps/proje/store.sol\":2027:2039  Order memory */\n      tag_101\n      tag_37\n      jump\t// in\n    tag_101:\n        /* \"deps/proje/store.sol\":1971:2050  function getOrder(uint256 order_id) public view returns(Order memory){\r... */\n      swap2\n      swap1\n      pop\n      jump\t// out\n    tag_37:\n      mload(0x40)\n      dup1\n      0x80\n      add\n      0x40\n      mstore\n      dup1\n      and(0xffffffffffffffffffffffffffffffffffffffff, 0x00)\n      dup2\n      mstore\n      0x20\n      add\n      0x60\n      dup2\n      mstore\n      0x20\n      add\n      0x60\n      dup2\n      mstore\n      0x20\n      add\n      0x00\n      0x03\n      dup2\n      gt\n      iszero\n      tag_103\n      jumpi\n      tag_104\n      tag_40\n      jump\t// in\n    tag_104:\n    tag_103:\n      dup2\n      mstore\n      pop\n      swap1\n      jump\t// out\n    tag_45:\n      dup3\n      dup1\n      sload\n      tag_105\n      swap1\n      tag_55\n      jump\t// in\n    tag_105:\n      swap1\n      0x00\n      mstore\n      keccak256(0x00, 0x20)\n      swap1\n      0x1f\n      add\n      0x20\n      swap1\n      div\n      dup2\n      add\n      swap3\n      dup3\n      tag_107\n      jumpi\n      0x00\n      dup6\n      sstore\n      jump(tag_106)\n    tag_107:\n      dup3\n      0x1f\n      lt\n      tag_108\n      jumpi\n      dup1\n      mload\n      not(0xff)\n      and\n      dup4\n      dup1\n      add\n      or\n      dup6\n      sstore\n      jump(tag_106)\n    tag_108:\n      dup3\n      dup1\n      add\n      0x01\n      add\n      dup6\n      sstore\n      dup3\n      iszero\n      tag_106\n      jumpi\n      swap2\n      dup3\n      add\n    tag_109:\n      dup3\n      dup2\n      gt\n      iszero\n      tag_110\n      jumpi\n      dup3\n      mload\n      dup3\n      sstore\n      swap2\n      0x20\n      add\n      swap2\n      swap1\n      0x01\n      add\n      swap1\n      jump(tag_109)\n    tag_110:\n    tag_106:\n      pop\n      swap1\n      pop\n      tag_111\n      swap2\n      swap1\n      tag_112\n      jump\t// in\n    tag_111:\n      pop\n      swap1\n      jump\t// out\n    tag_47:\n      dup3\n      dup1\n      sload\n      dup3\n      dup3\n      sstore\n      swap1\n      0x00\n      mstore\n      keccak256(0x00, 0x20)\n      swap1\n      dup2\n      add\n      swap3\n      dup3\n      iszero\n      tag_113\n      jumpi\n      swap2\n      0x20\n      mul\n      dup3\n      add\n    tag_114:\n      dup3\n      dup2\n      gt\n      iszero\n      tag_115\n      jumpi\n      dup3\n      mload\n      dup3\n      sstore\n      swap2\n      0x20\n      add\n      swap2\n      swap1\n      0x01\n      add\n      swap1\n      jump(tag_114)\n    tag_115:\n    tag_113:\n      pop\n      swap1\n      pop\n      tag_116\n      swap2\n      swap1\n      tag_112\n      jump\t// in\n    tag_116:\n      pop\n      swap1\n      jump\t// out\n    tag_112:\n    tag_117:\n      dup1\n      dup3\n      gt\n      iszero\n      tag_118\n      jumpi\n      0x00\n      dup2\n      0x00\n      swap1\n      sstore\n      pop\n      0x01\n      add\n      jump(tag_117)\n    tag_118:\n      pop\n      swap1\n      jump\t// out\n        /* \"#utility.yul\":24:746   */\n    tag_120:\n        /* \"#utility.yul\":120:125   */\n      0x00\n        /* \"#utility.yul\":145:226   */\n      tag_122\n        /* \"#utility.yul\":161:225   */\n      tag_123\n        /* \"#utility.yul\":218:224   */\n      dup5\n        /* \"#utility.yul\":161:225   */\n      tag_124\n      jump\t// in\n    tag_123:\n        /* \"#utility.yul\":145:226   */\n      tag_125\n      jump\t// in\n    tag_122:\n        /* \"#utility.yul\":136:226   */\n      swap1\n      pop\n        /* \"#utility.yul\":246:251   */\n      dup1\n        /* \"#utility.yul\":275:281   */\n      dup4\n        /* \"#utility.yul\":268:273   */\n      dup3\n        /* \"#utility.yul\":261:282   */\n      mstore\n        /* \"#utility.yul\":309:313   */\n      0x20\n        /* \"#utility.yul\":302:307   */\n      dup3\n        /* \"#utility.yul\":298:314   */\n      add\n        /* \"#utility.yul\":291:314   */\n      swap1\n      pop\n        /* \"#utility.yul\":335:341   */\n      dup3\n        /* \"#utility.yul\":385:388   */\n      dup6\n        /* \"#utility.yul\":377:381   */\n      0x20\n        /* \"#utility.yul\":369:375   */\n      dup7\n        /* \"#utility.yul\":365:382   */\n      mul\n        /* \"#utility.yul\":360:363   */\n      dup3\n        /* \"#utility.yul\":356:383   */\n      add\n        /* \"#utility.yul\":353:389   */\n      gt\n        /* \"#utility.yul\":350:493   */\n      iszero\n      tag_126\n      jumpi\n        /* \"#utility.yul\":404:483   */\n      tag_127\n      tag_128\n      jump\t// in\n    tag_127:\n        /* \"#utility.yul\":350:493   */\n    tag_126:\n        /* \"#utility.yul\":517:518   */\n      0x00\n        /* \"#utility.yul\":502:740   */\n    tag_129:\n        /* \"#utility.yul\":527:533   */\n      dup6\n        /* \"#utility.yul\":524:525   */\n      dup2\n        /* \"#utility.yul\":521:534   */\n      lt\n        /* \"#utility.yul\":502:740   */\n      iszero\n      tag_131\n      jumpi\n        /* \"#utility.yul\":595:598   */\n      dup2\n        /* \"#utility.yul\":624:661   */\n      tag_132\n        /* \"#utility.yul\":657:660   */\n      dup9\n        /* \"#utility.yul\":645:655   */\n      dup3\n        /* \"#utility.yul\":624:661   */\n      tag_133\n      jump\t// in\n    tag_132:\n        /* \"#utility.yul\":619:622   */\n      dup5\n        /* \"#utility.yul\":612:662   */\n      mstore\n        /* \"#utility.yul\":691:695   */\n      0x20\n        /* \"#utility.yul\":686:689   */\n      dup5\n        /* \"#utility.yul\":682:696   */\n      add\n        /* \"#utility.yul\":675:696   */\n      swap4\n      pop\n        /* \"#utility.yul\":725:729   */\n      0x20\n        /* \"#utility.yul\":720:723   */\n      dup4\n        /* \"#utility.yul\":716:730   */\n      add\n        /* \"#utility.yul\":709:730   */\n      swap3\n      pop\n        /* \"#utility.yul\":562:740   */\n      pop\n        /* \"#utility.yul\":549:550   */\n      0x01\n        /* \"#utility.yul\":546:547   */\n      dup2\n        /* \"#utility.yul\":542:551   */\n      add\n        /* \"#utility.yul\":537:551   */\n      swap1\n      pop\n        /* \"#utility.yul\":502:740   */\n      jump(tag_129)\n    tag_131:\n        /* \"#utility.yul\":506:520   */\n      pop\n        /* \"#utility.yul\":126:746   */\n      pop\n      pop\n        /* \"#utility.yul\":24:746   */\n      swap4\n      swap3\n      pop\n      pop\n      pop\n      jump\t// out\n        /* \"#utility.yul\":752:1164   */\n    tag_134:\n        /* \"#utility.yul\":830:835   */\n      0x00\n        /* \"#utility.yul\":855:921   */\n      tag_136\n        /* \"#utility.yul\":871:920   */\n      tag_137\n        /* \"#utility.yul\":913:919   */\n      dup5\n        /* \"#utility.yul\":871:920   */\n      tag_138\n      jump\t// in\n    tag_137:\n        /* \"#utility.yul\":855:921   */\n      tag_125\n      jump\t// in\n    tag_136:\n        /* \"#utility.yul\":846:921   */\n      swap1\n      pop\n        /* \"#utility.yul\":944:950   */\n      dup3\n        /* \"#utility.yul\":937:942   */\n      dup2\n        /* \"#utility.yul\":930:951   */\n      mstore\n        /* \"#utility.yul\":982:986   */\n      0x20\n        /* \"#utility.yul\":975:980   */\n      dup2\n        /* \"#utility.yul\":971:987   */\n      add\n        /* \"#utility.yul\":1020:1023   */\n      dup5\n        /* \"#utility.yul\":1011:1017   */\n      dup5\n        /* \"#utility.yul\":1006:1009   */\n      dup5\n        /* \"#utility.yul\":1002:1018   */\n      add\n        /* \"#utility.yul\":999:1024   */\n      gt\n        /* \"#utility.yul\":996:1108   */\n      iszero\n      tag_139\n      jumpi\n        /* \"#utility.yul\":1027:1106   */\n      tag_140\n      tag_141\n      jump\t// in\n    tag_140:\n        /* \"#utility.yul\":996:1108   */\n    tag_139:\n        /* \"#utility.yul\":1117:1158   */\n      tag_142\n        /* \"#utility.yul\":1151:1157   */\n      dup5\n        /* \"#utility.yul\":1146:1149   */\n      dup3\n        /* \"#utility.yul\":1141:1144   */\n      dup6\n        /* \"#utility.yul\":1117:1158   */\n      tag_143\n      jump\t// in\n    tag_142:\n        /* \"#utility.yul\":836:1164   */\n      pop\n        /* \"#utility.yul\":752:1164   */\n      swap4\n      swap3\n      pop\n      pop\n      pop\n      jump\t// out\n        /* \"#utility.yul\":1187:1557   */\n    tag_144:\n        /* \"#utility.yul\":1258:1263   */\n      0x00\n        /* \"#utility.yul\":1307:1310   */\n      dup3\n        /* \"#utility.yul\":1300:1304   */\n      0x1f\n        /* \"#utility.yul\":1292:1298   */\n      dup4\n        /* \"#utility.yul\":1288:1305   */\n      add\n        /* \"#utility.yul\":1284:1311   */\n      slt\n        /* \"#utility.yul\":1274:1396   */\n      tag_146\n      jumpi\n        /* \"#utility.yul\":1315:1394   */\n      tag_147\n      tag_148\n      jump\t// in\n    tag_147:\n        /* \"#utility.yul\":1274:1396   */\n    tag_146:\n        /* \"#utility.yul\":1432:1438   */\n      dup2\n        /* \"#utility.yul\":1419:1439   */\n      calldataload\n        /* \"#utility.yul\":1457:1551   */\n      tag_149\n        /* \"#utility.yul\":1547:1550   */\n      dup5\n        /* \"#utility.yul\":1539:1545   */\n      dup3\n        /* \"#utility.yul\":1532:1536   */\n      0x20\n        /* \"#utility.yul\":1524:1530   */\n      dup7\n        /* \"#utility.yul\":1520:1537   */\n      add\n        /* \"#utility.yul\":1457:1551   */\n      tag_120\n      jump\t// in\n    tag_149:\n        /* \"#utility.yul\":1448:1551   */\n      swap2\n      pop\n        /* \"#utility.yul\":1264:1557   */\n      pop\n        /* \"#utility.yul\":1187:1557   */\n      swap3\n      swap2\n      pop\n      pop\n      jump\t// out\n        /* \"#utility.yul\":1577:1917   */\n    tag_150:\n        /* \"#utility.yul\":1633:1638   */\n      0x00\n        /* \"#utility.yul\":1682:1685   */\n      dup3\n        /* \"#utility.yul\":1675:1679   */\n      0x1f\n        /* \"#utility.yul\":1667:1673   */\n      dup4\n        /* \"#utility.yul\":1663:1680   */\n      add\n        /* \"#utility.yul\":1659:1686   */\n      slt\n        /* \"#utility.yul\":1649:1771   */\n      tag_152\n      jumpi\n        /* \"#utility.yul\":1690:1769   */\n      tag_153\n      tag_148\n      jump\t// in\n    tag_153:\n        /* \"#utility.yul\":1649:1771   */\n    tag_152:\n        /* \"#utility.yul\":1807:1813   */\n      dup2\n        /* \"#utility.yul\":1794:1814   */\n      calldataload\n        /* \"#utility.yul\":1832:1911   */\n      tag_154\n        /* \"#utility.yul\":1907:1910   */\n      dup5\n        /* \"#utility.yul\":1899:1905   */\n      dup3\n        /* \"#utility.yul\":1892:1896   */\n      0x20\n        /* \"#utility.yul\":1884:1890   */\n      dup7\n        /* \"#utility.yul\":1880:1897   */\n      add\n        /* \"#utility.yul\":1832:1911   */\n      tag_134\n      jump\t// in\n    tag_154:\n        /* \"#utility.yul\":1823:1911   */\n      swap2\n      pop\n        /* \"#utility.yul\":1639:1917   */\n      pop\n        /* \"#utility.yul\":1577:1917   */\n      swap3\n      swap2\n      pop\n      pop\n      jump\t// out\n        /* \"#utility.yul\":1923:2062   */\n    tag_133:\n        /* \"#utility.yul\":1969:1974   */\n      0x00\n        /* \"#utility.yul\":2007:2013   */\n      dup2\n        /* \"#utility.yul\":1994:2014   */\n      calldataload\n        /* \"#utility.yul\":1985:2014   */\n      swap1\n      pop\n        /* \"#utility.yul\":2023:2056   */\n      tag_156\n        /* \"#utility.yul\":2050:2055   */\n      dup2\n        /* \"#utility.yul\":2023:2056   */\n      tag_157\n      jump\t// in\n    tag_156:\n        /* \"#utility.yul\":1923:2062   */\n      swap3\n      swap2\n      pop\n      pop\n      jump\t// out\n        /* \"#utility.yul\":2068:2932   */\n    tag_10:\n        /* \"#utility.yul\":2171:2177   */\n      0x00\n        /* \"#utility.yul\":2179:2185   */\n      dup1\n        /* \"#utility.yul\":2228:2230   */\n      0x40\n        /* \"#utility.yul\":2216:2225   */\n      dup4\n        /* \"#utility.yul\":2207:2214   */\n      dup6\n        /* \"#utility.yul\":2203:2226   */\n      sub\n        /* \"#utility.yul\":2199:2231   */\n      slt\n        /* \"#utility.yul\":2196:2315   */\n      iszero\n      tag_159\n      jumpi\n        /* \"#utility.yul\":2234:2313   */\n      tag_160\n      tag_161\n      jump\t// in\n    tag_160:\n        /* \"#utility.yul\":2196:2315   */\n    tag_159:\n        /* \"#utility.yul\":2382:2383   */\n      0x00\n        /* \"#utility.yul\":2371:2380   */\n      dup4\n        /* \"#utility.yul\":2367:2384   */\n      add\n        /* \"#utility.yul\":2354:2385   */\n      calldataload\n        /* \"#utility.yul\":2412:2430   */\n      0xffffffffffffffff\n        /* \"#utility.yul\":2404:2410   */\n      dup2\n        /* \"#utility.yul\":2401:2431   */\n      gt\n        /* \"#utility.yul\":2398:2515   */\n      iszero\n      tag_162\n      jumpi\n        /* \"#utility.yul\":2434:2513   */\n      tag_163\n      tag_164\n      jump\t// in\n    tag_163:\n        /* \"#utility.yul\":2398:2515   */\n    tag_162:\n        /* \"#utility.yul\":2539:2602   */\n      tag_165\n        /* \"#utility.yul\":2594:2601   */\n      dup6\n        /* \"#utility.yul\":2585:2591   */\n      dup3\n        /* \"#utility.yul\":2574:2583   */\n      dup7\n        /* \"#utility.yul\":2570:2592   */\n      add\n        /* \"#utility.yul\":2539:2602   */\n      tag_150\n      jump\t// in\n    tag_165:\n        /* \"#utility.yul\":2529:2602   */\n      swap3\n      pop\n        /* \"#utility.yul\":2325:2612   */\n      pop\n        /* \"#utility.yul\":2679:2681   */\n      0x20\n        /* \"#utility.yul\":2668:2677   */\n      dup4\n        /* \"#utility.yul\":2664:2682   */\n      add\n        /* \"#utility.yul\":2651:2683   */\n      calldataload\n        /* \"#utility.yul\":2710:2728   */\n      0xffffffffffffffff\n        /* \"#utility.yul\":2702:2708   */\n      dup2\n        /* \"#utility.yul\":2699:2729   */\n      gt\n        /* \"#utility.yul\":2696:2813   */\n      iszero\n      tag_166\n      jumpi\n        /* \"#utility.yul\":2732:2811   */\n      tag_167\n      tag_164\n      jump\t// in\n    tag_167:\n        /* \"#utility.yul\":2696:2813   */\n    tag_166:\n        /* \"#utility.yul\":2837:2915   */\n      tag_168\n        /* \"#utility.yul\":2907:2914   */\n      dup6\n        /* \"#utility.yul\":2898:2904   */\n      dup3\n        /* \"#utility.yul\":2887:2896   */\n      dup7\n        /* \"#utility.yul\":2883:2905   */\n      add\n        /* \"#utility.yul\":2837:2915   */\n      tag_144\n      jump\t// in\n    tag_168:\n        /* \"#utility.yul\":2827:2915   */\n      swap2\n      pop\n        /* \"#utility.yul\":2622:2925   */\n      pop\n        /* \"#utility.yul\":2068:2932   */\n      swap3\n      pop\n      swap3\n      swap1\n      pop\n      jump\t// out\n        /* \"#utility.yul\":2938:3267   */\n    tag_20:\n        /* \"#utility.yul\":2997:3003   */\n      0x00\n        /* \"#utility.yul\":3046:3048   */\n      0x20\n        /* \"#utility.yul\":3034:3043   */\n      dup3\n        /* \"#utility.yul\":3025:3032   */\n      dup5\n        /* \"#utility.yul\":3021:3044   */\n      sub\n        /* \"#utility.yul\":3017:3049   */\n      slt\n        /* \"#utility.yul\":3014:3133   */\n      iszero\n      tag_170\n      jumpi\n        /* \"#utility.yul\":3052:3131   */\n      tag_171\n      tag_161\n      jump\t// in\n    tag_171:\n        /* \"#utility.yul\":3014:3133   */\n    tag_170:\n        /* \"#utility.yul\":3172:3173   */\n      0x00\n        /* \"#utility.yul\":3197:3250   */\n      tag_172\n        /* \"#utility.yul\":3242:3249   */\n      dup5\n        /* \"#utility.yul\":3233:3239   */\n      dup3\n        /* \"#utility.yul\":3222:3231   */\n      dup6\n        /* \"#utility.yul\":3218:3240   */\n      add\n        /* \"#utility.yul\":3197:3250   */\n      tag_133\n      jump\t// in\n    tag_172:\n        /* \"#utility.yul\":3187:3250   */\n      swap2\n      pop\n        /* \"#utility.yul\":3143:3260   */\n      pop\n        /* \"#utility.yul\":2938:3267   */\n      swap3\n      swap2\n      pop\n      pop\n      jump\t// out\n        /* \"#utility.yul\":3273:3452   */\n    tag_173:\n        /* \"#utility.yul\":3342:3352   */\n      0x00\n        /* \"#utility.yul\":3363:3409   */\n      tag_175\n        /* \"#utility.yul\":3405:3408   */\n      dup4\n        /* \"#utility.yul\":3397:3403   */\n      dup4\n        /* \"#utility.yul\":3363:3409   */\n      tag_176\n      jump\t// in\n    tag_175:\n        /* \"#utility.yul\":3441:3445   */\n      0x20\n        /* \"#utility.yul\":3436:3439   */\n      dup4\n        /* \"#utility.yul\":3432:3446   */\n      add\n        /* \"#utility.yul\":3418:3446   */\n      swap1\n      pop\n        /* \"#utility.yul\":3273:3452   */\n      swap3\n      swap2\n      pop\n      pop\n      jump\t// out\n        /* \"#utility.yul\":3458:3566   */\n    tag_177:\n        /* \"#utility.yul\":3535:3559   */\n      tag_179\n        /* \"#utility.yul\":3553:3558   */\n      dup2\n        /* \"#utility.yul\":3535:3559   */\n      tag_180\n      jump\t// in\n    tag_179:\n        /* \"#utility.yul\":3530:3533   */\n      dup3\n        /* \"#utility.yul\":3523:3560   */\n      mstore\n        /* \"#utility.yul\":3458:3566   */\n      pop\n      pop\n      jump\t// out\n        /* \"#utility.yul\":3572:3690   */\n    tag_181:\n        /* \"#utility.yul\":3659:3683   */\n      tag_183\n        /* \"#utility.yul\":3677:3682   */\n      dup2\n        /* \"#utility.yul\":3659:3683   */\n      tag_180\n      jump\t// in\n    tag_183:\n        /* \"#utility.yul\":3654:3657   */\n      dup3\n        /* \"#utility.yul\":3647:3684   */\n      mstore\n        /* \"#utility.yul\":3572:3690   */\n      pop\n      pop\n      jump\t// out\n        /* \"#utility.yul\":3726:4438   */\n    tag_184:\n        /* \"#utility.yul\":3835:3838   */\n      0x00\n        /* \"#utility.yul\":3864:3918   */\n      tag_186\n        /* \"#utility.yul\":3912:3917   */\n      dup3\n        /* \"#utility.yul\":3864:3918   */\n      tag_187\n      jump\t// in\n    tag_186:\n        /* \"#utility.yul\":3934:4010   */\n      tag_188\n        /* \"#utility.yul\":4003:4009   */\n      dup2\n        /* \"#utility.yul\":3998:4001   */\n      dup6\n        /* \"#utility.yul\":3934:4010   */\n      tag_189\n      jump\t// in\n    tag_188:\n        /* \"#utility.yul\":3927:4010   */\n      swap4\n      pop\n        /* \"#utility.yul\":4034:4090   */\n      tag_190\n        /* \"#utility.yul\":4084:4089   */\n      dup4\n        /* \"#utility.yul\":4034:4090   */\n      tag_191\n      jump\t// in\n    tag_190:\n        /* \"#utility.yul\":4113:4120   */\n      dup1\n        /* \"#utility.yul\":4144:4145   */\n      0x00\n        /* \"#utility.yul\":4129:4413   */\n    tag_192:\n        /* \"#utility.yul\":4154:4160   */\n      dup4\n        /* \"#utility.yul\":4151:4152   */\n      dup2\n        /* \"#utility.yul\":4148:4161   */\n      lt\n        /* \"#utility.yul\":4129:4413   */\n      iszero\n      tag_194\n      jumpi\n        /* \"#utility.yul\":4230:4236   */\n      dup2\n        /* \"#utility.yul\":4224:4237   */\n      mload\n        /* \"#utility.yul\":4257:4320   */\n      tag_195\n        /* \"#utility.yul\":4316:4319   */\n      dup9\n        /* \"#utility.yul\":4301:4314   */\n      dup3\n        /* \"#utility.yul\":4257:4320   */\n      tag_173\n      jump\t// in\n    tag_195:\n        /* \"#utility.yul\":4250:4320   */\n      swap8\n      pop\n        /* \"#utility.yul\":4343:4403   */\n      tag_196\n        /* \"#utility.yul\":4396:4402   */\n      dup4\n        /* \"#utility.yul\":4343:4403   */\n      tag_197\n      jump\t// in\n    tag_196:\n        /* \"#utility.yul\":4333:4403   */\n      swap3\n      pop\n        /* \"#utility.yul\":4189:4413   */\n      pop\n        /* \"#utility.yul\":4176:4177   */\n      0x01\n        /* \"#utility.yul\":4173:4174   */\n      dup2\n        /* \"#utility.yul\":4169:4178   */\n      add\n        /* \"#utility.yul\":4164:4178   */\n      swap1\n      pop\n        /* \"#utility.yul\":4129:4413   */\n      jump(tag_192)\n    tag_194:\n        /* \"#utility.yul\":4133:4147   */\n      pop\n        /* \"#utility.yul\":4429:4432   */\n      dup6\n        /* \"#utility.yul\":4422:4432   */\n      swap4\n      pop\n        /* \"#utility.yul\":3840:4438   */\n      pop\n      pop\n      pop\n        /* \"#utility.yul\":3726:4438   */\n      swap3\n      swap2\n      pop\n      pop\n      jump\t// out\n        /* \"#utility.yul\":4444:4577   */\n    tag_198:\n        /* \"#utility.yul\":4527:4570   */\n      tag_200\n        /* \"#utility.yul\":4564:4569   */\n      dup2\n        /* \"#utility.yul\":4527:4570   */\n      tag_201\n      jump\t// in\n    tag_200:\n        /* \"#utility.yul\":4522:4525   */\n      dup3\n        /* \"#utility.yul\":4515:4571   */\n      mstore\n        /* \"#utility.yul\":4444:4577   */\n      pop\n      pop\n      jump\t// out\n        /* \"#utility.yul\":4583:4726   */\n    tag_202:\n        /* \"#utility.yul\":4676:4719   */\n      tag_204\n        /* \"#utility.yul\":4713:4718   */\n      dup2\n        /* \"#utility.yul\":4676:4719   */\n      tag_201\n      jump\t// in\n    tag_204:\n        /* \"#utility.yul\":4671:4674   */\n      dup3\n        /* \"#utility.yul\":4664:4720   */\n      mstore\n        /* \"#utility.yul\":4583:4726   */\n      pop\n      pop\n      jump\t// out\n        /* \"#utility.yul\":4732:5076   */\n    tag_205:\n        /* \"#utility.yul\":4810:4813   */\n      0x00\n        /* \"#utility.yul\":4838:4877   */\n      tag_207\n        /* \"#utility.yul\":4871:4876   */\n      dup3\n        /* \"#utility.yul\":4838:4877   */\n      tag_208\n      jump\t// in\n    tag_207:\n        /* \"#utility.yul\":4893:4954   */\n      tag_209\n        /* \"#utility.yul\":4947:4953   */\n      dup2\n        /* \"#utility.yul\":4942:4945   */\n      dup6\n        /* \"#utility.yul\":4893:4954   */\n      tag_210\n      jump\t// in\n    tag_209:\n        /* \"#utility.yul\":4886:4954   */\n      swap4\n      pop\n        /* \"#utility.yul\":4963:5015   */\n      tag_211\n        /* \"#utility.yul\":5008:5014   */\n      dup2\n        /* \"#utility.yul\":5003:5006   */\n      dup6\n        /* \"#utility.yul\":4996:5000   */\n      0x20\n        /* \"#utility.yul\":4989:4994   */\n      dup7\n        /* \"#utility.yul\":4985:5001   */\n      add\n        /* \"#utility.yul\":4963:5015   */\n      tag_212\n      jump\t// in\n    tag_211:\n        /* \"#utility.yul\":5040:5069   */\n      tag_213\n        /* \"#utility.yul\":5062:5068   */\n      dup2\n        /* \"#utility.yul\":5040:5069   */\n      tag_214\n      jump\t// in\n    tag_213:\n        /* \"#utility.yul\":5035:5038   */\n      dup5\n        /* \"#utility.yul\":5031:5070   */\n      add\n        /* \"#utility.yul\":5024:5070   */\n      swap2\n      pop\n        /* \"#utility.yul\":4814:5076   */\n      pop\n        /* \"#utility.yul\":4732:5076   */\n      swap3\n      swap2\n      pop\n      pop\n      jump\t// out\n        /* \"#utility.yul\":5082:5446   */\n    tag_215:\n        /* \"#utility.yul\":5170:5173   */\n      0x00\n        /* \"#utility.yul\":5198:5237   */\n      tag_217\n        /* \"#utility.yul\":5231:5236   */\n      dup3\n        /* \"#utility.yul\":5198:5237   */\n      tag_208\n      jump\t// in\n    tag_217:\n        /* \"#utility.yul\":5253:5324   */\n      tag_218\n        /* \"#utility.yul\":5317:5323   */\n      dup2\n        /* \"#utility.yul\":5312:5315   */\n      dup6\n        /* \"#utility.yul\":5253:5324   */\n      tag_219\n      jump\t// in\n    tag_218:\n        /* \"#utility.yul\":5246:5324   */\n      swap4\n      pop\n        /* \"#utility.yul\":5333:5385   */\n      tag_220\n        /* \"#utility.yul\":5378:5384   */\n      dup2\n        /* \"#utility.yul\":5373:5376   */\n      dup6\n        /* \"#utility.yul\":5366:5370   */\n      0x20\n        /* \"#utility.yul\":5359:5364   */\n      dup7\n        /* \"#utility.yul\":5355:5371   */\n      add\n        /* \"#utility.yul\":5333:5385   */\n      tag_212\n      jump\t// in\n    tag_220:\n        /* \"#utility.yul\":5410:5439   */\n      tag_221\n        /* \"#utility.yul\":5432:5438   */\n      dup2\n        /* \"#utility.yul\":5410:5439   */\n      tag_214\n      jump\t// in\n    tag_221:\n        /* \"#utility.yul\":5405:5408   */\n      dup5\n        /* \"#utility.yul\":5401:5440   */\n      add\n        /* \"#utility.yul\":5394:5440   */\n      swap2\n      pop\n        /* \"#utility.yul\":5174:5446   */\n      pop\n        /* \"#utility.yul\":5082:5446   */\n      swap3\n      swap2\n      pop\n      pop\n      jump\t// out\n        /* \"#utility.yul\":5452:5818   */\n    tag_222:\n        /* \"#utility.yul\":5594:5597   */\n      0x00\n        /* \"#utility.yul\":5615:5682   */\n      tag_224\n        /* \"#utility.yul\":5679:5681   */\n      0x15\n        /* \"#utility.yul\":5674:5677   */\n      dup4\n        /* \"#utility.yul\":5615:5682   */\n      tag_219\n      jump\t// in\n    tag_224:\n        /* \"#utility.yul\":5608:5682   */\n      swap2\n      pop\n        /* \"#utility.yul\":5691:5784   */\n      tag_225\n        /* \"#utility.yul\":5780:5783   */\n      dup3\n        /* \"#utility.yul\":5691:5784   */\n      tag_226\n      jump\t// in\n    tag_225:\n        /* \"#utility.yul\":5809:5811   */\n      0x20\n        /* \"#utility.yul\":5804:5807   */\n      dup3\n        /* \"#utility.yul\":5800:5812   */\n      add\n        /* \"#utility.yul\":5793:5812   */\n      swap1\n      pop\n        /* \"#utility.yul\":5452:5818   */\n      swap2\n      swap1\n      pop\n      jump\t// out\n        /* \"#utility.yul\":5824:6190   */\n    tag_227:\n        /* \"#utility.yul\":5966:5969   */\n      0x00\n        /* \"#utility.yul\":5987:6054   */\n      tag_229\n        /* \"#utility.yul\":6051:6053   */\n      0x0f\n        /* \"#utility.yul\":6046:6049   */\n      dup4\n        /* \"#utility.yul\":5987:6054   */\n      tag_219\n      jump\t// in\n    tag_229:\n        /* \"#utility.yul\":5980:6054   */\n      swap2\n      pop\n        /* \"#utility.yul\":6063:6156   */\n      tag_230\n        /* \"#utility.yul\":6152:6155   */\n      dup3\n        /* \"#utility.yul\":6063:6156   */\n      tag_231\n      jump\t// in\n    tag_230:\n        /* \"#utility.yul\":6181:6183   */\n      0x20\n        /* \"#utility.yul\":6176:6179   */\n      dup3\n        /* \"#utility.yul\":6172:6184   */\n      add\n        /* \"#utility.yul\":6165:6184   */\n      swap1\n      pop\n        /* \"#utility.yul\":5824:6190   */\n      swap2\n      swap1\n      pop\n      jump\t// out\n        /* \"#utility.yul\":6196:6562   */\n    tag_232:\n        /* \"#utility.yul\":6338:6341   */\n      0x00\n        /* \"#utility.yul\":6359:6426   */\n      tag_234\n        /* \"#utility.yul\":6423:6425   */\n      0x1a\n        /* \"#utility.yul\":6418:6421   */\n      dup4\n        /* \"#utility.yul\":6359:6426   */\n      tag_219\n      jump\t// in\n    tag_234:\n        /* \"#utility.yul\":6352:6426   */\n      swap2\n      pop\n        /* \"#utility.yul\":6435:6528   */\n      tag_235\n        /* \"#utility.yul\":6524:6527   */\n      dup3\n        /* \"#utility.yul\":6435:6528   */\n      tag_236\n      jump\t// in\n    tag_235:\n        /* \"#utility.yul\":6553:6555   */\n      0x20\n        /* \"#utility.yul\":6548:6551   */\n      dup3\n        /* \"#utility.yul\":6544:6556   */\n      add\n        /* \"#utility.yul\":6537:6556   */\n      swap1\n      pop\n        /* \"#utility.yul\":6196:6562   */\n      swap2\n      swap1\n      pop\n      jump\t// out\n        /* \"#utility.yul\":6568:6934   */\n    tag_237:\n        /* \"#utility.yul\":6710:6713   */\n      0x00\n        /* \"#utility.yul\":6731:6798   */\n      tag_239\n        /* \"#utility.yul\":6795:6797   */\n      0x0d\n        /* \"#utility.yul\":6790:6793   */\n      dup4\n        /* \"#utility.yul\":6731:6798   */\n      tag_219\n      jump\t// in\n    tag_239:\n        /* \"#utility.yul\":6724:6798   */\n      swap2\n      pop\n        /* \"#utility.yul\":6807:6900   */\n      tag_240\n        /* \"#utility.yul\":6896:6899   */\n      dup3\n        /* \"#utility.yul\":6807:6900   */\n      tag_241\n      jump\t// in\n    tag_240:\n        /* \"#utility.yul\":6925:6927   */\n      0x20\n        /* \"#utility.yul\":6920:6923   */\n      dup3\n        /* \"#utility.yul\":6916:6928   */\n      add\n        /* \"#utility.yul\":6909:6928   */\n      swap1\n      pop\n        /* \"#utility.yul\":6568:6934   */\n      swap2\n      swap1\n      pop\n      jump\t// out\n        /* \"#utility.yul\":6988:8054   */\n    tag_242:\n        /* \"#utility.yul\":7099:7102   */\n      0x00\n        /* \"#utility.yul\":7135:7139   */\n      0x80\n        /* \"#utility.yul\":7130:7133   */\n      dup4\n        /* \"#utility.yul\":7126:7140   */\n      add\n        /* \"#utility.yul\":7226:7230   */\n      0x00\n        /* \"#utility.yul\":7219:7224   */\n      dup4\n        /* \"#utility.yul\":7215:7231   */\n      add\n        /* \"#utility.yul\":7209:7232   */\n      mload\n        /* \"#utility.yul\":7245:7308   */\n      tag_244\n        /* \"#utility.yul\":7302:7306   */\n      0x00\n        /* \"#utility.yul\":7297:7300   */\n      dup7\n        /* \"#utility.yul\":7293:7307   */\n      add\n        /* \"#utility.yul\":7279:7291   */\n      dup3\n        /* \"#utility.yul\":7245:7308   */\n      tag_177\n      jump\t// in\n    tag_244:\n        /* \"#utility.yul\":7150:7318   */\n      pop\n        /* \"#utility.yul\":7403:7407   */\n      0x20\n        /* \"#utility.yul\":7396:7401   */\n      dup4\n        /* \"#utility.yul\":7392:7408   */\n      add\n        /* \"#utility.yul\":7386:7409   */\n      mload\n        /* \"#utility.yul\":7456:7459   */\n      dup5\n        /* \"#utility.yul\":7450:7454   */\n      dup3\n        /* \"#utility.yul\":7446:7460   */\n      sub\n        /* \"#utility.yul\":7439:7443   */\n      0x20\n        /* \"#utility.yul\":7434:7437   */\n      dup7\n        /* \"#utility.yul\":7430:7444   */\n      add\n        /* \"#utility.yul\":7423:7461   */\n      mstore\n        /* \"#utility.yul\":7482:7555   */\n      tag_245\n        /* \"#utility.yul\":7550:7554   */\n      dup3\n        /* \"#utility.yul\":7536:7548   */\n      dup3\n        /* \"#utility.yul\":7482:7555   */\n      tag_205\n      jump\t// in\n    tag_245:\n        /* \"#utility.yul\":7474:7555   */\n      swap2\n      pop\n        /* \"#utility.yul\":7328:7566   */\n      pop\n        /* \"#utility.yul\":7652:7656   */\n      0x40\n        /* \"#utility.yul\":7645:7650   */\n      dup4\n        /* \"#utility.yul\":7641:7657   */\n      add\n        /* \"#utility.yul\":7635:7658   */\n      mload\n        /* \"#utility.yul\":7705:7708   */\n      dup5\n        /* \"#utility.yul\":7699:7703   */\n      dup3\n        /* \"#utility.yul\":7695:7709   */\n      sub\n        /* \"#utility.yul\":7688:7692   */\n      0x40\n        /* \"#utility.yul\":7683:7686   */\n      dup7\n        /* \"#utility.yul\":7679:7693   */\n      add\n        /* \"#utility.yul\":7672:7710   */\n      mstore\n        /* \"#utility.yul\":7731:7834   */\n      tag_246\n        /* \"#utility.yul\":7829:7833   */\n      dup3\n        /* \"#utility.yul\":7815:7827   */\n      dup3\n        /* \"#utility.yul\":7731:7834   */\n      tag_184\n      jump\t// in\n    tag_246:\n        /* \"#utility.yul\":7723:7834   */\n      swap2\n      pop\n        /* \"#utility.yul\":7576:7845   */\n      pop\n        /* \"#utility.yul\":7929:7933   */\n      0x60\n        /* \"#utility.yul\":7922:7927   */\n      dup4\n        /* \"#utility.yul\":7918:7934   */\n      add\n        /* \"#utility.yul\":7912:7935   */\n      mload\n        /* \"#utility.yul\":7948:8017   */\n      tag_247\n        /* \"#utility.yul\":8011:8015   */\n      0x60\n        /* \"#utility.yul\":8006:8009   */\n      dup7\n        /* \"#utility.yul\":8002:8016   */\n      add\n        /* \"#utility.yul\":7988:8000   */\n      dup3\n        /* \"#utility.yul\":7948:8017   */\n      tag_198\n      jump\t// in\n    tag_247:\n        /* \"#utility.yul\":7855:8027   */\n      pop\n        /* \"#utility.yul\":8044:8048   */\n      dup1\n        /* \"#utility.yul\":8037:8048   */\n      swap2\n      pop\n        /* \"#utility.yul\":7104:8054   */\n      pop\n        /* \"#utility.yul\":6988:8054   */\n      swap3\n      swap2\n      pop\n      pop\n      jump\t// out\n        /* \"#utility.yul\":8060:8168   */\n    tag_176:\n        /* \"#utility.yul\":8137:8161   */\n      tag_249\n        /* \"#utility.yul\":8155:8160   */\n      dup2\n        /* \"#utility.yul\":8137:8161   */\n      tag_250\n      jump\t// in\n    tag_249:\n        /* \"#utility.yul\":8132:8135   */\n      dup3\n        /* \"#utility.yul\":8125:8162   */\n      mstore\n        /* \"#utility.yul\":8060:8168   */\n      pop\n      pop\n      jump\t// out\n        /* \"#utility.yul\":8174:8292   */\n    tag_251:\n        /* \"#utility.yul\":8261:8285   */\n      tag_253\n        /* \"#utility.yul\":8279:8284   */\n      dup2\n        /* \"#utility.yul\":8261:8285   */\n      tag_250\n      jump\t// in\n    tag_253:\n        /* \"#utility.yul\":8256:8259   */\n      dup3\n        /* \"#utility.yul\":8249:8286   */\n      mstore\n        /* \"#utility.yul\":8174:8292   */\n      pop\n      pop\n      jump\t// out\n        /* \"#utility.yul\":8298:8520   */\n    tag_17:\n        /* \"#utility.yul\":8391:8395   */\n      0x00\n        /* \"#utility.yul\":8429:8431   */\n      0x20\n        /* \"#utility.yul\":8418:8427   */\n      dup3\n        /* \"#utility.yul\":8414:8432   */\n      add\n        /* \"#utility.yul\":8406:8432   */\n      swap1\n      pop\n        /* \"#utility.yul\":8442:8513   */\n      tag_255\n        /* \"#utility.yul\":8510:8511   */\n      0x00\n        /* \"#utility.yul\":8499:8508   */\n      dup4\n        /* \"#utility.yul\":8495:8512   */\n      add\n        /* \"#utility.yul\":8486:8492   */\n      dup5\n        /* \"#utility.yul\":8442:8513   */\n      tag_181\n      jump\t// in\n    tag_255:\n        /* \"#utility.yul\":8298:8520   */\n      swap3\n      swap2\n      pop\n      pop\n      jump\t// out\n        /* \"#utility.yul\":8526:9071   */\n    tag_23:\n        /* \"#utility.yul\":8701:8705   */\n      0x00\n        /* \"#utility.yul\":8739:8741   */\n      0x60\n        /* \"#utility.yul\":8728:8737   */\n      dup3\n        /* \"#utility.yul\":8724:8742   */\n      add\n        /* \"#utility.yul\":8716:8742   */\n      swap1\n      pop\n        /* \"#utility.yul\":8752:8823   */\n      tag_257\n        /* \"#utility.yul\":8820:8821   */\n      0x00\n        /* \"#utility.yul\":8809:8818   */\n      dup4\n        /* \"#utility.yul\":8805:8822   */\n      add\n        /* \"#utility.yul\":8796:8802   */\n      dup7\n        /* \"#utility.yul\":8752:8823   */\n      tag_181\n      jump\t// in\n    tag_257:\n        /* \"#utility.yul\":8870:8879   */\n      dup2\n        /* \"#utility.yul\":8864:8868   */\n      dup2\n        /* \"#utility.yul\":8860:8880   */\n      sub\n        /* \"#utility.yul\":8855:8857   */\n      0x20\n        /* \"#utility.yul\":8844:8853   */\n      dup4\n        /* \"#utility.yul\":8840:8858   */\n      add\n        /* \"#utility.yul\":8833:8881   */\n      mstore\n        /* \"#utility.yul\":8898:8976   */\n      tag_258\n        /* \"#utility.yul\":8971:8975   */\n      dup2\n        /* \"#utility.yul\":8962:8968   */\n      dup6\n        /* \"#utility.yul\":8898:8976   */\n      tag_215\n      jump\t// in\n    tag_258:\n        /* \"#utility.yul\":8890:8976   */\n      swap1\n      pop\n        /* \"#utility.yul\":8986:9064   */\n      tag_259\n        /* \"#utility.yul\":9060:9062   */\n      0x40\n        /* \"#utility.yul\":9049:9058   */\n      dup4\n        /* \"#utility.yul\":9045:9063   */\n      add\n        /* \"#utility.yul\":9036:9042   */\n      dup5\n        /* \"#utility.yul\":8986:9064   */\n      tag_202\n      jump\t// in\n    tag_259:\n        /* \"#utility.yul\":8526:9071   */\n      swap5\n      swap4\n      pop\n      pop\n      pop\n      pop\n      jump\t// out\n        /* \"#utility.yul\":9077:9496   */\n    tag_66:\n        /* \"#utility.yul\":9243:9247   */\n      0x00\n        /* \"#utility.yul\":9281:9283   */\n      0x20\n        /* \"#utility.yul\":9270:9279   */\n      dup3\n        /* \"#utility.yul\":9266:9284   */\n      add\n        /* \"#utility.yul\":9258:9284   */\n      swap1\n      pop\n        /* \"#utility.yul\":9330:9339   */\n      dup2\n        /* \"#utility.yul\":9324:9328   */\n      dup2\n        /* \"#utility.yul\":9320:9340   */\n      sub\n        /* \"#utility.yul\":9316:9317   */\n      0x00\n        /* \"#utility.yul\":9305:9314   */\n      dup4\n        /* \"#utility.yul\":9301:9318   */\n      add\n        /* \"#utility.yul\":9294:9341   */\n      mstore\n        /* \"#utility.yul\":9358:9489   */\n      tag_261\n        /* \"#utility.yul\":9484:9488   */\n      dup2\n        /* \"#utility.yul\":9358:9489   */\n      tag_222\n      jump\t// in\n    tag_261:\n        /* \"#utility.yul\":9350:9489   */\n      swap1\n      pop\n        /* \"#utility.yul\":9077:9496   */\n      swap2\n      swap1\n      pop\n      jump\t// out\n        /* \"#utility.yul\":9502:9921   */\n    tag_63:\n        /* \"#utility.yul\":9668:9672   */\n      0x00\n        /* \"#utility.yul\":9706:9708   */\n      0x20\n        /* \"#utility.yul\":9695:9704   */\n      dup3\n        /* \"#utility.yul\":9691:9709   */\n      add\n        /* \"#utility.yul\":9683:9709   */\n      swap1\n      pop\n        /* \"#utility.yul\":9755:9764   */\n      dup2\n        /* \"#utility.yul\":9749:9753   */\n      dup2\n        /* \"#utility.yul\":9745:9765   */\n      sub\n        /* \"#utility.yul\":9741:9742   */\n      0x00\n        /* \"#utility.yul\":9730:9739   */\n      dup4\n        /* \"#utility.yul\":9726:9743   */\n      add\n        /* \"#utility.yul\":9719:9766   */\n      mstore\n        /* \"#utility.yul\":9783:9914   */\n      tag_263\n        /* \"#utility.yul\":9909:9913   */\n      dup2\n        /* \"#utility.yul\":9783:9914   */\n      tag_227\n      jump\t// in\n    tag_263:\n        /* \"#utility.yul\":9775:9914   */\n      swap1\n      pop\n        /* \"#utility.yul\":9502:9921   */\n      swap2\n      swap1\n      pop\n      jump\t// out\n        /* \"#utility.yul\":9927:10346   */\n    tag_77:\n        /* \"#utility.yul\":10093:10097   */\n      0x00\n        /* \"#utility.yul\":10131:10133   */\n      0x20\n        /* \"#utility.yul\":10120:10129   */\n      dup3\n        /* \"#utility.yul\":10116:10134   */\n      add\n        /* \"#utility.yul\":10108:10134   */\n      swap1\n      pop\n        /* \"#utility.yul\":10180:10189   */\n      dup2\n        /* \"#utility.yul\":10174:10178   */\n      dup2\n        /* \"#utility.yul\":10170:10190   */\n      sub\n        /* \"#utility.yul\":10166:10167   */\n      0x00\n        /* \"#utility.yul\":10155:10164   */\n      dup4\n        /* \"#utility.yul\":10151:10168   */\n      add\n        /* \"#utility.yul\":10144:10191   */\n      mstore\n        /* \"#utility.yul\":10208:10339   */\n      tag_265\n        /* \"#utility.yul\":10334:10338   */\n      dup2\n        /* \"#utility.yul\":10208:10339   */\n      tag_232\n      jump\t// in\n    tag_265:\n        /* \"#utility.yul\":10200:10339   */\n      swap1\n      pop\n        /* \"#utility.yul\":9927:10346   */\n      swap2\n      swap1\n      pop\n      jump\t// out\n        /* \"#utility.yul\":10352:10771   */\n    tag_35:\n        /* \"#utility.yul\":10518:10522   */\n      0x00\n        /* \"#utility.yul\":10556:10558   */\n      0x20\n        /* \"#utility.yul\":10545:10554   */\n      dup3\n        /* \"#utility.yul\":10541:10559   */\n      add\n        /* \"#utility.yul\":10533:10559   */\n      swap1\n      pop\n        /* \"#utility.yul\":10605:10614   */\n      dup2\n        /* \"#utility.yul\":10599:10603   */\n      dup2\n        /* \"#utility.yul\":10595:10615   */\n      sub\n        /* \"#utility.yul\":10591:10592   */\n      0x00\n        /* \"#utility.yul\":10580:10589   */\n      dup4\n        /* \"#utility.yul\":10576:10593   */\n      add\n        /* \"#utility.yul\":10569:10616   */\n      mstore\n        /* \"#utility.yul\":10633:10764   */\n      tag_267\n        /* \"#utility.yul\":10759:10763   */\n      dup2\n        /* \"#utility.yul\":10633:10764   */\n      tag_237\n      jump\t// in\n    tag_267:\n        /* \"#utility.yul\":10625:10764   */\n      swap1\n      pop\n        /* \"#utility.yul\":10352:10771   */\n      swap2\n      swap1\n      pop\n      jump\t// out\n        /* \"#utility.yul\":10777:11134   */\n    tag_31:\n        /* \"#utility.yul\":10912:10916   */\n      0x00\n        /* \"#utility.yul\":10950:10952   */\n      0x20\n        /* \"#utility.yul\":10939:10948   */\n      dup3\n        /* \"#utility.yul\":10935:10953   */\n      add\n        /* \"#utility.yul\":10927:10953   */\n      swap1\n      pop\n        /* \"#utility.yul\":10999:11008   */\n      dup2\n        /* \"#utility.yul\":10993:10997   */\n      dup2\n        /* \"#utility.yul\":10989:11009   */\n      sub\n        /* \"#utility.yul\":10985:10986   */\n      0x00\n        /* \"#utility.yul\":10974:10983   */\n      dup4\n        /* \"#utility.yul\":10970:10987   */\n      add\n        /* \"#utility.yul\":10963:11010   */\n      mstore\n        /* \"#utility.yul\":11027:11127   */\n      tag_269\n        /* \"#utility.yul\":11122:11126   */\n      dup2\n        /* \"#utility.yul\":11113:11119   */\n      dup5\n        /* \"#utility.yul\":11027:11127   */\n      tag_242\n      jump\t// in\n    tag_269:\n        /* \"#utility.yul\":11019:11127   */\n      swap1\n      pop\n        /* \"#utility.yul\":10777:11134   */\n      swap3\n      swap2\n      pop\n      pop\n      jump\t// out\n        /* \"#utility.yul\":11140:11362   */\n    tag_13:\n        /* \"#utility.yul\":11233:11237   */\n      0x00\n        /* \"#utility.yul\":11271:11273   */\n      0x20\n        /* \"#utility.yul\":11260:11269   */\n      dup3\n        /* \"#utility.yul\":11256:11274   */\n      add\n        /* \"#utility.yul\":11248:11274   */\n      swap1\n      pop\n        /* \"#utility.yul\":11284:11355   */\n      tag_271\n        /* \"#utility.yul\":11352:11353   */\n      0x00\n        /* \"#utility.yul\":11341:11350   */\n      dup4\n        /* \"#utility.yul\":11337:11354   */\n      add\n        /* \"#utility.yul\":11328:11334   */\n      dup5\n        /* \"#utility.yul\":11284:11355   */\n      tag_251\n      jump\t// in\n    tag_271:\n        /* \"#utility.yul\":11140:11362   */\n      swap3\n      swap2\n      pop\n      pop\n      jump\t// out\n        /* \"#utility.yul\":11368:11497   */\n    tag_125:\n        /* \"#utility.yul\":11402:11408   */\n      0x00\n        /* \"#utility.yul\":11429:11449   */\n      tag_273\n      tag_274\n      jump\t// in\n    tag_273:\n        /* \"#utility.yul\":11419:11449   */\n      swap1\n      pop\n        /* \"#utility.yul\":11458:11491   */\n      tag_275\n        /* \"#utility.yul\":11486:11490   */\n      dup3\n        /* \"#utility.yul\":11478:11484   */\n      dup3\n        /* \"#utility.yul\":11458:11491   */\n      tag_276\n      jump\t// in\n    tag_275:\n        /* \"#utility.yul\":11368:11497   */\n      swap2\n      swap1\n      pop\n      jump\t// out\n        /* \"#utility.yul\":11503:11578   */\n    tag_274:\n        /* \"#utility.yul\":11536:11542   */\n      0x00\n        /* \"#utility.yul\":11569:11571   */\n      0x40\n        /* \"#utility.yul\":11563:11572   */\n      mload\n        /* \"#utility.yul\":11553:11572   */\n      swap1\n      pop\n        /* \"#utility.yul\":11503:11578   */\n      swap1\n      jump\t// out\n        /* \"#utility.yul\":11584:11895   */\n    tag_124:\n        /* \"#utility.yul\":11661:11665   */\n      0x00\n        /* \"#utility.yul\":11751:11769   */\n      0xffffffffffffffff\n        /* \"#utility.yul\":11743:11749   */\n      dup3\n        /* \"#utility.yul\":11740:11770   */\n      gt\n        /* \"#utility.yul\":11737:11793   */\n      iszero\n      tag_279\n      jumpi\n        /* \"#utility.yul\":11773:11791   */\n      tag_280\n      tag_281\n      jump\t// in\n    tag_280:\n        /* \"#utility.yul\":11737:11793   */\n    tag_279:\n        /* \"#utility.yul\":11823:11827   */\n      0x20\n        /* \"#utility.yul\":11815:11821   */\n      dup3\n        /* \"#utility.yul\":11811:11828   */\n      mul\n        /* \"#utility.yul\":11803:11828   */\n      swap1\n      pop\n        /* \"#utility.yul\":11883:11887   */\n      0x20\n        /* \"#utility.yul\":11877:11881   */\n      dup2\n        /* \"#utility.yul\":11873:11888   */\n      add\n        /* \"#utility.yul\":11865:11888   */\n      swap1\n      pop\n        /* \"#utility.yul\":11584:11895   */\n      swap2\n      swap1\n      pop\n      jump\t// out\n        /* \"#utility.yul\":11901:12209   */\n    tag_138:\n        /* \"#utility.yul\":11963:11967   */\n      0x00\n        /* \"#utility.yul\":12053:12071   */\n      0xffffffffffffffff\n        /* \"#utility.yul\":12045:12051   */\n      dup3\n        /* \"#utility.yul\":12042:12072   */\n      gt\n        /* \"#utility.yul\":12039:12095   */\n      iszero\n      tag_283\n      jumpi\n        /* \"#utility.yul\":12075:12093   */\n      tag_284\n      tag_281\n      jump\t// in\n    tag_284:\n        /* \"#utility.yul\":12039:12095   */\n    tag_283:\n        /* \"#utility.yul\":12113:12142   */\n      tag_285\n        /* \"#utility.yul\":12135:12141   */\n      dup3\n        /* \"#utility.yul\":12113:12142   */\n      tag_214\n      jump\t// in\n    tag_285:\n        /* \"#utility.yul\":12105:12142   */\n      swap1\n      pop\n        /* \"#utility.yul\":12197:12201   */\n      0x20\n        /* \"#utility.yul\":12191:12195   */\n      dup2\n        /* \"#utility.yul\":12187:12202   */\n      add\n        /* \"#utility.yul\":12179:12202   */\n      swap1\n      pop\n        /* \"#utility.yul\":11901:12209   */\n      swap2\n      swap1\n      pop\n      jump\t// out\n        /* \"#utility.yul\":12215:12347   */\n    tag_191:\n        /* \"#utility.yul\":12282:12286   */\n      0x00\n        /* \"#utility.yul\":12305:12308   */\n      dup2\n        /* \"#utility.yul\":12297:12308   */\n      swap1\n      pop\n        /* \"#utility.yul\":12335:12339   */\n      0x20\n        /* \"#utility.yul\":12330:12333   */\n      dup3\n        /* \"#utility.yul\":12326:12340   */\n      add\n        /* \"#utility.yul\":12318:12340   */\n      swap1\n      pop\n        /* \"#utility.yul\":12215:12347   */\n      swap2\n      swap1\n      pop\n      jump\t// out\n        /* \"#utility.yul\":12353:12467   */\n    tag_187:\n        /* \"#utility.yul\":12420:12426   */\n      0x00\n        /* \"#utility.yul\":12454:12459   */\n      dup2\n        /* \"#utility.yul\":12448:12460   */\n      mload\n        /* \"#utility.yul\":12438:12460   */\n      swap1\n      pop\n        /* \"#utility.yul\":12353:12467   */\n      swap2\n      swap1\n      pop\n      jump\t// out\n        /* \"#utility.yul\":12473:12572   */\n    tag_208:\n        /* \"#utility.yul\":12525:12531   */\n      0x00\n        /* \"#utility.yul\":12559:12564   */\n      dup2\n        /* \"#utility.yul\":12553:12565   */\n      mload\n        /* \"#utility.yul\":12543:12565   */\n      swap1\n      pop\n        /* \"#utility.yul\":12473:12572   */\n      swap2\n      swap1\n      pop\n      jump\t// out\n        /* \"#utility.yul\":12578:12691   */\n    tag_197:\n        /* \"#utility.yul\":12648:12652   */\n      0x00\n        /* \"#utility.yul\":12680:12684   */\n      0x20\n        /* \"#utility.yul\":12675:12678   */\n      dup3\n        /* \"#utility.yul\":12671:12685   */\n      add\n        /* \"#utility.yul\":12663:12685   */\n      swap1\n      pop\n        /* \"#utility.yul\":12578:12691   */\n      swap2\n      swap1\n      pop\n      jump\t// out\n        /* \"#utility.yul\":12697:12871   */\n    tag_189:\n        /* \"#utility.yul\":12786:12797   */\n      0x00\n        /* \"#utility.yul\":12820:12826   */\n      dup3\n        /* \"#utility.yul\":12815:12818   */\n      dup3\n        /* \"#utility.yul\":12808:12827   */\n      mstore\n        /* \"#utility.yul\":12860:12864   */\n      0x20\n        /* \"#utility.yul\":12855:12858   */\n      dup3\n        /* \"#utility.yul\":12851:12865   */\n      add\n        /* \"#utility.yul\":12836:12865   */\n      swap1\n      pop\n        /* \"#utility.yul\":12697:12871   */\n      swap3\n      swap2\n      pop\n      pop\n      jump\t// out\n        /* \"#utility.yul\":12877:13036   */\n    tag_210:\n        /* \"#utility.yul\":12951:12962   */\n      0x00\n        /* \"#utility.yul\":12985:12991   */\n      dup3\n        /* \"#utility.yul\":12980:12983   */\n      dup3\n        /* \"#utility.yul\":12973:12992   */\n      mstore\n        /* \"#utility.yul\":13025:13029   */\n      0x20\n        /* \"#utility.yul\":13020:13023   */\n      dup3\n        /* \"#utility.yul\":13016:13030   */\n      add\n        /* \"#utility.yul\":13001:13030   */\n      swap1\n      pop\n        /* \"#utility.yul\":12877:13036   */\n      swap3\n      swap2\n      pop\n      pop\n      jump\t// out\n        /* \"#utility.yul\":13042:13211   */\n    tag_219:\n        /* \"#utility.yul\":13126:13137   */\n      0x00\n        /* \"#utility.yul\":13160:13166   */\n      dup3\n        /* \"#utility.yul\":13155:13158   */\n      dup3\n        /* \"#utility.yul\":13148:13167   */\n      mstore\n        /* \"#utility.yul\":13200:13204   */\n      0x20\n        /* \"#utility.yul\":13195:13198   */\n      dup3\n        /* \"#utility.yul\":13191:13205   */\n      add\n        /* \"#utility.yul\":13176:13205   */\n      swap1\n      pop\n        /* \"#utility.yul\":13042:13211   */\n      swap3\n      swap2\n      pop\n      pop\n      jump\t// out\n        /* \"#utility.yul\":13217:13408   */\n    tag_51:\n        /* \"#utility.yul\":13257:13261   */\n      0x00\n        /* \"#utility.yul\":13277:13297   */\n      tag_294\n        /* \"#utility.yul\":13295:13296   */\n      dup3\n        /* \"#utility.yul\":13277:13297   */\n      tag_250\n      jump\t// in\n    tag_294:\n        /* \"#utility.yul\":13272:13297   */\n      swap2\n      pop\n        /* \"#utility.yul\":13311:13331   */\n      tag_295\n        /* \"#utility.yul\":13329:13330   */\n      dup4\n        /* \"#utility.yul\":13311:13331   */\n      tag_250\n      jump\t// in\n    tag_295:\n        /* \"#utility.yul\":13306:13331   */\n      swap3\n      pop\n        /* \"#utility.yul\":13350:13351   */\n      dup3\n        /* \"#utility.yul\":13347:13348   */\n      dup3\n        /* \"#utility.yul\":13344:13352   */\n      lt\n        /* \"#utility.yul\":13341:13375   */\n      iszero\n      tag_296\n      jumpi\n        /* \"#utility.yul\":13355:13373   */\n      tag_297\n      tag_298\n      jump\t// in\n    tag_297:\n        /* \"#utility.yul\":13341:13375   */\n    tag_296:\n        /* \"#utility.yul\":13400:13401   */\n      dup3\n        /* \"#utility.yul\":13397:13398   */\n      dup3\n        /* \"#utility.yul\":13393:13402   */\n      sub\n        /* \"#utility.yul\":13385:13402   */\n      swap1\n      pop\n        /* \"#utility.yul\":13217:13408   */\n      swap3\n      swap2\n      pop\n      pop\n      jump\t// out\n        /* \"#utility.yul\":13414:13510   */\n    tag_180:\n        /* \"#utility.yul\":13451:13458   */\n      0x00\n        /* \"#utility.yul\":13480:13504   */\n      tag_300\n        /* \"#utility.yul\":13498:13503   */\n      dup3\n        /* \"#utility.yul\":13480:13504   */\n      tag_301\n      jump\t// in\n    tag_300:\n        /* \"#utility.yul\":13469:13504   */\n      swap1\n      pop\n        /* \"#utility.yul\":13414:13510   */\n      swap2\n      swap1\n      pop\n      jump\t// out\n        /* \"#utility.yul\":13516:13643   */\n    tag_302:\n        /* \"#utility.yul\":13561:13568   */\n      0x00\n        /* \"#utility.yul\":13590:13595   */\n      dup2\n        /* \"#utility.yul\":13579:13595   */\n      swap1\n      pop\n        /* \"#utility.yul\":13596:13637   */\n      tag_304\n        /* \"#utility.yul\":13631:13636   */\n      dup3\n        /* \"#utility.yul\":13596:13637   */\n      tag_305\n      jump\t// in\n    tag_304:\n        /* \"#utility.yul\":13516:13643   */\n      swap2\n      swap1\n      pop\n      jump\t// out\n        /* \"#utility.yul\":13649:13775   */\n    tag_301:\n        /* \"#utility.yul\":13686:13693   */\n      0x00\n        /* \"#utility.yul\":13726:13768   */\n      0xffffffffffffffffffffffffffffffffffffffff\n        /* \"#utility.yul\":13719:13724   */\n      dup3\n        /* \"#utility.yul\":13715:13769   */\n      and\n        /* \"#utility.yul\":13704:13769   */\n      swap1\n      pop\n        /* \"#utility.yul\":13649:13775   */\n      swap2\n      swap1\n      pop\n      jump\t// out\n        /* \"#utility.yul\":13781:13858   */\n    tag_250:\n        /* \"#utility.yul\":13818:13825   */\n      0x00\n        /* \"#utility.yul\":13847:13852   */\n      dup2\n        /* \"#utility.yul\":13836:13852   */\n      swap1\n      pop\n        /* \"#utility.yul\":13781:13858   */\n      swap2\n      swap1\n      pop\n      jump\t// out\n        /* \"#utility.yul\":13864:13991   */\n    tag_201:\n        /* \"#utility.yul\":13920:13929   */\n      0x00\n        /* \"#utility.yul\":13953:13985   */\n      tag_309\n        /* \"#utility.yul\":13979:13984   */\n      dup3\n        /* \"#utility.yul\":13953:13985   */\n      tag_302\n      jump\t// in\n    tag_309:\n        /* \"#utility.yul\":13940:13985   */\n      swap1\n      pop\n        /* \"#utility.yul\":13864:13991   */\n      swap2\n      swap1\n      pop\n      jump\t// out\n        /* \"#utility.yul\":13997:14151   */\n    tag_143:\n        /* \"#utility.yul\":14081:14087   */\n      dup3\n        /* \"#utility.yul\":14076:14079   */\n      dup2\n        /* \"#utility.yul\":14071:14074   */\n      dup4\n        /* \"#utility.yul\":14058:14088   */\n      calldatacopy\n        /* \"#utility.yul\":14143:14144   */\n      0x00\n        /* \"#utility.yul\":14134:14140   */\n      dup4\n        /* \"#utility.yul\":14129:14132   */\n      dup4\n        /* \"#utility.yul\":14125:14141   */\n      add\n        /* \"#utility.yul\":14118:14145   */\n      mstore\n        /* \"#utility.yul\":13997:14151   */\n      pop\n      pop\n      pop\n      jump\t// out\n        /* \"#utility.yul\":14157:14464   */\n    tag_212:\n        /* \"#utility.yul\":14225:14226   */\n      0x00\n        /* \"#utility.yul\":14235:14348   */\n    tag_312:\n        /* \"#utility.yul\":14249:14255   */\n      dup4\n        /* \"#utility.yul\":14246:14247   */\n      dup2\n        /* \"#utility.yul\":14243:14256   */\n      lt\n        /* \"#utility.yul\":14235:14348   */\n      iszero\n      tag_314\n      jumpi\n        /* \"#utility.yul\":14334:14335   */\n      dup1\n        /* \"#utility.yul\":14329:14332   */\n      dup3\n        /* \"#utility.yul\":14325:14336   */\n      add\n        /* \"#utility.yul\":14319:14337   */\n      mload\n        /* \"#utility.yul\":14315:14316   */\n      dup2\n        /* \"#utility.yul\":14310:14313   */\n      dup5\n        /* \"#utility.yul\":14306:14317   */\n      add\n        /* \"#utility.yul\":14299:14338   */\n      mstore\n        /* \"#utility.yul\":14271:14273   */\n      0x20\n        /* \"#utility.yul\":14268:14269   */\n      dup2\n        /* \"#utility.yul\":14264:14274   */\n      add\n        /* \"#utility.yul\":14259:14274   */\n      swap1\n      pop\n        /* \"#utility.yul\":14235:14348   */\n      jump(tag_312)\n    tag_314:\n        /* \"#utility.yul\":14366:14372   */\n      dup4\n        /* \"#utility.yul\":14363:14364   */\n      dup2\n        /* \"#utility.yul\":14360:14373   */\n      gt\n        /* \"#utility.yul\":14357:14458   */\n      iszero\n      tag_315\n      jumpi\n        /* \"#utility.yul\":14446:14447   */\n      0x00\n        /* \"#utility.yul\":14437:14443   */\n      dup5\n        /* \"#utility.yul\":14432:14435   */\n      dup5\n        /* \"#utility.yul\":14428:14444   */\n      add\n        /* \"#utility.yul\":14421:14448   */\n      mstore\n        /* \"#utility.yul\":14357:14458   */\n    tag_315:\n        /* \"#utility.yul\":14206:14464   */\n      pop\n        /* \"#utility.yul\":14157:14464   */\n      pop\n      pop\n      pop\n      jump\t// out\n        /* \"#utility.yul\":14470:14790   */\n    tag_55:\n        /* \"#utility.yul\":14514:14520   */\n      0x00\n        /* \"#utility.yul\":14551:14552   */\n      0x02\n        /* \"#utility.yul\":14545:14549   */\n      dup3\n        /* \"#utility.yul\":14541:14553   */\n      div\n        /* \"#utility.yul\":14531:14553   */\n      swap1\n      pop\n        /* \"#utility.yul\":14598:14599   */\n      0x01\n        /* \"#utility.yul\":14592:14596   */\n      dup3\n        /* \"#utility.yul\":14588:14600   */\n      and\n        /* \"#utility.yul\":14619:14637   */\n      dup1\n        /* \"#utility.yul\":14609:14690   */\n      tag_317\n      jumpi\n        /* \"#utility.yul\":14675:14679   */\n      0x7f\n        /* \"#utility.yul\":14667:14673   */\n      dup3\n        /* \"#utility.yul\":14663:14680   */\n      and\n        /* \"#utility.yul\":14653:14680   */\n      swap2\n      pop\n        /* \"#utility.yul\":14609:14690   */\n    tag_317:\n        /* \"#utility.yul\":14737:14739   */\n      0x20\n        /* \"#utility.yul\":14729:14735   */\n      dup3\n        /* \"#utility.yul\":14726:14740   */\n      lt\n        /* \"#utility.yul\":14706:14724   */\n      dup2\n        /* \"#utility.yul\":14703:14741   */\n      eq\n        /* \"#utility.yul\":14700:14784   */\n      iszero\n      tag_318\n      jumpi\n        /* \"#utility.yul\":14756:14774   */\n      tag_319\n      tag_320\n      jump\t// in\n    tag_319:\n        /* \"#utility.yul\":14700:14784   */\n    tag_318:\n        /* \"#utility.yul\":14521:14790   */\n      pop\n        /* \"#utility.yul\":14470:14790   */\n      swap2\n      swap1\n      pop\n      jump\t// out\n        /* \"#utility.yul\":14796:15077   */\n    tag_276:\n        /* \"#utility.yul\":14879:14906   */\n      tag_322\n        /* \"#utility.yul\":14901:14905   */\n      dup3\n        /* \"#utility.yul\":14879:14906   */\n      tag_214\n      jump\t// in\n    tag_322:\n        /* \"#utility.yul\":14871:14877   */\n      dup2\n        /* \"#utility.yul\":14867:14907   */\n      add\n        /* \"#utility.yul\":15009:15015   */\n      dup2\n        /* \"#utility.yul\":14997:15007   */\n      dup2\n        /* \"#utility.yul\":14994:15016   */\n      lt\n        /* \"#utility.yul\":14973:14991   */\n      0xffffffffffffffff\n        /* \"#utility.yul\":14961:14971   */\n      dup3\n        /* \"#utility.yul\":14958:14992   */\n      gt\n        /* \"#utility.yul\":14955:15017   */\n      or\n        /* \"#utility.yul\":14952:15040   */\n      iszero\n      tag_323\n      jumpi\n        /* \"#utility.yul\":15020:15038   */\n      tag_324\n      tag_281\n      jump\t// in\n    tag_324:\n        /* \"#utility.yul\":14952:15040   */\n    tag_323:\n        /* \"#utility.yul\":15060:15070   */\n      dup1\n        /* \"#utility.yul\":15056:15058   */\n      0x40\n        /* \"#utility.yul\":15049:15071   */\n      mstore\n        /* \"#utility.yul\":14839:15077   */\n      pop\n        /* \"#utility.yul\":14796:15077   */\n      pop\n      pop\n      jump\t// out\n        /* \"#utility.yul\":15083:15263   */\n    tag_298:\n        /* \"#utility.yul\":15131:15208   */\n      0x4e487b7100000000000000000000000000000000000000000000000000000000\n        /* \"#utility.yul\":15128:15129   */\n      0x00\n        /* \"#utility.yul\":15121:15209   */\n      mstore\n        /* \"#utility.yul\":15228:15232   */\n      0x11\n        /* \"#utility.yul\":15225:15226   */\n      0x04\n        /* \"#utility.yul\":15218:15233   */\n      mstore\n        /* \"#utility.yul\":15252:15256   */\n      0x24\n        /* \"#utility.yul\":15249:15250   */\n      0x00\n        /* \"#utility.yul\":15242:15257   */\n      revert\n        /* \"#utility.yul\":15269:15449   */\n    tag_40:\n        /* \"#utility.yul\":15317:15394   */\n      0x4e487b7100000000000000000000000000000000000000000000000000000000\n        /* \"#utility.yul\":15314:15315   */\n      0x00\n        /* \"#utility.yul\":15307:15395   */\n      mstore\n        /* \"#utility.yul\":15414:15418   */\n      0x21\n        /* \"#utility.yul\":15411:15412   */\n      0x04\n        /* \"#utility.yul\":15404:15419   */\n      mstore\n        /* \"#utility.yul\":15438:15442   */\n      0x24\n        /* \"#utility.yul\":15435:15436   */\n      0x00\n        /* \"#utility.yul\":15428:15443   */\n      revert\n        /* \"#utility.yul\":15455:15635   */\n    tag_320:\n        /* \"#utility.yul\":15503:15580   */\n      0x4e487b7100000000000000000000000000000000000000000000000000000000\n        /* \"#utility.yul\":15500:15501   */\n      0x00\n        /* \"#utility.yul\":15493:15581   */\n      mstore\n        /* \"#utility.yul\":15600:15604   */\n      0x22\n        /* \"#utility.yul\":15597:15598   */\n      0x04\n        /* \"#utility.yul\":15590:15605   */\n      mstore\n        /* \"#utility.yul\":15624:15628   */\n      0x24\n        /* \"#utility.yul\":15621:15622   */\n      0x00\n        /* \"#utility.yul\":15614:15629   */\n      revert\n        /* \"#utility.yul\":15641:15821   */\n    tag_69:\n        /* \"#utility.yul\":15689:15766   */\n      0x4e487b7100000000000000000000000000000000000000000000000000000000\n        /* \"#utility.yul\":15686:15687   */\n      0x00\n        /* \"#utility.yul\":15679:15767   */\n      mstore\n        /* \"#utility.yul\":15786:15790   */\n      0x32\n        /* \"#utility.yul\":15783:15784   */\n      0x04\n        /* \"#utility.yul\":15776:15791   */\n      mstore\n        /* \"#utility.yul\":15810:15814   */\n      0x24\n        /* \"#utility.yul\":15807:15808   */\n      0x00\n        /* \"#utility.yul\":15800:15815   */\n      revert\n        /* \"#utility.yul\":15827:16007   */\n    tag_281:\n        /* \"#utility.yul\":15875:15952   */\n      0x4e487b7100000000000000000000000000000000000000000000000000000000\n        /* \"#utility.yul\":15872:15873   */\n      0x00\n        /* \"#utility.yul\":15865:15953   */\n      mstore\n        /* \"#utility.yul\":15972:15976   */\n      0x41\n        /* \"#utility.yul\":15969:15970   */\n      0x04\n        /* \"#utility.yul\":15962:15977   */\n      mstore\n        /* \"#utility.yul\":15996:16000   */\n      0x24\n        /* \"#utility.yul\":15993:15994   */\n      0x00\n        /* \"#utility.yul\":15986:16001   */\n      revert\n        /* \"#utility.yul\":16013:16130   */\n    tag_148:\n        /* \"#utility.yul\":16122:16123   */\n      0x00\n        /* \"#utility.yul\":16119:16120   */\n      dup1\n        /* \"#utility.yul\":16112:16124   */\n      revert\n        /* \"#utility.yul\":16136:16253   */\n    tag_128:\n        /* \"#utility.yul\":16245:16246   */\n      0x00\n        /* \"#utility.yul\":16242:16243   */\n      dup1\n        /* \"#utility.yul\":16235:16247   */\n      revert\n        /* \"#utility.yul\":16259:16376   */\n    tag_141:\n        /* \"#utility.yul\":16368:16369   */\n      0x00\n        /* \"#utility.yul\":16365:16366   */\n      dup1\n        /* \"#utility.yul\":16358:16370   */\n      revert\n        /* \"#utility.yul\":16382:16499   */\n    tag_164:\n        /* \"#utility.yul\":16491:16492   */\n      0x00\n        /* \"#utility.yul\":16488:16489   */\n      dup1\n        /* \"#utility.yul\":16481:16493   */\n      revert\n        /* \"#utility.yul\":16505:16622   */\n    tag_161:\n        /* \"#utility.yul\":16614:16615   */\n      0x00\n        /* \"#utility.yul\":16611:16612   */\n      dup1\n        /* \"#utility.yul\":16604:16616   */\n      revert\n        /* \"#utility.yul\":16628:16730   */\n    tag_214:\n        /* \"#utility.yul\":16669:16675   */\n      0x00\n        /* \"#utility.yul\":16720:16722   */\n      0x1f\n        /* \"#utility.yul\":16716:16723   */\n      not\n        /* \"#utility.yul\":16711:16713   */\n      0x1f\n        /* \"#utility.yul\":16704:16709   */\n      dup4\n        /* \"#utility.yul\":16700:16714   */\n      add\n        /* \"#utility.yul\":16696:16724   */\n      and\n        /* \"#utility.yul\":16686:16724   */\n      swap1\n      pop\n        /* \"#utility.yul\":16628:16730   */\n      swap2\n      swap1\n      pop\n      jump\t// out\n        /* \"#utility.yul\":16736:16907   */\n    tag_226:\n        /* \"#utility.yul\":16876:16899   */\n      0x6e6f7420612076616c6964206f72646572696420200000000000000000000000\n        /* \"#utility.yul\":16872:16873   */\n      0x00\n        /* \"#utility.yul\":16864:16870   */\n      dup3\n        /* \"#utility.yul\":16860:16874   */\n      add\n        /* \"#utility.yul\":16853:16900   */\n      mstore\n        /* \"#utility.yul\":16736:16907   */\n      pop\n      jump\t// out\n        /* \"#utility.yul\":16913:17078   */\n    tag_231:\n        /* \"#utility.yul\":17053:17070   */\n      0x20796f75206e6f74206f776e6572200000000000000000000000000000000000\n        /* \"#utility.yul\":17049:17050   */\n      0x00\n        /* \"#utility.yul\":17041:17047   */\n      dup3\n        /* \"#utility.yul\":17037:17051   */\n      add\n        /* \"#utility.yul\":17030:17071   */\n      mstore\n        /* \"#utility.yul\":16913:17078   */\n      pop\n      jump\t// out\n        /* \"#utility.yul\":17084:17260   */\n    tag_236:\n        /* \"#utility.yul\":17224:17252   */\n      0x6f7264657220697320616c726561647920207368697070656420000000000000\n        /* \"#utility.yul\":17220:17221   */\n      0x00\n        /* \"#utility.yul\":17212:17218   */\n      dup3\n        /* \"#utility.yul\":17208:17222   */\n      add\n        /* \"#utility.yul\":17201:17253   */\n      mstore\n        /* \"#utility.yul\":17084:17260   */\n      pop\n      jump\t// out\n        /* \"#utility.yul\":17266:17429   */\n    tag_241:\n        /* \"#utility.yul\":17406:17421   */\n      0x206e6f742070726f647563747300000000000000000000000000000000000000\n        /* \"#utility.yul\":17402:17403   */\n      0x00\n        /* \"#utility.yul\":17394:17400   */\n      dup3\n        /* \"#utility.yul\":17390:17404   */\n      add\n        /* \"#utility.yul\":17383:17422   */\n      mstore\n        /* \"#utility.yul\":17266:17429   */\n      pop\n      jump\t// out\n        /* \"#utility.yul\":17435:17548   */\n    tag_305:\n        /* \"#utility.yul\":17516:17517   */\n      0x04\n        /* \"#utility.yul\":17509:17514   */\n      dup2\n        /* \"#utility.yul\":17506:17518   */\n      lt\n        /* \"#utility.yul\":17496:17542   */\n      tag_341\n      jumpi\n        /* \"#utility.yul\":17522:17540   */\n      tag_342\n      tag_40\n      jump\t// in\n    tag_342:\n        /* \"#utility.yul\":17496:17542   */\n    tag_341:\n        /* \"#utility.yul\":17435:17548   */\n      pop\n      jump\t// out\n        /* \"#utility.yul\":17554:17676   */\n    tag_157:\n        /* \"#utility.yul\":17627:17651   */\n      tag_344\n        /* \"#utility.yul\":17645:17650   */\n      dup2\n        /* \"#utility.yul\":17627:17651   */\n      tag_250\n      jump\t// in\n    tag_344:\n        /* \"#utility.yul\":17620:17625   */\n      dup2\n        /* \"#utility.yul\":17617:17652   */\n      eq\n        /* \"#utility.yul\":17607:17670   */\n      tag_345\n      jumpi\n        /* \"#utility.yul\":17666:17667   */\n      0x00\n        /* \"#utility.yul\":17663:17664   */\n      dup1\n        /* \"#utility.yul\":17656:17668   */\n      revert\n        /* \"#utility.yul\":17607:17670   */\n    tag_345:\n        /* \"#utility.yul\":17554:17676   */\n      pop\n      jump\t// out\n\n    auxdata: 0xa26469706673582212209ebb6e50464b9f1fee8418e291c954e1cf1f3b88479ca34274a7c779d2b2b0c364736f6c63430008070033\n}\n",
				"bytecode": {
					"linkReferences": {},
					"object": "608060405234801561001057600080fd5b5033600160006101000a81548173ffffffffffffffffffffffffffffffffffffffff021916908373ffffffffffffffffffffffffffffffffffffffff160217905550611164806100616000396000f3fe608060405234801561001057600080fd5b50600436106100575760003560e01c80636d9a65d81461005c5780638da5cb5b1461008c578063a85c38ef146100aa578063afe13a62146100dc578063d09ef241146100f8575b600080fd5b61007660048036038101906100719190610935565b610128565b6040516100839190610d0d565b60405180910390f35b6100946102ea565b6040516100a19190610c12565b60405180910390f35b6100c460048036038101906100bf91906109ad565b610310565b6040516100d393929190610c2d565b60405180910390f35b6100f660048036038101906100f191906109ad565b6103ff565b005b610112600480360381019061010d91906109ad565b6106c5565b60405161011f9190610ceb565b60405180910390f35b60008082511161016d576040517f08c379a000000000000000000000000000000000000000000000000000000000815260040161016490610ccb565b60405180910390fd5b6101756106d2565b33816000019073ffffffffffffffffffffffffffffffffffffffff16908173ffffffffffffffffffffffffffffffffffffffff16815250508381602001819052508281604001819052506000816060019060038111156101d8576101d7610f79565b5b908160038111156101ec576101eb610f79565b5b81525050600081908060018154018082558091505060019003906000526020600020906004020160009091909190915060008201518160000160006101000a81548173ffffffffffffffffffffffffffffffffffffffff021916908373ffffffffffffffffffffffffffffffffffffffff160217905550602082015181600101908051906020019061027f929190610722565b50604082015181600201908051906020019061029c9291906107a8565b5060608201518160030160006101000a81548160ff021916908360038111156102c8576102c7610f79565b5b0217905550505060016000805490506102e19190610e10565b91505092915050565b600160009054906101000a900473ffffffffffffffffffffffffffffffffffffffff1681565b6000818154811061032057600080fd5b90600052602060002090600402016000915090508060000160009054906101000a900473ffffffffffffffffffffffffffffffffffffffff169080600101805461036990610ee7565b80601f016020809104026020016040519081016040528092919081815260200182805461039590610ee7565b80156103e25780601f106103b7576101008083540402835291602001916103e2565b820191906000526020600020905b8154815290600101906020018083116103c557829003601f168201915b5050505050908060030160009054906101000a900460ff16905083565b3373ffffffffffffffffffffffffffffffffffffffff16600160009054906101000a900473ffffffffffffffffffffffffffffffffffffffff1673ffffffffffffffffffffffffffffffffffffffff161461048f576040517f08c379a000000000000000000000000000000000000000000000000000000000815260040161048690610c8b565b60405180910390fd5b60008054905081106104d6576040517f08c379a00000000000000000000000000000000000000000000000000000000081526004016104cd90610c6b565b60405180910390fd5b60008082815481106104eb576104ea610fd7565b5b9060005260206000209060040201905060038081111561050e5761050d610f79565b5b8160030160009054906101000a900460ff16600381111561053257610531610f79565b5b1415610573576040517f08c379a000000000000000000000000000000000000000000000000000000000815260040161056a90610cab565b60405180910390fd5b6000600381111561058757610586610f79565b5b8160030160009054906101000a900460ff1660038111156105ab576105aa610f79565b5b14156105e35760018160030160006101000a81548160ff021916908360038111156105d9576105d8610f79565b5b02179055506106c1565b600160038111156105f7576105f6610f79565b5b8160030160009054906101000a900460ff16600381111561061b5761061a610f79565b5b14156106535760028160030160006101000a81548160ff0219169083600381111561064957610648610f79565b5b02179055506106c0565b6002600381111561066757610666610f79565b5b8160030160009054906101000a900460ff16600381111561068b5761068a610f79565b5b14156106bf5760038160030160006101000a81548160ff021916908360038111156106b9576106b8610f79565b5b02179055505b5b5b5050565b6106cd6106d2565b919050565b6040518060800160405280600073ffffffffffffffffffffffffffffffffffffffff16815260200160608152602001606081526020016000600381111561071c5761071b610f79565b5b81525090565b82805461072e90610ee7565b90600052602060002090601f0160209004810192826107505760008555610797565b82601f1061076957805160ff1916838001178555610797565b82800160010185558215610797579182015b8281111561079657825182559160200191906001019061077b565b5b5090506107a491906107f5565b5090565b8280548282559060005260206000209081019282156107e4579160200282015b828111156107e35782518255916020019190600101906107c8565b5b5090506107f191906107f5565b5090565b5b8082111561080e5760008160009055506001016107f6565b5090565b600061082561082084610d4d565b610d28565b905080838252602082019050828560208602820111156108485761084761103a565b5b60005b85811015610878578161085e8882610920565b84526020840193506020830192505060018101905061084b565b5050509392505050565b600061089561089084610d79565b610d28565b9050828152602081018484840111156108b1576108b061103f565b5b6108bc848285610ea5565b509392505050565b600082601f8301126108d9576108d8611035565b5b81356108e9848260208601610812565b91505092915050565b600082601f83011261090757610906611035565b5b8135610917848260208601610882565b91505092915050565b60008135905061092f81611117565b92915050565b6000806040838503121561094c5761094b611049565b5b600083013567ffffffffffffffff81111561096a57610969611044565b5b610976858286016108f2565b925050602083013567ffffffffffffffff81111561099757610996611044565b5b6109a3858286016108c4565b9150509250929050565b6000602082840312156109c3576109c2611049565b5b60006109d184828501610920565b91505092915050565b60006109e68383610bf4565b60208301905092915050565b6109fb81610e44565b82525050565b610a0a81610e44565b82525050565b6000610a1b82610dba565b610a258185610ddd565b9350610a3083610daa565b8060005b83811015610a61578151610a4888826109da565b9750610a5383610dd0565b925050600181019050610a34565b5085935050505092915050565b610a7781610e93565b82525050565b610a8681610e93565b82525050565b6000610a9782610dc5565b610aa18185610dee565b9350610ab1818560208601610eb4565b610aba8161104e565b840191505092915050565b6000610ad082610dc5565b610ada8185610dff565b9350610aea818560208601610eb4565b610af38161104e565b840191505092915050565b6000610b0b601583610dff565b9150610b168261105f565b602082019050919050565b6000610b2e600f83610dff565b9150610b3982611088565b602082019050919050565b6000610b51601a83610dff565b9150610b5c826110b1565b602082019050919050565b6000610b74600d83610dff565b9150610b7f826110da565b602082019050919050565b6000608083016000830151610ba260008601826109f2565b5060208301518482036020860152610bba8282610a8c565b91505060408301518482036040860152610bd48282610a10565b9150506060830151610be96060860182610a6e565b508091505092915050565b610bfd81610e89565b82525050565b610c0c81610e89565b82525050565b6000602082019050610c276000830184610a01565b92915050565b6000606082019050610c426000830186610a01565b8181036020830152610c548185610ac5565b9050610c636040830184610a7d565b949350505050565b60006020820190508181036000830152610c8481610afe565b9050919050565b60006020820190508181036000830152610ca481610b21565b9050919050565b60006020820190508181036000830152610cc481610b44565b9050919050565b60006020820190508181036000830152610ce481610b67565b9050919050565b60006020820190508181036000830152610d058184610b8a565b905092915050565b6000602082019050610d226000830184610c03565b92915050565b6000610d32610d43565b9050610d3e8282610f19565b919050565b6000604051905090565b600067ffffffffffffffff821115610d6857610d67611006565b5b602082029050602081019050919050565b600067ffffffffffffffff821115610d9457610d93611006565b5b610d9d8261104e565b9050602081019050919050565b6000819050602082019050919050565b600081519050919050565b600081519050919050565b6000602082019050919050565b600082825260208201905092915050565b600082825260208201905092915050565b600082825260208201905092915050565b6000610e1b82610e89565b9150610e2683610e89565b925082821015610e3957610e38610f4a565b5b828203905092915050565b6000610e4f82610e69565b9050919050565b6000819050610e6482611103565b919050565b600073ffffffffffffffffffffffffffffffffffffffff82169050919050565b6000819050919050565b6000610e9e82610e56565b9050919050565b82818337600083830152505050565b60005b83811015610ed2578082015181840152602081019050610eb7565b83811115610ee1576000848401525b50505050565b60006002820490506001821680610eff57607f821691505b60208210811415610f1357610f12610fa8565b5b50919050565b610f228261104e565b810181811067ffffffffffffffff82111715610f4157610f40611006565b5b80604052505050565b7f4e487b7100000000000000000000000000000000000000000000000000000000600052601160045260246000fd5b7f4e487b7100000000000000000000000000000000000000000000000000000000600052602160045260246000fd5b7f4e487b7100000000000000000000000000000000000000000000000000000000600052602260045260246000fd5b7f4e487b7100000000000000000000000000000000000000000000000000000000600052603260045260246000fd5b7f4e487b7100000000000000000000000000000000000000000000000000000000600052604160045260246000fd5b600080fd5b600080fd5b600080fd5b600080fd5b600080fd5b6000601f19601f8301169050919050565b7f6e6f7420612076616c6964206f72646572696420200000000000000000000000600082015250565b7f20796f75206e6f74206f776e6572200000000000000000000000000000000000600082015250565b7f6f7264657220697320616c726561647920207368697070656420000000000000600082015250565b7f206e6f742070726f647563747300000000000000000000000000000000000000600082015250565b6004811061111457611113610f79565b5b50565b61112081610e89565b811461112b57600080fd5b5056fea26469706673582212209ebb6e50464b9f1fee8418e291c954e1cf1f3b88479ca34274a7c779d2b2b0c364736f6c63430008070033",
					"opcodes": "PUSH1 0x80 PUSH1 0x40 MSTORE CALLVALUE DUP1 ISZERO PUSH2 0x10 JUMPI PUSH1 0x0 DUP1 REVERT JUMPDEST POP CALLER PUSH1 0x1 PUSH1 0x0 PUSH2 0x100 EXP DUP2 SLOAD DUP2 PUSH20 0xFFFFFFFFFFFFFFFFFFFFFFFFFFFFFFFFFFFFFFFF MUL NOT AND SWAP1 DUP4 PUSH20 0xFFFFFFFFFFFFFFFFFFFFFFFFFFFFFFFFFFFFFFFF AND MUL OR SWAP1 SSTORE POP PUSH2 0x1164 DUP1 PUSH2 0x61 PUSH1 0x0 CODECOPY PUSH1 0x0 RETURN INVALID PUSH1 0x80 PUSH1 0x40 MSTORE CALLVALUE DUP1 ISZERO PUSH2 0x10 JUMPI PUSH1 0x0 DUP1 REVERT JUMPDEST POP PUSH1 0x4 CALLDATASIZE LT PUSH2 0x57 JUMPI PUSH1 0x0 CALLDATALOAD PUSH1 0xE0 SHR DUP1 PUSH4 0x6D9A65D8 EQ PUSH2 0x5C JUMPI DUP1 PUSH4 0x8DA5CB5B EQ PUSH2 0x8C JUMPI DUP1 PUSH4 0xA85C38EF EQ PUSH2 0xAA JUMPI DUP1 PUSH4 0xAFE13A62 EQ PUSH2 0xDC JUMPI DUP1 PUSH4 0xD09EF241 EQ PUSH2 0xF8 JUMPI JUMPDEST PUSH1 0x0 DUP1 REVERT JUMPDEST PUSH2 0x76 PUSH1 0x4 DUP1 CALLDATASIZE SUB DUP2 ADD SWAP1 PUSH2 0x71 SWAP2 SWAP1 PUSH2 0x935 JUMP JUMPDEST PUSH2 0x128 JUMP JUMPDEST PUSH1 0x40 MLOAD PUSH2 0x83 SWAP2 SWAP1 PUSH2 0xD0D JUMP JUMPDEST PUSH1 0x40 MLOAD DUP1 SWAP2 SUB SWAP1 RETURN JUMPDEST PUSH2 0x94 PUSH2 0x2EA JUMP JUMPDEST PUSH1 0x40 MLOAD PUSH2 0xA1 SWAP2 SWAP1 PUSH2 0xC12 JUMP JUMPDEST PUSH1 0x40 MLOAD DUP1 SWAP2 SUB SWAP1 RETURN JUMPDEST PUSH2 0xC4 PUSH1 0x4 DUP1 CALLDATASIZE SUB DUP2 ADD SWAP1 PUSH2 0xBF SWAP2 SWAP1 PUSH2 0x9AD JUMP JUMPDEST PUSH2 0x310 JUMP JUMPDEST PUSH1 0x40 MLOAD PUSH2 0xD3 SWAP4 SWAP3 SWAP2 SWAP1 PUSH2 0xC2D JUMP JUMPDEST PUSH1 0x40 MLOAD DUP1 SWAP2 SUB SWAP1 RETURN JUMPDEST PUSH2 0xF6 PUSH1 0x4 DUP1 CALLDATASIZE SUB DUP2 ADD SWAP1 PUSH2 0xF1 SWAP2 SWAP1 PUSH2 0x9AD JUMP JUMPDEST PUSH2 0x3FF JUMP JUMPDEST STOP JUMPDEST PUSH2 0x112 PUSH1 0x4 DUP1 CALLDATASIZE SUB DUP2 ADD SWAP1 PUSH2 0x10D SWAP2 SWAP1 PUSH2 0x9AD JUMP JUMPDEST PUSH2 0x6C5 JUMP JUMPDEST PUSH1 0x40 MLOAD PUSH2 0x11F SWAP2 SWAP1 PUSH2 0xCEB JUMP JUMPDEST PUSH1 0x40 MLOAD DUP1 SWAP2 SUB SWAP1 RETURN JUMPDEST PUSH1 0x0 DUP1 DUP3 MLOAD GT PUSH2 0x16D JUMPI PUSH1 0x40 MLOAD PUSH32 0x8C379A000000000000000000000000000000000000000000000000000000000 DUP2 MSTORE PUSH1 0x4 ADD PUSH2 0x164 SWAP1 PUSH2 0xCCB JUMP JUMPDEST PUSH1 0x40 MLOAD DUP1 SWAP2 SUB SWAP1 REVERT JUMPDEST PUSH2 0x175 PUSH2 0x6D2 JUMP JUMPDEST CALLER DUP2 PUSH1 0x0 ADD SWAP1 PUSH20 0xFFFFFFFFFFFFFFFFFFFFFFFFFFFFFFFFFFFFFFFF AND SWAP1 DUP2 PUSH20 0xFFFFFFFFFFFFFFFFFFFFFFFFFFFFFFFFFFFFFFFF AND DUP2 MSTORE POP POP DUP4 DUP2 PUSH1 0x20 ADD DUP2 SWAP1 MSTORE POP DUP3 DUP2 PUSH1 0x40 ADD DUP2 SWAP1 MSTORE POP PUSH1 0x0 DUP2 PUSH1 0x60 ADD SWAP1 PUSH1 0x3 DUP2 GT ISZERO PUSH2 0x1D8 JUMPI PUSH2 0x1D7 PUSH2 0xF79 JUMP JUMPDEST JUMPDEST SWAP1 DUP2 PUSH1 0x3 DUP2 GT ISZERO PUSH2 0x1EC JUMPI PUSH2 0x1EB PUSH2 0xF79 JUMP JUMPDEST JUMPDEST DUP2 MSTORE POP POP PUSH1 0x0 DUP2 SWAP1 DUP1 PUSH1 0x1 DUP2 SLOAD ADD DUP1 DUP3 SSTORE DUP1 SWAP2 POP POP PUSH1 0x1 SWAP1 SUB SWAP1 PUSH1 0x0 MSTORE PUSH1 0x20 PUSH1 0x0 KECCAK256 SWAP1 PUSH1 0x4 MUL ADD PUSH1 0x0 SWAP1 SWAP2 SWAP1 SWAP2 SWAP1 SWAP2 POP PUSH1 0x0 DUP3 ADD MLOAD DUP2 PUSH1 0x0 ADD PUSH1 0x0 PUSH2 0x100 EXP DUP2 SLOAD DUP2 PUSH20 0xFFFFFFFFFFFFFFFFFFFFFFFFFFFFFFFFFFFFFFFF MUL NOT AND SWAP1 DUP4 PUSH20 0xFFFFFFFFFFFFFFFFFFFFFFFFFFFFFFFFFFFFFFFF AND MUL OR SWAP1 SSTORE POP PUSH1 0x20 DUP3 ADD MLOAD DUP2 PUSH1 0x1 ADD SWAP1 DUP1 MLOAD SWAP1 PUSH1 0x20 ADD SWAP1 PUSH2 0x27F SWAP3 SWAP2 SWAP1 PUSH2 0x722 JUMP JUMPDEST POP PUSH1 0x40 DUP3 ADD MLOAD DUP2 PUSH1 0x2 ADD SWAP1 DUP1 MLOAD SWAP1 PUSH1 0x20 ADD SWAP1 PUSH2 0x29C SWAP3 SWAP2 SWAP1 PUSH2 0x7A8 JUMP JUMPDEST POP PUSH1 0x60 DUP3 ADD MLOAD DUP2 PUSH1 0x3 ADD PUSH1 0x0 PUSH2 0x100 EXP DUP2 SLOAD DUP2 PUSH1 0xFF MUL NOT AND SWAP1 DUP4 PUSH1 0x3 DUP2 GT ISZERO PUSH2 0x2C8 JUMPI PUSH2 0x2C7 PUSH2 0xF79 JUMP JUMPDEST JUMPDEST MUL OR SWAP1 SSTORE POP POP POP PUSH1 0x1 PUSH1 0x0 DUP1 SLOAD SWAP1 POP PUSH2 0x2E1 SWAP2 SWAP1 PUSH2 0xE10 JUMP JUMPDEST SWAP2 POP POP SWAP3 SWAP2 POP POP JUMP JUMPDEST PUSH1 0x1 PUSH1 0x0 SWAP1 SLOAD SWAP1 PUSH2 0x100 EXP SWAP1 DIV PUSH20 0xFFFFFFFFFFFFFFFFFFFFFFFFFFFFFFFFFFFFFFFF AND DUP2 JUMP JUMPDEST PUSH1 0x0 DUP2 DUP2 SLOAD DUP2 LT PUSH2 0x320 JUMPI PUSH1 0x0 DUP1 REVERT JUMPDEST SWAP1 PUSH1 0x0 MSTORE PUSH1 0x20 PUSH1 0x0 KECCAK256 SWAP1 PUSH1 0x4 MUL ADD PUSH1 0x0 SWAP2 POP SWAP1 POP DUP1 PUSH1 0x0 ADD PUSH1 0x0 SWAP1 SLOAD SWAP1 PUSH2 0x100 EXP SWAP1 DIV PUSH20 0xFFFFFFFFFFFFFFFFFFFFFFFFFFFFFFFFFFFFFFFF AND SWAP1 DUP1 PUSH1 0x1 ADD DUP1 SLOAD PUSH2 0x369 SWAP1 PUSH2 0xEE7 JUMP JUMPDEST DUP1 PUSH1 0x1F ADD PUSH1 0x20 DUP1 SWAP2 DIV MUL PUSH1 0x20 ADD PUSH1 0x40 MLOAD SWAP1 DUP2 ADD PUSH1 0x40 MSTORE DUP1 SWAP3 SWAP2 SWAP1 DUP2 DUP2 MSTORE PUSH1 0x20 ADD DUP3 DUP1 SLOAD PUSH2 0x395 SWAP1 PUSH2 0xEE7 JUMP JUMPDEST DUP1 ISZERO PUSH2 0x3E2 JUMPI DUP1 PUSH1 0x1F LT PUSH2 0x3B7 JUMPI PUSH2 0x100 DUP1 DUP4 SLOAD DIV MUL DUP4 MSTORE SWAP2 PUSH1 0x20 ADD SWAP2 PUSH2 0x3E2 JUMP JUMPDEST DUP3 ADD SWAP2 SWAP1 PUSH1 0x0 MSTORE PUSH1 0x20 PUSH1 0x0 KECCAK256 SWAP1 JUMPDEST DUP2 SLOAD DUP2 MSTORE SWAP1 PUSH1 0x1 ADD SWAP1 PUSH1 0x20 ADD DUP1 DUP4 GT PUSH2 0x3C5 JUMPI DUP3 SWAP1 SUB PUSH1 0x1F AND DUP3 ADD SWAP2 JUMPDEST POP POP POP POP POP SWAP1 DUP1 PUSH1 0x3 ADD PUSH1 0x0 SWAP1 SLOAD SWAP1 PUSH2 0x100 EXP SWAP1 DIV PUSH1 0xFF AND SWAP1 POP DUP4 JUMP JUMPDEST CALLER PUSH20 0xFFFFFFFFFFFFFFFFFFFFFFFFFFFFFFFFFFFFFFFF AND PUSH1 0x1 PUSH1 0x0 SWAP1 SLOAD SWAP1 PUSH2 0x100 EXP SWAP1 DIV PUSH20 0xFFFFFFFFFFFFFFFFFFFFFFFFFFFFFFFFFFFFFFFF AND PUSH20 0xFFFFFFFFFFFFFFFFFFFFFFFFFFFFFFFFFFFFFFFF AND EQ PUSH2 0x48F JUMPI PUSH1 0x40 MLOAD PUSH32 0x8C379A000000000000000000000000000000000000000000000000000000000 DUP2 MSTORE PUSH1 0x4 ADD PUSH2 0x486 SWAP1 PUSH2 0xC8B JUMP JUMPDEST PUSH1 0x40 MLOAD DUP1 SWAP2 SUB SWAP1 REVERT JUMPDEST PUSH1 0x0 DUP1 SLOAD SWAP1 POP DUP2 LT PUSH2 0x4D6 JUMPI PUSH1 0x40 MLOAD PUSH32 0x8C379A000000000000000000000000000000000000000000000000000000000 DUP2 MSTORE PUSH1 0x4 ADD PUSH2 0x4CD SWAP1 PUSH2 0xC6B JUMP JUMPDEST PUSH1 0x40 MLOAD DUP1 SWAP2 SUB SWAP1 REVERT JUMPDEST PUSH1 0x0 DUP1 DUP3 DUP2 SLOAD DUP2 LT PUSH2 0x4EB JUMPI PUSH2 0x4EA PUSH2 0xFD7 JUMP JUMPDEST JUMPDEST SWAP1 PUSH1 0x0 MSTORE PUSH1 0x20 PUSH1 0x0 KECCAK256 SWAP1 PUSH1 0x4 MUL ADD SWAP1 POP PUSH1 0x3 DUP1 DUP2 GT ISZERO PUSH2 0x50E JUMPI PUSH2 0x50D PUSH2 0xF79 JUMP JUMPDEST JUMPDEST DUP2 PUSH1 0x3 ADD PUSH1 0x0 SWAP1 SLOAD SWAP1 PUSH2 0x100 EXP SWAP1 DIV PUSH1 0xFF AND PUSH1 0x3 DUP2 GT ISZERO PUSH2 0x532 JUMPI PUSH2 0x531 PUSH2 0xF79 JUMP JUMPDEST JUMPDEST EQ ISZERO PUSH2 0x573 JUMPI PUSH1 0x40 MLOAD PUSH32 0x8C379A000000000000000000000000000000000000000000000000000000000 DUP2 MSTORE PUSH1 0x4 ADD PUSH2 0x56A SWAP1 PUSH2 0xCAB JUMP JUMPDEST PUSH1 0x40 MLOAD DUP1 SWAP2 SUB SWAP1 REVERT JUMPDEST PUSH1 0x0 PUSH1 0x3 DUP2 GT ISZERO PUSH2 0x587 JUMPI PUSH2 0x586 PUSH2 0xF79 JUMP JUMPDEST JUMPDEST DUP2 PUSH1 0x3 ADD PUSH1 0x0 SWAP1 SLOAD SWAP1 PUSH2 0x100 EXP SWAP1 DIV PUSH1 0xFF AND PUSH1 0x3 DUP2 GT ISZERO PUSH2 0x5AB JUMPI PUSH2 0x5AA PUSH2 0xF79 JUMP JUMPDEST JUMPDEST EQ ISZERO PUSH2 0x5E3 JUMPI PUSH1 0x1 DUP2 PUSH1 0x3 ADD PUSH1 0x0 PUSH2 0x100 EXP DUP2 SLOAD DUP2 PUSH1 0xFF MUL NOT AND SWAP1 DUP4 PUSH1 0x3 DUP2 GT ISZERO PUSH2 0x5D9 JUMPI PUSH2 0x5D8 PUSH2 0xF79 JUMP JUMPDEST JUMPDEST MUL OR SWAP1 SSTORE POP PUSH2 0x6C1 JUMP JUMPDEST PUSH1 0x1 PUSH1 0x3 DUP2 GT ISZERO PUSH2 0x5F7 JUMPI PUSH2 0x5F6 PUSH2 0xF79 JUMP JUMPDEST JUMPDEST DUP2 PUSH1 0x3 ADD PUSH1 0x0 SWAP1 SLOAD SWAP1 PUSH2 0x100 EXP SWAP1 DIV PUSH1 0xFF AND PUSH1 0x3 DUP2 GT ISZERO PUSH2 0x61B JUMPI PUSH2 0x61A PUSH2 0xF79 JUMP JUMPDEST JUMPDEST EQ ISZERO PUSH2 0x653 JUMPI PUSH1 0x2 DUP2 PUSH1 0x3 ADD PUSH1 0x0 PUSH2 0x100 EXP DUP2 SLOAD DUP2 PUSH1 0xFF MUL NOT AND SWAP1 DUP4 PUSH1 0x3 DUP2 GT ISZERO PUSH2 0x649 JUMPI PUSH2 0x648 PUSH2 0xF79 JUMP JUMPDEST JUMPDEST MUL OR SWAP1 SSTORE POP PUSH2 0x6C0 JUMP JUMPDEST PUSH1 0x2 PUSH1 0x3 DUP2 GT ISZERO PUSH2 0x667 JUMPI PUSH2 0x666 PUSH2 0xF79 JUMP JUMPDEST JUMPDEST DUP2 PUSH1 0x3 ADD PUSH1 0x0 SWAP1 SLOAD SWAP1 PUSH2 0x100 EXP SWAP1 DIV PUSH1 0xFF AND PUSH1 0x3 DUP2 GT ISZERO PUSH2 0x68B JUMPI PUSH2 0x68A PUSH2 0xF79 JUMP JUMPDEST JUMPDEST EQ ISZERO PUSH2 0x6BF JUMPI PUSH1 0x3 DUP2 PUSH1 0x3 ADD PUSH1 0x0 PUSH2 0x100 EXP DUP2 SLOAD DUP2 PUSH1 0xFF MUL NOT AND SWAP1 DUP4 PUSH1 0x3 DUP2 GT ISZERO PUSH2 0x6B9 JUMPI PUSH2 0x6B8 PUSH2 0xF79 JUMP JUMPDEST JUMPDEST MUL OR SWAP1 SSTORE POP JUMPDEST JUMPDEST JUMPDEST POP POP JUMP JUMPDEST PUSH2 0x6CD PUSH2 0x6D2 JUMP JUMPDEST SWAP2 SWAP1 POP JUMP JUMPDEST PUSH1 0x40 MLOAD DUP1 PUSH1 0x80 ADD PUSH1 0x40 MSTORE DUP1 PUSH1 0x0 PUSH20 0xFFFFFFFFFFFFFFFFFFFFFFFFFFFFFFFFFFFFFFFF AND DUP2 MSTORE PUSH1 0x20 ADD PUSH1 0x60 DUP2 MSTORE PUSH1 0x20 ADD PUSH1 0x60 DUP2 MSTORE PUSH1 0x20 ADD PUSH1 0x0 PUSH1 0x3 DUP2 GT ISZERO PUSH2 0x71C JUMPI PUSH2 0x71B PUSH2 0xF79 JUMP JUMPDEST JUMPDEST DUP2 MSTORE POP SWAP1 JUMP JUMPDEST DUP3 DUP1 SLOAD PUSH2 0x72E SWAP1 PUSH2 0xEE7 JUMP JUMPDEST SWAP1 PUSH1 0x0 MSTORE PUSH1 0x20 PUSH1 0x0 KECCAK256 SWAP1 PUSH1 0x1F ADD PUSH1 0x20 SWAP1 DIV DUP2 ADD SWAP3 DUP3 PUSH2 0x750 JUMPI PUSH1 0x0 DUP6 SSTORE PUSH2 0x797 JUMP JUMPDEST DUP3 PUSH1 0x1F LT PUSH2 0x769 JUMPI DUP1 MLOAD PUSH1 0xFF NOT AND DUP4 DUP1 ADD OR DUP6 SSTORE PUSH2 0x797 JUMP JUMPDEST DUP3 DUP1 ADD PUSH1 0x1 ADD DUP6 SSTORE DUP3 ISZERO PUSH2 0x797 JUMPI SWAP2 DUP3 ADD JUMPDEST DUP3 DUP2 GT ISZERO PUSH2 0x796 JUMPI DUP3 MLOAD DUP3 SSTORE SWAP2 PUSH1 0x20 ADD SWAP2 SWAP1 PUSH1 0x1 ADD SWAP1 PUSH2 0x77B JUMP JUMPDEST JUMPDEST POP SWAP1 POP PUSH2 0x7A4 SWAP2 SWAP1 PUSH2 0x7F5 JUMP JUMPDEST POP SWAP1 JUMP JUMPDEST DUP3 DUP1 SLOAD DUP3 DUP3 SSTORE SWAP1 PUSH1 0x0 MSTORE PUSH1 0x20 PUSH1 0x0 KECCAK256 SWAP1 DUP2 ADD SWAP3 DUP3 ISZERO PUSH2 0x7E4 JUMPI SWAP2 PUSH1 0x20 MUL DUP3 ADD JUMPDEST DUP3 DUP2 GT ISZERO PUSH2 0x7E3 JUMPI DUP3 MLOAD DUP3 SSTORE SWAP2 PUSH1 0x20 ADD SWAP2 SWAP1 PUSH1 0x1 ADD SWAP1 PUSH2 0x7C8 JUMP JUMPDEST JUMPDEST POP SWAP1 POP PUSH2 0x7F1 SWAP2 SWAP1 PUSH2 0x7F5 JUMP JUMPDEST POP SWAP1 JUMP JUMPDEST JUMPDEST DUP1 DUP3 GT ISZERO PUSH2 0x80E JUMPI PUSH1 0x0 DUP2 PUSH1 0x0 SWAP1 SSTORE POP PUSH1 0x1 ADD PUSH2 0x7F6 JUMP JUMPDEST POP SWAP1 JUMP JUMPDEST PUSH1 0x0 PUSH2 0x825 PUSH2 0x820 DUP5 PUSH2 0xD4D JUMP JUMPDEST PUSH2 0xD28 JUMP JUMPDEST SWAP1 POP DUP1 DUP4 DUP3 MSTORE PUSH1 0x20 DUP3 ADD SWAP1 POP DUP3 DUP6 PUSH1 0x20 DUP7 MUL DUP3 ADD GT ISZERO PUSH2 0x848 JUMPI PUSH2 0x847 PUSH2 0x103A JUMP JUMPDEST JUMPDEST PUSH1 0x0 JUMPDEST DUP6 DUP2 LT ISZERO PUSH2 0x878 JUMPI DUP2 PUSH2 0x85E DUP9 DUP3 PUSH2 0x920 JUMP JUMPDEST DUP5 MSTORE PUSH1 0x20 DUP5 ADD SWAP4 POP PUSH1 0x20 DUP4 ADD SWAP3 POP POP PUSH1 0x1 DUP2 ADD SWAP1 POP PUSH2 0x84B JUMP JUMPDEST POP POP POP SWAP4 SWAP3 POP POP POP JUMP JUMPDEST PUSH1 0x0 PUSH2 0x895 PUSH2 0x890 DUP5 PUSH2 0xD79 JUMP JUMPDEST PUSH2 0xD28 JUMP JUMPDEST SWAP1 POP DUP3 DUP2 MSTORE PUSH1 0x20 DUP2 ADD DUP5 DUP5 DUP5 ADD GT ISZERO PUSH2 0x8B1 JUMPI PUSH2 0x8B0 PUSH2 0x103F JUMP JUMPDEST JUMPDEST PUSH2 0x8BC DUP5 DUP3 DUP6 PUSH2 0xEA5 JUMP JUMPDEST POP SWAP4 SWAP3 POP POP POP JUMP JUMPDEST PUSH1 0x0 DUP3 PUSH1 0x1F DUP4 ADD SLT PUSH2 0x8D9 JUMPI PUSH2 0x8D8 PUSH2 0x1035 JUMP JUMPDEST JUMPDEST DUP2 CALLDATALOAD PUSH2 0x8E9 DUP5 DUP3 PUSH1 0x20 DUP7 ADD PUSH2 0x812 JUMP JUMPDEST SWAP2 POP POP SWAP3 SWAP2 POP POP JUMP JUMPDEST PUSH1 0x0 DUP3 PUSH1 0x1F DUP4 ADD SLT PUSH2 0x907 JUMPI PUSH2 0x906 PUSH2 0x1035 JUMP JUMPDEST JUMPDEST DUP2 CALLDATALOAD PUSH2 0x917 DUP5 DUP3 PUSH1 0x20 DUP7 ADD PUSH2 0x882 JUMP JUMPDEST SWAP2 POP POP SWAP3 SWAP2 POP POP JUMP JUMPDEST PUSH1 0x0 DUP2 CALLDATALOAD SWAP1 POP PUSH2 0x92F DUP2 PUSH2 0x1117 JUMP JUMPDEST SWAP3 SWAP2 POP POP JUMP JUMPDEST PUSH1 0x0 DUP1 PUSH1 0x40 DUP4 DUP6 SUB SLT ISZERO PUSH2 0x94C JUMPI PUSH2 0x94B PUSH2 0x1049 JUMP JUMPDEST JUMPDEST PUSH1 0x0 DUP4 ADD CALLDATALOAD PUSH8 0xFFFFFFFFFFFFFFFF DUP2 GT ISZERO PUSH2 0x96A JUMPI PUSH2 0x969 PUSH2 0x1044 JUMP JUMPDEST JUMPDEST PUSH2 0x976 DUP6 DUP3 DUP7 ADD PUSH2 0x8F2 JUMP JUMPDEST SWAP3 POP POP PUSH1 0x20 DUP4 ADD CALLDATALOAD PUSH8 0xFFFFFFFFFFFFFFFF DUP2 GT ISZERO PUSH2 0x997 JUMPI PUSH2 0x996 PUSH2 0x1044 JUMP JUMPDEST JUMPDEST PUSH2 0x9A3 DUP6 DUP3 DUP7 ADD PUSH2 0x8C4 JUMP JUMPDEST SWAP2 POP POP SWAP3 POP SWAP3 SWAP1 POP JUMP JUMPDEST PUSH1 0x0 PUSH1 0x20 DUP3 DUP5 SUB SLT ISZERO PUSH2 0x9C3 JUMPI PUSH2 0x9C2 PUSH2 0x1049 JUMP JUMPDEST JUMPDEST PUSH1 0x0 PUSH2 0x9D1 DUP5 DUP3 DUP6 ADD PUSH2 0x920 JUMP JUMPDEST SWAP2 POP POP SWAP3 SWAP2 POP POP JUMP JUMPDEST PUSH1 0x0 PUSH2 0x9E6 DUP4 DUP4 PUSH2 0xBF4 JUMP JUMPDEST PUSH1 0x20 DUP4 ADD SWAP1 POP SWAP3 SWAP2 POP POP JUMP JUMPDEST PUSH2 0x9FB DUP2 PUSH2 0xE44 JUMP JUMPDEST DUP3 MSTORE POP POP JUMP JUMPDEST PUSH2 0xA0A DUP2 PUSH2 0xE44 JUMP JUMPDEST DUP3 MSTORE POP POP JUMP JUMPDEST PUSH1 0x0 PUSH2 0xA1B DUP3 PUSH2 0xDBA JUMP JUMPDEST PUSH2 0xA25 DUP2 DUP6 PUSH2 0xDDD JUMP JUMPDEST SWAP4 POP PUSH2 0xA30 DUP4 PUSH2 0xDAA JUMP JUMPDEST DUP1 PUSH1 0x0 JUMPDEST DUP4 DUP2 LT ISZERO PUSH2 0xA61 JUMPI DUP2 MLOAD PUSH2 0xA48 DUP9 DUP3 PUSH2 0x9DA JUMP JUMPDEST SWAP8 POP PUSH2 0xA53 DUP4 PUSH2 0xDD0 JUMP JUMPDEST SWAP3 POP POP PUSH1 0x1 DUP2 ADD SWAP1 POP PUSH2 0xA34 JUMP JUMPDEST POP DUP6 SWAP4 POP POP POP POP SWAP3 SWAP2 POP POP JUMP JUMPDEST PUSH2 0xA77 DUP2 PUSH2 0xE93 JUMP JUMPDEST DUP3 MSTORE POP POP JUMP JUMPDEST PUSH2 0xA86 DUP2 PUSH2 0xE93 JUMP JUMPDEST DUP3 MSTORE POP POP JUMP JUMPDEST PUSH1 0x0 PUSH2 0xA97 DUP3 PUSH2 0xDC5 JUMP JUMPDEST PUSH2 0xAA1 DUP2 DUP6 PUSH2 0xDEE JUMP JUMPDEST SWAP4 POP PUSH2 0xAB1 DUP2 DUP6 PUSH1 0x20 DUP7 ADD PUSH2 0xEB4 JUMP JUMPDEST PUSH2 0xABA DUP2 PUSH2 0x104E JUMP JUMPDEST DUP5 ADD SWAP2 POP POP SWAP3 SWAP2 POP POP JUMP JUMPDEST PUSH1 0x0 PUSH2 0xAD0 DUP3 PUSH2 0xDC5 JUMP JUMPDEST PUSH2 0xADA DUP2 DUP6 PUSH2 0xDFF JUMP JUMPDEST SWAP4 POP PUSH2 0xAEA DUP2 DUP6 PUSH1 0x20 DUP7 ADD PUSH2 0xEB4 JUMP JUMPDEST PUSH2 0xAF3 DUP2 PUSH2 0x104E JUMP JUMPDEST DUP5 ADD SWAP2 POP POP SWAP3 SWAP2 POP POP JUMP JUMPDEST PUSH1 0x0 PUSH2 0xB0B PUSH1 0x15 DUP4 PUSH2 0xDFF JUMP JUMPDEST SWAP2 POP PUSH2 0xB16 DUP3 PUSH2 0x105F JUMP JUMPDEST PUSH1 0x20 DUP3 ADD SWAP1 POP SWAP2 SWAP1 POP JUMP JUMPDEST PUSH1 0x0 PUSH2 0xB2E PUSH1 0xF DUP4 PUSH2 0xDFF JUMP JUMPDEST SWAP2 POP PUSH2 0xB39 DUP3 PUSH2 0x1088 JUMP JUMPDEST PUSH1 0x20 DUP3 ADD SWAP1 POP SWAP2 SWAP1 POP JUMP JUMPDEST PUSH1 0x0 PUSH2 0xB51 PUSH1 0x1A DUP4 PUSH2 0xDFF JUMP JUMPDEST SWAP2 POP PUSH2 0xB5C DUP3 PUSH2 0x10B1 JUMP JUMPDEST PUSH1 0x20 DUP3 ADD SWAP1 POP SWAP2 SWAP1 POP JUMP JUMPDEST PUSH1 0x0 PUSH2 0xB74 PUSH1 0xD DUP4 PUSH2 0xDFF JUMP JUMPDEST SWAP2 POP PUSH2 0xB7F DUP3 PUSH2 0x10DA JUMP JUMPDEST PUSH1 0x20 DUP3 ADD SWAP1 POP SWAP2 SWAP1 POP JUMP JUMPDEST PUSH1 0x0 PUSH1 0x80 DUP4 ADD PUSH1 0x0 DUP4 ADD MLOAD PUSH2 0xBA2 PUSH1 0x0 DUP7 ADD DUP3 PUSH2 0x9F2 JUMP JUMPDEST POP PUSH1 0x20 DUP4 ADD MLOAD DUP5 DUP3 SUB PUSH1 0x20 DUP7 ADD MSTORE PUSH2 0xBBA DUP3 DUP3 PUSH2 0xA8C JUMP JUMPDEST SWAP2 POP POP PUSH1 0x40 DUP4 ADD MLOAD DUP5 DUP3 SUB PUSH1 0x40 DUP7 ADD MSTORE PUSH2 0xBD4 DUP3 DUP3 PUSH2 0xA10 JUMP JUMPDEST SWAP2 POP POP PUSH1 0x60 DUP4 ADD MLOAD PUSH2 0xBE9 PUSH1 0x60 DUP7 ADD DUP3 PUSH2 0xA6E JUMP JUMPDEST POP DUP1 SWAP2 POP POP SWAP3 SWAP2 POP POP JUMP JUMPDEST PUSH2 0xBFD DUP2 PUSH2 0xE89 JUMP JUMPDEST DUP3 MSTORE POP POP JUMP JUMPDEST PUSH2 0xC0C DUP2 PUSH2 0xE89 JUMP JUMPDEST DUP3 MSTORE POP POP JUMP JUMPDEST PUSH1 0x0 PUSH1 0x20 DUP3 ADD SWAP1 POP PUSH2 0xC27 PUSH1 0x0 DUP4 ADD DUP5 PUSH2 0xA01 JUMP JUMPDEST SWAP3 SWAP2 POP POP JUMP JUMPDEST PUSH1 0x0 PUSH1 0x60 DUP3 ADD SWAP1 POP PUSH2 0xC42 PUSH1 0x0 DUP4 ADD DUP7 PUSH2 0xA01 JUMP JUMPDEST DUP2 DUP2 SUB PUSH1 0x20 DUP4 ADD MSTORE PUSH2 0xC54 DUP2 DUP6 PUSH2 0xAC5 JUMP JUMPDEST SWAP1 POP PUSH2 0xC63 PUSH1 0x40 DUP4 ADD DUP5 PUSH2 0xA7D JUMP JUMPDEST SWAP5 SWAP4 POP POP POP POP JUMP JUMPDEST PUSH1 0x0 PUSH1 0x20 DUP3 ADD SWAP1 POP DUP2 DUP2 SUB PUSH1 0x0 DUP4 ADD MSTORE PUSH2 0xC84 DUP2 PUSH2 0xAFE JUMP JUMPDEST SWAP1 POP SWAP2 SWAP1 POP JUMP JUMPDEST PUSH1 0x0 PUSH1 0x20 DUP3 ADD SWAP1 POP DUP2 DUP2 SUB PUSH1 0x0 DUP4 ADD MSTORE PUSH2 0xCA4 DUP2 PUSH2 0xB21 JUMP JUMPDEST SWAP1 POP SWAP2 SWAP1 POP JUMP JUMPDEST PUSH1 0x0 PUSH1 0x20 DUP3 ADD SWAP1 POP DUP2 DUP2 SUB PUSH1 0x0 DUP4 ADD MSTORE PUSH2 0xCC4 DUP2 PUSH2 0xB44 JUMP JUMPDEST SWAP1 POP SWAP2 SWAP1 POP JUMP JUMPDEST PUSH1 0x0 PUSH1 0x20 DUP3 ADD SWAP1 POP DUP2 DUP2 SUB PUSH1 0x0 DUP4 ADD MSTORE PUSH2 0xCE4 DUP2 PUSH2 0xB67 JUMP JUMPDEST SWAP1 POP SWAP2 SWAP1 POP JUMP JUMPDEST PUSH1 0x0 PUSH1 0x20 DUP3 ADD SWAP1 POP DUP2 DUP2 SUB PUSH1 0x0 DUP4 ADD MSTORE PUSH2 0xD05 DUP2 DUP5 PUSH2 0xB8A JUMP JUMPDEST SWAP1 POP SWAP3 SWAP2 POP POP JUMP JUMPDEST PUSH1 0x0 PUSH1 0x20 DUP3 ADD SWAP1 POP PUSH2 0xD22 PUSH1 0x0 DUP4 ADD DUP5 PUSH2 0xC03 JUMP JUMPDEST SWAP3 SWAP2 POP POP JUMP JUMPDEST PUSH1 0x0 PUSH2 0xD32 PUSH2 0xD43 JUMP JUMPDEST SWAP1 POP PUSH2 0xD3E DUP3 DUP3 PUSH2 0xF19 JUMP JUMPDEST SWAP2 SWAP1 POP JUMP JUMPDEST PUSH1 0x0 PUSH1 0x40 MLOAD SWAP1 POP SWAP1 JUMP JUMPDEST PUSH1 0x0 PUSH8 0xFFFFFFFFFFFFFFFF DUP3 GT ISZERO PUSH2 0xD68 JUMPI PUSH2 0xD67 PUSH2 0x1006 JUMP JUMPDEST JUMPDEST PUSH1 0x20 DUP3 MUL SWAP1 POP PUSH1 0x20 DUP2 ADD SWAP1 POP SWAP2 SWAP1 POP JUMP JUMPDEST PUSH1 0x0 PUSH8 0xFFFFFFFFFFFFFFFF DUP3 GT ISZERO PUSH2 0xD94 JUMPI PUSH2 0xD93 PUSH2 0x1006 JUMP JUMPDEST JUMPDEST PUSH2 0xD9D DUP3 PUSH2 0x104E JUMP JUMPDEST SWAP1 POP PUSH1 0x20 DUP2 ADD SWAP1 POP SWAP2 SWAP1 POP JUMP JUMPDEST PUSH1 0x0 DUP2 SWAP1 POP PUSH1 0x20 DUP3 ADD SWAP1 POP SWAP2 SWAP1 POP JUMP JUMPDEST PUSH1 0x0 DUP2 MLOAD SWAP1 POP SWAP2 SWAP1 POP JUMP JUMPDEST PUSH1 0x0 DUP2 MLOAD SWAP1 POP SWAP2 SWAP1 POP JUMP JUMPDEST PUSH1 0x0 PUSH1 0x20 DUP3 ADD SWAP1 POP SWAP2 SWAP1 POP JUMP JUMPDEST PUSH1 0x0 DUP3 DUP3 MSTORE PUSH1 0x20 DUP3 ADD SWAP1 POP SWAP3 SWAP2 POP POP JUMP JUMPDEST PUSH1 0x0 DUP3 DUP3 MSTORE PUSH1 0x20 DUP3 ADD SWAP1 POP SWAP3 SWAP2 POP POP JUMP JUMPDEST PUSH1 0x0 DUP3 DUP3 MSTORE PUSH1 0x20 DUP3 ADD SWAP1 POP SWAP3 SWAP2 POP POP JUMP JUMPDEST PUSH1 0x0 PUSH2 0xE1B DUP3 PUSH2 0xE89 JUMP JUMPDEST SWAP2 POP PUSH2 0xE26 DUP4 PUSH2 0xE89 JUMP JUMPDEST SWAP3 POP DUP3 DUP3 LT ISZERO PUSH2 0xE39 JUMPI PUSH2 0xE38 PUSH2 0xF4A JUMP JUMPDEST JUMPDEST DUP3 DUP3 SUB SWAP1 POP SWAP3 SWAP2 POP POP JUMP JUMPDEST PUSH1 0x0 PUSH2 0xE4F DUP3 PUSH2 0xE69 JUMP JUMPDEST SWAP1 POP SWAP2 SWAP1 POP JUMP JUMPDEST PUSH1 0x0 DUP2 SWAP1 POP PUSH2 0xE64 DUP3 PUSH2 0x1103 JUMP JUMPDEST SWAP2 SWAP1 POP JUMP JUMPDEST PUSH1 0x0 PUSH20 0xFFFFFFFFFFFFFFFFFFFFFFFFFFFFFFFFFFFFFFFF DUP3 AND SWAP1 POP SWAP2 SWAP1 POP JUMP JUMPDEST PUSH1 0x0 DUP2 SWAP1 POP SWAP2 SWAP1 POP JUMP JUMPDEST PUSH1 0x0 PUSH2 0xE9E DUP3 PUSH2 0xE56 JUMP JUMPDEST SWAP1 POP SWAP2 SWAP1 POP JUMP JUMPDEST DUP3 DUP2 DUP4 CALLDATACOPY PUSH1 0x0 DUP4 DUP4 ADD MSTORE POP POP POP JUMP JUMPDEST PUSH1 0x0 JUMPDEST DUP4 DUP2 LT ISZERO PUSH2 0xED2 JUMPI DUP1 DUP3 ADD MLOAD DUP2 DUP5 ADD MSTORE PUSH1 0x20 DUP2 ADD SWAP1 POP PUSH2 0xEB7 JUMP JUMPDEST DUP4 DUP2 GT ISZERO PUSH2 0xEE1 JUMPI PUSH1 0x0 DUP5 DUP5 ADD MSTORE JUMPDEST POP POP POP POP JUMP JUMPDEST PUSH1 0x0 PUSH1 0x2 DUP3 DIV SWAP1 POP PUSH1 0x1 DUP3 AND DUP1 PUSH2 0xEFF JUMPI PUSH1 0x7F DUP3 AND SWAP2 POP JUMPDEST PUSH1 0x20 DUP3 LT DUP2 EQ ISZERO PUSH2 0xF13 JUMPI PUSH2 0xF12 PUSH2 0xFA8 JUMP JUMPDEST JUMPDEST POP SWAP2 SWAP1 POP JUMP JUMPDEST PUSH2 0xF22 DUP3 PUSH2 0x104E JUMP JUMPDEST DUP2 ADD DUP2 DUP2 LT PUSH8 0xFFFFFFFFFFFFFFFF DUP3 GT OR ISZERO PUSH2 0xF41 JUMPI PUSH2 0xF40 PUSH2 0x1006 JUMP JUMPDEST JUMPDEST DUP1 PUSH1 0x40 MSTORE POP POP POP JUMP JUMPDEST PUSH32 0x4E487B7100000000000000000000000000000000000000000000000000000000 PUSH1 0x0 MSTORE PUSH1 0x11 PUSH1 0x4 MSTORE PUSH1 0x24 PUSH1 0x0 REVERT JUMPDEST PUSH32 0x4E487B7100000000000000000000000000000000000000000000000000000000 PUSH1 0x0 MSTORE PUSH1 0x21 PUSH1 0x4 MSTORE PUSH1 0x24 PUSH1 0x0 REVERT JUMPDEST PUSH32 0x4E487B7100000000000000000000000000000000000000000000000000000000 PUSH1 0x0 MSTORE PUSH1 0x22 PUSH1 0x4 MSTORE PUSH1 0x24 PUSH1 0x0 REVERT JUMPDEST PUSH32 0x4E487B7100000000000000000000000000000000000000000000000000000000 PUSH1 0x0 MSTORE PUSH1 0x32 PUSH1 0x4 MSTORE PUSH1 0x24 PUSH1 0x0 REVERT JUMPDEST PUSH32 0x4E487B7100000000000000000000000000000000000000000000000000000000 PUSH1 0x0 MSTORE PUSH1 0x41 PUSH1 0x4 MSTORE PUSH1 0x24 PUSH1 0x0 REVERT JUMPDEST PUSH1 0x0 DUP1 REVERT JUMPDEST PUSH1 0x0 DUP1 REVERT JUMPDEST PUSH1 0x0 DUP1 REVERT JUMPDEST PUSH1 0x0 DUP1 REVERT JUMPDEST PUSH1 0x0 DUP1 REVERT JUMPDEST PUSH1 0x0 PUSH1 0x1F NOT PUSH1 0x1F DUP4 ADD AND SWAP1 POP SWAP2 SWAP1 POP JUMP JUMPDEST PUSH32 0x6E6F7420612076616C6964206F72646572696420200000000000000000000000 PUSH1 0x0 DUP3 ADD MSTORE POP JUMP JUMPDEST PUSH32 0x20796F75206E6F74206F776E6572200000000000000000000000000000000000 PUSH1 0x0 DUP3 ADD MSTORE POP JUMP JUMPDEST PUSH32 0x6F7264657220697320616C726561647920207368697070656420000000000000 PUSH1 0x0 DUP3 ADD MSTORE POP JUMP JUMPDEST PUSH32 0x206E6F742070726F647563747300000000000000000000000000000000000000 PUSH1 0x0 DUP3 ADD MSTORE POP JUMP JUMPDEST PUSH1 0x4 DUP2 LT PUSH2 0x1114 JUMPI PUSH2 0x1113 PUSH2 0xF79 JUMP JUMPDEST JUMPDEST POP JUMP JUMPDEST PUSH2 0x1120 DUP2 PUSH2 0xE89 JUMP JUMPDEST DUP2 EQ PUSH2 0x112B JUMPI PUSH1 0x0 DUP1 REVERT JUMPDEST POP JUMP INVALID LOG2 PUSH5 0x6970667358 0x22 SLT KECCAK256 SWAP15 0xBB PUSH15 0x50464B9F1FEE8418E291C954E1CF1F EXTCODESIZE DUP9 SELFBALANCE SWAP13 LOG3 TIMESTAMP PUSH21 0xA7C779D2B2B0C364736F6C63430008070033000000 "
				},
				"gasEstimates": {
					"creation": {
						"codeDepositCost": "890400",
						"executionCost": "25195",
						"totalCost": "915595"
					},
					"external": {
						"advanceOrder(uint256)": "40130",
						"createOrder(string,uint256[])": "infinite",
						"getOrder(uint256)": "infinite",
						"orders(uint256)": "infinite",
						"owner()": "2514"
					}
				},
				"methodIdentifiers": {
					"advanceOrder(uint256)": "afe13a62",
					"createOrder(string,uint256[])": "6d9a65d8",
					"getOrder(uint256)": "d09ef241",
					"orders(uint256)": "a85c38ef",
					"owner()": "8da5cb5b"
				}
			},
			"storageLayout": {
				"storage": [
					{
						"astId": 21,
						"contract": "deps/proje/store.sol:Store",
						"label": "orders",
						"offset": 0,
						"slot": "0",
						"type": "t_array(t_struct(Order)17_storage)dyn_storage"
					},
					{
						"astId": 23,
						"contract": "deps/proje/store.sol:Store",
						"label": "owner",
						"offset": 0,
						"slot": "1",
						"type": "t_address"
					}
				],
				"types": {
					"t_address": {
						"encoding": "inplace",
						"label": "address",
						"numberOfBytes": "20"
					},
					"t_array(t_struct(Order)17_storage)dyn_storage": {
						"base": "t_struct(Order)17_storage",
						"encoding": "dynamic_array",
						"label": "struct Store.Order[]",
						"numberOfBytes": "32"
					},
					"t_array(t_uint256)dyn_storage": {
						"base": "t_uint256",
						"encoding": "dynamic_array",
						"label": "uint256[]",
						"numberOfBytes": "32"
					},
					"t_enum(Status)6": {
						"encoding": "inplace",
						"label": "enum Store.Status",
						"numberOfBytes": "1"
					},
					"t_string_storage": {
						"encoding": "bytes",
						"label": "string",
						"numberOfBytes": "32"
					},
					"t_struct(Order)17_storage": {
						"encoding": "inplace",
						"label": "struct Store.Order",
						"members": [
							{
								"astId": 8,
								"contract": "deps/proje/store.sol:Store",
								"label": "customer",
								"offset": 0,
								"slot": "0",
								"type": "t_address"
							},
							{
								"astId": 10,
								"contract": "deps/proje/store.sol:Store",
								"label": "zipCode",
								"offset": 0,
								"slot": "1",
								"type": "t_string_storage"
							},
							{
								"astId": 13,
								"contract": "deps/proje/store.sol:Store",
								"label": "products",
								"offset": 0,
								"slot": "2",
								"type": "t_array(t_uint256)dyn_storage"
							},
							{
								"astId": 16,
								"contract": "deps/proje/store.sol:Store",
								"label": "status",
								"offset": 0,
								"slot": "3",
								"type": "t_enum(Status)6"
							}
						],
						"numberOfBytes": "128"
					},
					"t_uint256": {
						"encoding": "inplace",
						"label": "uint256",
						"numberOfBytes": "32"
					}
				}
			},
			"userdoc": {
				"kind": "user",
				"methods": {},
				"version": 1
			}
		}
	}
}