{
	"deps/proje/store.sol": {
		"Store": {
			"abi": [
				{
					"inputs": [],
					"stateMutability": "nonpayable",
					"type": "constructor"
				},
				{
					"inputs": [
						{
							"internalType": "uint256",
							"name": "order_id",
							"type": "uint256"
						}
					],
					"name": "advanceOrder",
					"outputs": [],
					"stateMutability": "nonpayable",
					"type": "function"
				},
				{
					"inputs": [
						{
							"internalType": "string",
							"name": "_zipCode",
							"type": "string"
						},
						{
							"internalType": "uint256[]",
							"name": "_products",
							"type": "uint256[]"
						}
					],
					"name": "createOrder",
					"outputs": [
						{
							"internalType": "uint256",
							"name": "",
							"type": "uint256"
						}
					],
					"stateMutability": "nonpayable",
					"type": "function"
				},
				{
					"inputs": [
						{
							"internalType": "uint256",
							"name": "",
							"type": "uint256"
						}
					],
					"name": "orders",
					"outputs": [
						{
							"internalType": "address",
							"name": "customer",
							"type": "address"
						},
						{
							"internalType": "string",
							"name": "zipCode",
							"type": "string"
						},
						{
							"internalType": "enum Store.Status",
							"name": "status",
							"type": "uint8"
						}
					],
					"stateMutability": "view",
					"type": "function"
				},
				{
					"inputs": [],
					"name": "owner",
					"outputs": [
						{
							"internalType": "address",
							"name": "",
							"type": "address"
						}
					],
					"stateMutability": "view",
					"type": "function"
				}
			],
			"devdoc": {
				"kind": "dev",
				"methods": {},
				"version": 1
			},
			"evm": {
				"assembly": "    /* \"deps/proje/store.sol\":60:1669  contract Store{\r... */\n  mstore(0x40, 0x80)\n    /* \"deps/proje/store.sol\":532:644  constructor(){\r... */\n  callvalue\n  dup1\n  iszero\n  tag_1\n  jumpi\n  0x00\n  dup1\n  revert\ntag_1:\n  pop\n    /* \"deps/proje/store.sol\":564:574  msg.sender */\n  caller\n    /* \"deps/proje/store.sol\":556:561  owner */\n  0x01\n  0x00\n    /* \"deps/proje/store.sol\":556:574  owner = msg.sender */\n  0x0100\n  exp\n  dup2\n  sload\n  dup2\n  0xffffffffffffffffffffffffffffffffffffffff\n  mul\n  not\n  and\n  swap1\n  dup4\n  0xffffffffffffffffffffffffffffffffffffffff\n  and\n  mul\n  or\n  swap1\n  sstore\n  pop\n    /* \"deps/proje/store.sol\":60:1669  contract Store{\r... */\n  dataSize(sub_0)\n  dup1\n  dataOffset(sub_0)\n  0x00\n  codecopy\n  0x00\n  return\nstop\n\nsub_0: assembly {\n        /* \"deps/proje/store.sol\":60:1669  contract Store{\r... */\n      mstore(0x40, 0x80)\n      callvalue\n      dup1\n      iszero\n      tag_1\n      jumpi\n      0x00\n      dup1\n      revert\n    tag_1:\n      pop\n      jumpi(tag_2, lt(calldatasize, 0x04))\n      shr(0xe0, calldataload(0x00))\n      dup1\n      0x6d9a65d8\n      eq\n      tag_3\n      jumpi\n      dup1\n      0x8da5cb5b\n      eq\n      tag_4\n      jumpi\n      dup1\n      0xa85c38ef\n      eq\n      tag_5\n      jumpi\n      dup1\n      0xafe13a62\n      eq\n      tag_6\n      jumpi\n    tag_2:\n      0x00\n      dup1\n      revert\n        /* \"deps/proje/store.sol\":652:1212  function createOrder(string memory _zipCode, uint256[] memory _products ) public returns (uint256 ){\r... */\n    tag_3:\n      tag_7\n      0x04\n      dup1\n      calldatasize\n      sub\n      dup2\n      add\n      swap1\n      tag_8\n      swap2\n      swap1\n      tag_9\n      jump\t// in\n    tag_8:\n      tag_10\n      jump\t// in\n    tag_7:\n      mload(0x40)\n      tag_11\n      swap2\n      swap1\n      tag_12\n      jump\t// in\n    tag_11:\n      mload(0x40)\n      dup1\n      swap2\n      sub\n      swap1\n      return\n        /* \"deps/proje/store.sol\":498:518  address public owner */\n    tag_4:\n      tag_13\n      tag_14\n      jump\t// in\n    tag_13:\n      mload(0x40)\n      tag_15\n      swap2\n      swap1\n      tag_16\n      jump\t// in\n    tag_15:\n      mload(0x40)\n      dup1\n      swap2\n      sub\n      swap1\n      return\n        /* \"deps/proje/store.sol\":431:452  Order[] public orders */\n    tag_5:\n      tag_17\n      0x04\n      dup1\n      calldatasize\n      sub\n      dup2\n      add\n      swap1\n      tag_18\n      swap2\n      swap1\n      tag_19\n      jump\t// in\n    tag_18:\n      tag_20\n      jump\t// in\n    tag_17:\n      mload(0x40)\n      tag_21\n      swap4\n      swap3\n      swap2\n      swap1\n      tag_22\n      jump\t// in\n    tag_21:\n      mload(0x40)\n      dup1\n      swap2\n      sub\n      swap1\n      return\n        /* \"deps/proje/store.sol\":1271:1666  function advanceOrder(uint256 order_id ) public {\r... */\n    tag_6:\n      tag_23\n      0x04\n      dup1\n      calldatasize\n      sub\n      dup2\n      add\n      swap1\n      tag_24\n      swap2\n      swap1\n      tag_19\n      jump\t// in\n    tag_24:\n      tag_25\n      jump\t// in\n    tag_23:\n      stop\n        /* \"deps/proje/store.sol\":652:1212  function createOrder(string memory _zipCode, uint256[] memory _products ) public returns (uint256 ){\r... */\n    tag_10:\n        /* \"deps/proje/store.sol\":742:749  uint256 */\n      0x00\n        /* \"deps/proje/store.sol\":789:790  0 */\n      dup1\n        /* \"deps/proje/store.sol\":770:779  _products */\n      dup3\n        /* \"deps/proje/store.sol\":770:786  _products.length */\n      mload\n        /* \"deps/proje/store.sol\":770:790  _products.length > 0 */\n      gt\n        /* \"deps/proje/store.sol\":762:808  require(_products.length > 0 ,\" not products\") */\n      tag_27\n      jumpi\n      mload(0x40)\n      0x08c379a000000000000000000000000000000000000000000000000000000000\n      dup2\n      mstore\n      0x04\n      add\n      tag_28\n      swap1\n      tag_29\n      jump\t// in\n    tag_28:\n      mload(0x40)\n      dup1\n      swap2\n      sub\n      swap1\n      revert\n    tag_27:\n        /* \"deps/proje/store.sol\":822:840  Order memory order */\n      tag_30\n      tag_31\n      jump\t// in\n    tag_30:\n        /* \"deps/proje/store.sol\":903:913  msg.sender */\n      caller\n        /* \"deps/proje/store.sol\":886:891  order */\n      dup2\n        /* \"deps/proje/store.sol\":886:900  order.customer */\n      0x00\n      add\n        /* \"deps/proje/store.sol\":886:913  order.customer = msg.sender */\n      swap1\n      0xffffffffffffffffffffffffffffffffffffffff\n      and\n      swap1\n      dup2\n      0xffffffffffffffffffffffffffffffffffffffff\n      and\n      dup2\n      mstore\n      pop\n      pop\n        /* \"deps/proje/store.sol\":969:977  _zipCode */\n      dup4\n        /* \"deps/proje/store.sol\":953:958  order */\n      dup2\n        /* \"deps/proje/store.sol\":953:966  order.zipCode */\n      0x20\n      add\n        /* \"deps/proje/store.sol\":953:977  order.zipCode = _zipCode */\n      dup2\n      swap1\n      mstore\n      pop\n        /* \"deps/proje/store.sol\":1006:1015  _products */\n      dup3\n        /* \"deps/proje/store.sol\":989:994  order */\n      dup2\n        /* \"deps/proje/store.sol\":989:1003  order.products */\n      0x40\n      add\n        /* \"deps/proje/store.sol\":989:1015  order.products = _products */\n      dup2\n      swap1\n      mstore\n      pop\n        /* \"deps/proje/store.sol\":1043:1055  Status.Taken */\n      0x00\n        /* \"deps/proje/store.sol\":1028:1033  order */\n      dup2\n        /* \"deps/proje/store.sol\":1028:1040  order.status */\n      0x60\n      add\n        /* \"deps/proje/store.sol\":1028:1055  order.status = Status.Taken */\n      swap1\n      0x03\n      dup2\n      gt\n      iszero\n      tag_32\n      jumpi\n      tag_33\n      tag_34\n      jump\t// in\n    tag_33:\n    tag_32:\n      swap1\n      dup2\n      0x03\n      dup2\n      gt\n      iszero\n      tag_35\n      jumpi\n      tag_36\n      tag_34\n      jump\t// in\n    tag_36:\n    tag_35:\n      dup2\n      mstore\n      pop\n      pop\n        /* \"deps/proje/store.sol\":1147:1153  orders */\n      0x00\n        /* \"deps/proje/store.sol\":1159:1164  order */\n      dup2\n        /* \"deps/proje/store.sol\":1147:1165  orders.push(order) */\n      swap1\n      dup1\n      0x01\n      dup2\n      sload\n      add\n      dup1\n      dup3\n      sstore\n      dup1\n      swap2\n      pop\n      pop\n      0x01\n      swap1\n      sub\n      swap1\n      0x00\n      mstore\n      keccak256(0x00, 0x20)\n      swap1\n      0x04\n      mul\n      add\n      0x00\n      swap1\n      swap2\n      swap1\n      swap2\n      swap1\n      swap2\n      pop\n      0x00\n      dup3\n      add\n      mload\n      dup2\n      0x00\n      add\n      exp(0x0100, 0x00)\n      dup2\n      sload\n      dup2\n      0xffffffffffffffffffffffffffffffffffffffff\n      mul\n      not\n      and\n      swap1\n      dup4\n      0xffffffffffffffffffffffffffffffffffffffff\n      and\n      mul\n      or\n      swap1\n      sstore\n      pop\n      0x20\n      dup3\n      add\n      mload\n      dup2\n      0x01\n      add\n      swap1\n      dup1\n      mload\n      swap1\n      0x20\n      add\n      swap1\n      tag_38\n      swap3\n      swap2\n      swap1\n      tag_39\n      jump\t// in\n    tag_38:\n      pop\n      0x40\n      dup3\n      add\n      mload\n      dup2\n      0x02\n      add\n      swap1\n      dup1\n      mload\n      swap1\n      0x20\n      add\n      swap1\n      tag_40\n      swap3\n      swap2\n      swap1\n      tag_41\n      jump\t// in\n    tag_40:\n      pop\n      0x60\n      dup3\n      add\n      mload\n      dup2\n      0x03\n      add\n      exp(0x0100, 0x00)\n      dup2\n      sload\n      dup2\n      0xff\n      mul\n      not\n      and\n      swap1\n      dup4\n      0x03\n      dup2\n      gt\n      iszero\n      tag_42\n      jumpi\n      tag_43\n      tag_34\n      jump\t// in\n    tag_43:\n    tag_42:\n      mul\n      or\n      swap1\n      sstore\n      pop\n      pop\n      pop\n        /* \"deps/proje/store.sol\":1201:1202  1 */\n      0x01\n        /* \"deps/proje/store.sol\":1185:1191  orders */\n      0x00\n        /* \"deps/proje/store.sol\":1185:1198  orders.length */\n      dup1\n      sload\n      swap1\n      pop\n        /* \"deps/proje/store.sol\":1185:1202  orders.length - 1 */\n      tag_44\n      swap2\n      swap1\n      tag_45\n      jump\t// in\n    tag_44:\n        /* \"deps/proje/store.sol\":1178:1202  return orders.length - 1 */\n      swap2\n      pop\n      pop\n        /* \"deps/proje/store.sol\":652:1212  function createOrder(string memory _zipCode, uint256[] memory _products ) public returns (uint256 ){\r... */\n      swap3\n      swap2\n      pop\n      pop\n      jump\t// out\n        /* \"deps/proje/store.sol\":498:518  address public owner */\n    tag_14:\n      0x01\n      0x00\n      swap1\n      sload\n      swap1\n      0x0100\n      exp\n      swap1\n      div\n      0xffffffffffffffffffffffffffffffffffffffff\n      and\n      dup2\n      jump\t// out\n        /* \"deps/proje/store.sol\":431:452  Order[] public orders */\n    tag_20:\n      0x00\n      dup2\n      dup2\n      sload\n      dup2\n      lt\n      tag_46\n      jumpi\n      0x00\n      dup1\n      revert\n    tag_46:\n      swap1\n      0x00\n      mstore\n      keccak256(0x00, 0x20)\n      swap1\n      0x04\n      mul\n      add\n      0x00\n      swap2\n      pop\n      swap1\n      pop\n      dup1\n      0x00\n      add\n      0x00\n      swap1\n      sload\n      swap1\n      0x0100\n      exp\n      swap1\n      div\n      0xffffffffffffffffffffffffffffffffffffffff\n      and\n      swap1\n      dup1\n      0x01\n      add\n      dup1\n      sload\n      tag_48\n      swap1\n      tag_49\n      jump\t// in\n    tag_48:\n      dup1\n      0x1f\n      add\n      0x20\n      dup1\n      swap2\n      div\n      mul\n      0x20\n      add\n      mload(0x40)\n      swap1\n      dup2\n      add\n      0x40\n      mstore\n      dup1\n      swap3\n      swap2\n      swap1\n      dup2\n      dup2\n      mstore\n      0x20\n      add\n      dup3\n      dup1\n      sload\n      tag_50\n      swap1\n      tag_49\n      jump\t// in\n    tag_50:\n      dup1\n      iszero\n      tag_51\n      jumpi\n      dup1\n      0x1f\n      lt\n      tag_52\n      jumpi\n      0x0100\n      dup1\n      dup4\n      sload\n      div\n      mul\n      dup4\n      mstore\n      swap2\n      0x20\n      add\n      swap2\n      jump(tag_51)\n    tag_52:\n      dup3\n      add\n      swap2\n      swap1\n      0x00\n      mstore\n      keccak256(0x00, 0x20)\n      swap1\n    tag_53:\n      dup2\n      sload\n      dup2\n      mstore\n      swap1\n      0x01\n      add\n      swap1\n      0x20\n      add\n      dup1\n      dup4\n      gt\n      tag_53\n      jumpi\n      dup3\n      swap1\n      sub\n      0x1f\n      and\n      dup3\n      add\n      swap2\n    tag_51:\n      pop\n      pop\n      pop\n      pop\n      pop\n      swap1\n      dup1\n      0x03\n      add\n      0x00\n      swap1\n      sload\n      swap1\n      0x0100\n      exp\n      swap1\n      div\n      0xff\n      and\n      swap1\n      pop\n      dup4\n      jump\t// out\n        /* \"deps/proje/store.sol\":1271:1666  function advanceOrder(uint256 order_id ) public {\r... */\n    tag_25:\n        /* \"deps/proje/store.sol\":1347:1357  msg.sender */\n      caller\n        /* \"deps/proje/store.sol\":1338:1357  owner == msg.sender */\n      0xffffffffffffffffffffffffffffffffffffffff\n      and\n        /* \"deps/proje/store.sol\":1338:1343  owner */\n      0x01\n      0x00\n      swap1\n      sload\n      swap1\n      0x0100\n      exp\n      swap1\n      div\n      0xffffffffffffffffffffffffffffffffffffffff\n      and\n        /* \"deps/proje/store.sol\":1338:1357  owner == msg.sender */\n      0xffffffffffffffffffffffffffffffffffffffff\n      and\n      eq\n        /* \"deps/proje/store.sol\":1330:1378  require(owner == msg.sender , \" you not owner \") */\n      tag_55\n      jumpi\n      mload(0x40)\n      0x08c379a000000000000000000000000000000000000000000000000000000000\n      dup2\n      mstore\n      0x04\n      add\n      tag_56\n      swap1\n      tag_57\n      jump\t// in\n    tag_56:\n      mload(0x40)\n      dup1\n      swap2\n      sub\n      swap1\n      revert\n    tag_55:\n        /* \"deps/proje/store.sol\":1410:1416  orders */\n      0x00\n        /* \"deps/proje/store.sol\":1410:1423  orders.length */\n      dup1\n      sload\n      swap1\n      pop\n        /* \"deps/proje/store.sol\":1399:1407  order_id */\n      dup2\n        /* \"deps/proje/store.sol\":1399:1423  order_id < orders.length */\n      lt\n        /* \"deps/proje/store.sol\":1391:1450  require(order_id < orders.length , \"not a valid orderid  \") */\n      tag_58\n      jumpi\n      mload(0x40)\n      0x08c379a000000000000000000000000000000000000000000000000000000000\n      dup2\n      mstore\n      0x04\n      add\n      tag_59\n      swap1\n      tag_60\n      jump\t// in\n    tag_59:\n      mload(0x40)\n      dup1\n      swap2\n      sub\n      swap1\n      revert\n    tag_58:\n        /* \"deps/proje/store.sol\":1463:1482  Order storage order */\n      0x00\n        /* \"deps/proje/store.sol\":1485:1491  orders */\n      dup1\n        /* \"deps/proje/store.sol\":1492:1500  order_id */\n      dup3\n        /* \"deps/proje/store.sol\":1485:1501  orders[order_id] */\n      dup2\n      sload\n      dup2\n      lt\n      tag_61\n      jumpi\n      tag_62\n      tag_63\n      jump\t// in\n    tag_62:\n    tag_61:\n      swap1\n      0x00\n      mstore\n      keccak256(0x00, 0x20)\n      swap1\n      0x04\n      mul\n      add\n        /* \"deps/proje/store.sol\":1463:1501  Order storage order = orders[order_id] */\n      swap1\n      pop\n        /* \"deps/proje/store.sol\":1612:1626  Status.Shipped */\n      0x03\n        /* \"deps/proje/store.sol\":1596:1626  order.status != Status.Shipped */\n      dup1\n      dup2\n      gt\n      iszero\n      tag_65\n      jumpi\n      tag_66\n      tag_34\n      jump\t// in\n    tag_66:\n    tag_65:\n        /* \"deps/proje/store.sol\":1596:1601  order */\n      dup2\n        /* \"deps/proje/store.sol\":1596:1608  order.status */\n      0x03\n      add\n      0x00\n      swap1\n      sload\n      swap1\n      0x0100\n      exp\n      swap1\n      div\n      0xff\n      and\n        /* \"deps/proje/store.sol\":1596:1626  order.status != Status.Shipped */\n      0x03\n      dup2\n      gt\n      iszero\n      tag_67\n      jumpi\n      tag_68\n      tag_34\n      jump\t// in\n    tag_68:\n    tag_67:\n      eq\n      iszero\n        /* \"deps/proje/store.sol\":1588:1658  require(order.status != Status.Shipped , \"order is already  shipped \") */\n      tag_69\n      jumpi\n      mload(0x40)\n      0x08c379a000000000000000000000000000000000000000000000000000000000\n      dup2\n      mstore\n      0x04\n      add\n      tag_70\n      swap1\n      tag_71\n      jump\t// in\n    tag_70:\n      mload(0x40)\n      dup1\n      swap2\n      sub\n      swap1\n      revert\n    tag_69:\n        /* \"deps/proje/store.sol\":1319:1666  {\r... */\n      pop\n        /* \"deps/proje/store.sol\":1271:1666  function advanceOrder(uint256 order_id ) public {\r... */\n      pop\n      jump\t// out\n    tag_31:\n      mload(0x40)\n      dup1\n      0x80\n      add\n      0x40\n      mstore\n      dup1\n      and(0xffffffffffffffffffffffffffffffffffffffff, 0x00)\n      dup2\n      mstore\n      0x20\n      add\n      0x60\n      dup2\n      mstore\n      0x20\n      add\n      0x60\n      dup2\n      mstore\n      0x20\n      add\n      0x00\n      0x03\n      dup2\n      gt\n      iszero\n      tag_72\n      jumpi\n      tag_73\n      tag_34\n      jump\t// in\n    tag_73:\n    tag_72:\n      dup2\n      mstore\n      pop\n      swap1\n      jump\t// out\n    tag_39:\n      dup3\n      dup1\n      sload\n      tag_74\n      swap1\n      tag_49\n      jump\t// in\n    tag_74:\n      swap1\n      0x00\n      mstore\n      keccak256(0x00, 0x20)\n      swap1\n      0x1f\n      add\n      0x20\n      swap1\n      div\n      dup2\n      add\n      swap3\n      dup3\n      tag_76\n      jumpi\n      0x00\n      dup6\n      sstore\n      jump(tag_75)\n    tag_76:\n      dup3\n      0x1f\n      lt\n      tag_77\n      jumpi\n      dup1\n      mload\n      not(0xff)\n      and\n      dup4\n      dup1\n      add\n      or\n      dup6\n      sstore\n      jump(tag_75)\n    tag_77:\n      dup3\n      dup1\n      add\n      0x01\n      add\n      dup6\n      sstore\n      dup3\n      iszero\n      tag_75\n      jumpi\n      swap2\n      dup3\n      add\n    tag_78:\n      dup3\n      dup2\n      gt\n      iszero\n      tag_79\n      jumpi\n      dup3\n      mload\n      dup3\n      sstore\n      swap2\n      0x20\n      add\n      swap2\n      swap1\n      0x01\n      add\n      swap1\n      jump(tag_78)\n    tag_79:\n    tag_75:\n      pop\n      swap1\n      pop\n      tag_80\n      swap2\n      swap1\n      tag_81\n      jump\t// in\n    tag_80:\n      pop\n      swap1\n      jump\t// out\n    tag_41:\n      dup3\n      dup1\n      sload\n      dup3\n      dup3\n      sstore\n      swap1\n      0x00\n      mstore\n      keccak256(0x00, 0x20)\n      swap1\n      dup2\n      add\n      swap3\n      dup3\n      iszero\n      tag_82\n      jumpi\n      swap2\n      0x20\n      mul\n      dup3\n      add\n    tag_83:\n      dup3\n      dup2\n      gt\n      iszero\n      tag_84\n      jumpi\n      dup3\n      mload\n      dup3\n      sstore\n      swap2\n      0x20\n      add\n      swap2\n      swap1\n      0x01\n      add\n      swap1\n      jump(tag_83)\n    tag_84:\n    tag_82:\n      pop\n      swap1\n      pop\n      tag_85\n      swap2\n      swap1\n      tag_81\n      jump\t// in\n    tag_85:\n      pop\n      swap1\n      jump\t// out\n    tag_81:\n    tag_86:\n      dup1\n      dup3\n      gt\n      iszero\n      tag_87\n      jumpi\n      0x00\n      dup2\n      0x00\n      swap1\n      sstore\n      pop\n      0x01\n      add\n      jump(tag_86)\n    tag_87:\n      pop\n      swap1\n      jump\t// out\n        /* \"#utility.yul\":24:746   */\n    tag_89:\n        /* \"#utility.yul\":120:125   */\n      0x00\n        /* \"#utility.yul\":145:226   */\n      tag_91\n        /* \"#utility.yul\":161:225   */\n      tag_92\n        /* \"#utility.yul\":218:224   */\n      dup5\n        /* \"#utility.yul\":161:225   */\n      tag_93\n      jump\t// in\n    tag_92:\n        /* \"#utility.yul\":145:226   */\n      tag_94\n      jump\t// in\n    tag_91:\n        /* \"#utility.yul\":136:226   */\n      swap1\n      pop\n        /* \"#utility.yul\":246:251   */\n      dup1\n        /* \"#utility.yul\":275:281   */\n      dup4\n        /* \"#utility.yul\":268:273   */\n      dup3\n        /* \"#utility.yul\":261:282   */\n      mstore\n        /* \"#utility.yul\":309:313   */\n      0x20\n        /* \"#utility.yul\":302:307   */\n      dup3\n        /* \"#utility.yul\":298:314   */\n      add\n        /* \"#utility.yul\":291:314   */\n      swap1\n      pop\n        /* \"#utility.yul\":335:341   */\n      dup3\n        /* \"#utility.yul\":385:388   */\n      dup6\n        /* \"#utility.yul\":377:381   */\n      0x20\n        /* \"#utility.yul\":369:375   */\n      dup7\n        /* \"#utility.yul\":365:382   */\n      mul\n        /* \"#utility.yul\":360:363   */\n      dup3\n        /* \"#utility.yul\":356:383   */\n      add\n        /* \"#utility.yul\":353:389   */\n      gt\n        /* \"#utility.yul\":350:493   */\n      iszero\n      tag_95\n      jumpi\n        /* \"#utility.yul\":404:483   */\n      tag_96\n      tag_97\n      jump\t// in\n    tag_96:\n        /* \"#utility.yul\":350:493   */\n    tag_95:\n        /* \"#utility.yul\":517:518   */\n      0x00\n        /* \"#utility.yul\":502:740   */\n    tag_98:\n        /* \"#utility.yul\":527:533   */\n      dup6\n        /* \"#utility.yul\":524:525   */\n      dup2\n        /* \"#utility.yul\":521:534   */\n      lt\n        /* \"#utility.yul\":502:740   */\n      iszero\n      tag_100\n      jumpi\n        /* \"#utility.yul\":595:598   */\n      dup2\n        /* \"#utility.yul\":624:661   */\n      tag_101\n        /* \"#utility.yul\":657:660   */\n      dup9\n        /* \"#utility.yul\":645:655   */\n      dup3\n        /* \"#utility.yul\":624:661   */\n      tag_102\n      jump\t// in\n    tag_101:\n        /* \"#utility.yul\":619:622   */\n      dup5\n        /* \"#utility.yul\":612:662   */\n      mstore\n        /* \"#utility.yul\":691:695   */\n      0x20\n        /* \"#utility.yul\":686:689   */\n      dup5\n        /* \"#utility.yul\":682:696   */\n      add\n        /* \"#utility.yul\":675:696   */\n      swap4\n      pop\n        /* \"#utility.yul\":725:729   */\n      0x20\n        /* \"#utility.yul\":720:723   */\n      dup4\n        /* \"#utility.yul\":716:730   */\n      add\n        /* \"#utility.yul\":709:730   */\n      swap3\n      pop\n        /* \"#utility.yul\":562:740   */\n      pop\n        /* \"#utility.yul\":549:550   */\n      0x01\n        /* \"#utility.yul\":546:547   */\n      dup2\n        /* \"#utility.yul\":542:551   */\n      add\n        /* \"#utility.yul\":537:551   */\n      swap1\n      pop\n        /* \"#utility.yul\":502:740   */\n      jump(tag_98)\n    tag_100:\n        /* \"#utility.yul\":506:520   */\n      pop\n        /* \"#utility.yul\":126:746   */\n      pop\n      pop\n        /* \"#utility.yul\":24:746   */\n      swap4\n      swap3\n      pop\n      pop\n      pop\n      jump\t// out\n        /* \"#utility.yul\":752:1164   */\n    tag_103:\n        /* \"#utility.yul\":830:835   */\n      0x00\n        /* \"#utility.yul\":855:921   */\n      tag_105\n        /* \"#utility.yul\":871:920   */\n      tag_106\n        /* \"#utility.yul\":913:919   */\n      dup5\n        /* \"#utility.yul\":871:920   */\n      tag_107\n      jump\t// in\n    tag_106:\n        /* \"#utility.yul\":855:921   */\n      tag_94\n      jump\t// in\n    tag_105:\n        /* \"#utility.yul\":846:921   */\n      swap1\n      pop\n        /* \"#utility.yul\":944:950   */\n      dup3\n        /* \"#utility.yul\":937:942   */\n      dup2\n        /* \"#utility.yul\":930:951   */\n      mstore\n        /* \"#utility.yul\":982:986   */\n      0x20\n        /* \"#utility.yul\":975:980   */\n      dup2\n        /* \"#utility.yul\":971:987   */\n      add\n        /* \"#utility.yul\":1020:1023   */\n      dup5\n        /* \"#utility.yul\":1011:1017   */\n      dup5\n        /* \"#utility.yul\":1006:1009   */\n      dup5\n        /* \"#utility.yul\":1002:1018   */\n      add\n        /* \"#utility.yul\":999:1024   */\n      gt\n        /* \"#utility.yul\":996:1108   */\n      iszero\n      tag_108\n      jumpi\n        /* \"#utility.yul\":1027:1106   */\n      tag_109\n      tag_110\n      jump\t// in\n    tag_109:\n        /* \"#utility.yul\":996:1108   */\n    tag_108:\n        /* \"#utility.yul\":1117:1158   */\n      tag_111\n        /* \"#utility.yul\":1151:1157   */\n      dup5\n        /* \"#utility.yul\":1146:1149   */\n      dup3\n        /* \"#utility.yul\":1141:1144   */\n      dup6\n        /* \"#utility.yul\":1117:1158   */\n      tag_112\n      jump\t// in\n    tag_111:\n        /* \"#utility.yul\":836:1164   */\n      pop\n        /* \"#utility.yul\":752:1164   */\n      swap4\n      swap3\n      pop\n      pop\n      pop\n      jump\t// out\n        /* \"#utility.yul\":1187:1557   */\n    tag_113:\n        /* \"#utility.yul\":1258:1263   */\n      0x00\n        /* \"#utility.yul\":1307:1310   */\n      dup3\n        /* \"#utility.yul\":1300:1304   */\n      0x1f\n        /* \"#utility.yul\":1292:1298   */\n      dup4\n        /* \"#utility.yul\":1288:1305   */\n      add\n        /* \"#utility.yul\":1284:1311   */\n      slt\n        /* \"#utility.yul\":1274:1396   */\n      tag_115\n      jumpi\n        /* \"#utility.yul\":1315:1394   */\n      tag_116\n      tag_117\n      jump\t// in\n    tag_116:\n        /* \"#utility.yul\":1274:1396   */\n    tag_115:\n        /* \"#utility.yul\":1432:1438   */\n      dup2\n        /* \"#utility.yul\":1419:1439   */\n      calldataload\n        /* \"#utility.yul\":1457:1551   */\n      tag_118\n        /* \"#utility.yul\":1547:1550   */\n      dup5\n        /* \"#utility.yul\":1539:1545   */\n      dup3\n        /* \"#utility.yul\":1532:1536   */\n      0x20\n        /* \"#utility.yul\":1524:1530   */\n      dup7\n        /* \"#utility.yul\":1520:1537   */\n      add\n        /* \"#utility.yul\":1457:1551   */\n      tag_89\n      jump\t// in\n    tag_118:\n        /* \"#utility.yul\":1448:1551   */\n      swap2\n      pop\n        /* \"#utility.yul\":1264:1557   */\n      pop\n        /* \"#utility.yul\":1187:1557   */\n      swap3\n      swap2\n      pop\n      pop\n      jump\t// out\n        /* \"#utility.yul\":1577:1917   */\n    tag_119:\n        /* \"#utility.yul\":1633:1638   */\n      0x00\n        /* \"#utility.yul\":1682:1685   */\n      dup3\n        /* \"#utility.yul\":1675:1679   */\n      0x1f\n        /* \"#utility.yul\":1667:1673   */\n      dup4\n        /* \"#utility.yul\":1663:1680   */\n      add\n        /* \"#utility.yul\":1659:1686   */\n      slt\n        /* \"#utility.yul\":1649:1771   */\n      tag_121\n      jumpi\n        /* \"#utility.yul\":1690:1769   */\n      tag_122\n      tag_117\n      jump\t// in\n    tag_122:\n        /* \"#utility.yul\":1649:1771   */\n    tag_121:\n        /* \"#utility.yul\":1807:1813   */\n      dup2\n        /* \"#utility.yul\":1794:1814   */\n      calldataload\n        /* \"#utility.yul\":1832:1911   */\n      tag_123\n        /* \"#utility.yul\":1907:1910   */\n      dup5\n        /* \"#utility.yul\":1899:1905   */\n      dup3\n        /* \"#utility.yul\":1892:1896   */\n      0x20\n        /* \"#utility.yul\":1884:1890   */\n      dup7\n        /* \"#utility.yul\":1880:1897   */\n      add\n        /* \"#utility.yul\":1832:1911   */\n      tag_103\n      jump\t// in\n    tag_123:\n        /* \"#utility.yul\":1823:1911   */\n      swap2\n      pop\n        /* \"#utility.yul\":1639:1917   */\n      pop\n        /* \"#utility.yul\":1577:1917   */\n      swap3\n      swap2\n      pop\n      pop\n      jump\t// out\n        /* \"#utility.yul\":1923:2062   */\n    tag_102:\n        /* \"#utility.yul\":1969:1974   */\n      0x00\n        /* \"#utility.yul\":2007:2013   */\n      dup2\n        /* \"#utility.yul\":1994:2014   */\n      calldataload\n        /* \"#utility.yul\":1985:2014   */\n      swap1\n      pop\n        /* \"#utility.yul\":2023:2056   */\n      tag_125\n        /* \"#utility.yul\":2050:2055   */\n      dup2\n        /* \"#utility.yul\":2023:2056   */\n      tag_126\n      jump\t// in\n    tag_125:\n        /* \"#utility.yul\":1923:2062   */\n      swap3\n      swap2\n      pop\n      pop\n      jump\t// out\n        /* \"#utility.yul\":2068:2932   */\n    tag_9:\n        /* \"#utility.yul\":2171:2177   */\n      0x00\n        /* \"#utility.yul\":2179:2185   */\n      dup1\n        /* \"#utility.yul\":2228:2230   */\n      0x40\n        /* \"#utility.yul\":2216:2225   */\n      dup4\n        /* \"#utility.yul\":2207:2214   */\n      dup6\n        /* \"#utility.yul\":2203:2226   */\n      sub\n        /* \"#utility.yul\":2199:2231   */\n      slt\n        /* \"#utility.yul\":2196:2315   */\n      iszero\n      tag_128\n      jumpi\n        /* \"#utility.yul\":2234:2313   */\n      tag_129\n      tag_130\n      jump\t// in\n    tag_129:\n        /* \"#utility.yul\":2196:2315   */\n    tag_128:\n        /* \"#utility.yul\":2382:2383   */\n      0x00\n        /* \"#utility.yul\":2371:2380   */\n      dup4\n        /* \"#utility.yul\":2367:2384   */\n      add\n        /* \"#utility.yul\":2354:2385   */\n      calldataload\n        /* \"#utility.yul\":2412:2430   */\n      0xffffffffffffffff\n        /* \"#utility.yul\":2404:2410   */\n      dup2\n        /* \"#utility.yul\":2401:2431   */\n      gt\n        /* \"#utility.yul\":2398:2515   */\n      iszero\n      tag_131\n      jumpi\n        /* \"#utility.yul\":2434:2513   */\n      tag_132\n      tag_133\n      jump\t// in\n    tag_132:\n        /* \"#utility.yul\":2398:2515   */\n    tag_131:\n        /* \"#utility.yul\":2539:2602   */\n      tag_134\n        /* \"#utility.yul\":2594:2601   */\n      dup6\n        /* \"#utility.yul\":2585:2591   */\n      dup3\n        /* \"#utility.yul\":2574:2583   */\n      dup7\n        /* \"#utility.yul\":2570:2592   */\n      add\n        /* \"#utility.yul\":2539:2602   */\n      tag_119\n      jump\t// in\n    tag_134:\n        /* \"#utility.yul\":2529:2602   */\n      swap3\n      pop\n        /* \"#utility.yul\":2325:2612   */\n      pop\n        /* \"#utility.yul\":2679:2681   */\n      0x20\n        /* \"#utility.yul\":2668:2677   */\n      dup4\n        /* \"#utility.yul\":2664:2682   */\n      add\n        /* \"#utility.yul\":2651:2683   */\n      calldataload\n        /* \"#utility.yul\":2710:2728   */\n      0xffffffffffffffff\n        /* \"#utility.yul\":2702:2708   */\n      dup2\n        /* \"#utility.yul\":2699:2729   */\n      gt\n        /* \"#utility.yul\":2696:2813   */\n      iszero\n      tag_135\n      jumpi\n        /* \"#utility.yul\":2732:2811   */\n      tag_136\n      tag_133\n      jump\t// in\n    tag_136:\n        /* \"#utility.yul\":2696:2813   */\n    tag_135:\n        /* \"#utility.yul\":2837:2915   */\n      tag_137\n        /* \"#utility.yul\":2907:2914   */\n      dup6\n        /* \"#utility.yul\":2898:2904   */\n      dup3\n        /* \"#utility.yul\":2887:2896   */\n      dup7\n        /* \"#utility.yul\":2883:2905   */\n      add\n        /* \"#utility.yul\":2837:2915   */\n      tag_113\n      jump\t// in\n    tag_137:\n        /* \"#utility.yul\":2827:2915   */\n      swap2\n      pop\n        /* \"#utility.yul\":2622:2925   */\n      pop\n        /* \"#utility.yul\":2068:2932   */\n      swap3\n      pop\n      swap3\n      swap1\n      pop\n      jump\t// out\n        /* \"#utility.yul\":2938:3267   */\n    tag_19:\n        /* \"#utility.yul\":2997:3003   */\n      0x00\n        /* \"#utility.yul\":3046:3048   */\n      0x20\n        /* \"#utility.yul\":3034:3043   */\n      dup3\n        /* \"#utility.yul\":3025:3032   */\n      dup5\n        /* \"#utility.yul\":3021:3044   */\n      sub\n        /* \"#utility.yul\":3017:3049   */\n      slt\n        /* \"#utility.yul\":3014:3133   */\n      iszero\n      tag_139\n      jumpi\n        /* \"#utility.yul\":3052:3131   */\n      tag_140\n      tag_130\n      jump\t// in\n    tag_140:\n        /* \"#utility.yul\":3014:3133   */\n    tag_139:\n        /* \"#utility.yul\":3172:3173   */\n      0x00\n        /* \"#utility.yul\":3197:3250   */\n      tag_141\n        /* \"#utility.yul\":3242:3249   */\n      dup5\n        /* \"#utility.yul\":3233:3239   */\n      dup3\n        /* \"#utility.yul\":3222:3231   */\n      dup6\n        /* \"#utility.yul\":3218:3240   */\n      add\n        /* \"#utility.yul\":3197:3250   */\n      tag_102\n      jump\t// in\n    tag_141:\n        /* \"#utility.yul\":3187:3250   */\n      swap2\n      pop\n        /* \"#utility.yul\":3143:3260   */\n      pop\n        /* \"#utility.yul\":2938:3267   */\n      swap3\n      swap2\n      pop\n      pop\n      jump\t// out\n        /* \"#utility.yul\":3273:3391   */\n    tag_142:\n        /* \"#utility.yul\":3360:3384   */\n      tag_144\n        /* \"#utility.yul\":3378:3383   */\n      dup2\n        /* \"#utility.yul\":3360:3384   */\n      tag_145\n      jump\t// in\n    tag_144:\n        /* \"#utility.yul\":3355:3358   */\n      dup3\n        /* \"#utility.yul\":3348:3385   */\n      mstore\n        /* \"#utility.yul\":3273:3391   */\n      pop\n      pop\n      jump\t// out\n        /* \"#utility.yul\":3397:3540   */\n    tag_146:\n        /* \"#utility.yul\":3490:3533   */\n      tag_148\n        /* \"#utility.yul\":3527:3532   */\n      dup2\n        /* \"#utility.yul\":3490:3533   */\n      tag_149\n      jump\t// in\n    tag_148:\n        /* \"#utility.yul\":3485:3488   */\n      dup3\n        /* \"#utility.yul\":3478:3534   */\n      mstore\n        /* \"#utility.yul\":3397:3540   */\n      pop\n      pop\n      jump\t// out\n        /* \"#utility.yul\":3546:3910   */\n    tag_150:\n        /* \"#utility.yul\":3634:3637   */\n      0x00\n        /* \"#utility.yul\":3662:3701   */\n      tag_152\n        /* \"#utility.yul\":3695:3700   */\n      dup3\n        /* \"#utility.yul\":3662:3701   */\n      tag_153\n      jump\t// in\n    tag_152:\n        /* \"#utility.yul\":3717:3788   */\n      tag_154\n        /* \"#utility.yul\":3781:3787   */\n      dup2\n        /* \"#utility.yul\":3776:3779   */\n      dup6\n        /* \"#utility.yul\":3717:3788   */\n      tag_155\n      jump\t// in\n    tag_154:\n        /* \"#utility.yul\":3710:3788   */\n      swap4\n      pop\n        /* \"#utility.yul\":3797:3849   */\n      tag_156\n        /* \"#utility.yul\":3842:3848   */\n      dup2\n        /* \"#utility.yul\":3837:3840   */\n      dup6\n        /* \"#utility.yul\":3830:3834   */\n      0x20\n        /* \"#utility.yul\":3823:3828   */\n      dup7\n        /* \"#utility.yul\":3819:3835   */\n      add\n        /* \"#utility.yul\":3797:3849   */\n      tag_157\n      jump\t// in\n    tag_156:\n        /* \"#utility.yul\":3874:3903   */\n      tag_158\n        /* \"#utility.yul\":3896:3902   */\n      dup2\n        /* \"#utility.yul\":3874:3903   */\n      tag_159\n      jump\t// in\n    tag_158:\n        /* \"#utility.yul\":3869:3872   */\n      dup5\n        /* \"#utility.yul\":3865:3904   */\n      add\n        /* \"#utility.yul\":3858:3904   */\n      swap2\n      pop\n        /* \"#utility.yul\":3638:3910   */\n      pop\n        /* \"#utility.yul\":3546:3910   */\n      swap3\n      swap2\n      pop\n      pop\n      jump\t// out\n        /* \"#utility.yul\":3916:4282   */\n    tag_160:\n        /* \"#utility.yul\":4058:4061   */\n      0x00\n        /* \"#utility.yul\":4079:4146   */\n      tag_162\n        /* \"#utility.yul\":4143:4145   */\n      0x15\n        /* \"#utility.yul\":4138:4141   */\n      dup4\n        /* \"#utility.yul\":4079:4146   */\n      tag_155\n      jump\t// in\n    tag_162:\n        /* \"#utility.yul\":4072:4146   */\n      swap2\n      pop\n        /* \"#utility.yul\":4155:4248   */\n      tag_163\n        /* \"#utility.yul\":4244:4247   */\n      dup3\n        /* \"#utility.yul\":4155:4248   */\n      tag_164\n      jump\t// in\n    tag_163:\n        /* \"#utility.yul\":4273:4275   */\n      0x20\n        /* \"#utility.yul\":4268:4271   */\n      dup3\n        /* \"#utility.yul\":4264:4276   */\n      add\n        /* \"#utility.yul\":4257:4276   */\n      swap1\n      pop\n        /* \"#utility.yul\":3916:4282   */\n      swap2\n      swap1\n      pop\n      jump\t// out\n        /* \"#utility.yul\":4288:4654   */\n    tag_165:\n        /* \"#utility.yul\":4430:4433   */\n      0x00\n        /* \"#utility.yul\":4451:4518   */\n      tag_167\n        /* \"#utility.yul\":4515:4517   */\n      0x0f\n        /* \"#utility.yul\":4510:4513   */\n      dup4\n        /* \"#utility.yul\":4451:4518   */\n      tag_155\n      jump\t// in\n    tag_167:\n        /* \"#utility.yul\":4444:4518   */\n      swap2\n      pop\n        /* \"#utility.yul\":4527:4620   */\n      tag_168\n        /* \"#utility.yul\":4616:4619   */\n      dup3\n        /* \"#utility.yul\":4527:4620   */\n      tag_169\n      jump\t// in\n    tag_168:\n        /* \"#utility.yul\":4645:4647   */\n      0x20\n        /* \"#utility.yul\":4640:4643   */\n      dup3\n        /* \"#utility.yul\":4636:4648   */\n      add\n        /* \"#utility.yul\":4629:4648   */\n      swap1\n      pop\n        /* \"#utility.yul\":4288:4654   */\n      swap2\n      swap1\n      pop\n      jump\t// out\n        /* \"#utility.yul\":4660:5026   */\n    tag_170:\n        /* \"#utility.yul\":4802:4805   */\n      0x00\n        /* \"#utility.yul\":4823:4890   */\n      tag_172\n        /* \"#utility.yul\":4887:4889   */\n      0x1a\n        /* \"#utility.yul\":4882:4885   */\n      dup4\n        /* \"#utility.yul\":4823:4890   */\n      tag_155\n      jump\t// in\n    tag_172:\n        /* \"#utility.yul\":4816:4890   */\n      swap2\n      pop\n        /* \"#utility.yul\":4899:4992   */\n      tag_173\n        /* \"#utility.yul\":4988:4991   */\n      dup3\n        /* \"#utility.yul\":4899:4992   */\n      tag_174\n      jump\t// in\n    tag_173:\n        /* \"#utility.yul\":5017:5019   */\n      0x20\n        /* \"#utility.yul\":5012:5015   */\n      dup3\n        /* \"#utility.yul\":5008:5020   */\n      add\n        /* \"#utility.yul\":5001:5020   */\n      swap1\n      pop\n        /* \"#utility.yul\":4660:5026   */\n      swap2\n      swap1\n      pop\n      jump\t// out\n        /* \"#utility.yul\":5032:5398   */\n    tag_175:\n        /* \"#utility.yul\":5174:5177   */\n      0x00\n        /* \"#utility.yul\":5195:5262   */\n      tag_177\n        /* \"#utility.yul\":5259:5261   */\n      0x0d\n        /* \"#utility.yul\":5254:5257   */\n      dup4\n        /* \"#utility.yul\":5195:5262   */\n      tag_155\n      jump\t// in\n    tag_177:\n        /* \"#utility.yul\":5188:5262   */\n      swap2\n      pop\n        /* \"#utility.yul\":5271:5364   */\n      tag_178\n        /* \"#utility.yul\":5360:5363   */\n      dup3\n        /* \"#utility.yul\":5271:5364   */\n      tag_179\n      jump\t// in\n    tag_178:\n        /* \"#utility.yul\":5389:5391   */\n      0x20\n        /* \"#utility.yul\":5384:5387   */\n      dup3\n        /* \"#utility.yul\":5380:5392   */\n      add\n        /* \"#utility.yul\":5373:5392   */\n      swap1\n      pop\n        /* \"#utility.yul\":5032:5398   */\n      swap2\n      swap1\n      pop\n      jump\t// out\n        /* \"#utility.yul\":5404:5522   */\n    tag_180:\n        /* \"#utility.yul\":5491:5515   */\n      tag_182\n        /* \"#utility.yul\":5509:5514   */\n      dup2\n        /* \"#utility.yul\":5491:5515   */\n      tag_183\n      jump\t// in\n    tag_182:\n        /* \"#utility.yul\":5486:5489   */\n      dup3\n        /* \"#utility.yul\":5479:5516   */\n      mstore\n        /* \"#utility.yul\":5404:5522   */\n      pop\n      pop\n      jump\t// out\n        /* \"#utility.yul\":5528:5750   */\n    tag_16:\n        /* \"#utility.yul\":5621:5625   */\n      0x00\n        /* \"#utility.yul\":5659:5661   */\n      0x20\n        /* \"#utility.yul\":5648:5657   */\n      dup3\n        /* \"#utility.yul\":5644:5662   */\n      add\n        /* \"#utility.yul\":5636:5662   */\n      swap1\n      pop\n        /* \"#utility.yul\":5672:5743   */\n      tag_185\n        /* \"#utility.yul\":5740:5741   */\n      0x00\n        /* \"#utility.yul\":5729:5738   */\n      dup4\n        /* \"#utility.yul\":5725:5742   */\n      add\n        /* \"#utility.yul\":5716:5722   */\n      dup5\n        /* \"#utility.yul\":5672:5743   */\n      tag_142\n      jump\t// in\n    tag_185:\n        /* \"#utility.yul\":5528:5750   */\n      swap3\n      swap2\n      pop\n      pop\n      jump\t// out\n        /* \"#utility.yul\":5756:6301   */\n    tag_22:\n        /* \"#utility.yul\":5931:5935   */\n      0x00\n        /* \"#utility.yul\":5969:5971   */\n      0x60\n        /* \"#utility.yul\":5958:5967   */\n      dup3\n        /* \"#utility.yul\":5954:5972   */\n      add\n        /* \"#utility.yul\":5946:5972   */\n      swap1\n      pop\n        /* \"#utility.yul\":5982:6053   */\n      tag_187\n        /* \"#utility.yul\":6050:6051   */\n      0x00\n        /* \"#utility.yul\":6039:6048   */\n      dup4\n        /* \"#utility.yul\":6035:6052   */\n      add\n        /* \"#utility.yul\":6026:6032   */\n      dup7\n        /* \"#utility.yul\":5982:6053   */\n      tag_142\n      jump\t// in\n    tag_187:\n        /* \"#utility.yul\":6100:6109   */\n      dup2\n        /* \"#utility.yul\":6094:6098   */\n      dup2\n        /* \"#utility.yul\":6090:6110   */\n      sub\n        /* \"#utility.yul\":6085:6087   */\n      0x20\n        /* \"#utility.yul\":6074:6083   */\n      dup4\n        /* \"#utility.yul\":6070:6088   */\n      add\n        /* \"#utility.yul\":6063:6111   */\n      mstore\n        /* \"#utility.yul\":6128:6206   */\n      tag_188\n        /* \"#utility.yul\":6201:6205   */\n      dup2\n        /* \"#utility.yul\":6192:6198   */\n      dup6\n        /* \"#utility.yul\":6128:6206   */\n      tag_150\n      jump\t// in\n    tag_188:\n        /* \"#utility.yul\":6120:6206   */\n      swap1\n      pop\n        /* \"#utility.yul\":6216:6294   */\n      tag_189\n        /* \"#utility.yul\":6290:6292   */\n      0x40\n        /* \"#utility.yul\":6279:6288   */\n      dup4\n        /* \"#utility.yul\":6275:6293   */\n      add\n        /* \"#utility.yul\":6266:6272   */\n      dup5\n        /* \"#utility.yul\":6216:6294   */\n      tag_146\n      jump\t// in\n    tag_189:\n        /* \"#utility.yul\":5756:6301   */\n      swap5\n      swap4\n      pop\n      pop\n      pop\n      pop\n      jump\t// out\n        /* \"#utility.yul\":6307:6726   */\n    tag_60:\n        /* \"#utility.yul\":6473:6477   */\n      0x00\n        /* \"#utility.yul\":6511:6513   */\n      0x20\n        /* \"#utility.yul\":6500:6509   */\n      dup3\n        /* \"#utility.yul\":6496:6514   */\n      add\n        /* \"#utility.yul\":6488:6514   */\n      swap1\n      pop\n        /* \"#utility.yul\":6560:6569   */\n      dup2\n        /* \"#utility.yul\":6554:6558   */\n      dup2\n        /* \"#utility.yul\":6550:6570   */\n      sub\n        /* \"#utility.yul\":6546:6547   */\n      0x00\n        /* \"#utility.yul\":6535:6544   */\n      dup4\n        /* \"#utility.yul\":6531:6548   */\n      add\n        /* \"#utility.yul\":6524:6571   */\n      mstore\n        /* \"#utility.yul\":6588:6719   */\n      tag_191\n        /* \"#utility.yul\":6714:6718   */\n      dup2\n        /* \"#utility.yul\":6588:6719   */\n      tag_160\n      jump\t// in\n    tag_191:\n        /* \"#utility.yul\":6580:6719   */\n      swap1\n      pop\n        /* \"#utility.yul\":6307:6726   */\n      swap2\n      swap1\n      pop\n      jump\t// out\n        /* \"#utility.yul\":6732:7151   */\n    tag_57:\n        /* \"#utility.yul\":6898:6902   */\n      0x00\n        /* \"#utility.yul\":6936:6938   */\n      0x20\n        /* \"#utility.yul\":6925:6934   */\n      dup3\n        /* \"#utility.yul\":6921:6939   */\n      add\n        /* \"#utility.yul\":6913:6939   */\n      swap1\n      pop\n        /* \"#utility.yul\":6985:6994   */\n      dup2\n        /* \"#utility.yul\":6979:6983   */\n      dup2\n        /* \"#utility.yul\":6975:6995   */\n      sub\n        /* \"#utility.yul\":6971:6972   */\n      0x00\n        /* \"#utility.yul\":6960:6969   */\n      dup4\n        /* \"#utility.yul\":6956:6973   */\n      add\n        /* \"#utility.yul\":6949:6996   */\n      mstore\n        /* \"#utility.yul\":7013:7144   */\n      tag_193\n        /* \"#utility.yul\":7139:7143   */\n      dup2\n        /* \"#utility.yul\":7013:7144   */\n      tag_165\n      jump\t// in\n    tag_193:\n        /* \"#utility.yul\":7005:7144   */\n      swap1\n      pop\n        /* \"#utility.yul\":6732:7151   */\n      swap2\n      swap1\n      pop\n      jump\t// out\n        /* \"#utility.yul\":7157:7576   */\n    tag_71:\n        /* \"#utility.yul\":7323:7327   */\n      0x00\n        /* \"#utility.yul\":7361:7363   */\n      0x20\n        /* \"#utility.yul\":7350:7359   */\n      dup3\n        /* \"#utility.yul\":7346:7364   */\n      add\n        /* \"#utility.yul\":7338:7364   */\n      swap1\n      pop\n        /* \"#utility.yul\":7410:7419   */\n      dup2\n        /* \"#utility.yul\":7404:7408   */\n      dup2\n        /* \"#utility.yul\":7400:7420   */\n      sub\n        /* \"#utility.yul\":7396:7397   */\n      0x00\n        /* \"#utility.yul\":7385:7394   */\n      dup4\n        /* \"#utility.yul\":7381:7398   */\n      add\n        /* \"#utility.yul\":7374:7421   */\n      mstore\n        /* \"#utility.yul\":7438:7569   */\n      tag_195\n        /* \"#utility.yul\":7564:7568   */\n      dup2\n        /* \"#utility.yul\":7438:7569   */\n      tag_170\n      jump\t// in\n    tag_195:\n        /* \"#utility.yul\":7430:7569   */\n      swap1\n      pop\n        /* \"#utility.yul\":7157:7576   */\n      swap2\n      swap1\n      pop\n      jump\t// out\n        /* \"#utility.yul\":7582:8001   */\n    tag_29:\n        /* \"#utility.yul\":7748:7752   */\n      0x00\n        /* \"#utility.yul\":7786:7788   */\n      0x20\n        /* \"#utility.yul\":7775:7784   */\n      dup3\n        /* \"#utility.yul\":7771:7789   */\n      add\n        /* \"#utility.yul\":7763:7789   */\n      swap1\n      pop\n        /* \"#utility.yul\":7835:7844   */\n      dup2\n        /* \"#utility.yul\":7829:7833   */\n      dup2\n        /* \"#utility.yul\":7825:7845   */\n      sub\n        /* \"#utility.yul\":7821:7822   */\n      0x00\n        /* \"#utility.yul\":7810:7819   */\n      dup4\n        /* \"#utility.yul\":7806:7823   */\n      add\n        /* \"#utility.yul\":7799:7846   */\n      mstore\n        /* \"#utility.yul\":7863:7994   */\n      tag_197\n        /* \"#utility.yul\":7989:7993   */\n      dup2\n        /* \"#utility.yul\":7863:7994   */\n      tag_175\n      jump\t// in\n    tag_197:\n        /* \"#utility.yul\":7855:7994   */\n      swap1\n      pop\n        /* \"#utility.yul\":7582:8001   */\n      swap2\n      swap1\n      pop\n      jump\t// out\n        /* \"#utility.yul\":8007:8229   */\n    tag_12:\n        /* \"#utility.yul\":8100:8104   */\n      0x00\n        /* \"#utility.yul\":8138:8140   */\n      0x20\n        /* \"#utility.yul\":8127:8136   */\n      dup3\n        /* \"#utility.yul\":8123:8141   */\n      add\n        /* \"#utility.yul\":8115:8141   */\n      swap1\n      pop\n        /* \"#utility.yul\":8151:8222   */\n      tag_199\n        /* \"#utility.yul\":8219:8220   */\n      0x00\n        /* \"#utility.yul\":8208:8217   */\n      dup4\n        /* \"#utility.yul\":8204:8221   */\n      add\n        /* \"#utility.yul\":8195:8201   */\n      dup5\n        /* \"#utility.yul\":8151:8222   */\n      tag_180\n      jump\t// in\n    tag_199:\n        /* \"#utility.yul\":8007:8229   */\n      swap3\n      swap2\n      pop\n      pop\n      jump\t// out\n        /* \"#utility.yul\":8235:8364   */\n    tag_94:\n        /* \"#utility.yul\":8269:8275   */\n      0x00\n        /* \"#utility.yul\":8296:8316   */\n      tag_201\n      tag_202\n      jump\t// in\n    tag_201:\n        /* \"#utility.yul\":8286:8316   */\n      swap1\n      pop\n        /* \"#utility.yul\":8325:8358   */\n      tag_203\n        /* \"#utility.yul\":8353:8357   */\n      dup3\n        /* \"#utility.yul\":8345:8351   */\n      dup3\n        /* \"#utility.yul\":8325:8358   */\n      tag_204\n      jump\t// in\n    tag_203:\n        /* \"#utility.yul\":8235:8364   */\n      swap2\n      swap1\n      pop\n      jump\t// out\n        /* \"#utility.yul\":8370:8445   */\n    tag_202:\n        /* \"#utility.yul\":8403:8409   */\n      0x00\n        /* \"#utility.yul\":8436:8438   */\n      0x40\n        /* \"#utility.yul\":8430:8439   */\n      mload\n        /* \"#utility.yul\":8420:8439   */\n      swap1\n      pop\n        /* \"#utility.yul\":8370:8445   */\n      swap1\n      jump\t// out\n        /* \"#utility.yul\":8451:8762   */\n    tag_93:\n        /* \"#utility.yul\":8528:8532   */\n      0x00\n        /* \"#utility.yul\":8618:8636   */\n      0xffffffffffffffff\n        /* \"#utility.yul\":8610:8616   */\n      dup3\n        /* \"#utility.yul\":8607:8637   */\n      gt\n        /* \"#utility.yul\":8604:8660   */\n      iszero\n      tag_207\n      jumpi\n        /* \"#utility.yul\":8640:8658   */\n      tag_208\n      tag_209\n      jump\t// in\n    tag_208:\n        /* \"#utility.yul\":8604:8660   */\n    tag_207:\n        /* \"#utility.yul\":8690:8694   */\n      0x20\n        /* \"#utility.yul\":8682:8688   */\n      dup3\n        /* \"#utility.yul\":8678:8695   */\n      mul\n        /* \"#utility.yul\":8670:8695   */\n      swap1\n      pop\n        /* \"#utility.yul\":8750:8754   */\n      0x20\n        /* \"#utility.yul\":8744:8748   */\n      dup2\n        /* \"#utility.yul\":8740:8755   */\n      add\n        /* \"#utility.yul\":8732:8755   */\n      swap1\n      pop\n        /* \"#utility.yul\":8451:8762   */\n      swap2\n      swap1\n      pop\n      jump\t// out\n        /* \"#utility.yul\":8768:9076   */\n    tag_107:\n        /* \"#utility.yul\":8830:8834   */\n      0x00\n        /* \"#utility.yul\":8920:8938   */\n      0xffffffffffffffff\n        /* \"#utility.yul\":8912:8918   */\n      dup3\n        /* \"#utility.yul\":8909:8939   */\n      gt\n        /* \"#utility.yul\":8906:8962   */\n      iszero\n      tag_211\n      jumpi\n        /* \"#utility.yul\":8942:8960   */\n      tag_212\n      tag_209\n      jump\t// in\n    tag_212:\n        /* \"#utility.yul\":8906:8962   */\n    tag_211:\n        /* \"#utility.yul\":8980:9009   */\n      tag_213\n        /* \"#utility.yul\":9002:9008   */\n      dup3\n        /* \"#utility.yul\":8980:9009   */\n      tag_159\n      jump\t// in\n    tag_213:\n        /* \"#utility.yul\":8972:9009   */\n      swap1\n      pop\n        /* \"#utility.yul\":9064:9068   */\n      0x20\n        /* \"#utility.yul\":9058:9062   */\n      dup2\n        /* \"#utility.yul\":9054:9069   */\n      add\n        /* \"#utility.yul\":9046:9069   */\n      swap1\n      pop\n        /* \"#utility.yul\":8768:9076   */\n      swap2\n      swap1\n      pop\n      jump\t// out\n        /* \"#utility.yul\":9082:9181   */\n    tag_153:\n        /* \"#utility.yul\":9134:9140   */\n      0x00\n        /* \"#utility.yul\":9168:9173   */\n      dup2\n        /* \"#utility.yul\":9162:9174   */\n      mload\n        /* \"#utility.yul\":9152:9174   */\n      swap1\n      pop\n        /* \"#utility.yul\":9082:9181   */\n      swap2\n      swap1\n      pop\n      jump\t// out\n        /* \"#utility.yul\":9187:9356   */\n    tag_155:\n        /* \"#utility.yul\":9271:9282   */\n      0x00\n        /* \"#utility.yul\":9305:9311   */\n      dup3\n        /* \"#utility.yul\":9300:9303   */\n      dup3\n        /* \"#utility.yul\":9293:9312   */\n      mstore\n        /* \"#utility.yul\":9345:9349   */\n      0x20\n        /* \"#utility.yul\":9340:9343   */\n      dup3\n        /* \"#utility.yul\":9336:9350   */\n      add\n        /* \"#utility.yul\":9321:9350   */\n      swap1\n      pop\n        /* \"#utility.yul\":9187:9356   */\n      swap3\n      swap2\n      pop\n      pop\n      jump\t// out\n        /* \"#utility.yul\":9362:9553   */\n    tag_45:\n        /* \"#utility.yul\":9402:9406   */\n      0x00\n        /* \"#utility.yul\":9422:9442   */\n      tag_217\n        /* \"#utility.yul\":9440:9441   */\n      dup3\n        /* \"#utility.yul\":9422:9442   */\n      tag_183\n      jump\t// in\n    tag_217:\n        /* \"#utility.yul\":9417:9442   */\n      swap2\n      pop\n        /* \"#utility.yul\":9456:9476   */\n      tag_218\n        /* \"#utility.yul\":9474:9475   */\n      dup4\n        /* \"#utility.yul\":9456:9476   */\n      tag_183\n      jump\t// in\n    tag_218:\n        /* \"#utility.yul\":9451:9476   */\n      swap3\n      pop\n        /* \"#utility.yul\":9495:9496   */\n      dup3\n        /* \"#utility.yul\":9492:9493   */\n      dup3\n        /* \"#utility.yul\":9489:9497   */\n      lt\n        /* \"#utility.yul\":9486:9520   */\n      iszero\n      tag_219\n      jumpi\n        /* \"#utility.yul\":9500:9518   */\n      tag_220\n      tag_221\n      jump\t// in\n    tag_220:\n        /* \"#utility.yul\":9486:9520   */\n    tag_219:\n        /* \"#utility.yul\":9545:9546   */\n      dup3\n        /* \"#utility.yul\":9542:9543   */\n      dup3\n        /* \"#utility.yul\":9538:9547   */\n      sub\n        /* \"#utility.yul\":9530:9547   */\n      swap1\n      pop\n        /* \"#utility.yul\":9362:9553   */\n      swap3\n      swap2\n      pop\n      pop\n      jump\t// out\n        /* \"#utility.yul\":9559:9655   */\n    tag_145:\n        /* \"#utility.yul\":9596:9603   */\n      0x00\n        /* \"#utility.yul\":9625:9649   */\n      tag_223\n        /* \"#utility.yul\":9643:9648   */\n      dup3\n        /* \"#utility.yul\":9625:9649   */\n      tag_224\n      jump\t// in\n    tag_223:\n        /* \"#utility.yul\":9614:9649   */\n      swap1\n      pop\n        /* \"#utility.yul\":9559:9655   */\n      swap2\n      swap1\n      pop\n      jump\t// out\n        /* \"#utility.yul\":9661:9788   */\n    tag_225:\n        /* \"#utility.yul\":9706:9713   */\n      0x00\n        /* \"#utility.yul\":9735:9740   */\n      dup2\n        /* \"#utility.yul\":9724:9740   */\n      swap1\n      pop\n        /* \"#utility.yul\":9741:9782   */\n      tag_227\n        /* \"#utility.yul\":9776:9781   */\n      dup3\n        /* \"#utility.yul\":9741:9782   */\n      tag_228\n      jump\t// in\n    tag_227:\n        /* \"#utility.yul\":9661:9788   */\n      swap2\n      swap1\n      pop\n      jump\t// out\n        /* \"#utility.yul\":9794:9920   */\n    tag_224:\n        /* \"#utility.yul\":9831:9838   */\n      0x00\n        /* \"#utility.yul\":9871:9913   */\n      0xffffffffffffffffffffffffffffffffffffffff\n        /* \"#utility.yul\":9864:9869   */\n      dup3\n        /* \"#utility.yul\":9860:9914   */\n      and\n        /* \"#utility.yul\":9849:9914   */\n      swap1\n      pop\n        /* \"#utility.yul\":9794:9920   */\n      swap2\n      swap1\n      pop\n      jump\t// out\n        /* \"#utility.yul\":9926:10003   */\n    tag_183:\n        /* \"#utility.yul\":9963:9970   */\n      0x00\n        /* \"#utility.yul\":9992:9997   */\n      dup2\n        /* \"#utility.yul\":9981:9997   */\n      swap1\n      pop\n        /* \"#utility.yul\":9926:10003   */\n      swap2\n      swap1\n      pop\n      jump\t// out\n        /* \"#utility.yul\":10009:10136   */\n    tag_149:\n        /* \"#utility.yul\":10065:10074   */\n      0x00\n        /* \"#utility.yul\":10098:10130   */\n      tag_232\n        /* \"#utility.yul\":10124:10129   */\n      dup3\n        /* \"#utility.yul\":10098:10130   */\n      tag_225\n      jump\t// in\n    tag_232:\n        /* \"#utility.yul\":10085:10130   */\n      swap1\n      pop\n        /* \"#utility.yul\":10009:10136   */\n      swap2\n      swap1\n      pop\n      jump\t// out\n        /* \"#utility.yul\":10142:10296   */\n    tag_112:\n        /* \"#utility.yul\":10226:10232   */\n      dup3\n        /* \"#utility.yul\":10221:10224   */\n      dup2\n        /* \"#utility.yul\":10216:10219   */\n      dup4\n        /* \"#utility.yul\":10203:10233   */\n      calldatacopy\n        /* \"#utility.yul\":10288:10289   */\n      0x00\n        /* \"#utility.yul\":10279:10285   */\n      dup4\n        /* \"#utility.yul\":10274:10277   */\n      dup4\n        /* \"#utility.yul\":10270:10286   */\n      add\n        /* \"#utility.yul\":10263:10290   */\n      mstore\n        /* \"#utility.yul\":10142:10296   */\n      pop\n      pop\n      pop\n      jump\t// out\n        /* \"#utility.yul\":10302:10609   */\n    tag_157:\n        /* \"#utility.yul\":10370:10371   */\n      0x00\n        /* \"#utility.yul\":10380:10493   */\n    tag_235:\n        /* \"#utility.yul\":10394:10400   */\n      dup4\n        /* \"#utility.yul\":10391:10392   */\n      dup2\n        /* \"#utility.yul\":10388:10401   */\n      lt\n        /* \"#utility.yul\":10380:10493   */\n      iszero\n      tag_237\n      jumpi\n        /* \"#utility.yul\":10479:10480   */\n      dup1\n        /* \"#utility.yul\":10474:10477   */\n      dup3\n        /* \"#utility.yul\":10470:10481   */\n      add\n        /* \"#utility.yul\":10464:10482   */\n      mload\n        /* \"#utility.yul\":10460:10461   */\n      dup2\n        /* \"#utility.yul\":10455:10458   */\n      dup5\n        /* \"#utility.yul\":10451:10462   */\n      add\n        /* \"#utility.yul\":10444:10483   */\n      mstore\n        /* \"#utility.yul\":10416:10418   */\n      0x20\n        /* \"#utility.yul\":10413:10414   */\n      dup2\n        /* \"#utility.yul\":10409:10419   */\n      add\n        /* \"#utility.yul\":10404:10419   */\n      swap1\n      pop\n        /* \"#utility.yul\":10380:10493   */\n      jump(tag_235)\n    tag_237:\n        /* \"#utility.yul\":10511:10517   */\n      dup4\n        /* \"#utility.yul\":10508:10509   */\n      dup2\n        /* \"#utility.yul\":10505:10518   */\n      gt\n        /* \"#utility.yul\":10502:10603   */\n      iszero\n      tag_238\n      jumpi\n        /* \"#utility.yul\":10591:10592   */\n      0x00\n        /* \"#utility.yul\":10582:10588   */\n      dup5\n        /* \"#utility.yul\":10577:10580   */\n      dup5\n        /* \"#utility.yul\":10573:10589   */\n      add\n        /* \"#utility.yul\":10566:10593   */\n      mstore\n        /* \"#utility.yul\":10502:10603   */\n    tag_238:\n        /* \"#utility.yul\":10351:10609   */\n      pop\n        /* \"#utility.yul\":10302:10609   */\n      pop\n      pop\n      pop\n      jump\t// out\n        /* \"#utility.yul\":10615:10935   */\n    tag_49:\n        /* \"#utility.yul\":10659:10665   */\n      0x00\n        /* \"#utility.yul\":10696:10697   */\n      0x02\n        /* \"#utility.yul\":10690:10694   */\n      dup3\n        /* \"#utility.yul\":10686:10698   */\n      div\n        /* \"#utility.yul\":10676:10698   */\n      swap1\n      pop\n        /* \"#utility.yul\":10743:10744   */\n      0x01\n        /* \"#utility.yul\":10737:10741   */\n      dup3\n        /* \"#utility.yul\":10733:10745   */\n      and\n        /* \"#utility.yul\":10764:10782   */\n      dup1\n        /* \"#utility.yul\":10754:10835   */\n      tag_240\n      jumpi\n        /* \"#utility.yul\":10820:10824   */\n      0x7f\n        /* \"#utility.yul\":10812:10818   */\n      dup3\n        /* \"#utility.yul\":10808:10825   */\n      and\n        /* \"#utility.yul\":10798:10825   */\n      swap2\n      pop\n        /* \"#utility.yul\":10754:10835   */\n    tag_240:\n        /* \"#utility.yul\":10882:10884   */\n      0x20\n        /* \"#utility.yul\":10874:10880   */\n      dup3\n        /* \"#utility.yul\":10871:10885   */\n      lt\n        /* \"#utility.yul\":10851:10869   */\n      dup2\n        /* \"#utility.yul\":10848:10886   */\n      eq\n        /* \"#utility.yul\":10845:10929   */\n      iszero\n      tag_241\n      jumpi\n        /* \"#utility.yul\":10901:10919   */\n      tag_242\n      tag_243\n      jump\t// in\n    tag_242:\n        /* \"#utility.yul\":10845:10929   */\n    tag_241:\n        /* \"#utility.yul\":10666:10935   */\n      pop\n        /* \"#utility.yul\":10615:10935   */\n      swap2\n      swap1\n      pop\n      jump\t// out\n        /* \"#utility.yul\":10941:11222   */\n    tag_204:\n        /* \"#utility.yul\":11024:11051   */\n      tag_245\n        /* \"#utility.yul\":11046:11050   */\n      dup3\n        /* \"#utility.yul\":11024:11051   */\n      tag_159\n      jump\t// in\n    tag_245:\n        /* \"#utility.yul\":11016:11022   */\n      dup2\n        /* \"#utility.yul\":11012:11052   */\n      add\n        /* \"#utility.yul\":11154:11160   */\n      dup2\n        /* \"#utility.yul\":11142:11152   */\n      dup2\n        /* \"#utility.yul\":11139:11161   */\n      lt\n        /* \"#utility.yul\":11118:11136   */\n      0xffffffffffffffff\n        /* \"#utility.yul\":11106:11116   */\n      dup3\n        /* \"#utility.yul\":11103:11137   */\n      gt\n        /* \"#utility.yul\":11100:11162   */\n      or\n        /* \"#utility.yul\":11097:11185   */\n      iszero\n      tag_246\n      jumpi\n        /* \"#utility.yul\":11165:11183   */\n      tag_247\n      tag_209\n      jump\t// in\n    tag_247:\n        /* \"#utility.yul\":11097:11185   */\n    tag_246:\n        /* \"#utility.yul\":11205:11215   */\n      dup1\n        /* \"#utility.yul\":11201:11203   */\n      0x40\n        /* \"#utility.yul\":11194:11216   */\n      mstore\n        /* \"#utility.yul\":10984:11222   */\n      pop\n        /* \"#utility.yul\":10941:11222   */\n      pop\n      pop\n      jump\t// out\n        /* \"#utility.yul\":11228:11408   */\n    tag_221:\n        /* \"#utility.yul\":11276:11353   */\n      0x4e487b7100000000000000000000000000000000000000000000000000000000\n        /* \"#utility.yul\":11273:11274   */\n      0x00\n        /* \"#utility.yul\":11266:11354   */\n      mstore\n        /* \"#utility.yul\":11373:11377   */\n      0x11\n        /* \"#utility.yul\":11370:11371   */\n      0x04\n        /* \"#utility.yul\":11363:11378   */\n      mstore\n        /* \"#utility.yul\":11397:11401   */\n      0x24\n        /* \"#utility.yul\":11394:11395   */\n      0x00\n        /* \"#utility.yul\":11387:11402   */\n      revert\n        /* \"#utility.yul\":11414:11594   */\n    tag_34:\n        /* \"#utility.yul\":11462:11539   */\n      0x4e487b7100000000000000000000000000000000000000000000000000000000\n        /* \"#utility.yul\":11459:11460   */\n      0x00\n        /* \"#utility.yul\":11452:11540   */\n      mstore\n        /* \"#utility.yul\":11559:11563   */\n      0x21\n        /* \"#utility.yul\":11556:11557   */\n      0x04\n        /* \"#utility.yul\":11549:11564   */\n      mstore\n        /* \"#utility.yul\":11583:11587   */\n      0x24\n        /* \"#utility.yul\":11580:11581   */\n      0x00\n        /* \"#utility.yul\":11573:11588   */\n      revert\n        /* \"#utility.yul\":11600:11780   */\n    tag_243:\n        /* \"#utility.yul\":11648:11725   */\n      0x4e487b7100000000000000000000000000000000000000000000000000000000\n        /* \"#utility.yul\":11645:11646   */\n      0x00\n        /* \"#utility.yul\":11638:11726   */\n      mstore\n        /* \"#utility.yul\":11745:11749   */\n      0x22\n        /* \"#utility.yul\":11742:11743   */\n      0x04\n        /* \"#utility.yul\":11735:11750   */\n      mstore\n        /* \"#utility.yul\":11769:11773   */\n      0x24\n        /* \"#utility.yul\":11766:11767   */\n      0x00\n        /* \"#utility.yul\":11759:11774   */\n      revert\n        /* \"#utility.yul\":11786:11966   */\n    tag_63:\n        /* \"#utility.yul\":11834:11911   */\n      0x4e487b7100000000000000000000000000000000000000000000000000000000\n        /* \"#utility.yul\":11831:11832   */\n      0x00\n        /* \"#utility.yul\":11824:11912   */\n      mstore\n        /* \"#utility.yul\":11931:11935   */\n      0x32\n        /* \"#utility.yul\":11928:11929   */\n      0x04\n        /* \"#utility.yul\":11921:11936   */\n      mstore\n        /* \"#utility.yul\":11955:11959   */\n      0x24\n        /* \"#utility.yul\":11952:11953   */\n      0x00\n        /* \"#utility.yul\":11945:11960   */\n      revert\n        /* \"#utility.yul\":11972:12152   */\n    tag_209:\n        /* \"#utility.yul\":12020:12097   */\n      0x4e487b7100000000000000000000000000000000000000000000000000000000\n        /* \"#utility.yul\":12017:12018   */\n      0x00\n        /* \"#utility.yul\":12010:12098   */\n      mstore\n        /* \"#utility.yul\":12117:12121   */\n      0x41\n        /* \"#utility.yul\":12114:12115   */\n      0x04\n        /* \"#utility.yul\":12107:12122   */\n      mstore\n        /* \"#utility.yul\":12141:12145   */\n      0x24\n        /* \"#utility.yul\":12138:12139   */\n      0x00\n        /* \"#utility.yul\":12131:12146   */\n      revert\n        /* \"#utility.yul\":12158:12275   */\n    tag_117:\n        /* \"#utility.yul\":12267:12268   */\n      0x00\n        /* \"#utility.yul\":12264:12265   */\n      dup1\n        /* \"#utility.yul\":12257:12269   */\n      revert\n        /* \"#utility.yul\":12281:12398   */\n    tag_97:\n        /* \"#utility.yul\":12390:12391   */\n      0x00\n        /* \"#utility.yul\":12387:12388   */\n      dup1\n        /* \"#utility.yul\":12380:12392   */\n      revert\n        /* \"#utility.yul\":12404:12521   */\n    tag_110:\n        /* \"#utility.yul\":12513:12514   */\n      0x00\n        /* \"#utility.yul\":12510:12511   */\n      dup1\n        /* \"#utility.yul\":12503:12515   */\n      revert\n        /* \"#utility.yul\":12527:12644   */\n    tag_133:\n        /* \"#utility.yul\":12636:12637   */\n      0x00\n        /* \"#utility.yul\":12633:12634   */\n      dup1\n        /* \"#utility.yul\":12626:12638   */\n      revert\n        /* \"#utility.yul\":12650:12767   */\n    tag_130:\n        /* \"#utility.yul\":12759:12760   */\n      0x00\n        /* \"#utility.yul\":12756:12757   */\n      dup1\n        /* \"#utility.yul\":12749:12761   */\n      revert\n        /* \"#utility.yul\":12773:12875   */\n    tag_159:\n        /* \"#utility.yul\":12814:12820   */\n      0x00\n        /* \"#utility.yul\":12865:12867   */\n      0x1f\n        /* \"#utility.yul\":12861:12868   */\n      not\n        /* \"#utility.yul\":12856:12858   */\n      0x1f\n        /* \"#utility.yul\":12849:12854   */\n      dup4\n        /* \"#utility.yul\":12845:12859   */\n      add\n        /* \"#utility.yul\":12841:12869   */\n      and\n        /* \"#utility.yul\":12831:12869   */\n      swap1\n      pop\n        /* \"#utility.yul\":12773:12875   */\n      swap2\n      swap1\n      pop\n      jump\t// out\n        /* \"#utility.yul\":12881:13052   */\n    tag_164:\n        /* \"#utility.yul\":13021:13044   */\n      0x6e6f7420612076616c6964206f72646572696420200000000000000000000000\n        /* \"#utility.yul\":13017:13018   */\n      0x00\n        /* \"#utility.yul\":13009:13015   */\n      dup3\n        /* \"#utility.yul\":13005:13019   */\n      add\n        /* \"#utility.yul\":12998:13045   */\n      mstore\n        /* \"#utility.yul\":12881:13052   */\n      pop\n      jump\t// out\n        /* \"#utility.yul\":13058:13223   */\n    tag_169:\n        /* \"#utility.yul\":13198:13215   */\n      0x20796f75206e6f74206f776e6572200000000000000000000000000000000000\n        /* \"#utility.yul\":13194:13195   */\n      0x00\n        /* \"#utility.yul\":13186:13192   */\n      dup3\n        /* \"#utility.yul\":13182:13196   */\n      add\n        /* \"#utility.yul\":13175:13216   */\n      mstore\n        /* \"#utility.yul\":13058:13223   */\n      pop\n      jump\t// out\n        /* \"#utility.yul\":13229:13405   */\n    tag_174:\n        /* \"#utility.yul\":13369:13397   */\n      0x6f7264657220697320616c726561647920207368697070656420000000000000\n        /* \"#utility.yul\":13365:13366   */\n      0x00\n        /* \"#utility.yul\":13357:13363   */\n      dup3\n        /* \"#utility.yul\":13353:13367   */\n      add\n        /* \"#utility.yul\":13346:13398   */\n      mstore\n        /* \"#utility.yul\":13229:13405   */\n      pop\n      jump\t// out\n        /* \"#utility.yul\":13411:13574   */\n    tag_179:\n        /* \"#utility.yul\":13551:13566   */\n      0x206e6f742070726f647563747300000000000000000000000000000000000000\n        /* \"#utility.yul\":13547:13548   */\n      0x00\n        /* \"#utility.yul\":13539:13545   */\n      dup3\n        /* \"#utility.yul\":13535:13549   */\n      add\n        /* \"#utility.yul\":13528:13567   */\n      mstore\n        /* \"#utility.yul\":13411:13574   */\n      pop\n      jump\t// out\n        /* \"#utility.yul\":13580:13693   */\n    tag_228:\n        /* \"#utility.yul\":13661:13662   */\n      0x04\n        /* \"#utility.yul\":13654:13659   */\n      dup2\n        /* \"#utility.yul\":13651:13663   */\n      lt\n        /* \"#utility.yul\":13641:13687   */\n      tag_264\n      jumpi\n        /* \"#utility.yul\":13667:13685   */\n      tag_265\n      tag_34\n      jump\t// in\n    tag_265:\n        /* \"#utility.yul\":13641:13687   */\n    tag_264:\n        /* \"#utility.yul\":13580:13693   */\n      pop\n      jump\t// out\n        /* \"#utility.yul\":13699:13821   */\n    tag_126:\n        /* \"#utility.yul\":13772:13796   */\n      tag_267\n        /* \"#utility.yul\":13790:13795   */\n      dup2\n        /* \"#utility.yul\":13772:13796   */\n      tag_183\n      jump\t// in\n    tag_267:\n        /* \"#utility.yul\":13765:13770   */\n      dup2\n        /* \"#utility.yul\":13762:13797   */\n      eq\n        /* \"#utility.yul\":13752:13815   */\n      tag_268\n      jumpi\n        /* \"#utility.yul\":13811:13812   */\n      0x00\n        /* \"#utility.yul\":13808:13809   */\n      dup1\n        /* \"#utility.yul\":13801:13813   */\n      revert\n        /* \"#utility.yul\":13752:13815   */\n    tag_268:\n        /* \"#utility.yul\":13699:13821   */\n      pop\n      jump\t// out\n\n    auxdata: 0xa26469706673582212207752b98a6e6b3bcfc4fb4809037356dffb762e6cf361e47626387cdd797b0e4364736f6c63430008070033\n}\n",
				"bytecode": {
					"linkReferences": {},
					"object": "608060405234801561001057600080fd5b5033600160006101000a81548173ffffffffffffffffffffffffffffffffffffffff021916908373ffffffffffffffffffffffffffffffffffffffff160217905550610e1c806100616000396000f3fe608060405234801561001057600080fd5b506004361061004c5760003560e01c80636d9a65d8146100515780638da5cb5b14610081578063a85c38ef1461009f578063afe13a62146100d1575b600080fd5b61006b6004803603810190610066919061079f565b6100ed565b6040516100789190610a0f565b60405180910390f35b6100896102af565b6040516100969190610936565b60405180910390f35b6100b960048036038101906100b49190610817565b6102d5565b6040516100c893929190610951565b60405180910390f35b6100eb60048036038101906100e69190610817565b6103c4565b005b600080825111610132576040517f08c379a0000000000000000000000000000000000000000000000000000000008152600401610129906109ef565b60405180910390fd5b61013a61053c565b33816000019073ffffffffffffffffffffffffffffffffffffffff16908173ffffffffffffffffffffffffffffffffffffffff168152505083816020018190525082816040018190525060008160600190600381111561019d5761019c610c31565b5b908160038111156101b1576101b0610c31565b5b81525050600081908060018154018082558091505060019003906000526020600020906004020160009091909190915060008201518160000160006101000a81548173ffffffffffffffffffffffffffffffffffffffff021916908373ffffffffffffffffffffffffffffffffffffffff160217905550602082015181600101908051906020019061024492919061058c565b506040820151816002019080519060200190610261929190610612565b5060608201518160030160006101000a81548160ff0219169083600381111561028d5761028c610c31565b5b0217905550505060016000805490506102a69190610ac8565b91505092915050565b600160009054906101000a900473ffffffffffffffffffffffffffffffffffffffff1681565b600081815481106102e557600080fd5b90600052602060002090600402016000915090508060000160009054906101000a900473ffffffffffffffffffffffffffffffffffffffff169080600101805461032e90610b9f565b80601f016020809104026020016040519081016040528092919081815260200182805461035a90610b9f565b80156103a75780601f1061037c576101008083540402835291602001916103a7565b820191906000526020600020905b81548152906001019060200180831161038a57829003601f168201915b5050505050908060030160009054906101000a900460ff16905083565b3373ffffffffffffffffffffffffffffffffffffffff16600160009054906101000a900473ffffffffffffffffffffffffffffffffffffffff1673ffffffffffffffffffffffffffffffffffffffff1614610454576040517f08c379a000000000000000000000000000000000000000000000000000000000815260040161044b906109af565b60405180910390fd5b600080549050811061049b576040517f08c379a00000000000000000000000000000000000000000000000000000000081526004016104929061098f565b60405180910390fd5b60008082815481106104b0576104af610c8f565b5b906000526020600020906004020190506003808111156104d3576104d2610c31565b5b8160030160009054906101000a900460ff1660038111156104f7576104f6610c31565b5b1415610538576040517f08c379a000000000000000000000000000000000000000000000000000000000815260040161052f906109cf565b60405180910390fd5b5050565b6040518060800160405280600073ffffffffffffffffffffffffffffffffffffffff16815260200160608152602001606081526020016000600381111561058657610585610c31565b5b81525090565b82805461059890610b9f565b90600052602060002090601f0160209004810192826105ba5760008555610601565b82601f106105d357805160ff1916838001178555610601565b82800160010185558215610601579182015b828111156106005782518255916020019190600101906105e5565b5b50905061060e919061065f565b5090565b82805482825590600052602060002090810192821561064e579160200282015b8281111561064d578251825591602001919060010190610632565b5b50905061065b919061065f565b5090565b5b80821115610678576000816000905550600101610660565b5090565b600061068f61068a84610a4f565b610a2a565b905080838252602082019050828560208602820111156106b2576106b1610cf2565b5b60005b858110156106e257816106c8888261078a565b8452602084019350602083019250506001810190506106b5565b5050509392505050565b60006106ff6106fa84610a7b565b610a2a565b90508281526020810184848401111561071b5761071a610cf7565b5b610726848285610b5d565b509392505050565b600082601f83011261074357610742610ced565b5b813561075384826020860161067c565b91505092915050565b600082601f83011261077157610770610ced565b5b81356107818482602086016106ec565b91505092915050565b60008135905061079981610dcf565b92915050565b600080604083850312156107b6576107b5610d01565b5b600083013567ffffffffffffffff8111156107d4576107d3610cfc565b5b6107e08582860161075c565b925050602083013567ffffffffffffffff81111561080157610800610cfc565b5b61080d8582860161072e565b9150509250929050565b60006020828403121561082d5761082c610d01565b5b600061083b8482850161078a565b91505092915050565b61084d81610afc565b82525050565b61085c81610b4b565b82525050565b600061086d82610aac565b6108778185610ab7565b9350610887818560208601610b6c565b61089081610d06565b840191505092915050565b60006108a8601583610ab7565b91506108b382610d17565b602082019050919050565b60006108cb600f83610ab7565b91506108d682610d40565b602082019050919050565b60006108ee601a83610ab7565b91506108f982610d69565b602082019050919050565b6000610911600d83610ab7565b915061091c82610d92565b602082019050919050565b61093081610b41565b82525050565b600060208201905061094b6000830184610844565b92915050565b60006060820190506109666000830186610844565b81810360208301526109788185610862565b90506109876040830184610853565b949350505050565b600060208201905081810360008301526109a88161089b565b9050919050565b600060208201905081810360008301526109c8816108be565b9050919050565b600060208201905081810360008301526109e8816108e1565b9050919050565b60006020820190508181036000830152610a0881610904565b9050919050565b6000602082019050610a246000830184610927565b92915050565b6000610a34610a45565b9050610a408282610bd1565b919050565b6000604051905090565b600067ffffffffffffffff821115610a6a57610a69610cbe565b5b602082029050602081019050919050565b600067ffffffffffffffff821115610a9657610a95610cbe565b5b610a9f82610d06565b9050602081019050919050565b600081519050919050565b600082825260208201905092915050565b6000610ad382610b41565b9150610ade83610b41565b925082821015610af157610af0610c02565b5b828203905092915050565b6000610b0782610b21565b9050919050565b6000819050610b1c82610dbb565b919050565b600073ffffffffffffffffffffffffffffffffffffffff82169050919050565b6000819050919050565b6000610b5682610b0e565b9050919050565b82818337600083830152505050565b60005b83811015610b8a578082015181840152602081019050610b6f565b83811115610b99576000848401525b50505050565b60006002820490506001821680610bb757607f821691505b60208210811415610bcb57610bca610c60565b5b50919050565b610bda82610d06565b810181811067ffffffffffffffff82111715610bf957610bf8610cbe565b5b80604052505050565b7f4e487b7100000000000000000000000000000000000000000000000000000000600052601160045260246000fd5b7f4e487b7100000000000000000000000000000000000000000000000000000000600052602160045260246000fd5b7f4e487b7100000000000000000000000000000000000000000000000000000000600052602260045260246000fd5b7f4e487b7100000000000000000000000000000000000000000000000000000000600052603260045260246000fd5b7f4e487b7100000000000000000000000000000000000000000000000000000000600052604160045260246000fd5b600080fd5b600080fd5b600080fd5b600080fd5b600080fd5b6000601f19601f8301169050919050565b7f6e6f7420612076616c6964206f72646572696420200000000000000000000000600082015250565b7f20796f75206e6f74206f776e6572200000000000000000000000000000000000600082015250565b7f6f7264657220697320616c726561647920207368697070656420000000000000600082015250565b7f206e6f742070726f647563747300000000000000000000000000000000000000600082015250565b60048110610dcc57610dcb610c31565b5b50565b610dd881610b41565b8114610de357600080fd5b5056fea26469706673582212207752b98a6e6b3bcfc4fb4809037356dffb762e6cf361e47626387cdd797b0e4364736f6c63430008070033",
					"opcodes": "PUSH1 0x80 PUSH1 0x40 MSTORE CALLVALUE DUP1 ISZERO PUSH2 0x10 JUMPI PUSH1 0x0 DUP1 REVERT JUMPDEST POP CALLER PUSH1 0x1 PUSH1 0x0 PUSH2 0x100 EXP DUP2 SLOAD DUP2 PUSH20 0xFFFFFFFFFFFFFFFFFFFFFFFFFFFFFFFFFFFFFFFF MUL NOT AND SWAP1 DUP4 PUSH20 0xFFFFFFFFFFFFFFFFFFFFFFFFFFFFFFFFFFFFFFFF AND MUL OR SWAP1 SSTORE POP PUSH2 0xE1C DUP1 PUSH2 0x61 PUSH1 0x0 CODECOPY PUSH1 0x0 RETURN INVALID PUSH1 0x80 PUSH1 0x40 MSTORE CALLVALUE DUP1 ISZERO PUSH2 0x10 JUMPI PUSH1 0x0 DUP1 REVERT JUMPDEST POP PUSH1 0x4 CALLDATASIZE LT PUSH2 0x4C JUMPI PUSH1 0x0 CALLDATALOAD PUSH1 0xE0 SHR DUP1 PUSH4 0x6D9A65D8 EQ PUSH2 0x51 JUMPI DUP1 PUSH4 0x8DA5CB5B EQ PUSH2 0x81 JUMPI DUP1 PUSH4 0xA85C38EF EQ PUSH2 0x9F JUMPI DUP1 PUSH4 0xAFE13A62 EQ PUSH2 0xD1 JUMPI JUMPDEST PUSH1 0x0 DUP1 REVERT JUMPDEST PUSH2 0x6B PUSH1 0x4 DUP1 CALLDATASIZE SUB DUP2 ADD SWAP1 PUSH2 0x66 SWAP2 SWAP1 PUSH2 0x79F JUMP JUMPDEST PUSH2 0xED JUMP JUMPDEST PUSH1 0x40 MLOAD PUSH2 0x78 SWAP2 SWAP1 PUSH2 0xA0F JUMP JUMPDEST PUSH1 0x40 MLOAD DUP1 SWAP2 SUB SWAP1 RETURN JUMPDEST PUSH2 0x89 PUSH2 0x2AF JUMP JUMPDEST PUSH1 0x40 MLOAD PUSH2 0x96 SWAP2 SWAP1 PUSH2 0x936 JUMP JUMPDEST PUSH1 0x40 MLOAD DUP1 SWAP2 SUB SWAP1 RETURN JUMPDEST PUSH2 0xB9 PUSH1 0x4 DUP1 CALLDATASIZE SUB DUP2 ADD SWAP1 PUSH2 0xB4 SWAP2 SWAP1 PUSH2 0x817 JUMP JUMPDEST PUSH2 0x2D5 JUMP JUMPDEST PUSH1 0x40 MLOAD PUSH2 0xC8 SWAP4 SWAP3 SWAP2 SWAP1 PUSH2 0x951 JUMP JUMPDEST PUSH1 0x40 MLOAD DUP1 SWAP2 SUB SWAP1 RETURN JUMPDEST PUSH2 0xEB PUSH1 0x4 DUP1 CALLDATASIZE SUB DUP2 ADD SWAP1 PUSH2 0xE6 SWAP2 SWAP1 PUSH2 0x817 JUMP JUMPDEST PUSH2 0x3C4 JUMP JUMPDEST STOP JUMPDEST PUSH1 0x0 DUP1 DUP3 MLOAD GT PUSH2 0x132 JUMPI PUSH1 0x40 MLOAD PUSH32 0x8C379A000000000000000000000000000000000000000000000000000000000 DUP2 MSTORE PUSH1 0x4 ADD PUSH2 0x129 SWAP1 PUSH2 0x9EF JUMP JUMPDEST PUSH1 0x40 MLOAD DUP1 SWAP2 SUB SWAP1 REVERT JUMPDEST PUSH2 0x13A PUSH2 0x53C JUMP JUMPDEST CALLER DUP2 PUSH1 0x0 ADD SWAP1 PUSH20 0xFFFFFFFFFFFFFFFFFFFFFFFFFFFFFFFFFFFFFFFF AND SWAP1 DUP2 PUSH20 0xFFFFFFFFFFFFFFFFFFFFFFFFFFFFFFFFFFFFFFFF AND DUP2 MSTORE POP POP DUP4 DUP2 PUSH1 0x20 ADD DUP2 SWAP1 MSTORE POP DUP3 DUP2 PUSH1 0x40 ADD DUP2 SWAP1 MSTORE POP PUSH1 0x0 DUP2 PUSH1 0x60 ADD SWAP1 PUSH1 0x3 DUP2 GT ISZERO PUSH2 0x19D JUMPI PUSH2 0x19C PUSH2 0xC31 JUMP JUMPDEST JUMPDEST SWAP1 DUP2 PUSH1 0x3 DUP2 GT ISZERO PUSH2 0x1B1 JUMPI PUSH2 0x1B0 PUSH2 0xC31 JUMP JUMPDEST JUMPDEST DUP2 MSTORE POP POP PUSH1 0x0 DUP2 SWAP1 DUP1 PUSH1 0x1 DUP2 SLOAD ADD DUP1 DUP3 SSTORE DUP1 SWAP2 POP POP PUSH1 0x1 SWAP1 SUB SWAP1 PUSH1 0x0 MSTORE PUSH1 0x20 PUSH1 0x0 KECCAK256 SWAP1 PUSH1 0x4 MUL ADD PUSH1 0x0 SWAP1 SWAP2 SWAP1 SWAP2 SWAP1 SWAP2 POP PUSH1 0x0 DUP3 ADD MLOAD DUP2 PUSH1 0x0 ADD PUSH1 0x0 PUSH2 0x100 EXP DUP2 SLOAD DUP2 PUSH20 0xFFFFFFFFFFFFFFFFFFFFFFFFFFFFFFFFFFFFFFFF MUL NOT AND SWAP1 DUP4 PUSH20 0xFFFFFFFFFFFFFFFFFFFFFFFFFFFFFFFFFFFFFFFF AND MUL OR SWAP1 SSTORE POP PUSH1 0x20 DUP3 ADD MLOAD DUP2 PUSH1 0x1 ADD SWAP1 DUP1 MLOAD SWAP1 PUSH1 0x20 ADD SWAP1 PUSH2 0x244 SWAP3 SWAP2 SWAP1 PUSH2 0x58C JUMP JUMPDEST POP PUSH1 0x40 DUP3 ADD MLOAD DUP2 PUSH1 0x2 ADD SWAP1 DUP1 MLOAD SWAP1 PUSH1 0x20 ADD SWAP1 PUSH2 0x261 SWAP3 SWAP2 SWAP1 PUSH2 0x612 JUMP JUMPDEST POP PUSH1 0x60 DUP3 ADD MLOAD DUP2 PUSH1 0x3 ADD PUSH1 0x0 PUSH2 0x100 EXP DUP2 SLOAD DUP2 PUSH1 0xFF MUL NOT AND SWAP1 DUP4 PUSH1 0x3 DUP2 GT ISZERO PUSH2 0x28D JUMPI PUSH2 0x28C PUSH2 0xC31 JUMP JUMPDEST JUMPDEST MUL OR SWAP1 SSTORE POP POP POP PUSH1 0x1 PUSH1 0x0 DUP1 SLOAD SWAP1 POP PUSH2 0x2A6 SWAP2 SWAP1 PUSH2 0xAC8 JUMP JUMPDEST SWAP2 POP POP SWAP3 SWAP2 POP POP JUMP JUMPDEST PUSH1 0x1 PUSH1 0x0 SWAP1 SLOAD SWAP1 PUSH2 0x100 EXP SWAP1 DIV PUSH20 0xFFFFFFFFFFFFFFFFFFFFFFFFFFFFFFFFFFFFFFFF AND DUP2 JUMP JUMPDEST PUSH1 0x0 DUP2 DUP2 SLOAD DUP2 LT PUSH2 0x2E5 JUMPI PUSH1 0x0 DUP1 REVERT JUMPDEST SWAP1 PUSH1 0x0 MSTORE PUSH1 0x20 PUSH1 0x0 KECCAK256 SWAP1 PUSH1 0x4 MUL ADD PUSH1 0x0 SWAP2 POP SWAP1 POP DUP1 PUSH1 0x0 ADD PUSH1 0x0 SWAP1 SLOAD SWAP1 PUSH2 0x100 EXP SWAP1 DIV PUSH20 0xFFFFFFFFFFFFFFFFFFFFFFFFFFFFFFFFFFFFFFFF AND SWAP1 DUP1 PUSH1 0x1 ADD DUP1 SLOAD PUSH2 0x32E SWAP1 PUSH2 0xB9F JUMP JUMPDEST DUP1 PUSH1 0x1F ADD PUSH1 0x20 DUP1 SWAP2 DIV MUL PUSH1 0x20 ADD PUSH1 0x40 MLOAD SWAP1 DUP2 ADD PUSH1 0x40 MSTORE DUP1 SWAP3 SWAP2 SWAP1 DUP2 DUP2 MSTORE PUSH1 0x20 ADD DUP3 DUP1 SLOAD PUSH2 0x35A SWAP1 PUSH2 0xB9F JUMP JUMPDEST DUP1 ISZERO PUSH2 0x3A7 JUMPI DUP1 PUSH1 0x1F LT PUSH2 0x37C JUMPI PUSH2 0x100 DUP1 DUP4 SLOAD DIV MUL DUP4 MSTORE SWAP2 PUSH1 0x20 ADD SWAP2 PUSH2 0x3A7 JUMP JUMPDEST DUP3 ADD SWAP2 SWAP1 PUSH1 0x0 MSTORE PUSH1 0x20 PUSH1 0x0 KECCAK256 SWAP1 JUMPDEST DUP2 SLOAD DUP2 MSTORE SWAP1 PUSH1 0x1 ADD SWAP1 PUSH1 0x20 ADD DUP1 DUP4 GT PUSH2 0x38A JUMPI DUP3 SWAP1 SUB PUSH1 0x1F AND DUP3 ADD SWAP2 JUMPDEST POP POP POP POP POP SWAP1 DUP1 PUSH1 0x3 ADD PUSH1 0x0 SWAP1 SLOAD SWAP1 PUSH2 0x100 EXP SWAP1 DIV PUSH1 0xFF AND SWAP1 POP DUP4 JUMP JUMPDEST CALLER PUSH20 0xFFFFFFFFFFFFFFFFFFFFFFFFFFFFFFFFFFFFFFFF AND PUSH1 0x1 PUSH1 0x0 SWAP1 SLOAD SWAP1 PUSH2 0x100 EXP SWAP1 DIV PUSH20 0xFFFFFFFFFFFFFFFFFFFFFFFFFFFFFFFFFFFFFFFF AND PUSH20 0xFFFFFFFFFFFFFFFFFFFFFFFFFFFFFFFFFFFFFFFF AND EQ PUSH2 0x454 JUMPI PUSH1 0x40 MLOAD PUSH32 0x8C379A000000000000000000000000000000000000000000000000000000000 DUP2 MSTORE PUSH1 0x4 ADD PUSH2 0x44B SWAP1 PUSH2 0x9AF JUMP JUMPDEST PUSH1 0x40 MLOAD DUP1 SWAP2 SUB SWAP1 REVERT JUMPDEST PUSH1 0x0 DUP1 SLOAD SWAP1 POP DUP2 LT PUSH2 0x49B JUMPI PUSH1 0x40 MLOAD PUSH32 0x8C379A000000000000000000000000000000000000000000000000000000000 DUP2 MSTORE PUSH1 0x4 ADD PUSH2 0x492 SWAP1 PUSH2 0x98F JUMP JUMPDEST PUSH1 0x40 MLOAD DUP1 SWAP2 SUB SWAP1 REVERT JUMPDEST PUSH1 0x0 DUP1 DUP3 DUP2 SLOAD DUP2 LT PUSH2 0x4B0 JUMPI PUSH2 0x4AF PUSH2 0xC8F JUMP JUMPDEST JUMPDEST SWAP1 PUSH1 0x0 MSTORE PUSH1 0x20 PUSH1 0x0 KECCAK256 SWAP1 PUSH1 0x4 MUL ADD SWAP1 POP PUSH1 0x3 DUP1 DUP2 GT ISZERO PUSH2 0x4D3 JUMPI PUSH2 0x4D2 PUSH2 0xC31 JUMP JUMPDEST JUMPDEST DUP2 PUSH1 0x3 ADD PUSH1 0x0 SWAP1 SLOAD SWAP1 PUSH2 0x100 EXP SWAP1 DIV PUSH1 0xFF AND PUSH1 0x3 DUP2 GT ISZERO PUSH2 0x4F7 JUMPI PUSH2 0x4F6 PUSH2 0xC31 JUMP JUMPDEST JUMPDEST EQ ISZERO PUSH2 0x538 JUMPI PUSH1 0x40 MLOAD PUSH32 0x8C379A000000000000000000000000000000000000000000000000000000000 DUP2 MSTORE PUSH1 0x4 ADD PUSH2 0x52F SWAP1 PUSH2 0x9CF JUMP JUMPDEST PUSH1 0x40 MLOAD DUP1 SWAP2 SUB SWAP1 REVERT JUMPDEST POP POP JUMP JUMPDEST PUSH1 0x40 MLOAD DUP1 PUSH1 0x80 ADD PUSH1 0x40 MSTORE DUP1 PUSH1 0x0 PUSH20 0xFFFFFFFFFFFFFFFFFFFFFFFFFFFFFFFFFFFFFFFF AND DUP2 MSTORE PUSH1 0x20 ADD PUSH1 0x60 DUP2 MSTORE PUSH1 0x20 ADD PUSH1 0x60 DUP2 MSTORE PUSH1 0x20 ADD PUSH1 0x0 PUSH1 0x3 DUP2 GT ISZERO PUSH2 0x586 JUMPI PUSH2 0x585 PUSH2 0xC31 JUMP JUMPDEST JUMPDEST DUP2 MSTORE POP SWAP1 JUMP JUMPDEST DUP3 DUP1 SLOAD PUSH2 0x598 SWAP1 PUSH2 0xB9F JUMP JUMPDEST SWAP1 PUSH1 0x0 MSTORE PUSH1 0x20 PUSH1 0x0 KECCAK256 SWAP1 PUSH1 0x1F ADD PUSH1 0x20 SWAP1 DIV DUP2 ADD SWAP3 DUP3 PUSH2 0x5BA JUMPI PUSH1 0x0 DUP6 SSTORE PUSH2 0x601 JUMP JUMPDEST DUP3 PUSH1 0x1F LT PUSH2 0x5D3 JUMPI DUP1 MLOAD PUSH1 0xFF NOT AND DUP4 DUP1 ADD OR DUP6 SSTORE PUSH2 0x601 JUMP JUMPDEST DUP3 DUP1 ADD PUSH1 0x1 ADD DUP6 SSTORE DUP3 ISZERO PUSH2 0x601 JUMPI SWAP2 DUP3 ADD JUMPDEST DUP3 DUP2 GT ISZERO PUSH2 0x600 JUMPI DUP3 MLOAD DUP3 SSTORE SWAP2 PUSH1 0x20 ADD SWAP2 SWAP1 PUSH1 0x1 ADD SWAP1 PUSH2 0x5E5 JUMP JUMPDEST JUMPDEST POP SWAP1 POP PUSH2 0x60E SWAP2 SWAP1 PUSH2 0x65F JUMP JUMPDEST POP SWAP1 JUMP JUMPDEST DUP3 DUP1 SLOAD DUP3 DUP3 SSTORE SWAP1 PUSH1 0x0 MSTORE PUSH1 0x20 PUSH1 0x0 KECCAK256 SWAP1 DUP2 ADD SWAP3 DUP3 ISZERO PUSH2 0x64E JUMPI SWAP2 PUSH1 0x20 MUL DUP3 ADD JUMPDEST DUP3 DUP2 GT ISZERO PUSH2 0x64D JUMPI DUP3 MLOAD DUP3 SSTORE SWAP2 PUSH1 0x20 ADD SWAP2 SWAP1 PUSH1 0x1 ADD SWAP1 PUSH2 0x632 JUMP JUMPDEST JUMPDEST POP SWAP1 POP PUSH2 0x65B SWAP2 SWAP1 PUSH2 0x65F JUMP JUMPDEST POP SWAP1 JUMP JUMPDEST JUMPDEST DUP1 DUP3 GT ISZERO PUSH2 0x678 JUMPI PUSH1 0x0 DUP2 PUSH1 0x0 SWAP1 SSTORE POP PUSH1 0x1 ADD PUSH2 0x660 JUMP JUMPDEST POP SWAP1 JUMP JUMPDEST PUSH1 0x0 PUSH2 0x68F PUSH2 0x68A DUP5 PUSH2 0xA4F JUMP JUMPDEST PUSH2 0xA2A JUMP JUMPDEST SWAP1 POP DUP1 DUP4 DUP3 MSTORE PUSH1 0x20 DUP3 ADD SWAP1 POP DUP3 DUP6 PUSH1 0x20 DUP7 MUL DUP3 ADD GT ISZERO PUSH2 0x6B2 JUMPI PUSH2 0x6B1 PUSH2 0xCF2 JUMP JUMPDEST JUMPDEST PUSH1 0x0 JUMPDEST DUP6 DUP2 LT ISZERO PUSH2 0x6E2 JUMPI DUP2 PUSH2 0x6C8 DUP9 DUP3 PUSH2 0x78A JUMP JUMPDEST DUP5 MSTORE PUSH1 0x20 DUP5 ADD SWAP4 POP PUSH1 0x20 DUP4 ADD SWAP3 POP POP PUSH1 0x1 DUP2 ADD SWAP1 POP PUSH2 0x6B5 JUMP JUMPDEST POP POP POP SWAP4 SWAP3 POP POP POP JUMP JUMPDEST PUSH1 0x0 PUSH2 0x6FF PUSH2 0x6FA DUP5 PUSH2 0xA7B JUMP JUMPDEST PUSH2 0xA2A JUMP JUMPDEST SWAP1 POP DUP3 DUP2 MSTORE PUSH1 0x20 DUP2 ADD DUP5 DUP5 DUP5 ADD GT ISZERO PUSH2 0x71B JUMPI PUSH2 0x71A PUSH2 0xCF7 JUMP JUMPDEST JUMPDEST PUSH2 0x726 DUP5 DUP3 DUP6 PUSH2 0xB5D JUMP JUMPDEST POP SWAP4 SWAP3 POP POP POP JUMP JUMPDEST PUSH1 0x0 DUP3 PUSH1 0x1F DUP4 ADD SLT PUSH2 0x743 JUMPI PUSH2 0x742 PUSH2 0xCED JUMP JUMPDEST JUMPDEST DUP2 CALLDATALOAD PUSH2 0x753 DUP5 DUP3 PUSH1 0x20 DUP7 ADD PUSH2 0x67C JUMP JUMPDEST SWAP2 POP POP SWAP3 SWAP2 POP POP JUMP JUMPDEST PUSH1 0x0 DUP3 PUSH1 0x1F DUP4 ADD SLT PUSH2 0x771 JUMPI PUSH2 0x770 PUSH2 0xCED JUMP JUMPDEST JUMPDEST DUP2 CALLDATALOAD PUSH2 0x781 DUP5 DUP3 PUSH1 0x20 DUP7 ADD PUSH2 0x6EC JUMP JUMPDEST SWAP2 POP POP SWAP3 SWAP2 POP POP JUMP JUMPDEST PUSH1 0x0 DUP2 CALLDATALOAD SWAP1 POP PUSH2 0x799 DUP2 PUSH2 0xDCF JUMP JUMPDEST SWAP3 SWAP2 POP POP JUMP JUMPDEST PUSH1 0x0 DUP1 PUSH1 0x40 DUP4 DUP6 SUB SLT ISZERO PUSH2 0x7B6 JUMPI PUSH2 0x7B5 PUSH2 0xD01 JUMP JUMPDEST JUMPDEST PUSH1 0x0 DUP4 ADD CALLDATALOAD PUSH8 0xFFFFFFFFFFFFFFFF DUP2 GT ISZERO PUSH2 0x7D4 JUMPI PUSH2 0x7D3 PUSH2 0xCFC JUMP JUMPDEST JUMPDEST PUSH2 0x7E0 DUP6 DUP3 DUP7 ADD PUSH2 0x75C JUMP JUMPDEST SWAP3 POP POP PUSH1 0x20 DUP4 ADD CALLDATALOAD PUSH8 0xFFFFFFFFFFFFFFFF DUP2 GT ISZERO PUSH2 0x801 JUMPI PUSH2 0x800 PUSH2 0xCFC JUMP JUMPDEST JUMPDEST PUSH2 0x80D DUP6 DUP3 DUP7 ADD PUSH2 0x72E JUMP JUMPDEST SWAP2 POP POP SWAP3 POP SWAP3 SWAP1 POP JUMP JUMPDEST PUSH1 0x0 PUSH1 0x20 DUP3 DUP5 SUB SLT ISZERO PUSH2 0x82D JUMPI PUSH2 0x82C PUSH2 0xD01 JUMP JUMPDEST JUMPDEST PUSH1 0x0 PUSH2 0x83B DUP5 DUP3 DUP6 ADD PUSH2 0x78A JUMP JUMPDEST SWAP2 POP POP SWAP3 SWAP2 POP POP JUMP JUMPDEST PUSH2 0x84D DUP2 PUSH2 0xAFC JUMP JUMPDEST DUP3 MSTORE POP POP JUMP JUMPDEST PUSH2 0x85C DUP2 PUSH2 0xB4B JUMP JUMPDEST DUP3 MSTORE POP POP JUMP JUMPDEST PUSH1 0x0 PUSH2 0x86D DUP3 PUSH2 0xAAC JUMP JUMPDEST PUSH2 0x877 DUP2 DUP6 PUSH2 0xAB7 JUMP JUMPDEST SWAP4 POP PUSH2 0x887 DUP2 DUP6 PUSH1 0x20 DUP7 ADD PUSH2 0xB6C JUMP JUMPDEST PUSH2 0x890 DUP2 PUSH2 0xD06 JUMP JUMPDEST DUP5 ADD SWAP2 POP POP SWAP3 SWAP2 POP POP JUMP JUMPDEST PUSH1 0x0 PUSH2 0x8A8 PUSH1 0x15 DUP4 PUSH2 0xAB7 JUMP JUMPDEST SWAP2 POP PUSH2 0x8B3 DUP3 PUSH2 0xD17 JUMP JUMPDEST PUSH1 0x20 DUP3 ADD SWAP1 POP SWAP2 SWAP1 POP JUMP JUMPDEST PUSH1 0x0 PUSH2 0x8CB PUSH1 0xF DUP4 PUSH2 0xAB7 JUMP JUMPDEST SWAP2 POP PUSH2 0x8D6 DUP3 PUSH2 0xD40 JUMP JUMPDEST PUSH1 0x20 DUP3 ADD SWAP1 POP SWAP2 SWAP1 POP JUMP JUMPDEST PUSH1 0x0 PUSH2 0x8EE PUSH1 0x1A DUP4 PUSH2 0xAB7 JUMP JUMPDEST SWAP2 POP PUSH2 0x8F9 DUP3 PUSH2 0xD69 JUMP JUMPDEST PUSH1 0x20 DUP3 ADD SWAP1 POP SWAP2 SWAP1 POP JUMP JUMPDEST PUSH1 0x0 PUSH2 0x911 PUSH1 0xD DUP4 PUSH2 0xAB7 JUMP JUMPDEST SWAP2 POP PUSH2 0x91C DUP3 PUSH2 0xD92 JUMP JUMPDEST PUSH1 0x20 DUP3 ADD SWAP1 POP SWAP2 SWAP1 POP JUMP JUMPDEST PUSH2 0x930 DUP2 PUSH2 0xB41 JUMP JUMPDEST DUP3 MSTORE POP POP JUMP JUMPDEST PUSH1 0x0 PUSH1 0x20 DUP3 ADD SWAP1 POP PUSH2 0x94B PUSH1 0x0 DUP4 ADD DUP5 PUSH2 0x844 JUMP JUMPDEST SWAP3 SWAP2 POP POP JUMP JUMPDEST PUSH1 0x0 PUSH1 0x60 DUP3 ADD SWAP1 POP PUSH2 0x966 PUSH1 0x0 DUP4 ADD DUP7 PUSH2 0x844 JUMP JUMPDEST DUP2 DUP2 SUB PUSH1 0x20 DUP4 ADD MSTORE PUSH2 0x978 DUP2 DUP6 PUSH2 0x862 JUMP JUMPDEST SWAP1 POP PUSH2 0x987 PUSH1 0x40 DUP4 ADD DUP5 PUSH2 0x853 JUMP JUMPDEST SWAP5 SWAP4 POP POP POP POP JUMP JUMPDEST PUSH1 0x0 PUSH1 0x20 DUP3 ADD SWAP1 POP DUP2 DUP2 SUB PUSH1 0x0 DUP4 ADD MSTORE PUSH2 0x9A8 DUP2 PUSH2 0x89B JUMP JUMPDEST SWAP1 POP SWAP2 SWAP1 POP JUMP JUMPDEST PUSH1 0x0 PUSH1 0x20 DUP3 ADD SWAP1 POP DUP2 DUP2 SUB PUSH1 0x0 DUP4 ADD MSTORE PUSH2 0x9C8 DUP2 PUSH2 0x8BE JUMP JUMPDEST SWAP1 POP SWAP2 SWAP1 POP JUMP JUMPDEST PUSH1 0x0 PUSH1 0x20 DUP3 ADD SWAP1 POP DUP2 DUP2 SUB PUSH1 0x0 DUP4 ADD MSTORE PUSH2 0x9E8 DUP2 PUSH2 0x8E1 JUMP JUMPDEST SWAP1 POP SWAP2 SWAP1 POP JUMP JUMPDEST PUSH1 0x0 PUSH1 0x20 DUP3 ADD SWAP1 POP DUP2 DUP2 SUB PUSH1 0x0 DUP4 ADD MSTORE PUSH2 0xA08 DUP2 PUSH2 0x904 JUMP JUMPDEST SWAP1 POP SWAP2 SWAP1 POP JUMP JUMPDEST PUSH1 0x0 PUSH1 0x20 DUP3 ADD SWAP1 POP PUSH2 0xA24 PUSH1 0x0 DUP4 ADD DUP5 PUSH2 0x927 JUMP JUMPDEST SWAP3 SWAP2 POP POP JUMP JUMPDEST PUSH1 0x0 PUSH2 0xA34 PUSH2 0xA45 JUMP JUMPDEST SWAP1 POP PUSH2 0xA40 DUP3 DUP3 PUSH2 0xBD1 JUMP JUMPDEST SWAP2 SWAP1 POP JUMP JUMPDEST PUSH1 0x0 PUSH1 0x40 MLOAD SWAP1 POP SWAP1 JUMP JUMPDEST PUSH1 0x0 PUSH8 0xFFFFFFFFFFFFFFFF DUP3 GT ISZERO PUSH2 0xA6A JUMPI PUSH2 0xA69 PUSH2 0xCBE JUMP JUMPDEST JUMPDEST PUSH1 0x20 DUP3 MUL SWAP1 POP PUSH1 0x20 DUP2 ADD SWAP1 POP SWAP2 SWAP1 POP JUMP JUMPDEST PUSH1 0x0 PUSH8 0xFFFFFFFFFFFFFFFF DUP3 GT ISZERO PUSH2 0xA96 JUMPI PUSH2 0xA95 PUSH2 0xCBE JUMP JUMPDEST JUMPDEST PUSH2 0xA9F DUP3 PUSH2 0xD06 JUMP JUMPDEST SWAP1 POP PUSH1 0x20 DUP2 ADD SWAP1 POP SWAP2 SWAP1 POP JUMP JUMPDEST PUSH1 0x0 DUP2 MLOAD SWAP1 POP SWAP2 SWAP1 POP JUMP JUMPDEST PUSH1 0x0 DUP3 DUP3 MSTORE PUSH1 0x20 DUP3 ADD SWAP1 POP SWAP3 SWAP2 POP POP JUMP JUMPDEST PUSH1 0x0 PUSH2 0xAD3 DUP3 PUSH2 0xB41 JUMP JUMPDEST SWAP2 POP PUSH2 0xADE DUP4 PUSH2 0xB41 JUMP JUMPDEST SWAP3 POP DUP3 DUP3 LT ISZERO PUSH2 0xAF1 JUMPI PUSH2 0xAF0 PUSH2 0xC02 JUMP JUMPDEST JUMPDEST DUP3 DUP3 SUB SWAP1 POP SWAP3 SWAP2 POP POP JUMP JUMPDEST PUSH1 0x0 PUSH2 0xB07 DUP3 PUSH2 0xB21 JUMP JUMPDEST SWAP1 POP SWAP2 SWAP1 POP JUMP JUMPDEST PUSH1 0x0 DUP2 SWAP1 POP PUSH2 0xB1C DUP3 PUSH2 0xDBB JUMP JUMPDEST SWAP2 SWAP1 POP JUMP JUMPDEST PUSH1 0x0 PUSH20 0xFFFFFFFFFFFFFFFFFFFFFFFFFFFFFFFFFFFFFFFF DUP3 AND SWAP1 POP SWAP2 SWAP1 POP JUMP JUMPDEST PUSH1 0x0 DUP2 SWAP1 POP SWAP2 SWAP1 POP JUMP JUMPDEST PUSH1 0x0 PUSH2 0xB56 DUP3 PUSH2 0xB0E JUMP JUMPDEST SWAP1 POP SWAP2 SWAP1 POP JUMP JUMPDEST DUP3 DUP2 DUP4 CALLDATACOPY PUSH1 0x0 DUP4 DUP4 ADD MSTORE POP POP POP JUMP JUMPDEST PUSH1 0x0 JUMPDEST DUP4 DUP2 LT ISZERO PUSH2 0xB8A JUMPI DUP1 DUP3 ADD MLOAD DUP2 DUP5 ADD MSTORE PUSH1 0x20 DUP2 ADD SWAP1 POP PUSH2 0xB6F JUMP JUMPDEST DUP4 DUP2 GT ISZERO PUSH2 0xB99 JUMPI PUSH1 0x0 DUP5 DUP5 ADD MSTORE JUMPDEST POP POP POP POP JUMP JUMPDEST PUSH1 0x0 PUSH1 0x2 DUP3 DIV SWAP1 POP PUSH1 0x1 DUP3 AND DUP1 PUSH2 0xBB7 JUMPI PUSH1 0x7F DUP3 AND SWAP2 POP JUMPDEST PUSH1 0x20 DUP3 LT DUP2 EQ ISZERO PUSH2 0xBCB JUMPI PUSH2 0xBCA PUSH2 0xC60 JUMP JUMPDEST JUMPDEST POP SWAP2 SWAP1 POP JUMP JUMPDEST PUSH2 0xBDA DUP3 PUSH2 0xD06 JUMP JUMPDEST DUP2 ADD DUP2 DUP2 LT PUSH8 0xFFFFFFFFFFFFFFFF DUP3 GT OR ISZERO PUSH2 0xBF9 JUMPI PUSH2 0xBF8 PUSH2 0xCBE JUMP JUMPDEST JUMPDEST DUP1 PUSH1 0x40 MSTORE POP POP POP JUMP JUMPDEST PUSH32 0x4E487B7100000000000000000000000000000000000000000000000000000000 PUSH1 0x0 MSTORE PUSH1 0x11 PUSH1 0x4 MSTORE PUSH1 0x24 PUSH1 0x0 REVERT JUMPDEST PUSH32 0x4E487B7100000000000000000000000000000000000000000000000000000000 PUSH1 0x0 MSTORE PUSH1 0x21 PUSH1 0x4 MSTORE PUSH1 0x24 PUSH1 0x0 REVERT JUMPDEST PUSH32 0x4E487B7100000000000000000000000000000000000000000000000000000000 PUSH1 0x0 MSTORE PUSH1 0x22 PUSH1 0x4 MSTORE PUSH1 0x24 PUSH1 0x0 REVERT JUMPDEST PUSH32 0x4E487B7100000000000000000000000000000000000000000000000000000000 PUSH1 0x0 MSTORE PUSH1 0x32 PUSH1 0x4 MSTORE PUSH1 0x24 PUSH1 0x0 REVERT JUMPDEST PUSH32 0x4E487B7100000000000000000000000000000000000000000000000000000000 PUSH1 0x0 MSTORE PUSH1 0x41 PUSH1 0x4 MSTORE PUSH1 0x24 PUSH1 0x0 REVERT JUMPDEST PUSH1 0x0 DUP1 REVERT JUMPDEST PUSH1 0x0 DUP1 REVERT JUMPDEST PUSH1 0x0 DUP1 REVERT JUMPDEST PUSH1 0x0 DUP1 REVERT JUMPDEST PUSH1 0x0 DUP1 REVERT JUMPDEST PUSH1 0x0 PUSH1 0x1F NOT PUSH1 0x1F DUP4 ADD AND SWAP1 POP SWAP2 SWAP1 POP JUMP JUMPDEST PUSH32 0x6E6F7420612076616C6964206F72646572696420200000000000000000000000 PUSH1 0x0 DUP3 ADD MSTORE POP JUMP JUMPDEST PUSH32 0x20796F75206E6F74206F776E6572200000000000000000000000000000000000 PUSH1 0x0 DUP3 ADD MSTORE POP JUMP JUMPDEST PUSH32 0x6F7264657220697320616C726561647920207368697070656420000000000000 PUSH1 0x0 DUP3 ADD MSTORE POP JUMP JUMPDEST PUSH32 0x206E6F742070726F647563747300000000000000000000000000000000000000 PUSH1 0x0 DUP3 ADD MSTORE POP JUMP JUMPDEST PUSH1 0x4 DUP2 LT PUSH2 0xDCC JUMPI PUSH2 0xDCB PUSH2 0xC31 JUMP JUMPDEST JUMPDEST POP JUMP JUMPDEST PUSH2 0xDD8 DUP2 PUSH2 0xB41 JUMP JUMPDEST DUP2 EQ PUSH2 0xDE3 JUMPI PUSH1 0x0 DUP1 REVERT JUMPDEST POP JUMP INVALID LOG2 PUSH5 0x6970667358 0x22 SLT KECCAK256 PUSH24 0x52B98A6E6B3BCFC4FB4809037356DFFB762E6CF361E47626 CODESIZE PUSH29 0xDD797B0E4364736F6C6343000807003300000000000000000000000000 "
				},
				"gasEstimates": {
					"creation": {
						"codeDepositCost": "722400",
						"executionCost": "25019",
						"totalCost": "747419"
					},
					"external": {
						"advanceOrder(uint256)": "9460",
						"createOrder(string,uint256[])": "infinite",
						"orders(uint256)": "infinite",
						"owner()": "2514"
					}
				},
				"methodIdentifiers": {
					"advanceOrder(uint256)": "afe13a62",
					"createOrder(string,uint256[])": "6d9a65d8",
					"orders(uint256)": "a85c38ef",
					"owner()": "8da5cb5b"
				}
			},
			"storageLayout": {
				"storage": [
					{
						"astId": 21,
						"contract": "deps/proje/store.sol:Store",
						"label": "orders",
						"offset": 0,
						"slot": "0",
						"type": "t_array(t_struct(Order)17_storage)dyn_storage"
					},
					{
						"astId": 23,
						"contract": "deps/proje/store.sol:Store",
						"label": "owner",
						"offset": 0,
						"slot": "1",
						"type": "t_address"
					}
				],
				"types": {
					"t_address": {
						"encoding": "inplace",
						"label": "address",
						"numberOfBytes": "20"
					},
					"t_array(t_struct(Order)17_storage)dyn_storage": {
						"base": "t_struct(Order)17_storage",
						"encoding": "dynamic_array",
						"label": "struct Store.Order[]",
						"numberOfBytes": "32"
					},
					"t_array(t_uint256)dyn_storage": {
						"base": "t_uint256",
						"encoding": "dynamic_array",
						"label": "uint256[]",
						"numberOfBytes": "32"
					},
					"t_enum(Status)6": {
						"encoding": "inplace",
						"label": "enum Store.Status",
						"numberOfBytes": "1"
					},
					"t_string_storage": {
						"encoding": "bytes",
						"label": "string",
						"numberOfBytes": "32"
					},
					"t_struct(Order)17_storage": {
						"encoding": "inplace",
						"label": "struct Store.Order",
						"members": [
							{
								"astId": 8,
								"contract": "deps/proje/store.sol:Store",
								"label": "customer",
								"offset": 0,
								"slot": "0",
								"type": "t_address"
							},
							{
								"astId": 10,
								"contract": "deps/proje/store.sol:Store",
								"label": "zipCode",
								"offset": 0,
								"slot": "1",
								"type": "t_string_storage"
							},
							{
								"astId": 13,
								"contract": "deps/proje/store.sol:Store",
								"label": "products",
								"offset": 0,
								"slot": "2",
								"type": "t_array(t_uint256)dyn_storage"
							},
							{
								"astId": 16,
								"contract": "deps/proje/store.sol:Store",
								"label": "status",
								"offset": 0,
								"slot": "3",
								"type": "t_enum(Status)6"
							}
						],
						"numberOfBytes": "128"
					},
					"t_uint256": {
						"encoding": "inplace",
						"label": "uint256",
						"numberOfBytes": "32"
					}
				}
			},
			"userdoc": {
				"kind": "user",
				"methods": {},
				"version": 1
			}
		}
	}
}